:020000040000fa
:020000040001f9
:10e000005aa50000050100001500000001000000f5
:10e01000000100001000000000000000000a0000e5
:020000040000fa
:020000040001f9
:10f00000ac1e01000a1f0100b61e01002a210100ea
:10f01000d221010046210100602101008821010068
:10f020009e210100b8210100e8210100a422010075
:10f03000ca220100f0220100082301002023010060
:10f04000ce2c01000e220100242201003c220100ee
:10f050008e22010038230100582301007023010093
:10f060008623010082220100522201005e2201005b
:08f070006a2201007622010072
:020000040000fa
:020000040002f8
:100000008001780002003700815978000201e90080
:100010000200e000fcff3a000000060002000700ba
:100020000400be00000006006022b80006022000a6
:100030000000d0008180d2000482d2008582d200ec
:100040000000a0000202520083825a000300310027
:100050000202420083824a000000a1000603e90078
:10006000f3ff3a00000006000000fe00a1ed800052
:1000700080db210020c890000080fb00d028990080
:1000800051f8800031389000e40f500016003a001b
:1000900061309000e40f50000900320061309000a0
:1000a000e50f50000600320061309000e60f50006e
:1000b0000300320061309000e70f500005003a0065
:1000c000a1ed8000712891000040a100f028990066
:1000d00009003700a1ed8000712891000040a000c8
:1000e000f028990004003700a1ed800071289100ec
:1000f0000040a000f028990020a0210000d0880036
:1001000010002000000006000a00fa00889fbe00d0
:100110008004780001047800ea0f500004003a00df
:100120006000b800b0bf9f00c1bf9f00050037004e
:10013000eb0f500003003a006000b800b0bf9f0012
:10014000c1bf9f000043eb008242780066825700e7
:10015000ee8157006a815700880078000900780016
:100160009224020001000000804078000004e000ba
:100170003c0032002ff897000004e0003900320004
:10018000e20f54002800320005003e000800e000a5
:1001900013003200e10f540006003a001900370046
:1001a000e40f54000500320027003900ea0f540024
:1001b000020032008040eb002a00370011c0b3007b
:1001c0001fba9700afba97003fb99700cfb9970011
:1001d0000940780048080700804078002100370077
:1001e0008040eb001fba9700afba97003fb9970065
:1001f000cfb9970009407800e801070080407800f7
:100200001800370011c0b3001fba9700afba9700ab
:100210003fb99700cfb9970009407800df01070088
:10022000804078000f0037001fba9700afba9700e0
:100230003fb99700cfb997000940780094030700b1
:1002400080407800070037001fba9700afba9700c8
:100250003fb99700cfb99700094078006b090700b4
:10026000804078000180fb004f04be000080fa004f
:1002700000000600881f780000047800c82c0200e7
:1002800001000000e14f500002003a000800780031
:100290007c0407004f047800000006000200fa000a
:1002a000881f7800a1ed80000040eb00a058990065
:1002b000a0ed80004080910000a8a300070032005c
:1002c000e4805700300020001830020001000000d8
:1002d000ec0007000044780006003700e480570077
:1002e0002000200018300200010000007e000700fe
:1002f000004478000804e00076003200e0ff2f00a0
:10030000f1032000ec0707006102b800d7ed800080
:10031000e18f530014003a0056f8800056389000e0
:10032000e6389000e00f5000e08f58000e003200d9
:1003300056389000e638900002ee800013ee800000
:100340000401610003002000820f5000838f5800d9
:1003500005003a00463890000000e00002003a0034
:10036000a0ed800077389900a0ed800014889800f7
:1003700025889800a0ed800022ee800033ee8000fa
:10038000328898004388980000ee800011ee8000cb
:10039000040160000580600001002000c003dd0052
:1003a000060020006110b800000373008183730011
:1003b00040ee800051ee8000e00f5000e08f5800ca
:1003c0003f003a00a5ed800022ee800033ee800071
:1003d00000ee800011ee80000202600003806000e9
:1003e0006101b800c010dd00000020006121b800ec
:1003f0000200700083807000b08a9800c18a980063
:1004000022ee800033ee800000ee800011ee8000ce
:1004100002026000038060006101b800c010dd00ce
:10042000000020006121b80002007000838070008d
:10043000800f5300818f5b0026003a00a1ed800001
:1004400010c0b300a0589900220037008001eb00d3
:100450001200200084db210015c0b3004218dd002b
:100460000400400090089000000890000100200067
:10047000800f5300818f5b0005003a00a0ed8000e3
:100480003688980047889800a0ed8000255899008c
:10049000820178004210dd000400400090089000c6
:1004a00000089000e00f5000e08f58000900320073
:1004b0000201e800e90f510006003200e7ff3700b3
:1004c00040ee800051ee8000e00f5000e08f5800b9
:1004d000deff3a009b0007000880fb004f04780015
:1004e0000080fa0000000600881f780051f88000a4
:1004f00061309000e50f5000030032006130900041
:10050000e60f500029003a00803821000100200049
:100510003c2f020001000000dc82a9006e300200c6
:1005200001000000e402a800d842a900e422a800cb
:1005300010002000262f020001000000a00f200064
:10054000010020003c2f02000100000021a021003a
:100550004208200082087800202b2c0020d0880040
:1005600032d0880020a1200040d088002000200048
:100570007630020001000000c012200001002000bf
:100580003c2f02000100000010002000262f020076
:100590000100000000447800c0122000010020008b
:1005a0003c2f02000100000020003700e402a900f7
:1005b000d842a8000000eb00262f02000100000036
:1005c00080382100010020003c2f020001000000c3
:1005d000dc82a9006e30020001000000e402a800e5
:1005e000d842a900e422a80010002000262f020013
:1005f000010000000044780000712200010020008a
:100600003c2f02000100000021a021000000eb00af
:100610008008780020d0880030d0880040d0880042
:100620002000200076300200010000000880fb005e
:100630004f047800000006000200fa00a0ed8000e0
:100640004080910000a8a300060032008f80e900de
:1006500030002000183002000100000009000700ef
:10066000050037008f80e9002000200018300200cc
:10067000010000009cff07000080fb000080fa00e2
:1006800000000600881f7800803e20000100200046
:100690003c2f020001000000dc82a9006e30020045
:1006a00001000000e402a800d842a900e422a8004a
:1006b00010002000262f020001000000401f200033
:1006c000010020003c2f0200010000000000eb00b0
:1006d000262f020001000000803e200001002000c3
:1006e0003c2f02000100000021a021004208200050
:1006f00082087800202b2c0020d0880032d088007f
:1007000020a1200040d08800200020007630020088
:100710000100000010002000262f02000100000050
:100720000044780000192000010020003c2f020046
:10073000010000000884fb00080078004f047800e6
:10074000000006000200fa00a0ed80004080910049
:1007500000a8a300050032008f80e90030002000cf
:100760001830020001000000040037008f80e9000b
:10077000200020001830020001000000dc82a900e7
:100780006e300200010000000000eb00262f020086
:10079000010000000080fa00000006000400fa00da
:1007a000e0bf9f00f1bf9f000280fb0024a021005a
:1007b0004200dd00040040008001eb0003187800d7
:1007c000e6c0b30016409800eff8970001487800a3
:1007d0000240e8000080fb004200dd000400400011
:1007e00003187800e5c6b3001540980081cfb30028
:1007f0000148780002c0e8000080fb004200dd00f4
:10080000040040000318780016409800dff89700b5
:1008100001487800634041000080fb004200dd0099
:1008200004004000031878001540980071cfb30011
:1008300001487800644041000080fb004200dd0078
:10084000040040000318780016409800cff8970085
:1008500001487800654041000080fb004200dd0057
:1008600004004000031878001540980061cfb300e1
:1008700001487800664141000280fb000080fa00d8
:1008800000000600881f78006bff07000044780016
:100890000004e0001a0032000041eb0011002000cb
:1008a0000100780018fe0700004478000004e00012
:1008b000130032000041eb00110020003000200046
:1008c00011fe0700004478000004e0000c00320034
:1008d0000041eb0011002000200020000afe07006c
:1008e000004478000004e000050032000041eb0005
:1008f000110020004000200003fe070000447800a3
:1009000090ff07000880fb004f04780000000600fd
:10091000881f780048ff0700004478000004e000ca
:100920001a0032000041eb008000eb0010002000b4
:10093000f5fd0700004478000004e00013003200d9
:100940000041eb008000eb0030002000eefd0700ce
:10095000004478000004e0000c0032000041eb008d
:100960008000eb0020002000e7fd07000044780035
:100970000004e000050032000041eb008000eb00c5
:1009800040002000e0fd0700004478006dff0700f4
:100990000880fb004f04780000000600f88747003d
:1009a000889fbe008a9fbe008c9fbe008e1f78006d
:1009b00080f79f000206be000405be0091f79f006d
:1009c000d0ed8000e10f500017003a000ff09700c3
:1009d000e74f500014003a0051f880003138900081
:1009e000e40f500010003a0061309000e40f500016
:1009f00002003a0068064100e0864900613090003c
:100a0000e50f50000600320061309000e60f500004
:100a10000300320061309000e70f500002003a00fe
:100a20008c02b0000d80b0000c0145008d814d009e
:100a30008ff09700e1cf500013003a00a0ed800046
:100a4000702891000048a30018003200d0ed80000b
:100a5000e10f500015003a00a0ed8000f0889000f2
:100a600060889000800f5100818f59000f00360080
:100a7000a0ed8000f0889000608890000c05500088
:100a80008d855800090037000ff19700e24f5100a3
:100a900006003a001ff297000a01be000c00be00db
:100aa000cb06070000477800e70037000041eb0065
:100ab0000c00be0039ff07000080fb0021a02100d0
:100ac00076300200010000000ff09700e44f500064
:100ad000cc003a0050f88000410320008100400023
:100ae000e1b79f008004b000d0b79f00c800370076
:100af00002102000f2b79f00f00f2000800f550079
:100b0000e08f5d0001003e00fab79f001ff19700e3
:100b10000204e00028003a0023b0210042c0bf00d8
:100b20004500de0067006000e0af9f009202800099
:100b3000ff3ffc0042c0bf007f40600001ccb3001b
:100b40000140700042e0b700920288008000eb0094
:100b500070ed8000010878007fb097000000e00091
:100b6000090032000101780080ed800090007800db
:100b7000915978001008e8000201e800ffb09700e2
:100b8000828f5000f8ff3a003100200070ed8000a5
:100b90000108780092028000ff3ffc00efa8970058
:100ba000c508dd0042c0bf007f406000014070000a
:100bb00042e0b7009202880028a021007fb0970091
:100bc0000001d100030020008040eb000800780005
:100bd000243302000100000021b02100a1b79f00d2
:100be0007fb197000200e0006800320093003700f8
:100bf0003fb49700cfb497000000eb00f0af9f0028
:100c000021a021003fb197000280500060437c008a
:100c10001ff097000004e0000700320000c1eb0065
:100c20008ff09700e4cf500030003a005fb097009b
:100c30001041780006003700afb0970031417800ce
:100c4000a1b79f000ff09700e44f500027003a0033
:100c5000efb097009181fb0054f8800004309000c1
:100c600094309000880f5000898f580003003a009c
:100c700024309000b4309000808171000341610005
:100c8000034363000430900094309000880f5000bc
:100c9000898f58001a003a0024309000b430900038
:100ca00000c0ea0080426100d0ed8000e10f5000fa
:100cb00006003a0044319000d43190002430900076
:100cc000b43090000000610006003700443090000e
:100cd000d430900024319000b43190000080ea00bc
:100ce0000200600000c17200050037000ff097009d
:100cf000e34f500002003a006f4363006f41610010
:100d0000824f53000f0032000fb097009fb0970042
:100d10000000440081804c0080b79f0091b79f0085
:100d20000683fb00070020000282fb000500200074
:100d30000001be000ff097006a2b020001000000c6
:100d40000047eb00efb097008100e800e1b79f009b
:100d50005fb197000201e800d2b79f006104440030
:100d6000e0844c007fa897000000e800f0af9f00ef
:100d7000ffb09700808f5000020032000e04e000a8
:100d80009fff3a00b8b79f00c9b79f007fb1970097
:100d90006114b8000c0644008d864c000041eb0045
:100da0000c00be007dfe07000080fb0021a021009a
:100db00076300200010000000805550089855d00bd
:100dc0000e04e00007003200e00f5500e08f5d00e8
:100dd00004003200b02c0200010000000004e0001a
:100de00043ff3200b02c0200010000000004e000cc
:100df00015003200aa2c0200010000000047eb00a1
:100e0000110037000000eb00e0b79f00d0b79f0053
:100e10001ec0b300e00f5500e08f5d00f1ff32000f
:100e20008cb79f009db79f006000b800b0b79f00cf
:100e3000c1b79f001ec0b300e6ff37000e04e000fc
:100e40006bff3a00d1ff37000e80fb004f077800a0
:100e50004f06be004f05be004f04be008f01b1001b
:100e600000000600881f7800f3fd070000447800aa
:100e7000e14f500082003a000041eb00a100200049
:100e800020002000a0fc070000447800e14f500043
:100e90003a003a000041eb00310020001000200031
:100ea00099fc070000447800e14f500066003a00ca
:100eb0000041eb00310020004000200092fc0700c0
:100ec00000447800e14f500066003a000041eb001a
:100ed00031002000010078008bfc070000447800fe
:100ee000e14f500066003a000041eb002100200075
:100ef0001000200084fc070000447800e14f5000ff
:100f00005f003a000041eb00210020000100780062
:100f10007dfc070000447800e14f500058003a0083
:100f20000041eb008000eb001000200076fc070081
:100f300000447800e14f500051003a000041eb00be
:100f40008000eb00200020006ffc070000447800c8
:100f5000e14f50004a003a00bf0207000044780009
:100f6000e14f500046003a000041eb008000eb00ea
:100f70004000200064fc070000447800e14f54006a
:100f80003f003a00d0ed8000e10f500030003a0001
:100f900051f8800061309000e40f500009003200e9
:100fa00061309000e50f5000060032006130900083
:100fb000e60f50000300320061309000e70f500050
:100fc00007003a0012c0b30031002000700020007a
:100fd0004dfc070000447800e14f500028003a0023
:100fe0000041eb00210020007000200046fc0700bb
:100ff00000447800e14f500021003a000041eb002e
:101000008000eb00700020003ffc070000447800e7
:10101000e14f50001a003a0051f880006130900012
:10102000e10f50000600320061309000e20f5000e6
:101030000300320061309000e30f500004003a00da
:101040005404070000447800e14f54000c003a00bb
:101050000041eb0021002000300020002afc0700a6
:1010600000447800e14f540005003a000041eb00d5
:101070008000eb003000200023fc070000447800d3
:10108000b0fd07000880fb004f0478000000060058
:10109000fc874700889fbe008a9fbe008c9fbe00d1
:1010a0008e1f7800004778000206be000404be00d0
:1010b00010c0b300c22c0200010000000040eb0091
:1010c000a0df9f0080f79f000c0544008d854c0039
:1010d000d0ed8000e10f50001b003a00e74f5700b1
:1010e00019003a0051f8800031389000e40f5000a8
:1010f00053003a0061309000e40f500004003a00c1
:1011000068064600e0864e000805460089854e00c8
:1011100061309000e50f5000060032006130900011
:10112000e60f50000300320061309000e70f5000de
:1011300043003a008c02b0000d80b0000805460064
:1011400089854e003e003700e24f570005003a0007
:101150000042eb000801be000c00be007f0107004a
:10116000c1003700ea4f570003003a000040eb008f
:1011700033030700bc003700e44f5700270032005c
:1011800005003e00e14f570008003200e34f5700d2
:1011900031003a001b003700e74f570028003200ab
:1011a000ea4f57002c003a001c00370040ef800047
:1011b0006102b80080db210000c090000084fb00c9
:1011c000a0ed8000702891000048a30027003200a5
:1011d000d0ed8000e10f500024003a00a0ed800027
:1011e000f088900060889000800f5500818f5d002e
:1011f0001e003600a0ed8000608d9000f08d900004
:101200001a00370080ef80006102b80080db210007
:1012100030c090000084fb001400370030c0b300e1
:10122000c22c02000100000070ef80006102b800d3
:1012300080db210020c090000084fb000b00370001
:1012400040ef80006102b80080db210000c0900008
:101250000084fb000500370040ef80006102b80009
:1012600080db210000c090000084fb00e8e79f00c5
:1012700082fd2f000f0141000400be00dc2e0200a1
:1012800001000000afda97008581fb004219dd0004
:1012900021a021000000eb0000b1780054f880008c
:1012a00064309000e50f500003003200643090007d
:1012b000e60f500005003a004219dd0041a0210070
:1012c000f0e7280000b17800040037004219dd0083
:1012d00041a0210060ea280000b178000540e80044
:1012e000a0df9f008081fb004219dd0021a02100ca
:1012f0000000eb0000b1780064309000e50f500072
:101300000300320064309000e60f500005003a0000
:101310004219dd0041a02100f047280000b178000b
:10132000040037004219dd0041a02100604a280076
:1013300000b1780005c0e800a0df9f008081fb00bd
:101340004219dd0021a021000000eb0000b178006f
:1013500064309000e50f50000300320064309000cc
:10136000e60f500005003a004219dd0041a02100bf
:10137000f0c7290000b17800040037004219dd00f1
:1013800041a0210060ca290000b1780021a02100fd
:1013900063c042000080fb004200dd0032082000f4
:1013a00002b0780064c04200a0df9f000080fb0014
:1013b00076300200010000006140b80090b79f0045
:1013c000a1b79f000e80fb00c0af9f000040eb0064
:1013d000a0df9f00ecaf9f00fdaf9f00eab79f002a
:1013e000fbb79f008c0f55008d8f5d000e003600ff
:1013f00000447800f22e0200010000002fd8970070
:101400000080fb0021a021007630020001000000d6
:10141000a8df9f006fa89700ffa89700800f5500d6
:10142000818f5d00f3ff3e000040eb00c22c020004
:1014300001000000f22e02000100000021a02100a6
:101440001008200080087800907e200020d08800be
:1014500018c0b300a8df9f00100020007630020003
:1014600001000000084078000080fb004f07780072
:101470004f06be004f05be004f04be00cf01b100b5
:10148000000006000600fa00889fbe008a9fbe008a
:101490008c9fbe008005780020049000b00490006e
:1014a00020419000604e90000280fb004200dd0071
:1014b00021a021000100400011082000011878003f
:1014c000917e2000010878008246e8000c80fb0035
:1014d0000100200080bf9f0091bf9f000001be005f
:1014e0000800be000e000200010000000045780068
:1014f0000004e000170032000080fb000100200023
:101500000000540081805c00a0059800b10598009f
:101510000d417800a1fc0700004278008041eb00fb
:1015200025a021000081eb00d10020000480fb00f9
:101530004200dd000500400012009800010878001c
:101540000442e80083c1e800834f550006003600de
:10155000f6ff37000d4178000800be008ffc070041
:10156000004278008041eb0042c0bf004500de0031
:1015700067006000f0b79f0092028000ff3ffc0010
:1015800042c0bf007f40600001ccb300014070004a
:1015900042e0b7009202880070ed80000008eb0086
:1015a0008ccf51001d00310028a021000c80fb00d1
:1015b0008083e9008482fb0081ed80004228dd0009
:1015c000080340000681e800110078001049780007
:1015d0009108e80080ed800090007800914078004c
:1015e000114198001008e8000380fb00870f5000ad
:1015f00003003a00f0002000000b780003003700e1
:10160000c228dd00d000200080307c000442e800c9
:1016100083c1e800834f5600e6ff3e003100200002
:1016200070ed80000108780092028000ff3ffc000e
:10163000ffb09700c508dd0042c0bf007f406000da
:101640000140700042e0b700920288000480fb0075
:101650004200dd0022a021000108200001307900b5
:101660002b009000bb0090000fb997009fb9970026
:101670000200400083804800a0059800b105980052
:101680000440e800a04598004f06be004f05be008c
:101690004f04be000080fa0000000600889fbe00d4
:1016a0008a1f78000004be00020578000040eb00ad
:1016b000c22c02000100000040ef80000100200069
:1016c0000001eb00dc2e0200010000000040eb00f6
:1016d0003f080700004178000800be002ffc07000b
:1016e0008080fb0028a02100c208dd008880400027
:1016f000f2002000821878008a0878008040e80014
:101700008180fb00c208dd000208200082307c00de
:1017100000c0e8000080fb008800780076300200fe
:1017200001000000f22e020001000000100820005d
:10173000000c7800907e200020d08800880078007f
:101740001000200076300200010000001000200090
:101750004f0578004f04be0000000600889fbe00c1
:101760008a9fbe008c1f7800044678000205400066
:10177000838548006044b8000b00370000c1eb00cf
:101780000c04e00004003a0081ed800011007800b4
:1017900030417800800878000800be00140007007f
:1017a00061044400e0844c00b02c02000100000001
:1017b0000004e00003003a008a0f54008b8f5c00a5
:1017c000eeff3900b02c0200010000000080fb0099
:1017d0000000ea004f00de000004a2000080fb00d1
:1017e0004f0678004f05be004f04be000000060003
:1017f0000200fa00889fbe008a1f78000004be0025
:10180000024578000040eb005f08070000417800c7
:101810000800be0085080700804278000080fb00b9
:1018200023a021004200dd00030040000001eb0086
:1018300002187800e1c0b300114098000a4878000f
:101840000540e8008080fb004208dd000300400006
:101850000218780000017800e0c6b300104198003b
:1018600054f8800064309000e50f500003003a0007
:1018700010c6b300004978000c00370064309000b7
:10188000e60f500005003a004209dd0041a02100aa
:1018900030c7b30000f17800040037004209dd00d2
:1018a00041a0210080cab30000f1780005c0e80023
:1018b0008081fb004219dd0021a021000000eb0027
:1018c00000b1780064309000e50f50000300320052
:1018d00064309000e60f500005003a004219dd0028
:1018e00041a02100f047280000b178000400370033
:1018f0004219dd0041a02100604a280000b17800b3
:1019000063c04200c5080700004278008081fb00e8
:101910004219dd0021a021000000eb0000b1780099
:1019200051f8800061309000e50f50000300320054
:1019300061309000e60f500005003a004219dd00ca
:1019400041a02100f027280000b1780004003700f2
:101950004219dd0041a02100602a280000b1780072
:101960000440e8000080fb0021a021007630020046
:10197000010000008004eb0019d0880051f88000bd
:1019800061309000e50f500003003200613090009c
:10199000e60f500003003a00f007250020d0880031
:1019a00002003700600a250020d088002aa021000c
:1019b00039d08800e0c6b3007045980050cfb3001e
:1019c0006045980059d0880069d088008a00780066
:1019d00030002000763002000100000068805700cf
:1019e000d80207004fb8970062046000e2ff3a0097
:1019f000d00c2000010020003c2f0200010000005c
:101a0000080d780051f8800061309000e50f50001b
:101a10000300320061309000e60f500003003a00ee
:101a2000f047290020d0880002003700604a2900d2
:101a300020d0880021a02100100020007630020074
:101a400001000000100020004f0578004f04be0088
:101a50000080fa00000006000e00fa00889fbe0019
:101a60008a9fbe008c1f78006000b800f0b79f000e
:101a700081bf9f00a0ed800020149000b014900062
:101a8000884578000043eb00864278007882570052
:101a9000f68157007281570021002000400020008d
:101aa0009224020001000000004578000fe8970032
:101ab0000004e000b300320008407800622e02000b
:101ac000010000002ca0210042c0bf000080fb00ec
:101ad0004500de00a0bf9f0092028000ff3ffc0097
:101ae00042c0bf007f40600001ccb30001407000e5
:101af00042e0b700920288008000eb0070ed8000a9
:101b0000010878000804e000090032008c01780028
:101b10000141780080ed80009000780091597800b4
:101b20001008e8000241e80082cf5500f9ff3a00b2
:101b30003100200070ed80000108780092028000e2
:101b4000ff3ffc00afb89700c508dd0042c0bf00f2
:101b50007f4060000140700042e0b70092028800c0
:101b60000043eb008642780078825700f6815700e8
:101b70007281570021002000a00020009224020062
:101b800001000000004578000004e0007a00320007
:101b900042c0bf000080fb004500de00a0bf9f00e8
:101ba00092028000ff3ffc0042c0bf007f40600007
:101bb00001ccb3000140700042e0b70092028800ff
:101bc0008000eb0070ed8000010878000b04e0005d
:101bd00026003200014478006033b80080ed8000b8
:101be0001008e800860246001541780054f880008d
:101bf0000430900094309000860f5000878f58007a
:101c000015003a0024309000b430900000c0ea0083
:101c1000804a6100d0ed8000e10f500006003a00dc
:101c200044319000d431900024309000b4309000c2
:101c3000004061000700370050f8800040319000fc
:101c4000d0319000b03090002030900002c1ea0006
:101c500000406100954a70000844e80061034300b9
:101c6000e0834b0088cf5500dcff3a0031002000b4
:101c700070ed80000108780092028000ff3ffc00b8
:101c8000afb89700c508dd0042c0bf007f406000cc
:101c90000140700042e0b700920288000043eb0070
:101ca0008642780078825700f6815700728157008b
:101cb00021002000a000200092240200010000006a
:101cc0000045780042c0bf000080fb004500de00f8
:101cd00090bf9f0092028000ff3ffc0042c0bf0007
:101ce0007f40600001ccb3000140700042e0b700cb
:101cf000920288008000eb0070ed800001087800ff
:101d00000b04e000090032000c01780080ed800037
:101d100010007800324878008140e80080ed8000b3
:101d20001008e80081cf5500f8ff3a00310020008c
:101d300070ed80000108780092028000ff3ffc00f7
:101d40009fb89700c508dd0042c0bf007f4060001b
:101d50000140700042e0b700920288000a04e000ef
:101d60000500320012c0b30021002000a0002000b6
:101d7000e5f80700004578000b407800902e02003f
:101d8000010000000a80fb004f0678004f05be00ee
:101d90004f04be000080fa000000060053f88000e7
:101da0000080fb00000040004203200000014100d1
:101db000628179008004b000608079000281ea00cd
:101dc00082087000000006008103780054f880004b
:101dd00004319000943190008301d1000281d3003e
:101de0008080fb008182400041032000858040000c
:101df00061037a00824f500010003a0004319000d5
:101e0000943190006128b900820f5000838f5800f0
:101e100004003a0024309000b430900000007300b9
:101e20000400370024309000b43090004800dd00fa
:101e3000000073000080ea00970b700000000600ad
:101e4000f0874700889fbe008a9fbe008c9fbe001f
:101e50008e1f780080f79f00a0ed80002014900076
:101e6000b01490008904d1000884d30088ef9f004b
:101e70000040eb00c22c02000100000070ef800067
:101e8000010020000001eb00dc2e02000100000038
:101e90002ba021000005eb008a0d7800f010200037
:101ea00020d0880010c0b300800607008080fb00af
:101eb000c208dd008b8040008a18780002f02e00f6
:101ec000820878008040e8008180fb00c208dd00c5
:101ed0008b8040008a18780002802f0082087800ea
:101ee00000c0e8000080fb008b0078007630020024
:101ef000010000000047eb000804e00039003a0050
:101f00009d003700e44f570036003600e54f57007c
:101f100028003a000ff197000204e00007003200a9
:101f2000fa8057000e4078009cff0700fc805700a5
:101f300060c0b30099ff07001400370080ed8000f7
:101f40009000780091407800e1e79f001008e800d9
:101f500080ed80009000780091407800f1e79f00cc
:101f60001008e80080ed8000900078009140780033
:101f7000c1e79f001008e80080ed80009000780025
:101f8000ffb19700914978001008e8000041eb008c
:101f9000c00020000103200000fa07008040780004
:101fa000c200200003032000d2b79f00e3b79f00c8
:101fb00029003700bfb19700a3b79f000041eb0095
:101fc000a000200001032000f4f907008040780001
:101fd000a200200003032000d2b79f00e3b79f00b8
:101fe0001d0037008ff197000304e0000400320069
:101ff000fc8057000e40780068ff07000a00370099
:1020000080ed80009000780091407800c1e79f004b
:102010001008e80080ed8000900078009140780082
:10202000d1e79f001008e8000e80fb000000400090
:10203000cf80de00020020000303200000004100ea
:1020400081804900d0b79f00e1b79f000041eb00bd
:10205000d2f90700804078000180fb0028a0210011
:102060004200dd0008004000fc0020000c18780051
:1020700080c6eb001d4098007c815700f2b79f009e
:1020800032487800f2b79f000140e8000080fb0072
:102090004200dd000b0820000b307c0001c0e8008e
:1020a0000080fb008800780076300200010000000c
:1020b000f22e0200010000001a0820000a0c78002d
:1020c000997e200029d088005fb19700efb197007a
:1020d00061004100e080490012c0b300aff9070081
:1020e0008080fb00c208dd00888040008c187800ea
:1020f000ffb1970093417800934098008d48780095
:102100008040e8008180fb00c208dd008b307c004d
:1021100000c0e8000080fb008800780076300200f4
:1021200001000000f22e0200010000000a0c7800fd
:1021300029d088000000eb0030d0880040d0880013
:1021400050d0880060d0880070d0880080d088008f
:1021500090d08800a0d0880088007800500020002f
:1021600076300200010000000e47e8000fe89700fb
:102170008e4f500063ff3e00100020004f07780094
:102180004f06be004f05be004f04be000f01b10058
:10219000000006000400fa00881f7800a0ed80000f
:1021a000f0889000608890008100d1000080d3000a
:1021b000d0bf9f00e1bf9f003ff897000084fb0065
:1021c0002ff897000081fb0000f02e000001710045
:1021d000800220000102200030fd07000004e00022
:1021e0000400320008017800a00220000102200053
:1021f0002afd07000080fb004f0478000080fa00f1
:10220000000006000200fa00881f7800e4805700f2
:1022100020002000183002000100000006f907002d
:10222000004478000004e0001a0032000041eb0096
:102230004100200010002000b3f7070000447800a0
:102240000004e000130032000041eb0041002000d8
:1022500030002000acf70700004478000004e000e4
:102260000c0032000041eb00410020002000200063
:10227000a5f70700004478000004e00005003200e4
:102280000041eb0041002000010078009ef70700ac
:10229000004478002bf90700e48057006fb89700de
:1022a00018300200010000000880fb004f04780095
:1022b0000080fa00000006000200fa000041eb0076
:1022c00036f907000080fb0021a0210076300200d3
:1022d0000100000012002000030020008040eb00fd
:1022e0000f80e90024330200010000007fb897004e
:1022f0000080fa0000000600889fbe008a9fbe0092
:102300008c9fbe000206be000404be00e24f5000d7
:1023100005003a000401be000c00be00fb000700ef
:1023200080407800340037000041eb000c00be0014
:102330001af907000080fb0021a02100763002007e
:10234000010000000805be001c003700f03f20001f
:10235000800f5500e08f5d0003003e000a04be00c0
:102360006055b8000600370000c02f00f1ff2f00b5
:102370000a0540008b854800084020000900200025
:102380008901d1000881d30011c0b3000000eb0027
:1023900024330200010000000c0644008d864c002e
:1023a0000041eb000c00be00fcf807000080fb00c1
:1023b00021a021007630020001000000b02c0200b4
:1023c000010000000004e00003003a00e00f5500a7
:1023d000e08f5d00ddff3a00b02c0200010000003c
:1023e00011c0b3000004e00003003200aa2c020078
:1023f000010000008040eb000180fb004f06be00a2
:102400004f05be004f04be00000006000200fa00a7
:10241000010020000041eb008405070080427800a5
:102420008081fb004219dd0021a021000000eb00ab
:1024300000b1780054f8800064309000e50f50003f
:102440000300320064309000e60f500005003a00af
:102450004219dd0041a02100f007280000b17800fa
:10246000040037004219dd0041a02100600a280065
:1024700000b178000540e8000081fb00c210dd00db
:1024800020a02100808040008008eb006430900094
:10249000e50f500003003a00100625009000980058
:1024a0000c00370064309000e60f500005003a0041
:1024b0004211dd0041a021003007250000b1780065
:1024c000040037004211dd0041a02100800a2500f0
:1024d00000b1780005c0e8000080fb0021a02100c9
:1024e0004200dd00010040008001eb00031878008d
:1024f000e2c6b3001240980052cfb3000248780001
:1025000063c042000080fb004200dd00010040008b
:1025100003187800134098000348780064c0420014
:102520000080fb0076300200010000000f80e9000f
:1025300004000700eff897000180fb000080fa001c
:10254000000006000200fa002104200091407800fb
:10255000c508de00e7806000f1bf9f0093028000a5
:10256000ff3ffc002104200091407800ffc0600084
:1025700002ccb30082c070008000fd0042e0b700d2
:102580008000fd009302880071ed80008008eb0060
:10259000ae350200010000003100200070ed800027
:1025a0000108780092028000ff3ffc00ffb897000e
:1025b000c508dd0042c0bf007f40600001407000e0
:1025c00042e0b700920288000080fa000000060096
:1025d000889fbe008a9fbe008c9fbe008e1f780021
:1025e0000004be000205be00044778000000eb00b6
:1025f00010d0880051f8800061309000e50f500045
:102600000300320061309000e60f500003003a00f2
:10261000f0e7290020d088000200370060ea290096
:1026200020d088000000eb0030d08800613090009e
:10263000e50f50000300320061309000e60f5000bb
:1026400003003a00f0c7290040d08800020037009c
:1026500060ca290040d0880021a02100200020006d
:1026600076300200010000000a0044008b804c001c
:102670001bc0b300800f5400818f5c001d0031002f
:102680001bc0b3000006be0000c5eb000e04e00056
:1026900004003a0081ed8000110078003045780098
:1026a000800878000800780058ff0700804f550028
:1026b000090032000083fb00070020000a82fb00b3
:1026c000050020000801be0020c0b3006a2b0200f4
:1026d000010000008045eb0061044400e0844c00f0
:1026e0008c0f54008d8f5c00020032000b04e00060
:1026f000e5ff3a000b80fb004f0778004f06be0055
:102700004f05be004f04be0000000600889fbe00bb
:102710008a9fbe000004be000205be000040eb0020
:10272000990407000080fb0021a021007630020000
:10273000010000008a0f54008b8f5c000c003100f8
:102740000800780031ff070081ed800091007800db
:102750008048780080ed80001008e80061044400a3
:10276000e0844c00880f5500898f5d00f4ff3a002b
:10277000100020004f05be004f04be000000060000
:10278000881f7800acf70700004478000004e000e0
:102790001a00320012c0b3003100200010002000e7
:1027a00059f60700004478000004e00013003200ee
:1027b00012c0b300310020004000200052f6070094
:1027c000004478000004e0000c00320012c0b300a6
:1027d00031002000010078004bf60700004478002b
:1027e0000004e0000500320012c0b30031002000f8
:1027f0002000200044f6070000447800d1f70700cd
:102800000880fb004f04780000000600e4874700c2
:10281000889fbe008a9fbe008c9fbe008e1f7800de
:102820000205be000404be00e44f50000a0032005e
:1028300005003e00e24f50001c003200e34f500004
:1028400093003a001300370067405000e14f5000fa
:102850008f003e002600370051f880006130900064
:10286000e50f50000300320061309000e60f500089
:1028700005003a0040002000c10320008c01070041
:1028800010c0b300b200370010c0b3006cfd0700e9
:10289000af0037000401be0000002000010220004c
:1028a0009a02070010c0b300a900370051f8800059
:1028b00061309000e50f500003003200613090005d
:1028c000e60f500005003a0040002000c103200040
:1028d0003202070010c0b3009d00370014c0b300df
:1028e0000801be000a00be009cfb070098003700ec
:1028f00051f8800031389000e40f500010003a0089
:1029000061309000e40f500002003a006804420079
:10291000e0844a0061309000e50f5000060032006c
:1029200061309000e60f50000300320061309000eb
:10293000e70f500002003a008802b0000980b000a2
:10294000d0ed8000e10f50001a003a006130900095
:10295000e50f50000600320061309000e60f500095
:102960000300320061309000e70f500011003a0080
:1029700000002000010220004ffe07000006780042
:1029800020002000010220004bfe07008006780096
:10299000400020000102200047fe070000077800e9
:1029a000600020000102200043fe070080bf9f005e
:1029b000040037000086eb008c0678000c077800d6
:1029c0008cbf9f0051f8800061309000e50f5000ef
:1029d0000300320061309000e60f500005003a001d
:1029e0000801be000000200001022000470207008d
:1029f000030037000801be000a00be0043020700c2
:102a0000d0ed8000e10f500050003a0051f88000f6
:102a100061309000e50f50000600320061309000f8
:102a2000e60f50000300320061309000e70f5000c5
:102a300046003a000c01780000002000010220004e
:102a400016fb0700e14f500041003a000d017800ed
:102a5000200020000102200010fb0700e14f500081
:102a60003b003a000e0178004000200001022000e7
:102a70000afb0700e14f500035003a000fb99700fc
:102a8000600020000102200004fb07003000370036
:102a900051f8800061309000e50f500003003200d3
:102aa00061309000e60f500017003a00400020000f
:102ab000c1032000a300070080db210080c090003c
:102ac00000c2b30080cf50000800320000c4b30041
:102ad00080cf50000500320072002000030020006b
:102ae00000c8b30080cf5000020032004200200036
:102af0000300200040002000c10320001b0007004d
:102b000010c0b30012003700de2c020001000000ec
:102b10000004e0000700320050f88000200190001f
:102b2000b00190001000be00f801070010c0b30013
:102b3000070037000208200040002000c1032000e9
:102b4000b202070010c0b3000100370010c0b3008c
:102b50000080fb004f0778004f06be004f05be0007
:102b60004f04be004f00b10000000600e68747009a
:102b7000889fbe008a9fbe008c9fbe008e1f78007b
:102b8000f0b79f0081bf9f0061064100e0864900c9
:102b9000660032001a0020000047eb0028a0210048
:102ba000cb0020008004eb000041eb007fb09700d9
:102bb0008fb89700f9f607008080fb00c208dd009f
:102bc000888040008b18780042c0b3009240980083
:102bd000824878008040e8008180fb00c208dd0068
:102be0008880400089187800e2c0b30092409800c5
:102bf00052c0b3008248780080c0e8008180fb00aa
:102c0000c208dd008880400089187800e2c6b30061
:102c10009240980063cfb30083487800e3404000bf
:102c20008180fb00c208dd00888040008b1878009e
:102c30009a4098008a487800e44040008180fb0078
:102c4000c208dd008880400089187800e2c0b30027
:102c50009240980062c0b30082487800e54040008e
:102c60008180fb00c208dd00888040008918780060
:102c7000e2c6b3009240980083487800e6404000e6
:102c80008180fb00c208dd00888040008b1878003e
:102c9000724141009240980082487800e74040002d
:102ca0008180fb00c208dd00888040008918780020
:102cb0009940980089487800e84040008180fb00f6
:102cc000c208dd003208200082307c0069404000ec
:102cd0000080fb00880078007630020001000000d0
:102ce00090ef8000010020003c2f02000100000056
:102cf00010082000000c7800907e200020d0880072
:102d000088007800100020007630020001000000ea
:102d10000a0545000e47e8000e80fb000100200078
:102d2000800f5600818f5e009fff3e004f077800a6
:102d30004f06be004f05be004f04be006f00b1003d
:102d400000000600881f78000041eb0093f60700a2
:102d50008080fb0028a02100c208dd0088804000a0
:102d6000c40020008418780052c0b300924098003c
:102d7000824878008040e8008180fb00c208dd00c6
:102d8000888040008001eb0083187800e6c0b30023
:102d9000964098008248780080c0e8008180fb005f
:102da000c208dd008880400083187800e7c6b300c1
:102db0009740980065cfb30085487800e340400015
:102dc0008180fb00c208dd00888040008418780004
:102dd0009340980083487800e44040008180fb00e5
:102de000c208dd0088804000831878009640980073
:102df00062c0b30082487800e54040008180fb005b
:102e0000c208dd0088804000831878009740980051
:102e100085487800824040008180fb00c208dd00c8
:102e2000888040008418780002c8b300924098005f
:102e300082487800e74040008180fb00c208dd0046
:102e40008880400083187800934098008348780079
:102e5000e84040008180fb00c208dd00320820000d
:102e600082307c00694040000080fb0088007800d0
:102e7000763002000100000090ef80000100200089
:102e80003c2f02000100000010082000000c780018
:102e9000907e200020d0880088007800100020005c
:102ea00076300200010000004f04780000000600a8
:102eb000881f78000041eb0038f607008080fb0097
:102ec00028a02100c208dd0088804000c400200046
:102ed0008418780022c0b30092409800824878009d
:102ee0008040e8008180fb00c208dd00888040004f
:102ef0008001eb0083187800e7c0b300974098008a
:102f000052c0b3008248780080c0e8008180fb0096
:102f1000c208dd008880400083187800e6c6b30050
:102f20009640980065cfb30085487800e3404000a4
:102f30008180fb00c208dd00888040008418780092
:102f40009340980083487800e44040008180fb0073
:102f5000c208dd0088804000831878009740980000
:102f600062c0b30082487800e54040008180fb00e9
:102f7000c208dd00888040008318780096409800e1
:102f800085487800824040008180fb00c208dd0057
:102f9000888040008418780002c8b30092409800ee
:102fa00082487800e74040008180fb00c208dd00d5
:102fb0008880400083187800934098008348780008
:102fc000e84040008180fb00c208dd00320820009c
:102fd00082307c00694040000080fb00880078005f
:102fe000763002000100000090ef80000100200018
:102ff0003c2f02000100000010082000000c7800a7
:10300000907e200020d088008800780010002000ea
:1030100076300200010000004f0478000000060036
:10302000881f78008a9fbe009aef80000041eb0065
:10303000daf507008080fb0028a02100c208dd002f
:1030400088804000c40020008418780082c0b3004b
:1030500092409800824878008040e8008180fb0020
:10306000c208dd00888040008001eb0083187800f2
:10307000e7c0b3009740980052c0b3008248780080
:1030800080c0e8008180fb00c208dd00888040002d
:1030900083187800e6c6b3009640980065cfb30069
:1030a00085487800e34040008180fb00c208dd00d5
:1030b0008880400084187800934098008348780006
:1030c000e44040008180fb00c208dd0088804000b1
:1030d000831878009740980062c0b3008248780057
:1030e000e54040008180fb00c208dd008880400090
:1030f0008318780096409800854878008240400008
:103100008180fb00c208dd008880400084187800c0
:1031100002c8b3009240980082487800e74040001f
:103120008180fb00c208dd008880400083187800a1
:103130009340980083487800e84040008180fb007d
:10314000c208dd003208200082307c006940400067
:103150000080fb008800780076300200010000004b
:103160000b0020000a00be003c2f020001000000fe
:1031700010082000000c7800907e200020d08800ed
:103180008800780010002000763002000100000066
:103190004f05be004f04780000000600881f78002d
:1031a0000041eb007df507008080fb0028a0210096
:1031b000c208dd0088804000c40020008418780028
:1031c00042c0b30092409800824878008040e800f6
:1031d0008180fb00c208dd00888040008001eb0098
:1031e00083187800e7c0b3009740980052c0b3003e
:1031f0008248780080c0e8008180fb00c208dd00c2
:103200008880400083187800e6c6b3009640980096
:1032100065cfb30085487800e34040008180fb0023
:10322000c208dd0088804000841878009340980030
:1032300083487800e44040008180fb00c208dd0044
:1032400088804000831878009740980062c0b300df
:1032500082487800e54040008180fb00c208dd0024
:103260008880400083187800964098008548780050
:10327000824040008180fb00c208dd008880400061
:103280008418780002c8b300924098008248780001
:10329000e74040008180fb00c208dd0088804000dc
:1032a000831878009340980083487800e8404000f5
:1032b0008180fb00c208dd003208200082307c00e3
:1032c000694040000080fb008800780076300200f2
:1032d0000100000090ef8000010020003c2f020060
:1032e0000100000010082000000c7800907e2000f3
:1032f00020d088008800780010002000763002007e
:10330000010000004f04780000000600889fbe0006
:103310008a9fbe008c9fbe008e1f78000006be00f4
:103320000205be00e00f5100e08f5900b2003200ec
:1033300029a021000007eb000041eb000c00be00bb
:1033400016f50700804178008080fb004208dd0010
:10335000090040000008eb0052f880006230900045
:10336000e50f50000300320062309000e60f50007d
:1033700005003a004208dd0009004000f1a72600e0
:1033800011009800040037004208dd0009004000e9
:1033900061aa2600110098000340e8008080fb002d
:1033a0004208dd00090040000008eb006230900098
:1033b000e50f50000300320062309000e60f50002d
:1033c00005003a004208dd0009004000f1e728004e
:1033d00011009800040037004208dd000900400099
:1033e00061ea28001100980003c0e8008080fb001b
:1033f0004208dd00090040000008eb006230900048
:10340000e50f50000300320062309000e60f5000dc
:1034100005003a004208dd0009004000f18728005d
:1034200011009800040037004208dd000900400048
:10343000618a28001100980063c041008080fb0071
:103440004208dd00090040000008eb0062309000f7
:10345000e50f50000300320062309000e60f50008c
:1034600005003a004208dd0009004000f14728004d
:1034700011009800040037004208dd0009004000f8
:10348000614a28001100980064c04100e301070070
:10349000004478000081fb004210dd00090040007c
:1034a0000008eb0051f8800061309000e50f5000fb
:1034b0000300320061309000e60f500005003a0032
:1034c0004210dd0009004000f1272800110098009b
:1034d000040037004210dd0009004000612a280086
:1034e000110098000840e8000080fb00c200dd00e9
:1034f000898040008e1878009e4098008e487800a1
:1035000089007800763002000100000008c0e80061
:103510000080fb004200dd003108200001b07c008b
:10352000634044000080fb00890078007630020090
:1035300001000000a0ef8000803821000100200081
:103540003c2f02000100000010082000800c7800d1
:10355000907e200020d088003ed0880051f8800066
:1035600061309000e50f50000300320061309000a0
:10357000e60f500003003a00f027290040d08800f1
:1035800002003700602a290040d088005ed0880001
:1035900061309000e50f5000030032006130900070
:1035a000e60f500003003a00f0a7260060d0880024
:1035b0000200370060aa260060d0880021a0210008
:1035c000300020007630020001000000f0032000ef
:1035d000800f5500e08f5d00070036000a04b1003f
:1035e0000b80b1000c04b0000d80b000e00f55005e
:1035f000e08f5d0050ff3a004f0778004f06be0095
:103600004f05be004f04be0000000600881f780072
:1036100050f88000603090000041eb00e10f500056
:10362000260032000041eb0050002000c1032000c2
:103630005af40700004278008081fb004219dd0047
:1036400021a02100c000200000b1780051f88000c6
:1036500061309000e20f50000600320061309000af
:10366000e40f50000300320061309000e70f50007b
:1036700005003a004219dd0041a021000080eb0066
:1036800000b178000c00370061309000e30f50006b
:1036900005003a004219dd0041a02100a0102000e1
:1036a00000b17800040037004219dd0041a021007c
:1036b0001010200000b178000441e8004000200014
:1036c000c103200035f40700004278008081fb0030
:1036d0004219dd0021a02100c000200000b17800c7
:1036e00051f8800061309000e20f50000600320077
:1036f00061309000e40f5000030032006130900010
:10370000e70f500005003a004219dd0041a02100fa
:10371000f0f8280000b178000c003700613090000c
:10372000e30f500005003a004219dd0041a02100de
:10373000a018200000b17800040037004219dd0015
:1037400041a021000008200000b178000440e800fa
:103750000080fb0028a021004200dd00080040009e
:103760008000eb00011878001140980001487800b3
:1037700004c0e8000080fb004200dd0031082000aa
:1037800001307c00634042000080fb00880078002c
:10379000763002000100000090ef80000100200060
:1037a0003c2f02000100000010082000000c7800ef
:1037b000907e200020d08800880078001000200033
:1037c00076300200010000004f047800000006007f
:1037d0000042780050f88000603090006500500092
:1037e000e10f500018003e000480fb0023a02100e0
:1037f0004200dd00030040000001eb0002187800e9
:10380000f1e72800010878000440e8000080fb0090
:103810004200dd000300400002187800f147280054
:103820000108780004c0e8000080fb004200dd00d1
:103830000300400002187800f1c729000108780051
:1038400063404200170037000480fb0023a02100e2
:103850004200dd00030040000001eb000218780088
:1038600061ea2800010878000440e8000080fb00bd
:103870004200dd000300400002187800614a280081
:103880000108780004c0e8000080fb004200dd0071
:10389000030040000218780061ca2900010878007e
:1038a000634042000080fb000000060000427800f8
:1038b00050f880006030900065005000e10f50002b
:1038c00018003e000480fb0023a021004200dd0020
:1038d000030040000001eb0002187800f1e7280027
:1038e000010878000440e8000080fb004200dd0091
:1038f0000300400002187800f1c728000108780092
:1039000004c0e8000080fb004200dd00030040002e
:1039100002187800f147280001087800634042004f
:10392000170037000480fb0023a021004200dd00c7
:10393000030040000001eb000218780061ea280053
:10394000010878000440e8000080fb004200dd0030
:10395000030040000218780061ca280001087800be
:1039600004c0e8000080fb004200dd0003004000ce
:1039700002187800614a280001087800634042007c
:103980000080fb00000006000042780050f8800034
:103990006030900065005000e10f500011003e00c3
:1039a0000480fb0023a021004200dd000300400052
:1039b0000001eb0002187800f1e729000108780007
:1039c0000440e8000080fb004200dd0003004000ee
:1039d00002187800f1c729000108780004c0e80047
:1039e000100037000480fb0023a021004200dd000e
:1039f000030040000001eb000218780061ea290092
:103a0000010878000440e8000080fb004200dd006f
:103a1000030040000218780061ca290001087800fc
:103a200004c0e8000080fb00000006000400fa006b
:103a3000e0bf9f00f1bf9f000243780050f8800074
:103a400060309000e50f500003003200e60f500098
:103a50004b003a00250037000280fb0023a0210024
:103a60004200dd00030040000001eb000218780076
:103a7000e5c0b30015409800cff8970001487800e2
:103a80000640e8000080fb004200dd00030040002b
:103a900002187800e4c6b3001440980021c6b300b1
:103aa0000148780006c0e8000080fb004200dd000d
:103ab000030040000218780015409800dff89700d6
:103ac00001487800634043000080fb004200dd00b5
:103ad00003004000021878001440980031c6b3007b
:103ae0000148780064404300490037000280fb0031
:103af00023a021004200dd00030040000001eb0094
:103b000002187800e5c0b30015409800cff8970080
:103b1000014878000640e8000080fb004200dd001c
:103b20000300400002187800e4c6b3001440980077
:103b300041c7b3000148780006c0e8000080fb00e0
:103b40004200dd0003004000021878001540980094
:103b5000dff8970001487800634043000080fb00d5
:103b60004200dd0003004000021878001440980075
:103b700051c7b30001487800644043002400370077
:103b80000280fb0023a021004200dd000300400072
:103b90000001eb0002187800e5c0b3001540980062
:103ba000cff89700014878000640e8000080fb004d
:103bb0004200dd000300400002187800e4c6b300b4
:103bc0001440980091cab3000148780006c0e8008c
:103bd0000080fb004200dd00030040000218780076
:103be00015409800dff897000148780063404300d3
:103bf0000080fb004200dd00030040000218780056
:103c000014409800a1cab300014878006440430002
:103c10000080fb000080fa0000000600804378006e
:103c200050f880006030900065005000e10f5000b7
:103c300024003e000780fb0023a021004200dd009d
:103c4000030040000001eb0002187800e6c0b3005a
:103c50001640980051c5b300014878000740e800bd
:103c60000080fb004200dd000300400002187800e5
:103c7000e5c6b30015409800e4c7b30004487800d7
:103c800007c0e8000080fb004200dd0003004000a8
:103c90000218780016409800a1cab30001487800c5
:103ca00063c043000080fb004200dd0003004000d1
:103cb00002187800154098000448780064c043005a
:103cc000230037000780fb0023a021004200dd0015
:103cd000030040000001eb0002187800e6c0b300ca
:103ce0001640980051c5b300014878000740e8002d
:103cf0000080fb004200dd00030040000218780055
:103d0000e5c6b3001540980074cab30004487800b3
:103d100007c0e8000080fb004200dd000300400017
:103d20000218780016409800a1cab3000148780034
:103d300063c043000080fb004200dd000300400040
:103d400002187800154098000448780064c04300c9
:103d50000080fb00000006001100200080262400e7
:103d60000c4202000100000000000600889fbe0017
:103d700000047800a901800010002000a001880044
:103d8000a1ed80004180910000d0a100c080990089
:103d9000660007003600020001000000004c7800b9
:103da000a1ed800080db210040c890000080fb0076
:103db000e0289900a2ed800050f88000b0889000c3
:103dc000208890008041eb000008a3000100320031
:103dd00013c0b300c2809100618061004200dd0029
:103de0000120a1008080700041819900d1ed800008
:103df00000f1210001487800a1ed80005180910080
:103e00000000a000d0809900a90188004f04be00e6
:103e100000000600881f7800a80180001100200023
:103e2000a101880001c02e0091ed8800900078006b
:103e300031f8880090009000a1ed8800a00090006b
:103e400071ed8800b0009000b1ed88004000900056
:103e500040f88800a0ed80004008b00080ed8800a8
:103e6000a0ed800010409000e14f50002c003a007f
:103e7000a0ed8000204190000204e00028003a00fc
:103e8000a0ed800030409000e24f500024003a0046
:103e9000a1ed800080db210080889800a1ed8000ea
:103ea000e0142000f0809800a0ed800022f89a0035
:103eb000a0ed800032f89a00a1ed800030c0b30080
:103ec000c0f89a00a0ed800052f89a00a1ed8000a1
:103ed0002000200080909800a1ed800071289100c2
:103ee0000000a100f0289900a1ed80004180910020
:103ef0000000a100c0809900a1ed80007128910010
:103f00000040a000f0289900a1ed800071289100e8
:103f10000020a100f02899000240780099060700cf
:103f2000a80188004f0478000000060060e021002e
:103f300050f8880050f0800061f08000a2ed800011
:103f40004001980051019800e00f5000e08f5800a8
:103f500004003200a1ed8000310090000000a000bc
:103f6000b0009800a2ed80006000b80050099800f1
:103f70006109980050f8800060029000f002900003
:103f8000a0ed800044089800e00f5200e08f5a0036
:103f900004003200a1ed8000310090000010a0006c
:103fa000b0009800a0ed8000041098001510980053
:103fb00050f88000b008900020089000a2ed80002a
:103fc000700998000402400085824800e00f50000c
:103fd000e08f580004003200a1ed80003100900015
:103fe0000020a000b0009800a0ed800044109800d0
:103ff0005510980050f88000f0089000600890007c
:10400000a2ed8000201198003111980004024000b8
:1040100085824800e00f5000e08f58000400320015
:10402000a1ed8000310090000030a000b0009800a9
:10403000a0ed8000742898000530980050f88000aa
:1040400010399000a0399000a0ed80001230980047
:104050002330980000002300800f5100e08f5900aa
:1040600002003e000402410085824900e00f510039
:10407000e08f590004003200a1ed80003100900073
:104080000090a000b0009800a0ed800024089800e7
:104090003508980050f88000f08890006088900003
:1040a000a2ed800000099800110998000403400067
:1040b00085834800e00f5000e08f58000400320074
:1040c000a1ed80003100900000a0a000b000980099
:1040d000a0ed80005638980067389800a0ed800069
:1040e0002618980037189800a0ed80000002eb0019
:1040f00044189800a0ed8000038021005318980018
:104100000080210001002000060040008780480058
:10411000a2ed80006019980071199800a0ed800050
:1041200004209800a0ed80001320980000002300d8
:10413000010020000603400087834800a2ed8000b4
:104140006000b800701198000119980050f88000c4
:10415000b010900020109000a2ed80006011980037
:10416000e00f5000e08f580004003200a1ed800005
:10417000310090000040a000b0009800a0ed800049
:104180006011b8002220980033209800a0ed800034
:104190000500210045209800a0ed8000022898002d
:1041a00013289800a4ed80000000200021002000ca
:1041b000202a9800312a9800a0ed8000422898001b
:1041c00053289800a0ed800065289800a0ed80009d
:1041d0003230980043309800a1ed8000002020008c
:1041e000d0309800a0ed80006230980073309800c5
:1041f000a1ed80000040200080389800a1ed8000f3
:104200000000eb009038980052f88000622890007f
:10421000f2289000e00f5000e08f580005003a00af
:104220000290900092909000e00f5000e08f5800b4
:1042300004003200a1ed8000310090000050a00089
:10424000b0009800a0ed80003638980047389800fc
:1042500000000600889fbe0000047800a9018000cd
:1042600010002000a0018800a1ed80000000eb00fc
:10427000f03899004e01020001000000004c780067
:10428000a90188004f04be0000000600889fbe0000
:1042900000047800a901800010002000a00188001f
:1042a00030c0b3008505070032070200010000009e
:1042b000004c7800a90188004f04be0000000600f1
:1042c000889fbe008a1f780080047800aa018000c1
:1042d00010002000a001880040c0b300770507004f
:1042e0000040eb00980407000044780088040200b6
:1042f00001000000804c780008407800920407001c
:10430000aa0188004f0578004f04be000000060097
:10431000889fbe0000047800a901800010002000e2
:10432000a00188000211020001000000004c78008a
:10433000a90188004f04be0000000600889fbe004f
:1043400000047800a901800010002000a00188006e
:1043500010c0b3005905070042040200010000002c
:10436000004c7800a90188004f04be000000060040
:10437000889fbe0000047800a90180001000200082
:10438000a001880020c0b3004c050700c013020044
:1043900001000000004c7800a90188004f04be0015
:1043a00000000600889fbe0000047800a90180007c
:1043b00010002000a0018800fa3602000100000071
:1043c000004c7800a90188004f04be0000000600e0
:1043d000889fbe0000047800a90180001000200022
:1043e000a00188008040eb00c0f021000148780067
:1043f000d0f0210001487800e0f021000148780069
:10440000e10007008237020001000000004c780044
:10441000a90188004f04be0000000600889fbe006e
:1044200000047800a901800010002000a00188008d
:10443000dc37020001000000004c7800a901880070
:104440004f04be0000000600889fbe0000047800f4
:10445000a901800010002000a0018800c8410200ce
:104460000100000010c0b300004c7800a9018800d2
:104470004f04be0000000600889fbe0000047800c4
:10448000a901800010002000a0018800003802006f
:1044900001000000004c7800a90188004f04be0014
:1044a00000000600a201800011002000a101880088
:1044b0000048eb00a201880000000600a201800075
:1044c00011002000a10188000048eb00a201880033
:1044d00000000600a201800011002000a101880058
:1044e0000048eb00a201880000000600a201800045
:1044f00011002000a10188000048eb00a201880003
:1045000000000600a201800011002000a101880027
:104510000048eb00a201880000000600889fbe0052
:1045200000047800a901800010002000a00188008c
:10453000e437020001000000004c7800a901880067
:104540004f04be0000000600889fbe0000047800f3
:10455000a901800010002000a001880098009000b0
:1045600028019000b801900048489000780390001e
:10457000880b900048029000d8029000c63a0200d2
:1045800001000000004c7800a90188004f04be0023
:1045900000000600889fbe0000047800a90180008a
:1045a00010002000a00188009800900028019000d1
:1045b000b80190004848900078039000880b900064
:1045c00048029000d80290007438020001000000f8
:1045d000004c7800a90188004f04be0000000600ce
:1045e000889fbe0000047800a90180001000200010
:1045f000a001880018009000f636020001000000bb
:10460000004c7800a90188004f04be00000006009d
:10461000889fbe0000047800a901800010002000df
:10462000a00188001800900060380200010000001e
:10463000004c7800a90188004f04be00000006006d
:10464000889fbe0000047800a901800010002000af
:10465000a0018800180090006837020001000000e7
:10466000004c7800a90188004f04be00000006003d
:10467000889fbe0000047800a9018000100020007f
:10468000a001880018019000a80190004800900047
:10469000d800900018027800d23c0200010000000f
:1046a00060449800a90188004f04be000000060085
:1046b000889fbe0000047800a9018000100020003f
:1046c000a001880018407800dc41020001000000d1
:1046d00010449800a90188004f04be0000000600a5
:1046e000889fbe0000047800a9018000100020000f
:1046f000a0018800e041020001000000004c7800a9
:10470000a90188004f04be0000000600889fbe007b
:1047100000047800a901800010002000a00188009a
:10472000a20302000100000010c0b300004c78009a
:10473000a90188004f04be0000000600000006002a
:104740000000eb0000000600e04102000100000054
:104750000004e00008003200c8410200010000002f
:1047600020032000010020003c2f02000100000077
:10477000fa360200010000000080fb000000060085
:104780000000eb000000060000000600a2ed800023
:10479000208198003181980000000600a0ed800083
:1047a000b080900020809000000006000600fa0013
:1047b000889fbe000000200011002000b0bf9f00b5
:1047c000c1bf9f000040eb00a0ff9f006680570024
:1047d0003000070000447800610407000004e00096
:1047e000190032000040eb00a0ff9f00e4370200f8
:1047f00001000000804478000004e00018003a0046
:104800001900370066805700220007000041780039
:104810003fb89700cfb8970061005000e080580083
:10482000b0bf9f00c1bf9f003fb89700cfb89700af
:10483000e00f5000e08f5800070032000204e00053
:1048400009003a00efff37000804e000dfff320004
:1048500019c0b300040037008044eb0002003700a9
:104860000804e000e7ff3200e402a900d842a800f3
:10487000803e2000010020003c2f020001000000cb
:10488000340407000980fb004f04be000080fa00da
:1048900000000600881f780000047800dac2bf001c
:1048a0000028a30006003200184ce800a0002000f9
:1048b000010020003c2f0200010000000100370031
:1048c000004ceb008040eb0030c6b300984f100066
:1048d0000100360011c0b3000180fb004f047800d6
:1048e00000000600dac2bf000028a3000c003a0056
:1048f000e402a800d842a900e422a800dc82a900b2
:10490000da42a800401f2000010020003c2f0200d6
:1049100001000000da42a900e402a900d842a80080
:1049200000000600ee874700889fbe008a9fbe00f9
:104930008c9fbe008e1f78008003780001067800ef
:1049400002077800840478008546780086f79f0087
:10495000004aeb0072005000e10f500002003600e8
:104960008009eb00b3117800a0ed80001092900058
:10497000a0929000a0ed8000c09090003090900038
:104980004609dd004a00de0000007100ca08de00b2
:1049900061406000e0e79f00a0ed8000c0909000c3
:1049a000309090008100d1000080d300614360000e
:1049b0000080eb008080eb0007004000e0804800b2
:1049c000f30f5000e08f580015003e00006001001a
:1049d0001b0037007b003700ae003700dd003700da
:1049e0000c0137000e003700cd0137006f01370092
:1049f0000b0037002b013700590137000800370042
:104a00000700370006003700ee01370004003700ca
:104a100003003700850137009b013700370037005e
:104a20000044eb006055b800eab79f00fbb79f0059
:104a3000cab79f00dbb79f0008417800110237001a
:104a4000a0ed8000300090006101600008003a0095
:104a500018c0b3006055b800eab79f00fbb79f00cd
:104a6000cab79f00dbb79f00170020000502370080
:104a70000d04e00002003a000408a3001300320015
:104a800012c0b300824c7800a0ed800050959000d9
:104a9000e0959000a0ed80008098900070909000cc
:104aa00061004000e0804800e0b79f00f1b79f0040
:104ab00057f880001700be00c0b79f00d1b79f0015
:104ac0000244780017002000ee013700100020009b
:104ad000010020008089be0018c0b3006055b800f6
:104ae000eab79f00fbb79f00cab79f00dbb79f00e4
:104af0000841780017002000e2013700a0ed800097
:104b0000b0009000004020000081600008003a00e2
:104b100018c0b3006055b800eab79f00fbb79f000c
:104b2000cab79f00dbb79f0047012000d5013700bf
:104b30000d04e00003003a00040078000020b200f9
:104b40001400320012c0b300824c7800a0ed800047
:104b500050ad9000e0ad9000a0ed800080b09000de
:104b600070a8900061004000e0804800e0b79f001e
:104b7000f1b79f0057f8800047889000d7889000d1
:104b8000c0b79f00d1b79f000244780047012000c2
:104b9000bc01370010002000010020008089be0009
:104ba00018c0b3006055b800eab79f00fbb79f007c
:104bb000cab79f00dbb79f0008417800470120007b
:104bc000b0013700a0ed800030009000620160006d
:104bd0000a003a000604e00008003a0018c0b300da
:104be0006055b800eab79f00fbb79f00cab79f00a7
:104bf000dbb79f0027002000a20137000d04e00072
:104c000004003a006200620002003a000604e0007c
:104c10001400320012c0b300824c7800a0ed800076
:104c2000109d9000a09d9000a0ed8000c098900085
:104c30003098900061004000e0804800e0b79f009d
:104c4000f1b79f0057f8800047009000d700900010
:104c5000c0b79f00d1b79f00024478002700200012
:104c60008801370010002000010020008089be006c
:104c700018c0b3006055b800eab79f00fbb79f00ab
:104c8000cab79f00dbb79f000841780027002000cb
:104c90007c013700a0ed80003000900064016000ce
:104ca00008003a0018c0b3006055b800eab79f008a
:104cb000fbb79f00cab79f00dbb79f0037002000fb
:104cc000700137000d04e00002003a006400620049
:104cd0001400320012c0b300824c7800a0ed8000b6
:104ce000509d9000e09d9000a0ed800080a090007d
:104cf0007098900061004000e0804800e0b79f009d
:104d0000f1b79f0057f880000708900097089000bf
:104d1000c0b79f00d1b79f00024478003700200041
:104d20005801370010002000010020008089be00db
:104d300018c0b3006055b800eab79f00fbb79f00ea
:104d4000cab79f00dbb79f000841780037002000fa
:104d50004c013700a0ed8000300090006801600039
:104d600008003a0018c0b3006055b800eab79f00c9
:104d7000fbb79f00cab79f00dbb79f00470020002a
:104d8000400137000d04e00002003a0068006200b4
:104d90001400320012c0b300824c7800a0ed8000f5
:104da00010a59000a0a59000a0ed8000c0a09000ec
:104db00030a0900061004000e0804800e0b79f0014
:104dc000f1b79f0057f8800047089000d70890007f
:104dd000c0b79f00d1b79f00024478004700200071
:104de0002801370010002000010020008089be004b
:104df00018c0b3006055b800eab79f00fbb79f002a
:104e0000cab79f00dbb79f00084178004700200029
:104e10001c0137000d04e00002003a00700062003f
:104e20001400320012c0b300824c7800a0ed800064
:104e300050a59000e0a59000a0ed800080a8900013
:104e400070a0900061004000e0804800e0b79f0043
:104e5000f1b79f0057f8800007109000971090005e
:104e6000c0b79f00d1b79f000244780057002000d0
:104e70000401370010002000010020008089be00de
:104e800018c0b3006055b800eab79f00fbb79f0099
:104e9000cab79f00dbb79f000041eb00570020001e
:104ea000f800370017c0b300874c7800a0ed8000f1
:104eb000702891000018a30018003200a0ed8000b7
:104ec00050259000e0259000cab79f00dbb79f00f7
:104ed000a0ed800070209000010020008089be00bd
:104ee000a0ed800070209000320020001100090029
:104ef0000280d800000040000000e8006105b80012
:104f0000eab79f00fbb79f00074478006055b800e0
:104f100007417800a7002000da00370050f8800031
:104f2000400d9000d00d9000cab79f00dbb79f00e6
:104f3000600d9000f00d90008a89be004fb0970080
:104f4000dfb09700e0b79f00f1b79f0018c0b30033
:104f50006055b80008417800a7002000c90037005c
:104f600011c0b300814c780050f88000000d900013
:104f7000900d9000cab79f00dbb79f00200d9000f6
:104f8000b00d90008a89be004fb59700dfb597003d
:104f9000eab79f00fbb79f00014478006055b80056
:104fa00001417800b7002000b60037000d04e00092
:104fb00006003a00a0ed8000300090000008b2002a
:104fc00002003a00004178000300370010c0b3002f
:104fd000804c780000417800a0ed800040189000df
:104fe000010020008089be00e00f5000e08f5800d3
:104ff00003003a0010002000010020008089be005c
:1050000050f880000015900090159000cab79f00de
:10501000dbb79f0018c0b3006055b800eab79f0027
:10502000fbb79f0087002000960037000d04e000ca
:1050300006003a00a0ed8000300090000008b200a9
:1050400002003a00004178000300370010c0b300ae
:10505000804c7800004178001e05be0057f88000a3
:105060000710900097109000c0b79f00d1b79f0025
:1050700018c0b3006000b800e0b79f00f1b79f0010
:10508000870020007f0037000d04e00006003a0092
:10509000a0ed8000300090000010b20002003a0045
:1050a000004178000300370010c0b300804c780046
:1050b000004178001e05be00a0ed80007028910020
:1050c0000048a3000b003200a7ed80006788900025
:1050d000f7889000c0b79f00d1b79f0018c0b300f9
:1050e0006000b800e0b79f00f1b79f007700200094
:1050f0006400370057f88000071090009710900068
:10510000c0b79f00d1b79f0018c0b3006000b800bf
:10511000e0b79f00f1b79f007700200059003700eb
:105120000d04e00006003a00a0ed80003000900081
:105130000010b20002003a0000417800030037007e
:1051400010c0b300804c780000417800a0ed8000d2
:1051500000209000010020008089be00a0ed8000aa
:10516000702891000048a3000b003200a0ed8000e1
:10517000608d9000f08d9000cab79f00dbb79f0054
:1051800018c0b3006055b800eab79f00fbb79f0096
:10519000770020003b00370050f880000015900099
:1051a00090159000cab79f00dbb79f0018c0b300ee
:1051b0006055b800eab79f00fbb79f00770020005a
:1051c00030003700a0ed8000300190000220b200d6
:1051d00008003a0018c0b3006055b800eab79f0055
:1051e000fbb79f00cab79f00dbb79f00f700200006
:1051f000240037000d04e00003003a0004007800aa
:105200000010b2001400320012c0b300824c7800cb
:10521000a0ed800010ad9000a0ad9000a0ed80004a
:10522000c0a8900030a8900061004000e0804800d5
:10523000e0b79f00f1b79f0057f8800077309000eb
:1052400087389000c0b79f00d1b79f000244780014
:10525000f70020000b0037001000200001002000a4
:105260008089be0018c0b3006055b800eab79f003f
:10527000fbb79f00cab79f00dbb79f0008417800cb
:10528000f7002000e30f56000d003a00a0ed80006b
:10529000309090000008a30002003a000d04e000e6
:1052a000060032000204e0000400320010c0b30027
:1052b000804c78006055b80001003700804ceb004e
:1052c000efe097000104e000100032000c00e00065
:1052d0000e003a001904e00011003200e18f530083
:1052e00008003200f48f530006003200e28f5300b2
:1052f00004003200e38f530002003200ef8f5300ae
:1053000007003a00804ceb0005003700ea0f56001a
:1053100003003a000604e00001003a00864c7800e1
:1053200000f1210012c0b300904f110009003a00b3
:10533000e20f560007003a006800620003003200e6
:1053400010002000d0ed880002003700200020006f
:10535000d0ed88001904e0001a003200874478007c
:10536000830078006fb29700ffb297000a01be0079
:1053700007407800502f0200010000000044780030
:10538000e30f560002003200e10f560001003a0020
:1053900018c0b3000e00e000040032004fb09700c8
:1053a000dfb09700001f450001974d008ff0970078
:1053b0000104e00003003a008c0078000940780006
:1053c000810007000880fb004f0778004f06be00f1
:1053d0004f05be004f04be00ef00b1000000060004
:1053e00080017800a0ed800030929000c092900083
:1053f0000040eb008048780000497800e28f5100bf
:105400001800320005003e000300e00009003200f1
:10541000e18f51002a003a000c003700e48f510060
:105420001c00320015003900e58f510024003a00bd
:105430001e003700700062002100320010c0b3006f
:1054400080487800004978001d003700040078008b
:105450000002b2001a00320010c0b3008048780089
:1054600017003700040078000004b2001400320076
:1054700010c0b300804878001100370004007800a5
:105480000008b2000e00320010c0b300804878005f
:105490000b003700040078000010b2000800320052
:1054a00010c0b30080487800050037000400780081
:1054b0000020b2000200320010c0b3008048780023
:1054c00010002000000006000200fa00889fbe00c5
:1054d0008a9fbe008c1f7800000578000040eb001a
:1054e000004d7800804578008004eb0068002000c3
:1054f0001cc0b3006b815700ec8057000900780096
:10550000b7ff07004ff097000004e00001003200f1
:105510001bc0b3005ff097000004e0000100320000
:105520000c4d78008904e8000804e900f1ff3a0016
:105530000b80fb004f0678004f05be004f04be00f5
:105540000080fa0000000600a1ed8000319190007b
:10555000c1919000c618dd004a11de000281700082
:10556000ca19de00614361000004e0000700320058
:10557000a2ed800032909000c290900000a0a000a8
:1055800030919800419198000d003700a3ed800004
:1055900033909000c39090000001780002a0a10019
:1055a000610ab800c020dd00000020006112b800d0
:1055b0000400700085807000b0919800c19198003f
:1055c0000680fb00000006000041780023012f0048
:1055d000e28f50001000320006003e00a3012f00b1
:1055e0000100e0000c003200e18f500007003a009b
:1055f00008003700a3022f00e38f5000060032009e
:1056000023022f00e48f500003003200a3032f0079
:105610000100370023032f00e84f51001d00320026
:1056200007003e00e24f510014003200e44f5100e9
:1056300015003200e14f510025003a000d003700ff
:10564000f44f51000b00320003003e00f04f5100b8
:105650001f003a001200370000c4b300804f510011
:105660001200320000c8b300804f510018003a0009
:10567000110037001380fb00110037001340900029
:105680000080fb000e003700334090000080fb00dc
:105690000b003700234090000080fb00080037001b
:1056a000434090000080fb0005003700534090000d
:1056b0000080fb0002003700634090000080fb0088
:1056c0000000e00002003200fe2e02000100000097
:1056d00000000600889fbe000204be000080fb00a0
:1056e0000100200061005000e0805800f30f5000de
:1056f000e08f580015003e000060010016003700e2
:105700001f00370023003700270037002b00370029
:105710000e00370038003700320037002c00370009
:105720000a0037000900370008003700070037007b
:10573000060037003500370004003700030037004b
:105740000200370001003700080037000001eb00bd
:105750008201780031003700a0ed8000e20e2000c9
:1057600000014100130020002c003700a0ed800054
:1057700062142000000141000320200027003700b0
:10578000a0ed8000a20f20000001410023002000b6
:1057900022003700a0ed80006210200000014100cf
:1057a000430020001d003700a0ed800022112000e2
:1057b000000141008300200018003700a0ed8000a8
:1057c000e211200000014100030120001300370016
:1057d000a0ed8000a2122000000141000302200081
:1057e0000e003700a0ed8000e21120000001410012
:1057f0000304200009003700a0ed8000e211200022
:10580000000141000308200004003700a0ed8000e3
:10581000621320000001410003102000a1ed800070
:1058200061b0900000807100e0b098000200e000dc
:10583000050032000889be00240198003501980057
:1058400046019800570198004f04be000000060072
:105850000003be000204e00008003200a2ed800058
:1058600012209100a220910000007300818073003b
:1058700010219900212199000f003700a5ed80002b
:105880000081ea008181ea0015209100a5209100a5
:1058900002026000038060006101b800c010dd00fa
:1058a000000020006121b8000200700083807000b9
:1058b00090229900a122990000000600881f78001c
:1058c00000447800a0ed8000a00eb0008206200009
:1058d0008000eb000000020001000000a0ed80004d
:1058e0008880fb0051b098004f047800000006004b
:1058f000a2ed80006000b8007009990001119900c4
:10590000a2ed80001011990021119900a2ed8000f4
:105910003011990041119900a1ed800061b0900013
:105920000060a100e0b0980000000600a0ed80003b
:105930008040eb0060b090000000e0000100320009
:1059400011c0b300014078000004a2000080fb00f9
:105950000000060030f880000048eb000000060060
:1059600030f880001080fb0061006000000006003d
:1059700030f880001080fb000000d1006100600062
:1059800000000600f1f021008048780000000600c9
:10599000f0f021001080fb0000000600800078007d
:1059a000f0f021001004e000030032000100780054
:1059b0003a0102000100000000000600a0ed800096
:1059c000b028910060002000922f0200010000002a
:1059d00081db2100d1c890000041eb008180fb00f9
:1059e000810f50000100310012c0b3000280fb00a3
:1059f0000000060040052000102f020001000000fa
:105a00000080fb00000006000004e00006003200f9
:105a10000001eb004105200002007800c22e0200c8
