:020000040000fa
:020000040001f9
:10e000005aa50000170100002205000001000000d1
:10e01000000100001000000000000000000a0000e5
:020000040000fa
:020000040001f9
:10f00000a63e0100043f0100b03e01002441010082
:10f01000cc410100404101005a4101008241010000
:10f0200098410100b2410100e2410100b2420100f9
:10f03000d8420100fe420100164301002e430100a8
:10f04000f84b0100084201001e4201003642010057
:10f050009c42010046430100664301007e430100db
:10f0600094430100864201004c42010058420100d5
:08f0700064420100704201003e
:020000040000fa
:020000040002f8
:100000008001780002003700b15978000201e90050
:100010000200e000fcff3a000000060080017800ca
:1000200002003700815978000201e9000200e00077
:10003000fcff3a00000006006022b8000602200023
:100040000000d0008180d2000482d2008582d200dc
:100050000000a0000202520083825a000300310017
:100060000202420083824a000000a1000603e90068
:10007000f3ff3a0000000600efff07000400be0097
:10008000000006000000fe00f2874700889fbe00c7
:100090008a9fbe008c9fbe008e1f7800800478006f
:1000a0000106780082467800084c0200010000003a
:1000b0000047780000032000503d020001000000ce
:1000c00000417800ea8f540004003a006000b80054
:1000d000b0b79f00c1b79f0005003700eb8f5400f9
:1000e00003003a006000b800b0b79f00c1b79f009e
:1000f0000204e0000b00320016c0b3008d4278000d
:1001000076825700fe8157007a8157008c00780074
:1001100009007800e4430200010000000044780078
:100120000b01370067805400e10f50001b003e00b8
:10013000e30f560019003200e78f54000a003a001e
:1001400030028100002090006105b80018c0b300a3
:1001500088f79f006011b800e2b79f00f3b79f00d7
:1001600039012000f500370018c0b300e88f5400b3
:10017000f7003a0030028100401890006105b80095
:1001800018c0b30088f79f006000b800e0b79f0078
:10019000f1b79f0029012000e80037000043eb0081
:1001a0008d42780076825700fe8157007a81570091
:1001b0008c00780009007800e44302000100000090
:1001c000004478008040eb0081f79f001a00200077
:1001d0000b0020006011b800e2b79f00f3b79f004a
:1001e000180037000060200001002000800f55003b
:1001f000818f5d000300360090b79f00a1b79f007c
:10020000020037009ab79f00abb79f006fb097000e
:10021000ffb09700b0b79f00c1b79f000043eb004d
:100220008d42780076825700fe8157007a81570010
:100230008c00780009007800e4430200010000000f
:10024000004478000804e000a90032002fe897007d
:100250000004e000a6003200e30f560092003200d6
:1002600004003e00e10f56005e00320071003e00c7
:100270003e003700e70f56009d003200ea0f56009f
:10028000030032000044eb00e40f560098003a00ef
:100290000e04e00014003200e28f540009003a001e
:1002a00011c0b3001fb29700afb297003fb19700e3
:1002b000cfb1970009407800dc0d070000447800ba
:1002c0008b0037001fb29700afb297003fb1970085
:1002d000cfb1970009407800d04e02000100000025
:1002e0000044780082003700e28f540009003a0091
:1002f00011c0b3001fb29700afb297003fb1970093
:10030000cfb1970009407800c80d0700004478007d
:1003100077003700e48f54000b003a003002810070
:10032000508091000018a300070032001fb1970011
:10033000afb197003fb09700cfb09700950e070080
:10034000004478006a00370011c0b3001fb2970064
:10035000afb297003fb19700cfb197000940780046
:10036000ff0c070000447800610037000003200004
:10037000808f540007003a001fb19700afb197007b
:100380003fb09700cfb09700d31307000044780028
:10039000570037000e04e000090032001fb297003a
:1003a000afb297003fb19700cfb1970009407800f6
:1003b0000250020001000000004478004c003700a9
:1003c0008040eb001fb29700afb297003fb197009b
:1003d000cfb1970009407800b603070000447800c9
:1003e000430037000e04e000090032001fb29700fe
:1003f000afb297003fb19700cfb1970009407800a6
:10040000ca500200010000000044780038003700a4
:1004100011c0b3001fb29700afb297003fb1970071
:10042000cfb1970009407800a2030700004478008c
:100430002f00370000032000808f540007003a008f
:100440001fb19700afb197003fb09700cfb09700b2
:100450005a13070000447800250037000e04e0001e
:10046000090032001fb29700afb297003fb197006a
:10047000cfb1970009407800405102000100000010
:10048000004478001a0037001fb29700afb29700ff
:100490003fb19700cfb19700094078005508070099
:1004a00000447800120037000e04e000090032001a
:1004b0001fb29700afb297003fb19700cfb197003e
:1004c00009407800645202000100000000447800f6
:1004d000070037001fb29700afb297003fb19700f7
:1004e000cfb1970009407800e90e0700004478007a
:1004f0008ff097000104e000150032001fb0970054
:10050000afb097000005550081855d0000004000f8
:100510008180480032002000030020001c000200ff
:10052000010000006fb19700ffb197000201400089
:1005300083814800e2b79f00f3b79f00e00f5500aa
:10054000e08f5d00020032000804e00025ff3a0061
:100550000880fb004f0778004f06be004f05be0025
:100560004f04be002f01b100000006002900070063
:100570000004e0000800320031028100712891007f
:100580000010a100f028990011c0b300c0a1210003
:100590000148780002003700c0a121000048eb00ac
:1005a00031028100712891000060a000f0289900bc
:1005b00080ad2100a0d08800310281007128910017
:1005c0000030a000f02899003102810041809100a4
:1005d0000050a000c0809900e00c810060309000c5
:1005e000e20f500005003a00310281005180910075
:1005f0000010a000d0809900040037003102810073
:10060000518091000010a100d080990010002000be
:10061000000006001000200000000600170009007e
:100620000000000000000600881f7800a8002000dd
:10063000faff07000804e900fdff3a004f047800c4
:1006400000000600889fbe000004be00922a02003f
:1006500001000000f1ff0700e00f5400e08f5c0094
:1006600002003200dc82a80001003700dc82a90011
:10067000eaff07008a2a020001000000e7ff0700e6
:100680004f04be0000000600889fbe008a1f78004d
:100690008c9fbe000006be004a0020006000b8002b
:1006a000e8ff07000a05e900fcff3a00922a020071
:1006b00001000000d9ff07001800200009002000f9
:1006c0000c0164000d8064006102b800c020dd00f0
:1006d000000020006112b8000400700085807000e6
:1006e000d8ff07000804440089844c000a05e8008c
:1006f000f80f5500f2ff3a00922a020001000000b4
:10070000dc82a900c8ff07004f06be004f05780035
:100710004f04be0000000600881f78008a2a0200ed
:1007200001000000bdff0700a82d2000184478003c
:10073000922a020001000000b8ff07004340de00db
:10074000610060004f04780000000600889fbe0032
:10075000e422a900b1ff07008004eb00090478003f
:10076000edff07000800dd00808474000804e80045
:10077000f00f5400faff3a00e422a800a7ff070098
:10078000090078004f04be0000000600881f7800b2
:100790001000200001002000aaff07003800200000
:1007a0006000b800a7ff07000804e900fcff3a005a
:1007b000922a02000100000098ff07008800200034
:1007c0006000b8009fff07000804e900fcff3a0042
:1007d000922a02000100000090ff0700dbff0700e3
:1007e0004f04780000000600889fbe008004780057
:1007f0000000e000060034000004eb006000b800d8
:10080000a1ff07000804e800888f5400fbff3a00ae
:100810004f04be000000060030002000f2ff070079
:10082000002020004100200097ff0700500020001a
:10083000edff070000000600881f7800f87f200009
:100840001500370010002000e7ff07000094230088
:10085000010820008cff070010002000e2ff0700c5
:1008600000c427008108200087ff07001000200037
:10087000ddff0700c5ff0700800078000000e000f2
:100880000500350000002f000080600001002400fa
:10089000810f5000040032000804e900e9ff3a002b
:1008a0000800780002003700dbff0700100020007e
:1008b0004f04780000000600881f78003102810094
:1008c0000040eb00a058990061a121008048780009
:1008d000124c020001000000e00c81004009900071
:1008e000d0099000c2d08800d3d088000000eb006f
:1008f00076000700004478000b0107000884fb0025
:10090000080078004f04780000000600889fbe00b1
:10091000310281000040eb00a05899000000200047
:10092000f10f2000330a070001002000c004dd00a1
:100930000800200020002000f10f20002d0a0700f1
:1009400001002000000274008182740030028100e6
:10095000148898002588980030028100b202810036
:10096000c302810032889800438898009002810079
:10097000a1028100040160000580600001002000e8
:10098000c003dd00060020006110b8000003730002
:1009900081837300d0028100e1028100e00f5000ea
:1009a000e08f58003f003a0035028100b20281001a
:1009b000c302810090028100a10281000202600056
:1009c000038060006101b800c010dd00000020005d
:1009d0006121b8000200700083807000b08a980026
:1009e000c18a9800b2028100c30281009002810096
:1009f000a102810002026000038060006101b80072
:100a0000c010dd00000020006121b800020070006d
:100a100083807000800f5300818f5b0026003a00b6
:100a20003102810010c0b300a058990022003700a5
:100a30008001eb0012002000a404220015c0b300c6
:100a40004218dd000400400090089000000890006b
:100a500001002000800f5300818f5b0005003a00e9
:100a60003002810036889800478898003002810063
:100a700025589900820178004210dd0004004000f2
:100a80009008900000089000e00f5000e08f5800a0
:100a9000090032000201e800e90f510006003200af
:100aa000e7ff3700d0028100e1028100e00f500033
:100ab000e08f5800deff3a0030028100205891009c
:100ac0000080fb004f04be00000006000200fa0098
:100ad000881f7800000478006635020001000000dd
:100ae000648157008040eb00080078000400070094
:100af0000080fb004f0478000080fa000000060030
:100b00000200fa00889fbe008a1f78000004780067
:100b1000820478000049eb00dc82a900922a0200de
:100b200001000000e402a800d842a900e422a800c5
:100b300031028100712891000000a000f028990086
:100b4000e880570020002000583e0200010000000d
:100b500010002000663d020001000000401f200040
:100b6000010020007c3d0200010000000000eb00bd
:100b7000663d020001000000609f2000010020008f
:100b80007c3d0200010000000800e0003c003a004b
:100b900081ad2100200820008008780032d4240094
:100ba00003002000d2d68800e3d68800f0d6880063
:100bb000128524000300200002d7880013d7880084
:100bc000200020009a2a020001000000609f2000ff
:100bd000010020007c3d0200010000001000200008
:100be000663d0200010000000045780000352c0041
:100bf000010020007c3d02000100000058c0b3004d
:100c00008a2a020001000000922a0200010000006e
:100c10000844e900faff3a0081ad2100000a2000f3
:100c2000800878003200200003002000d2d688001f
:100c3000e3d6880020062000f0d68800022020009d
:100c40004300200002d7880013d78800200020002e
:100c50009a2a0200010000002cff070030028100e8
:100c6000a088900010889000e00f5000e08f58009e
:100c70002800320010c0b300804c780025003700f7
:100c800081ad2100200820008008780032d42400a3
:100c900003002000d2d68800e3d68800f0d6880072
:100ca000028524000300200002d7880013d78800a3
:100cb000200020009a2a020001000000609f20000e
:100cc000010020007c3d0200010000001000200017
:100cd000663d020001000000801a2600010020008d
:100ce0007c3d020001000000dc82a900e422a80093
:100cf000f04d02000100000000457800084c0200a1
:100d0000010000000004e0000200320010c0b30047
:100d1000804c78000a80fb004f0578004f04be002d
:100d20000080fa0000000600803e20000100200044
:100d30007c3d020001000000e402a900d842a800a6
:100d4000e422a9000000eb00663d02000100000063
:100d50000040eb00124c0200010000000000060001
:100d60000043780085ad210062c0b3000440bc00a0
:100d7000850041000002eb008418780002fa200090
:100d8000030220008288be008040e8000140780015
:100d900062c0b3000440bc008500410084187800a4
:100da000022a2000830820008288be0086c0e80056
:100db0000140780062c0b3000440bc0085004100df
:100dc0008418780002382000b30e20008288be000c
:100dd000e34043000140780062c0b3000440bc001f
:100de000850041008418780002302000b30e2000f6
:100df0008288be00644043000080fb0000000600c3
:100e00000043780085ad210062c0b3000440bc00ff
:100e1000850041000002eb008418780002fa2000ef
:100e2000030220008288be008040e8000140780074
:100e300062c0b3000440bc00850041008418780003
:100e4000022a2000830820008288be0086c0e800b5
:100e50000140780062c0b3000440bc00850041003e
:100e60008418780002302000b30e20008288be0073
:100e7000634043000080fb00000006000400fa000d
:100e8000889fbe008a9fbe008c1f780090bf9f0085
:100e9000a1bf9f00024678008aad21000240780081
:100ea00062c0b3000440bc008a0541008003eb002f
:100eb000871d78004ff097000080fb0001002000a4
:100ec0004409dd00cc00de00810071004400dd003b
:100ed00004ff2f00f5002000040378008001630068
:100ee000018062006104b800c040dd000000200005
:100ef000611cb800080070008980700008002000a4
:100f000009022000881d7000899570000c40e800df
:100f100062c0b3000440bc008a0141008719780018
:100f200000962300810820008089be000cc0e800e4
:100f300062c0b3000440bc008a01410087197800f8
:100f40001fb89700afb897004409dd00cc00de0061
:100f5000810071004400dd00000363000182620033
:100f600005002000c020dd00000020006132b80034
:100f700004007000858070008819700089917000ed
:100f80006340460062c0b3000440bc008a014100d7
:100f90002006200080197800009523008108200099
:100fa0008089be00644146000280fb004f06780045
:100fb0004f05be004f04be000080fa00000006008e
:100fc0000400fa00889fbe008a9fbe008c1f780034
:100fd00090bf9f00a1bf9f000246780088ad21000e
:100fe0000240780062c0b3000440bc0088044100a5
:100ff0008003eb00871c78004ff097000080fb0017
:10100000010020004409dd00cc00de0081007100f9
:101010004400dd0004ff2f00f500200004037800e9
:1010200000026200018062006105b800c050dd006e
:10103000000020006125b8000a0070008b8070005d
:101040000a0020000b0220008a1c70008b947000a4
:101050000c40e80062c0b3000440bc00080241003c
:10106000071a7800002a200081082000008abe00ac
:101070000cc0e80062c0b3000440bc00080441009a
:10108000071c78001fb89700afb897004409dd002f
:10109000cc00de00810071004400dd00000363002d
:1010a00081826200612ab800c020dd0000002000bb
:1010b0006132b80004007000858070000382fb007c
:1010c0000500200004007000858070000a1c70007c
:1010d0000b947000634146000280fb004f067800cd
:1010e0004f05be004f04be000080fa00000006005d
:1010f00000000600881f78000000eb0073fe070068
:10110000004478000004e0001e00320010002000bf
:10111000ad1007000041eb00110020000100780035
:10112000d9fb0700004478000004e000050032000d
:101130000041eb001100200040012000d2fb07001d
:10114000004478000000eb009f1007000804e00056
:101150000c0032000041eb001100200030002000a4
:10116000c9fb0700004478000004e00005003200dd
:101170000041eb001100200040002000c2fb0700ee
:1011800000447800e8fe07000880fb004f04780068
:1011900000000600889fbe008a1f78003002810090
:1011a0009094900030028100308091000008a300ec
:1011b0000800320030028100308091000018a30046
:1011c000040032000000eb0040fe07000004e000d5
:1011d000340032000041eb008000eb0010002000e2
:1011e000a9fb0700004478000004e00002003a0078
:1011f00000457800060037000041eb008000eb005e
:1012000040012000a0fb0700004478001ac0b30092
:101210000908a3000e003a000998a3000c003a0048
:101220000918a3000a003a003002810030809100c2
:101230000008a300040032003002810030809100d9
:101240000018a30002003a000000eb005e10070047
:101250000804e0000f003a000000eb005a100700fd
:101260000a04e00005003a000a4178008000eb0023
:101270001000200084fb0700040037000041eb0051
:101280008000eb00400120007ffb07000004e0002d
:10129000040032000041eb008000eb003000200031
:1012a00079fb07000080fb004f0578004f04be006b
:1012b00000000600fc874700889fbe008a9fbe0092
:1012c0008c9fbe008e1f780080f79f000204be0036
:1012d0000405be0091f79f00e44f500006003a005d
:1012e000014278000a01be000800be00a10107000b
:1012f00000467800f40037000ff09700e24f5000ee
:1013000004003a009ff09700190207000046780099
:10131000ed0037000040eb0051080700a0e79f00f8
:1013200063c0b3000041eb000800be0024ff0700cb
:101330000080fb0081ad21009a2a0200010000001c
:10134000f12f2000810f5500e08f5d000a003e0064
:101350002fe297000481fb00030020000a00be007a
:101360001c0002000100000080067800150020002b
:10137000a5b79f000c0037000230200003002000ba
:101380000a00be001c00020001000000a0b79f0080
:101390002fe097000081fb000030200011000900c1
:1013a0000280d80080067800c8af9f00d9af9f00a8
:1013b00060004400e1804c006108b800c000dd001e
:1013c00000002000e0af9f00f1af9f001cc0b30001
:1013d000afb097000100e000bb0032000a004500fa
:1013e0008b804d0032002000030020001c00020012
:1013f000010000000800400089804800d0b79f002d
:10140000e1b79f006340b8006022b8006349b900ab
:10141000810041008100d1000080d3000a0040001b
:10142000c0b79f002fe19700e20fb200f2b79f0014
:10143000b4b79f0084b79f001cc0b3009e00370064
:10144000afe097000187fb000df0b90000004000fd
:1014500032002000110009000280d80080057800c9
:101460004fac9700dfac9700e00f5400e08f5c00ba
:10147000140032006faa9700ffaa9700840f54004f
:10148000858f5c000f003a008fb297000500e000e6
:10149000030032008d8652000000eb0080b79f00f1
:1014a00063c0b3000041eb000800be00c4fe0700ab
:1014b00000457800e1844400e8af9f00f9af9f0049
:1014c000070037000045eb008fb097000100e000f7
:1014d00003003200810678000001eb0082b79f0014
:1014e0004fa99700dfa997006faa9700ffaa97005e
:1014f000820f5200838f5a00180036000b00410003
:10150000e0804900800f5200818f5a0013003100a3
:10151000afb297008502e800a5b79f006fa89700bb
:10152000ffa8970002015000838158008301d10079
:101530000281d3006310b8006319b9008100410033
:101540002fe297000481fb00030020001c00020032
:10155000010000008db79f008006780088ad210053
:101560000a40780062c0b3000440bc00080141009a
:1015700000092000001978006140b9000089be0010
:101580000a40e8000080fb00880078009a2a0200e8
:10159000010000006169b800e1a121000000eb003a
:1015a00016310200010000000d00e00013003200bf
:1015b0004d0037008004eb009ff097008181fb0015
:1015c0008301e900cf19de0082fd2f000f014100e9
:1015d000880078000ff097004d0007000046780063
:1015e0007fb19700020444008904e800898f560007
:1015f000020032000004e000efff3a002fb2970033
:101600000400e900bfb29700850f500022003a00a5
:101610004fa99700dfa997005fb09700efb0970040
:10162000820f5000838f58001b0036006310b800f3
:101630006319b900810041008100d1000080d3000e
:101640004fb1970080005100811f78001100090000
:101650008e80d8000001780001007800cf0078006b
:101660000000e000020032008206e80003003700bc
:10167000110009008e80d800800678000ff29700d4
:1016800067405200e14f500003003600afb29700b0
:101690008502e800a5b79f003fb097000000e80072
:1016a000b0b79f000c04e00007003200afb0970015
:1016b000808f500004003600da4b02000100000069
:1016c0000004e0005eff3200da4b0200010000007f
:1016d0000004e00007003200d44b020001000000cb
:1016e0000046eb00030037000c04e000c3ff3200ab
:1016f000b0ff37000c80fb004f0778004f06be009c
:101700004f05be004f04be00cf01b100000006002f
:10171000ee874700889fbe008a9fbe008c9fbe0058
:101720008e1f78008046780001047800020578005a
:10173000034678006000b800b0b79f00c1b79f00b3
:10174000f0ff2f00f10f2000d0b79f00e1b79f00fe
:101750000001eb00f2b79f0042c0bf000080fb0019
:101760004500de0080bf9f0093028000ff3ffc0029
:1017700042c0bf007f40600001ccb3000140700058
:1017800042e0b7009302880000028100020878005e
:101790001bc0b3008204780072875700e5cf540065
:1017a0005b003e000900fb00110020008008dd0006
:1017b0007280600016003a00010078004002b2001a
:1017c00023003a0069806000510032001800780060
:1017d00001002000b0b79f00c1b79f000c04e000db
:1017e0004b00320010028100900078009140780098
:1017f000a1ef9f001008e80010028100900078001f
:1018000091407800b1ef9f001008e80040003700d9
:101810000c04e0000b003200100281009000780000
:10182000114f78001008e800100281009000780045
:1018300091407800f1ef9f001008e8009e4078008a
:10184000c1ef9f001840780080ef9f001400370020
:101850000c04e0000c0032001002810090007800bf
:1018600091407800a1ef9f001008e800100281006d
:101870009000780091407800b1ef9f001008e800d8
:10188000ffe89700c1ef9f001800780001002000da
:10189000b0b79f00c1b79f0078f8970080ef9f0016
:1018a0005fb29700efb297003fb39700cfb39700b6
:1018b000860f5200878f5a00110032001a01be00b5
:1018c000c0d08000d1d08000800f5100818f59009e
:1018d00006003900e00c810090109000001090008c
:1018e000800f5100818f5900050039001a01be0098
:1018f0000d407800944a0200010000008045eb0092
:1019000020002000010020001a0d40005a954800d8
:101910000884e800e58f5400030032008904e800e1
:101920000b04e0009dff3a0031002000000281001e
:101930000108780092028000ff3ffc008fb89700fa
:10194000c508dd0042c0bf007f406000014070005c
:1019500042e0b700920288000b80fb004f0778003e
:101960004f06be004f05be004f04be00ef00b100a1
:1019700000000600ea874700889fbe008a9fbe00dd
:101980008c9fbe008e1f78000003be0094f79f005e
:101990008301d1000281d300e2b79f00f3b79f001b
:1019a00060a121001004e00002003a000605be001c
:1019b00002003700cad08000dbd08000e00c81003c
:1019c000900890000008900010c0b30080f79f00be
:1019d0006fb19700ffb19700e00f5100e08f590001
:1019e0005b0032000606be000047eb0013c0b300e8
:1019f00083f79f000e84fb00080044004003b00002
:101a0000e10c8100e08478000a00be00f9050700bf
:101a1000000378001ff097000004e0000b003a007c
:101a2000100281009000780091407800a1ef9f00a3
:101a30001008e800100281009000780091407800c2
:101a4000b1ef9f001008e8000500370008004400cf
:101a50008004b000e10c8100e0807800d1b79f00e5
:101a6000e40c81000431900094319000080044009f
:101a7000cf80de00820f5000838f580017003a009d
:101a800024309000b43090000080ea00dfb097006e
:101a900081026000d5b79f0060028100e10f500015
:101aa00006003a0044319000d43190002430900078
:101ab000b430900000006100060037004430900010
:101ac000d430900024319000b43190000080ea00be
:101ad0000200600085027000d5b79f005fb19700db
:101ae00082806400d1b79f0006806400808f500020
:101af000080032006103b800610ab8000c01be00a2
:101b000040c0b300944a0200010000008041eb0095
:101b100083f79f0062054500e0854d0062064600a0
:101b2000e0864e000e47e8000e80fb00010020001a
:101b30006fb19700ffb19700800f5100818f59005e
:101b4000030036008ff197000304e000a9ff3a007c
:101b50008ff097000180fb004f0778004f06be0012
:101b60004f05be004f04be00af00b10000000600ec
:101b7000ee874700889fbe008a9fbe008c9fbe00f4
:101b80008e1f7800004778000206be000401be00e8
:101b9000c1ef9f000080eb00d0b79f00e24f5700dd
:101ba00002003200f10f2000d1b79f008304d10062
:101bb0000284d3000c00be008e05070061045400af
:101bc000e0845c0012c0b30082ef9f00e10f44008c
:101bd000e08f4c00400032000805be0013c0b30087
:101be00083ef9f008080eb0001c8b900f0b79f0031
:101bf00081bf9f000c00be007e0507000001780039
:101c0000cfe997000304e0000b003a0010028100c6
:101c10009000780091407800e1e79f001008e8000c
:101c2000100281009000780091407800f1e79f0059
:101c30001008e800020037005fb29700b4b79f00b9
:101c4000e34f570005003a00bfb097005fb0970020
:101c500081006000b1b79f00000161003fb09700b4
:101c6000800f5100080032006113b8006102b80013
:101c70000c01be000e407800944a020001000000f2
:101c80000041eb0082ef9f0062064600e0864e00b6
:101c900061055500e0855d008081eb000340b800e0
:101ca00003c1b900010141007fb2970084004100e7
:101cb0000000440081804c0061005000e08058002a
:101cc0008a0f50008b8f5800030032000fe89700f6
:101cd0000004e000c7ff3a008fe897000180fb0096
:101ce0004f0778004f06be004f05be004f04be00f0
:101cf000ef00b10000000600889fbe008a9fbe0072
:101d00008c9fbe003002810010969000a09690003b
:101d100030028100308091000008a30026003200cc
:101d200030028100308091000018a30022003200b0
:101d30000000eb0065fb0700004578000004e000b0
:101d4000050032000041eb003100200010002000af
:101d5000cdf8070000457800e20c81006230900069
:101d6000e10f50000f003a0042089000d2089000a6
:101d700092319000023190000004410081844900ba
:101d80000800be001b050700000178000270a000db
:101d90000a04e000030032000800be00ef0a07005a
:101da0000045780010002000870d07000a04e000bd
:101db00002003a00780037001ac0b3000800200083
:101dc000490020000d8064001100320008007800f6
:101dd0003efb07000841780021002000000320009e
:101de000a9f80700004578000004e0000500320073
:101df000084178008800780000032000a2f807005e
:101e0000004578001000200030fb07001900370063
:101e10000c08a30005003a000d88a30003003a0057
:101e20000c18a30013003a000d0037000041eb002e
:101e3000210020001000200093f8070000457800e2
:101e40000004e0000b0032000041eb008000eb00da
:101e5000100020008cf807000045780005003700ce
:101e6000e00f5600e08f5e00020032000000eb0041
:101e7000550d0700640066000e0032000a04e00001
:101e80000c0032000041eb00210020003000200057
:101e90007df80700004578000004e00005003200ee
:101ea0000041eb008000eb003000200076f80700d6
:101eb0000045780068006600120032000a04e00065
:101ec000100032000041eb003100200040002000f3
:101ed0006df80700004578000004e00009003200ba
:101ee00032000700004578000004e00005003200e1
:101ef0000041eb008000eb004000200062f807008a
:101f00000045780062006600070032000a04e00025
:101f1000050032000041eb002100200001007800a4
:101f200059f807000045780068028100e20f54006c
:101f300019003a0000082000800f5600e08f5e0074
:101f400015003a000a04e0001300320012c0b3008a
:101f500031002000700020004bf807000045780099
:101f60000004e0000c0032000041eb008800780023
:101f70007000200044f80700004578000004e000ed
:101f8000050032000041eb008000eb0070002000f3
:101f90003df80700004578000a80fb004f06be00b0
:101fa0004f05be004f04be00000006000e00fa0000
:101fb000889fbe008a9fbe008c9fbe006000b80054
:101fc000e0b79f00f1b79f0030028100201490001d
:101fd000b0149000084678000043eb008642780079
:101fe0007a825700f8815700748157002100200041
:101ff00040002000e443020001000000004578009a
:102000006fe097000004e000a20032000840780072
:10201000504d0200010000008dad210042c0bf0004
:102020000080fb004500de0090bf9f009202800010
:10203000ff3ffc0042c0bf007f40600001ccb30006
:102040000140700042e0b700920288008000eb007f
:1020500000028100010878008885fb000804e00088
:102060000800320001017800100281009000780021
:10207000917679001008e8000201e8008b0f51000a
:10208000f9ff3900310020000002810001087800ca
:1020900092028000ff3ffc009fb89700c508dd005a
:1020a00042c0bf007f4060000140700042e0b700c6
:1020b000920288000a04e000730032000043eb0043
:1020c000864278007a825700f88157007481570061
:1020d00021002000a0002000e443020001000000d5
:1020e000004578000004e0006700320042c0bf00f5
:1020f0000080fb004500de0090bf9f009202800040
:10210000ff3ffc0042c0bf007f40600001ccb30035
:102110000140700042e0b700920288008000eb00ae
:1021200000028100010878000c04e0001400320075
:102130000d04780001057800100281001008e80005
:10214000e00c8100c07090008041eb000a417800f3
:102150000800780091000700e00c8100d07090002a
:102160000a41e8000800e80013c0b3008b00070034
:102170000a85e8000884e8008b0f5500eeff39005f
:1021800031002000000281000108780092028000e6
:10219000ff3ffc009fb89700c508dd0042c0bf00ac
:1021a0007f4060000140700042e0b700920288006a
:1021b0000043eb00864278007a825700f88157008e
:1021c0007481570021002000a0002000e443020099
:1021d000010000000045780042c0bf000080fb0005
:1021e0004500de0080bf9f0092028000ff3ffc00a0
:1021f00042c0bf007f40600001ccb30001407000ce
:1022000042e0b700920288008000eb0000028100eb
:10221000010878000c04e000080032001002810080
:10222000100078006dc878008100e800100281007d
:102230001008e8008b8f5000f8ff390031002000b3
:10224000000281000108780092028000ff3ffc003c
:102250008fb89700c508dd0042c0bf007f40600016
:102260000140700042e0b700920288000a04e000da
:102270000500320012c0b30021002000a0002000a1
:1022800081f70700004578000c4078007e4d020081
:10229000010000000a80fb004f06be004f05be0093
:1022a0004f04be000080fa00000006000800fa009b
:1022b000889fbe0000447800810378008204780083
:1022c0000080fb00010020006c825700009abe00d5
:1022d0000043eb0086427800ec815700070178004c
:1022e00021002000a0002000e443020001000000c3
:1022f0008041780042c0bf000080fb004500de0046
:10230000d0bf9f0092028000ff3ffc0042c0bf0090
:102310007f40600001ccb3000140700042e0b70094
:10232000920288008000eb00000281000108780022
:102330000804e00009003200090178001002810061
:1023400010007800324878008140e80010028100d7
:102350001008e800814f5400f8ff3a0031002000d7
:10236000000281000108780092028000ff3ffc001b
:10237000dfb89700c508dd0042c0bf007f406000a5
:102380000140700042e0b700920288000380fb0029
:102390004f04be000080fa000000060080037800b1
:1023a000100281001008e800e60c81000630900061
:1023b000963090000282fb0005002000800f520042
:1023c000818f5a0012003a000304e000030032003b
:1023d00016e9900056e090000200370006e99000f0
:1023e00046e090008040780000c0ea00974b600013
:1023f00060028100e10f500002003a0002c060005c
:102400000200370002c0ea0000c06000974b700075
:10241000000006000400fa00889fbe008a9fbe00ec
:102420008c9fbe000005be00020041008380490071
:1024300032002000030020001c0002000100000008
:102440000a0040008b80480080bf9f0091bf9f0022
:1024500088ad210020062000000c7800002020001c
:1024600041002000d0d68800e1d6880010c0b3001b
:102470003bfa07008042780062c0b3000440bc0011
:10248000880041000002eb0084187800a2012000bf
:10249000430220008288be008040e80001407800ae
:1024a00062c0b3000440bc0088004100841878007a
:1024b000a2942300830820008288be0005c6e8009d
:1024c0000c80fb00880078009a2a020001000000be
:1024d0001dc0b3000fb897009fb89700800f55003c
:1024e000818f5d00360031000a04be001dc0b300bc
:1024f0008aad21002c0037000800e00009003200fe
:102500000c40780062c0b3000440bc000a014100e6
:102510002006200000197800002020004100200043
:102520000089be00990107000041eb000800be00d1
:1025300052fa0700f906070062c0b3000440bc006d
:102540008a0041008018eb0092722e00830a20005e
:102550008288be000046e8000c80fb008a007800fc
:102560009a2a02000100000050002000743102008d
:1025700001000000e0022000010020007c3d02007c
:1025800001000000acf807008046780064044400b5
:10259000e0844c000fb897009fb89700880f500058
:1025a000898f580006003600da4b02000100000057
:1025b0000004e00002003a000d04e000ceff3a0003
:1025c000da4b0200010000000004e00003003200ca
:1025d000d44b0200010000008046eb000d80fb00a0
:1025e0004f06be004f05be004f04be000080fa003b
:1025f00000000600889fbe008a9fbe008c9fbe0020
:10260000004478000205be000406be00e20c810012
:10261000020b9000920b900022089000b2089000ec
:102620008100d1000080d300060040008780480070
:1026300062025000e0825800b20990002209900026
:102640006310b8006319b90081004100c209de00bf
:10265000ce0cdd004201de0002817400ea4f54001e
:1026600005003a0030028100702891000018a30094
:102670000300320009003700eb4f540004003a0019
:102680000c01be000a00be00f40707002600370058
:102690000040eb00e24f5400230032008a0f530049
:1026a0008b8f5b001d003e008a0f52008b8f5a00fb
:1026b0001a00390011c0b3000202be000601be00bc
:1026c00030c0b300fbfa0700e14f500009003a00a8
:1026d0000041eb000001200001002000524b0200ed
:1026e000010000000c01be000a00be0049ff070007
:1026f0000d0037000040eb00884b02000100000095
:1027000012c0b3000001200001002000524b020063
:10271000010000000040eb00030037000c01be0088
:102720000a00be003bff07000080fb004f06be0012
:102730004f05be004f04be00000006000400fa0072
:10274000889fbe008a9fbe008c1f78000040eb006f
:1027500083f907000080fb0081ad21009a2a020066
:10276000010000004cc0b3008045eb008aad2100a1
:1027700042c0bf000080fb004500de00a0bf9f00fc
:1027800092028000ff3ffc0042c0bf007f4060001b
:1027900001ccb3000140700042e0b7009202880013
:1027a0008003eb000002810007087800070d780025
:1027b00010028100900078006e835700115b780052
:1027c0001008e8001002810090007800114b78009a
:1027d0001008e8001fb89700010020004409dd0040
:1027e000cc00de00810071004400dd0002ff2f00fc
:1027f000f3002000820278000302780000016100eb
:10280000018061006104b800c040dd0000002000cc
:102810006114b80008007000898070000150a000a9
:1028200010059800210598003705980010028100d6
:102830009000780091407800a1f79f001008e80010
:102840001002810090007800114b78001008e80019
:102850001fb89700010020004409dd00cc00de0015
:10286000810071004400dd00008162000180610090
:102870006104b800c040dd00000020006114b80011
:102880000800700089807000120020000302200000
:102890000200700083807000400598005105980088
:1028a0006705980010028100900078009140780040
:1028b000a1f79f001008e800100281009000780046
:1028c000114b78001008e8001fb8970001002000a5
:1028d0004409dd00cc00de00810071004400dd0011
:1028e00000816200010062006104b800c040dd00a8
:1028f000000020006114b80008007000898070009a
:10290000220020000302200002007000838070007b
:1029100070059800010d9800170d980010028100b5
:102920009000780091407800a1f79f001008e8001f
:102930001002810090007800114b78001008e80028
:102940001fb89700010020004409dd00cc00de0024
:10295000810071004400dd0000816200010062001e
:102960006104b800c040dd00000020006114b80020
:1029700008007000898070003200200003022000ef
:102980000200700083807000200d9800310d9800c7
:10299000470d980010028100900078009140780067
:1029a000a1f79f001008e800100281009000780055
:1029b000114b78001008e8001fb8970001002000b4
:1029c0004409dd00cc00de00810071004400dd0020
:1029d00000816200010062006104b800c040dd00b7
:1029e000000020006114b8000800700089807000a9
:1029f000420020000302200002007000838070006b
:102a0000500d9800610d9800770d9800100281001c
:102a10009000780091407800a1f79f001008e8002e
:102a20001002810090007800114b78001008e80037
:102a30001fb89700010020004409dd00cc00de0033
:102a4000810071004400dd008082620001026200aa
:102a50006121b800c010dd00000020006129b8002d
:102a600002007000838070005200200003022000ea
:102a70000200700083807000001598001115980006
:102a800031002000000281000108780092028000dd
:102a9000ff3ffc00afb89700c508dd0042c0bf0093
:102aa0007f4060000140700042e0b7009202880061
:102ab000000620002015980000302000b10e2000f4
:102ac0003015980041159800100620005015980008
:102ad00068bb2000b90b2000681598007915980094
:102ae000001d980066bb2d00b70b2000161d980036
:102af000271d9800301d980064bb2e00b50b2000e8
:102b0000441d9800551d9800601d980062bb21006f
:102b1000b30b2000721d9800032598001025980023
:102b200028259800392598004025980056259800ba
:102b30006725980070259800042d9800152d9800a1
:102b4000202d9800322d9800432d9800efc54500a8
:102b5000aa05b0007740400080cf550004ff3a003e
:102b600081ad2100800720009a2a020001000000a8
:102b70000c46e900fcfe3a004f0678004f05be0007
:102b80004f04be000080fa00000006000400fa00b6
:102b9000889fbe008a9fbe0042c0bf000080fb002d
:102ba0004500de00b0bf9f0092028000ff3ffc00a6
:102bb00042c0bf007f40600001ccb3000140700004
:102bc00042e0b700920288008004eb00000281001e
:102bd0000908780081ad2100890878001002810081
:102be000100178006c845700125c78001008e8002f
:102bf0001002810010017800124c78001008e800e3
:102c00002fb99700030020004418dd00cc11de002e
:102c1000830170004411dd0004ff2f00f500200047
:102c200084037800050378000202620003806200da
:102c30006105b800c051dd00020020006125b80028
:102c40000a0171008b8171000350a000d2d6880068
:102c5000e3d68800f9d688001002810010017800c0
:102c600012417800c2f79f001008e80010028100ae
:102c700010017800124c78001008e8002fb9970076
:102c8000030020004418dd00cc11de008301700039
:102c90004411dd0002826300038062006105b80018
:102ca000c051dd00020020006125b8000a0171005a
:102cb0008b817100140020000502200004017100c6
:102cc0008581710002d7880013d7880029d7880032
:102cd000100281001001780012417800c2f79f00b5
:102ce0001008e8001002810010017800124c7800f2
:102cf0001008e8002fb99700030020004418dd00f9
:102d0000cc11de00830170004411dd00828363007a
:102d1000030363006132b800c021dd00020020001f
:102d2000613ab8000401710085817100240020001f
:102d300005022000040171008581710032d78800ee
:102d400043d788003200200000028100020878008a
:102d500093028000ff3ffc003fb997004511dd0062
:102d600042c0bf007f4060000240700042e0b700f8
:102d7000930288000006200050d78800023020000f
:102d8000b30e200062d7880073d7880080d78800f0
:102d900002382000b30e200092d78800a3d7880005
:102da0000000e800b0d7880062bb2000b30b200011
:102db000c2d78800d3d78800e0d7880062bb2d0037
:102dc000b30b2000f2d7880003d8880010d8880001
:102dd00062bb2e00b30b200022d8880033d88800b5
:102de00040d8880062bb2100b30b200052d8880075
:102df00063d88800900020009a2a02000100000099
:102e00004f05be004f04be000080fa00000006001f
:102e10000800fa00889fbe008a9fbe008c9fbe00fb
:102e20000006be000205be0088ad2100200620007d
:102e3000000c78000020200041002000d0d688003f
:102e4000e1d6880010c0b300c5f707000080fb0082
:102e5000880078009a2a0200010000004e59dd0027
:102e60004250de0000007100c258de0080bf9f00ab
:102e700091bf9f0012c0b300e00f5000e08f5800d8
:102e8000a10032008045eb0042c0bf000080fb0083
:102e90004500de00f0b79f0092028000ff3ffc007b
:102ea00042c0bf007f40600001ccb3000140700011
:102eb00042e0b700920288000005eb0000028100aa
:102ec0000a08780089ad21008a0c78001002810080
:102ed00090007800f4825700915a78001008e800ba
:102ee0001002810090007800914a78001008e800f4
:102ef0006fb0970001002000440add00cc00de0026
:102f0000810072004400dd0002ff2f00f30020006a
:102f10000202780000016100018061006103b800d5
:102f2000c030dd00000020006113b8000600700012
:102f3000878070000150a000d0d68800e1d68800bc
:102f4000fad6880010028100900078009140780045
:102f5000c1ef9f001008e800100281009000780087
:102f6000914a78001008e8006fb097000100200037
:102f7000c40add00cc00de00818072004400dd0068
:102f800000026200818161006119b800c010dd009b
:102f9000000020006121b8000200700083807000f2
:102fa00012002000030220000200700083807000e5
:102fb00000d7880011d7880031002000000281006e
:102fc0000108780092028000ff3ffc00ffb09700ec
:102fd000c508dd0042c0bf007f40600001407000b6
:102fe00042e0b700920288001806200028d7880027
:102ff00000182000b10e200030d7880041d788008b
:1030000058d7880000982100b10b200060d78800b5
:1030100071d7880088d7880010982000b10b200055
:1030200090d78800a1d7880052c0b3000c00be0022
:1030300092f707008042780062c0b3000440bc00f1
:103040000902410001062000011a7800a2012000b7
:1030500043022000028abe008040e8000140780060
:1030600062c0b3000440bc008900410088187800a9
:10307000a2942300830820008288be0005c0e800d7
:103080002604070062c0b3000440bc008900410070
:103090008a18780092722e00830a20008288be006f
:1030a0000040e8000080fb00890078009a2a0200b6
:1030b0000100000040002000743102000100000007
:1030c00040062000010020007c3d020001000000bd
:1030d000d9f507000041780064064600e0864e00fe
:1030e0008b45e8000b80fb00010020000fba970021
:1030f0009fba9700800f5200818f5a00020036005d
:103100000204e00060ff3a000280fb004f06be00b0
:103110004f05be004f04be000080fa00000006000c
:1031200000032000503d0200010000000004e00008
:103130000c003a0030028100308091000008a300aa
:103140000800320030028100308091000018a30096
:10315000040032000000eb005cf607000004e00011
:10316000220032000041eb0041002000100020004e
:10317000c5f307000004e0001c0032000041eb0032
:103180004100200040012000bff307000004e000e0
:10319000160032000041eb0041002000300020000a
:1031a000b9f307000004e000100032000041eb001a
:1031b0004100200001007800b3f307000004e000a4
:1031c0000a0032000041eb00410020000003200013
:1031d000adf307000004e000040032000041eb0002
:1031e0004100200020002000a7f307000080fb0022
:1031f00000000600889fbe000004be00a1e121007f
:103200000040eb003601070063c0b3000041eb0053
:103210000800be006af707000080fb0081ad2100b6
:103220009a2a020001000000120020000300200082
:10323000e1a121000000eb001631020001000000b6
:10324000d0f080004f04be00000006000400fa0029
:10325000889fbe008a1f7800b0bf9f00c1bf9f003b
:103260003fb89700010020004409dd00cc00de00db
:10327000810071004400dd002200200003022000d4
:103280000200700083807000fff407000ff89700c1
:103290000080fb00010020004409dd00cc00de00be
:1032a000810071004400dd00320020000302200094
:1032b0000200700083807000f3f40700100020000b
:1032c00049f50700302a200081082000eef40700ad
:1032d0002060200081072000ebf40700b0882f0059
:1032e00001022000e8f40700100020003ef507006e
:1032f000c0d8200081072000e3f407001000200060
:1033000039f5070021f507001000200036f5070009
:10331000c0d92c00a10b2000dbf4070050002000d6
:1033200031f5070019f507000005780010002000ae
:103330002df50700c0db2000a10b2000d2f4070010
:103340005000200028f5070010f507006104b800c0
:103350001000200024f507000a80fb000100200077
:10336000c000dd00000020000800700089807000af
:103370004f0578004f04be000080fa0000000600f0
:103380000200fa00889fbe008a9fbe000005be00b2
:103390008044eb00e9f79f00094078003000070007
:1033a00088ad2100eff097000180fb006600b900b6
:1033b0002206200002347800eff097000180fb0025
:1033c0006600b900000044000220200043002000f5
:1033d00012009800230098006ff097000040e8006a
:1033e000e0f79f006ff1970063c0b3000a00be00d2
:1033f000f3f60700e0f79f00eff097000180fb0075
:10340000880078009a2a02000100000012002000c3
:1034100003002000e1a121000000eb0016310200b2
:1034200001000000e9f79f0000000000d0d68000f6
:10343000e1d68000c000dd00000020000000000098
:1034400018017800030020000200700083807000e3
:103450004f05be004f04be000080fa0000000600c9
:10346000889fbe008a9fbe008c9fbe008046780069
:103470000c0620002cd1880000382000b10e20005e
:1034800030d1880041d188008001eb0053d1880001
:103490006ab92100ab0b20006ad188007bd188007b
:1034a000020a200082d18800500020000100200084
:1034b00090d18800a1d18800b3d1880068bb2d00cd
:1034c000a90b2000c8d18800d9d18800e2d188009a
:1034d000f0d1880001d2880013d2880066bd2d008b
:1034e000a70b200026d2880037d2880042d288005d
:1034f00050d2880061d2880073d2880064bb21005a
:10350000a50b200084d2880095d28800a2d2880022
:10351000b0d28800c1d28800d3d28800ead2880015
:10352000fbd2880002d3880010d3880021d3880002
:1035300033d3880048d3880059d3880062d38800e9
:1035400070d3880081d3880093d38800a6d38800e5
:10355000b7d38800c2d38800d0d38800e1d38800d5
:10356000f3d3880004d4880015d4880022d48800be
:1035700030d4880041d488005cd4880000c427007f
:103580008108200060d4880071d488000d04e00018
:10359000030032001000200080d4880002003700b1
:1035a0001008200080d4880000062000b0d48800d5
:1035b00010c4270081082000c0d48800d1d488001e
:1035c0000d04e0000300320010002000e0d4880069
:1035d0000200370010082000e0d488000006200018
:1035e00010d5880020c427008108200020d588003d
:1035f00031d588000d04e0000300320010002000e7
:1036000040d58800020037001008200040d588000f
:103610000006200070d5880030c4270081082000f3
:1036200080d5880091d588000d04e00003003200a9
:1036300010002000a0d588000200370010082000ec
:10364000a0d5880000062000d0d5880040c42700ff
:1036500081082000e0d58800f1d588000d04e00045
:10366000030032001000200000d68800020037005e
:103670001008200000d688000006200030d6880000
:1036800050c427008108200040d6880051d6880009
:103690000d04e000030032001000200060d6880016
:1036a000020037001008200060d6880020062000a5
:1036b00090d688000020200041002000a0d688007d
:1036c000b1d68800f0012000f0d08800c0002000b2
:1036d0004f06be004f05be004f04be0000000600ae
:1036e000010278008000eb0021d1880072882f0051
:1036f0000302200032d1880043d1880051d18800d4
:1037000062bb2000a30b200062d1880073d1880027
:10371000010a200081d1880052002000030020000f
:1037200092d18800a3d188000004e0000300320099
:1037300010002000b0d188000500370010092000db
:10374000b0d188006120b800c0d18800d1d18800f4
:1037500050002000f0d0880020002000000006006b
:10376000e6874700889fbe008a9fbe008c9fbe00f0
:103770008e1f7800004578000204be000406be00db
:10378000014778000104e0000400320010c0b300db
:1037900033ff070080457800030037000040eb004e
:1037a0002fff070080457800e64f550009003e00d6
:1037b0000a00fb00120020000010dd004005b200ee
:1037c00004003200a1e1210002407800c4ff07009c
:1037d0008045780020062000c0d688000020200008
:1037e00041002000d0d68800e1d68800e44f550083
:1037f00005003a0060a121001004e0000200320040
:10380000c8d08000d9d0800063c0b30012c0b3001c
:103810000800be00eaf507000080fb0081ad210032
:103820009a2a020001000000e00f5600e08f5e00bf
:103830006f0032000b80fb0001002000f0b79f00fa
:1038400081bf9f0063c0b3000041eb000800be00d1
:10385000dbf507000080fb0081ad21009a2a020001
:103860000100000060004400e1804c004008de00e0
:1038700001002000c005dd000a0020000c00460009
:103880008d804e0032002000030020001c0002004a
:10389000010000000000440081804c00800f5500b2
:1038a000818f5d002b003100e00f5500e08f5d003f
:1038b000280032000801550089815d006310b800be
:1038c0006319b900810041008100d1000080d3005c
:1038d0000006560081865e007fb197008fb9970081
:1038e0001c000200010000000004be0011003700af
:1038f000f13f2000810f5400e08f5c0003003e0088
:103900000801be006044b8000600370000c02f0068
:10391000f1ff2f0008044000898448000240200085
:1039200003002000e1a121000e80fb0016310200ff
:1039300001000000da4b0200010000000004e0007a
:1039400027003a00e00f5400e08f5c00e8ff3a00e7
:10395000230037007fb197008fb99700020046001f
:1039600083804e0061005000e08058001c0002007f
:10397000010000000004be0011003700f33f2000ea
:10398000830f5400e08f5c0003003e000801be007e
:103990006044b8000600370000c02f00f1ff2f0080
:1039a00008044000898448000240200003002000f1
:1039b000e1a121000e80fb00163102000100000091
:1039c000da4b0200010000000004e00008003a00a9
:1039d000e00f5400e08f5c00e8ff3a00040037007d
:1039e0000a04be00e00f5600e08f5e0095ff3a002b
:1039f000da4b02000100000011c0b3000004e00037
:103a000003003200d44b0200010000008040eb00b4
:103a10000180fb004f0778004f06be004f05be0037
:103a20004f04be006f00b10000000600f28747009f
:103a3000889fbe008a9fbe008c9fbe008e1f7800ac
:103a4000b2b79f00c3b79f00d4b79f00e5b79f00f0
:103a50003fb09700cfb09700f0b79f0081bf9f00a5
:103a60005fb09700efb097000000400081804800f1
:103a7000d0b79f00e1b79f008cad21002006200049
:103a8000000e78000020200041002000d0d68800e1
:103a9000e1d688008005eb00fbd6880010712e006f
:103aa000810a200000d7880011d788000a0a200068
:103ab0002ad78800380020000900200038d7880065
:103ac00049d788008c007800300020009a2a020034
:103ad0000100000001010700804678000b0e78000d
:103ae0001000200081022000d0d68800e1d6880096
:103af000fad6880008d7880019d788002bd7880005
:103b0000108823008108200030d7880041d7880022
:103b10005ad7880068d7880079d788008c00780049
:103b2000400020009a2a0200010000000d04e0007d
:103b3000820032003fb09700cfb097000044780079
:103b40005fb19700efb197000080fb0001002000fb
:103b5000800f5100818f5900780036000b077800e4
:103b60008a0478003a0020000b0020000e0e780036
:103b70007fb097008fb897004409dd00cc01de00cc
:103b8000830171004401dd0000ff2f00f1002000df
:103b900000026100018061006101b800c010dd0019
:103ba000000020006121b8000200700083807000d6
:103bb00012002000030220000200700083807000c9
:103bc000d0d68800e1d68800f9d688000ad78800c8
:103bd0001bd788002ed78800108a23008108200078
:103be00030d7880041d7880059d788006ad7880025
:103bf0007bd788008c007800400020009a2a0200c1
:103c0000010000000e0e780000712e00810a2000d5
:103c1000d0d68800e1d68800f9d688000ad7880077
:103c20001bd788008c007800200020009a2a020010
:103c300001000000c7000700804678000004e00093
:103c400002003a000e0078004c003700de0007004a
:103c500090b79f0042c0bf000080fb004500de001f
:103c6000a0b79f0092028000ff3ffc0042c0bf004f
:103c70007f40600001ccb3000140700042e0b7001b
:103c800092028800000281000008eb00100281000f
:103c900010007800afe09700014878001002810022
:103ca0001008e8001002810010007800bfe09700c3
:103cb00001487800100281001008e800310020005f
:103cc000000281000108780092028000ff3ffc00a2
:103cd000afb09700c508dd0042c0bf007f40600064
:103ce0000140700042e0b700920288007fb0970068
:103cf0008fb8970061004000e0804800f0b79f0057
:103d000081bf9f005fb09700efb097006100500047
:103d1000e0805800d0b79f00e1b79f000844e8005a
:103d20005fb19700efb197000880fb000100200011
:103d3000800f5100818f59008cff3e0081ad210022
:103d40008008eb0002712200f30e2000d2d688001a
:103d5000e3d68800000a2000f0d688003200200058
:103d60000300200002d7880013d78800200020001d
:103d70009a2a0200010000000d80fb004f07780026
:103d80004f06be004f05be004f04be002f01b1001c
:103d9000000006000600fa00889fbe008a9fbe0051
:103da0000005be000204be00630061008000eb005d
:103db00045003a00400037000a00be0023fd07001e
:103dc00090bf9f00a1bf9f000000200001f02f00c6
:103dd0001fb99700afb99700000071008180710092
:103de00090bf9f00a1bf9f0042c0bf000080fb00aa
:103df0004500de00b0bf9f0092028000ff3ffc0044
:103e000042c0bf007f40600001ccb30001407000a1
:103e100042e0b700920288008000eb0000028100bf
:103e2000010878000101780010028100100078007c
:103e3000aff1970003487800100281001008e800f5
:103e40001fb89700afb89700c809dd004800de0032
:103e500000807100c808de0090bf9f00a1bf9f00d6
:103e60000201e800e40f5100efff3a0031002000aa
:103e7000000281000108780092028000ff3ffc00f0
:103e8000bfb89700c508dd0042c0bf007f4060009a
:103e90000140700042e0b7009202880062054500d0
:103ea000e0854d0064045400e0845c00c2ff3a00e9
:103eb0001100200004003700e00f5100e08f59008e
:103ec000fbff3200bcff3700010078004f05be0049
:103ed0004f04be000080fa0000000600889fbe006c
:103ee0001000200040f20700008823000108200095
:103ef000e5f10700400020003bf2070000c4270066
:103f000081082000e0f107004000200036f20700a1
:103f1000f87f200009002c00070037001bf2070083
:103f200009006000890f500003003a000000000003
:103f300010c0b300030037000804e900f7ff3a009f
:103f400008407800000000000080fb004f04be0025
:103f5000000006000200fa00881f7800f87f2000a9
:103f600013003700100020001ff207000088230014
:103f700001082000c4f10700100020001af2070019
:103f800000c4270081082000bff1070010002000b6
:103f900015f20700fdf10700e0bf9f006fb8970022
:103fa0000078a30002003a00000000000200370081
:103fb0000804e900ebff3a00100020004f047800ed
:103fc0000080fa00000006001000200006f2070042
:103fd000008b230001082000abf107001000200037
:103fe00001f2070000c4270081082000a6f10700a5
:103ff00010002000fcf10700e4f1070000000600bb
:10400000881f78000000eb00b0f207000044780041
:104010000004e0001a00320012c0b300310020009a
:104020001000200018f00700004478000004e000b1
:104030001300320012c0b3003100200001007800ec
:1040400011f00700004478000004e0000c0032008a
:1040500012c0b30031002000400020000af0070029
:10406000004478000004e0000500320012c0b300f4
:10407000310020008000200003f007000044780099
:1040800029f307000880fb004f04780000000600b9
:104090000203be000401be00e44f50000b003200da
:1040a00006003e0011c0b300e24f5000160032007f
:1040b000e34f50000f003a00070037006740500000
:1040c000e14f50000b003e0006003700c100070022
:1040d000804078000c0037000000000011c0b300e1
:1040e000090037000600be00090007008040780084
:1040f000050037006011b800e00024000100200036
:104100002e000700804078000180fb0000000600c0
:10411000650007000080fb0000000600881f780093
:104120000044780085ad210062c0b3000440bc00ab
:10413000850041000002eb0084187800a2552000a1
:10414000030220008288be008040e8000140780021
:1041500062c0b3000440bc000501410004197800ae
:10416000a6972300870820000689be0088c0e800c3
:104170000140780062c0b3000440bc0085004100eb
:1041800084187800a2aa2000030220008288be00c2
:10419000e34044000140780062c0b3000440bc002a
:1041a00005014100041978000689be0064404400fe
:1041b0000080fb004f04780000000600889fbe00ce
:1041c00088ad21008004eb00090c78004409dd0073
:1041d000cc00de00810071004400dd0002ff2f00f2
:1041e000f300200000026100018061006101b8005d
:1041f000c010dd00000020006121b8000200700046
:1042000083807000a20020000302200002007000e2
:1042100083807000d0d68800e1d68800f9d6880067
:10422000a09423008108200000d7880011d78800bf
:1042300020c0b300b9ff070062c0b3000440bc0057
:104240000802410001062000011a780092722e0037
:10425000830a2000028abe000040e8000080fb00c4
:10426000880078009a2a0200010000003000200037
:104270005df1070000092d00310020007c3d0200a7
:10428000010000006cf1070000447800a6f207006e
:10429000090078000df207000884fb000800780090
:1042a0004f04be0000000600889fbe008a9fbe002b
:1042b0008c1f78000004be0002004100838049008a
:1042c00032002000030020001c000200010000005a
:1042d000080540008985480081ad210020062000a6
:1042e000800878000220200043002000d2d68800f9
:1042f000e3d688000000eb00f0d68800a20320007f
:104300004302200002d7880013d7880020d78800f6
:10431000a29423008308200032d7880043d7880066
:10432000300020009a2a02000100000012c0b300f1
:104330008a0f54008b8f5c00210031008cad21006e
:104340000041eb000800be00ccf2070073ff07003d
:1043500062c0b3000440bc000c0241000106200012
:10436000011a780092722e00830a2000028abe0091
:104370000040e8000080fb008c0078009a2a0200d0
:10438000010000005000200017f107002af107008b
:104390000041780000402000010020000804400097
:1043a000898448000000000000000000880f5500cc
:1043b000898f5d00020036000204e000e0ff3a0051
:1043c0000280fb004f0678004f05be004f04be0080
:1043d000000006000a00fa00889fbe008a9fbe0007
:1043e0006000b800a0bf9f00b1bf9f0030028100f5
:1043f000c06490008aad210018c0b300c0a12100a4
:104400001004e0003c003a0009407800504d0200e2
:10441000010000000043eb008642780072825700e2
:10442000f08157006c81570021002000a00020007f
:10443000e4430200010000000004e0001f0032001d
:10444000e00c8100603090008042eb00e10f5000f2
:1044500001003a00804278000504a2000984fb00b4
:104460000904e000150032008a0178000002eb0028
:10447000e00c810087042000808343004603200075
:10448000000343000580fb00000040000081430062
:104490000600400083007800b2457800b0d865007f
:1044a00012417800904861000482e8008542e800eb
:1044b0008381e800880f5200f2ff39000a0178007a
:1044c000ec8057000940780078f707000044780036
:1044d0000004e0000500320012c0b30021002000fb
:1044e000a0002000e8ee07000044780009407800b2
:1044f0007e4d0200010000000880fb004f05be0059
:104500004f04be000080fa00000006000c00fa0014
:10451000889fbe008a1f78006000b800a0bf9f007f
:10452000b1bf9f0030028100700c900008457800f8
:104530000043eb008642780072825700f0815700fa
:104540006c81570021002000b0002000e4430200ed
:10455000010000008044780008407800504d0200bf
:10456000010000000880fb008001d1000904e00088
:104570003200320042c0bf000080fb004500de0078
:10458000c0bf9f0092028000ff3ffc0042c0bf00fe
:104590007f40600001ccb3000140700042e0b700f2
:1045a000920288008000eb00000281000108780080
:1045b0000381fb000304e0000f00320000c2eb00a7
:1045c0008041eb0010028100100078000448780060
:1045d000100281001008e80010028100100078002d
:1045e00003487800100281001008e8008100e8000c
:1045f000828f5000f3ff390031002000000281005b
:104600000108780092028000ff3ffc00cfb89700bd
:10461000c508dd0042c0bf007f406000014070005f
:1046200042e0b7009202880012c0b30021002000cf
:10463000b000200094ee0700804478000a40780023
:104640007e4d0200010000000980fb004f0578004c
:104650004f04be000080fa0000000600ec8747000f
:10466000889fbe008a9fbe008c9fbe008e1f780070
:10467000f0b79f0081bf9f000206be00c0a12100cd
:104680001004e000050032007fb097008fb897005b
:10469000dff907000080fb00aa00370088ad210089
:1046a00020062000000c780000202000410020009f
:1046b000d0d68800e1d688000001eb00f2d6880051
:1046c000a00020004102200000d7880011d78800f8
:1046d00022d78800a09423008108200030d78800ca
:1046e00041d7880030c0b3009df107000045780035
:1046f0000080fb00880078009a2a02000100000078
:104700008d06d1000c86d300e00c8100900890004b
:104710000008900012c0b300a2ef9f007fb1970085
:104720008fb99700800f5100818f5900040032002b
:1047300061064600e0864e008041eb00a3ef9f003b
:1047400014c0b300e00f5600e08f5e007c00320022
:104750007fb497008fbc97000000eb00e0b79f008c
:104760006011b80014c0b300800578008ead210040
:1047700010028100900078009140780081ef9f0046
:104780001008e80010028100900078009140780045
:1047900091ef9f001008e800c0a121001004e00084
:1047a00020003a00afe897000104e0001d003a0045
:1047b0000b04e00005003a004fb19700e2b79f00fc
:1047c00062044400e0844c0053003700e5cf5500fc
:1047d0000b003a0060028100e10f500005003a0032
:1047e000f0072000cfb0970080806000c1b79f0025
:1047f000030037004fb097000070a000c0b79f00c3
:1048000061005600e0805e00800f5100818f5900ea
:1048100004003a00efb09700c1b79f007fb4970043
:104820008fbc97000a40780062c0b3000440bc000f
:104830008e0241008000eb00811a78004fb0970093
:10484000010020004409dd00cc00de008100710081
:104850004400dd0002ff2f00f30020000202600090
:10486000038060006101b800c010dd00000020007e
:104870006121b80002007000838070000150a00028
:10488000808abe000a40e80062c0b3000440bc0059
:104890000e014100100620000019780000b8200029
:1048a000b10b20000089be000ac1e8000800be006c
:1048b00072f1070019fe070062c0b3000440bc009b
:1048c0008e0041008001eb008318780092722e0068
:1048d000830a20008288be000040e8000080fb00c0
:1048e0008e0078009a2a02000100000030002000ab
:1048f000743102000100000000352c00010020008e
:104900007c3d020001000000cbef07000042780070
:1049100062044400e0844c000b40e8000081fb008e
:1049200003002000820f5600838f5e0004003600d3
:104930008b05e8000045eb000404e0008cff3a0022
:104940000480fb004f0778004f06be004f05be00f5
:104950004f04be00cf00b10000000600889fbe00db
:104960008a9fbe008c1f78000005be0002067800fa
:1049700020062000c0d68800002020004100200032
:10498000d0d68800e1d68800e00c810080a090009d
:1049900070989000800f5500818f5d0007003a00ed
:1049a0000000eb00f0d68800a008200041022000a3
:1049b00000d7880011d78800060037000000eb0000
:1049c000f0d68800a00120004102200000d7880016
:1049d00011d7880089ad21000004eb0028d788009a
:1049e000a09423008108200030d7880041d7880098
:1049f00030c0b300daf007000080fb0089007800c7
:104a00009a2a020001000000880c78006160b8005a
:104a10004409dd00cc00de00810071004400dd00af
:104a200002ff2f00f30020000002610001806100fe
:104a30006101b800c010dd00000020006121b80055
:104a400002007000838070000150a000d0d6880062
:104a5000e1d68800f8d6880010ff2f00f102200070
:104a600000d7880011d788001206200022d78800be
:104a700000b02000b10b200030d7880041d788005b
:104a800052d7880010b02900b10b200060d78800f1
:104a900071d7880042c0b3000a00be00f7f00700db
:104aa0009efd070062c0b3000440bc0089004100c5
:104ab0008818780092722e00830a20008288be0037
:104ac0000040e8000080fb00890078009a2a02007c
:104ad00001000000300020007431020001000000dd
:104ae00000352c00010020007c3d02000100000088
:104af00051ef07000080fb004f0678004f05be0015
:104b00004f04be0000000600e8874700889fbe00f3
:104b10008a9fbe008c9fbe008e1f7800e0b79f006a
:104b2000f1b79f008205780003057800040678003d
:104b300085bf9f0020062000c0d6880000202000ee
:104b400041002000d0d68800e1d688000000eb00ac
:104b5000f0d68800a00120004102200000d7880084
:104b600011d788000001eb0022d78800a094230011
:104b70008108200030d7880041d7880030c0b300ba
:104b80009ff00700004778000084fb0081ad210002
:104b9000080078009a2a0200010000006644b9006b
:104ba00083ad2100088441000000eb00001c780068
:104bb0006158b800440bdd00cc03de0087037300ae
:104bc0004403dd0000ff2f00f10020008002780088
:104bd0000102780006016000078060006103b800f0
:104be000c030dd00000020006113b8000600700036
:104bf000878070000150a000008cbe000e40e800cd
:104c000062c0b3000440bc00030441000001eb009b
:104c1000021c78000b002000c459dd00cc55de00da
:104c20008b8571004455dd000a8162000b00620033
:104c30006103b800c030dd00000020006113b8003f
:104c40000600700087807000120020000302200020
:104c5000021c7000039470000ec0e80062c0b30034
:104c60000440bc0080ad2100000441000001eb00c5
:104c7000021c78000d002000c469dd00cc66de0057
:104c80008d8671004466dd000c8162000d006200bb
:104c90006103b800c030dd00000020006113b800df
:104ca00006007000878070002200200003022000b0
:104cb000021c7000039470006340470062c0b300a0
:104cc0000440bc0080ad2100000341000001eb0066
:104cd000021b78008fb997006118b8004409dd0005
:104ce000cc00de00810071004400dd0080826200a3
:104cf000010262006121b800c010dd000000200048
:104d00006129b8000200700083807000320020002a
:104d100003022000021b70000393700064404700f0
:104d200062c0b3000440bc0083ad21000301410018
:104d3000130620000319780000b02000b10b2000fa
:104d40000089be006540470062c0b3000440bc005b
:104d500080ad2100000141000319780010b0290046
:104d6000b10b20000089be006640470062c0b3005e
:104d70000440bc0080ad210000014100031978000f
:104d800020b02000b10b20000089be006740470022
:104d900062c0b3000440bc0080ad210000014100ae
:104da0000319780030b02900b10b20000089be0043
:104db000684147006fb09700ffb097002ff00700e1
:104dc000d6fc070062c0b3000440bc0083ad2100e4
:104dd000830041000001eb008218780092722e00df
:104de000830a20008288be000040e8000080fb00ab
:104df00081ad21009a2a020001000000300020004d
:104e0000743102000100000000352c000100200078
:104e10007c3d02000100000087ee07000080fb00df
:104e20004f0778004f06be004f05be004f04be007e
:104e30008f00b100000006000400fa00f00d200011
:104e4000f0bf9f00e0bf200001082000e9f8070044
:104e5000e0bf9f00efb897007fb897000041eb00dc
:104e6000808f500011003a00310281006fb8970026
:104e700080e09a00c0bf200001082000ddf8070094
:104e8000e0bf9f00310281000040eb0090e09a00fb
:104e900030028100dff8970021e09a0031028100a2
:104ea0006fb89700b0e09a0012c0b3000280fb0018
:104eb0000080fa00000006001000fa00889fbe0083
:104ec0008a1f780030028100f0889100608891008c
:104ed000e00f5000e08f580003003a00000000008f
:104ee00010002000b100370030028100908891004e
:104ef000008891000008a300090032003002810000
:104f0000308091000008a300050032000000eb0093
:104f1000eeee0700004578000004e0009d0032003e
:104f200030028100208c9100b08c91003002810011
:104f300040899100d08991003002810090909100c9
:104f40000090910002026000038060006101b800df
:104f5000c010dd00000020006121b80002017000d7
:104f600083817000d2b79f00e3b79f00e50c8100fa
:104f700045089000d50890000531900095319000cb
:104f80000000410081804900b0bf9f00c1bf9f0069
:104f90003fb89700cfb89700800f5400818f5c0016
:104fa0003b003a0025309000b53090005fb197008b
:104fb000efb197000080ea008180ea000002610002
:104fc000018061006101b800c010dd000000200018
:104fd0006121b8000201700083817000d2b79f0088
:104fe000e3b79f00201a220011c0b30090cf100039
:104ff0000f003a0045319000d531900025309000e7
:10500000b530900002026000038060006101b800ca
:10501000c010dd00000020006121b8000200700017
:105020008380700090bf9f00a1bf9f0010003700d9
:1050300045309000d530900025319000b53190007a
:105040000080ea008180ea000002610001806100c6
:105050006101b800c010dd00000020006121b8002f
:10506000020070008380700090bf9f00a1bf9f006e
:105070005fb19700efb197001fb89700afb89700e6
:105080000000710081807100d0b79f00e1b79f00e0
:10509000c2ff2a00820f5400e08f5c000d00320036
:1050a000c37f2500830f5400e08f5c0009003200ad
:1050b000c0bf2200800f5400e08f5c00050032006a
:1050c000c07f250001042000800f5400818f5c0008
:1050d00001003a00000000005fb19700efb19700b7
:1050e0000800be001dfe0700004578003002810068
:1050f00060899100f08991005fb09700efb0970050
:1051000002026000038060006101b800c010dd0091
:10511000000020006121b80002017000838170004e
:10512000d2b79f00e3b79f000800be0047f8070012
:10513000f0b79f0081bf9f0030028100608991001d
:10514000f08991007fb097008fb89700020260004d
:10515000038060006101b800c010dd000000200085
:105160006121b8000200700083807000f0b79f00da
:1051700081bf9f007fb097008fb897005fb1970005
:10518000efb19700820f5000838f5800010032006a
:105190000045eb0030028100008891000018a30058
:1051a00001003200e0ee07000a80fb004f057800a6
:1051b0004f04be000080fa00000006000400fa0060
:1051c000881f78008a9fbe000005be0042c0bf0055
:1051d0000080fb004500de00c0bf9f0092028000ff
:1051e000ff3ffc0042c0bf007f40600001ccb30025
:1051f0000140700042e0b700920288000004eb001a
:1052000000028100080878001002810090007800f8
:1052100091407800e1f79f001008e800100281003b
:105220009000780091407800f1f79f001008e800a6
:105230003100200000028100010878009202800005
:10524000ff3ffc00cfb89700c508dd0042c0bf009b
:105250007f4060000140700042e0b7009202880089
:10526000b1ee07000800780018ee0700f2ff2700f3
:1052700040b92a0001002000b8fd07000044780072
:105280000004e0000c0032003fb997000a00be00a5
:10529000b2fd0700004478000004e0000600320080
:1052a00002602000030020000040250001002000d3
:1052b000fdfb0700004478009bee07000000eb00b8
:1052c00002ee07000880fb004f05be004f04780087
:1052d0000080fa00000006000800fa00881f78002d
:1052e00012c0b300e2f79f002204200012417800b0
:1052f0000281fb004511de00e2bf9f0094028000a6
:10530000ff3ffc0022042000124178007f41610031
:1053100003ccb300034171000001fd0042e0b7007f
:105320000001fd00940288000004eb0002028100ed
:1053300008097800120281009201780093417800f8
:1053400083ff9f001209e800120281009201780099
:105350009341780093ff9f001209e800330020007a
:10536000020281000309780094028000ff3ffc00e4
:10537000efb99700c519dd00220420001241780022
:105380007f416100034171000001fd0042e0b70070
:105390000001fd009402880096f70700d0bf9f002f
:1053a000dfb897004fb89700808f5000010032009f
:1053b000e8f79f00eff097000180fb004f047800b2
:1053c0000080fa0000000600889fbe00e10f500038
:1053d0003d003a000044eb00804478003002810038
:1053e000308091000008a3002900320030028100c3
:1053f000308091000018a300250032000804e0006e
:1054000003003a008cfe07000004e0001a003a0096
:1054100012c0b30031002000800020001aeb07000a
:105420000004e000100032000041eb0021002000e9
:105430008000200014eb07000004e0000a003200a6
:105440000041eb008000eb00800020000eeb070025
:10545000804478000004e0000300320076fe07007c
:1054600018c0b30004003700a24b02000100000086
:105470008044eb0018c0b3002bee070010002000a2
:1054800092ed07000904e00002003a001300370023
:1054900018c0b300084c0200010000000004e00046
:1054a00012003a0020ee07000000eb0087ed070035
:1054b0000804e00010003a0018c0b3000904e0003e
:1054c00006003200c5ff370017ee07000000eb00b2
:1054d0007eed070019c0b3000900370012ee070087
:1054e0000000eb0079ed0700050037000904e0003b
:1054f00003003a00f9ff37008044eb00f7ff370064
:105500000980fb004f04be00000006000000eb0015
:1055100000000600dc42a8000000000000000000bf
:1055200000000600dc42a9000000000000000000ae
:105530000000060060d088004280bf00000eb2006c
:1055400012bab700000c20004220b700849fbe00b2
:10555000b82a0200010000004f02be00f0f12f0047
:105560004220b600129abf004220b7000000060099
:10557000e4a02100110a780004a12100310a78007a
:10558000061aa9000efaaf003a0137000edaaf0092
:105590000e3aef00dc42a90000000000000000000d
:1055a000dc82a9000e1aaf00dc82a800dc42a80051
:1055b000000000000000000000000000dc42a90024
:1055c0000000000000000000dc82a9000e3aaf00dd
:1055d000dc82a800dc42a8000000000000000000ff
:1055e00000000000dc42a9000000000000000000f4
:1055f000dc82a9000e5aaf00dc82a800dc42a800c1
:10560000000000000000000000000000dc42a900d3
:105610000000000000000000dc82a9000e7aaf004c
:10562000dc82a800dc42a8000000000000000000ae
:1056300000000000061aaf0028023700e5a0210094
:10564000150278000400a70024023700000037008c
:1056500024a02100310a7800dc42a90000000000eb
:1056600000000000dc82a900021aaf00dc82a80062
:10567000dc42a80000000000000000000000000064
:10568000dc42a9000000000000000000dc82a9004c
:10569000023aaf00dc82a800dc42a8000000000053
:1056a0000000000000000000dc42a9000000000033
:1056b00000000000dc82a900025aaf00dc82a800d2
:1056c000dc42a80000000000000000000000000014
:1056d000dc42a9000000000000000000dc82a900fc
:1056e000027aaf00dc82a800dc42a80000000000c3
:1056f0000000000000000000dc42a90000000000e3
:1057000000000000dc82a900029aaf00dc82a80041
:10571000dc42a800000000000000000000000000c3
:10572000dc42a9000000000000000000dc82a900ab
:1057300002baaf00dc82a800dc42a8000000000032
:105740000000000000000000dc42a9000000000092
:1057500000000000dc82a90002daaf00dc82a800b1
:10576000dc42a80000000000000000000000000073
:10577000dc42a9000000000000000000dc82a9005b
:1057800002faaf00dc82a800dc42a80000000000a2
:105790000000000000000000dc42a9000000000042
:1057a00000000000dc82a900031aaf00dc82a80020
:1057b000dc42a80000000000000000000000000023
:1057c000dc42a9000000000000000000dc82a9000b
:1057d000033aaf00dc82a800dc42a8000000000011
:1057e0000000000000000000dc42a90000000000f2
:1057f00000000000dc82a900035aaf00dc82a80090
:10580000dc42a800000000000000000000000000d2
:10581000dc42a9000000000000000000dc82a900ba
:10582000037aaf00dc82a800dc42a8000000000080
:105830000000000000000000dc42a90000000000a1
:1058400000000000dc82a900039aaf00dc82a800ff
:10585000dc42a80000000000000000000000000082
:10586000dc42a9000000000000000000dc82a9006a
:1058700003baaf00dc82a800dc42a80000000000f0
:105880000000000000000000dc42a9000000000051
:1058900000000000dc82a90003daaf00dc82a8006f
:1058a000dc42a80000000000000000000000000032
:1058b000dc42a9000000000000000000dc82a9001a
:1058c00003faaf00dc82a800dc42a8000000000060
:1058d0000000000000000000310a7800dc42a9004e
:1058e0000000000000000000dc82a900021aaf00e6
:1058f000dc82a800dc42a8000000000000000000dc
:1059000000000000dc42a9000000000000000000d0
:10591000dc82a900023aaf00dc82a800dc42a800c9
:10592000000000000000000000000000dc42a900b0
:105930000000000000000000dc82a900025aaf0055
:10594000dc82a800dc42a80000000000000000008b
:1059500000000000dc42a900000000000000000080
:10596000dc82a900027aaf00dc82a800dc42a80039
:10597000000000000000000000000000dc42a90060
:105980000000000000000000dc82a900029aaf00c5
:10599000dc82a800dc42a80000000000000000003b
:1059a00000000000dc42a900000000000000000030
:1059b000dc82a90002baaf00dc82a800dc42a800a9
:1059c000000000000000000000000000dc42a90010
:1059d0000000000000000000dc82a90002daaf0035
:1059e000dc82a800dc42a8000000000000000000eb
:1059f00000000000dc42a9000000000000000000e0
:105a0000dc82a90002faaf00dc82a800dc42a80018
:105a1000000000000000000000000000dc42a900bf
