:020000040000fa
:020000040001f9
:10e000005aa50000110100001613000001000000d5
:10e01000000100001000000000000000000a0000e5
:020000040000fa
:020000040001f9
:10f00000ca190100281a0100d4190100481c010086
:10f01000f41c0100681c0100821c0100aa1c0100f4
:10f02000c01c0100da1c01000a1d0100c61d010000
:10f03000ec1d0100121e01002a1e0100421e0100eb
:10f0400096270100301d0100461d01005e1d0100d4
:10f05000b01d01005a1e01007a1e0100921e01001f
:10f06000a81e0100a41d0100741d0100801d0100e7
:08f070008c1d0100981d010038
:020000040000fa
:020000040002f8
:100000008001780002003700815978000201e90080
:100010000200e000fcff3a000000060002000700ba
:100020000400be00000006006022b80006022000a6
:100030000000d0008180d2000482d2008582d200ec
:100040000000a0000202520083825a000300310027
:100050000202420083824a000000a1000603e90078
:10006000f3ff3a00000006000000fe000040eb0035
:10007000cc2702000100000080b0210030d08800b1
:1000800051e98000712891000060a000f0289900db
:1000900051e98000712891000030a000f0289900fb
:1000a00051e98000418091000080a000c08099004b
:1000b00001f4800061309000e10f500002003a002e
:1000c00010fe8800020037000000eb0010fe8800e0
:1000d00011389000a138900002c02000820f50001b
:1000e000e08f5800030036001000200020fe88003a
:1000f000020037000000eb0020fe88001000200006
:10010000000006000000000000000600f287470023
:10011000889fbe008a9fbe008c9fbe008e1f780005
:1001200080047800010678008246780000032000f1
:10013000302b02000100000000477800ea8f5400d5
:1001400004003a006000b800b0b79f00c1b79f003c
:1001500005003700eb8f540003003a006000b80040
:10016000b0b79f00c1b79f000e04e0000b00320043
:1001700016c0b3008d42780076825700fe8157008a
:100180007a8157008c00780009007800b21f0200c5
:100190000100000000447800c2003700678054006e
:1001a000e10f50001b003e00e30f56001900320023
:1001b000e78f54000a003a0050e9800000209000c8
:1001c0006105b80018c0b30088f79f006011b8003f
:1001d000e2b79f00f3b79f0039012000ab00370062
:1001e00018c0b300e88f5400b6003a0050e9800010
:1001f000401890006105b80018c0b30088f79f0050
:100200006000b800e0b79f00f1b79f00290120000f
:100210009e0037000043eb008d4278007682570045
:10022000fe8157007a8157008c0078000900780021
:10023000b21f02000100000000447800990037005e
:100240000060200001002000800f5500818f5d00bc
:100250000300360090b79f00a1b79f00020037004f
:100260009ab79f00abb79f006fb19700ffb197009f
:10027000b2b79f00c3b79f000043eb008d427800e8
:1002800076825700fe8157007a8157008c007800f3
:1002900009007800b21f020001000000004478004d
:1002a0000804e0006c0032002fe897000004e00032
:1002b00069003200e20f56004b00320005003e009c
:1002c0000c00e0001b003200e10f560005003a0070
:1002d00034003700e30f560053003200e40f56009d
:1002e000020032000044eb005b0037000e04e00027
:1002f000080032001fb29700afb297003fb19700dd
:10030000cfb1970009407800100c07000044780036
:10031000510037001fb29700afb297003fb197006e
:10032000cfb1970009407800db0307000044780054
:1003300049003700e48f540007003a001fb19700ce
:10034000afb197003fb09700cfb0970045090700c5
:10035000004478004000370020d221001004e00063
:10036000080032001fb29700afb297003fb197006c
:10037000cfb19700094078009a0807000044780040
:10038000350037001fb29700afb297003fb197001a
:10039000cfb19700094078002e080700004478008c
:1003a0002d003700e48f540007003a001fb197007a
:1003b000afb197003fb09700cfb09700690a070030
:1003c00000447800240037001fb29700afb29700b6
:1003d0003fb19700cfb1970009407800260a070087
:1003e000004478001c003700e48f540006003a00f7
:1003f0001fb19700afb197003fb09700cfb0970003
:100400000c060700140037001fb29700afb2970028
:100410003fb19700cfb197000940780091060700df
:10042000004478000c003700e48f540003003a00c9
:100430002803070000447800070037001fb2970028
:10044000afb297003fb19700cfb197000940780055
:1004500047030700004478008ff197000304e00091
:10046000180032001fb09700afb09700000555008c
:1004700081855d006fb19700ffb1970002014000d8
:1004800083814800e2b79f00f3b79f00e00f55005b
:10049000e08f5d000b0032000804e00068ff3a00c6
:1004a000080037008041eb0083f79f001a0020000e
:1004b0000b0020006000b800e0b79f00f1b79f007c
:1004c00077ff37000880fb004f0778004f06be001b
:1004d0004f05be004f04be002f01b1000000060012
:1004e000881f780050e980004080910018c0b30058
:1004f00000b8a30027003a00dc82a900da42a90074
:10050000e402a800d842a900e422a800803e20000e
:10051000010020005c2b0200010000001000200000
:10052000462b020001000000401f200001002000b7
:100530005c2b0200010000000000eb00462b0200d3
:1005400001000000609f2000010020005c2b0200e1
:10055000010000000085240031d42400063302008d
:1005600001000000609f2000010020005c2b0200c1
:100570000100000010002000462b020001000000d6
:100580000044780000712200010020005c2b020072
:10059000010000000880fb004f0478000000060006
:1005a0000200070010002000000006000040eb00e1
:1005b000cc2702000100000081a0210010c0b30080
:1005c0008048780050c0b30090409800f2012000ad
:1005d0000300200052d0880063d088001000200063
:1005e000560b0700803e2000010020005c2b02001b
:1005f000010000000000eb00462b0200010000009b
:10060000803e2000010020005c2b02000100000061
:10061000e402a800d842a90010fe80000000e0001b
:100620000a003200da42a800803e200001002000cb
:100630005c2b020001000000da42a900803e20008d
:10064000010020005c2b02000100000000000600f9
:10065000881f780050e98000308091000008a300d6
:100660003b00320050e98000308091000018a30068
:100670003700320050e980000044eb002858990010
:1006800008407800cc2702000100000020d22100a1
:100690000848780050e980004080910000b8a3002d
:1006a00002003a008eff0700070037000000eb0051
:1006b000462b020001000000609f20000100200086
:1006c0005c2b02000100000081a0210010c0b300db
:1006d0008048780060c0b30090409800f20120008c
:1006e0000300200052d0880063d0880024c0b300eb
:1006f000e440980050c0b300f04098004200200051
:100700000300200082d0880093d08800c44898005d
:10071000d04898007200200003002000b2d088006a
:10072000c3d0880030002000040b07000004e00064
:1007300008003200007d2000010020006e0a070042
:100740000004e0000300320005000700010037004c
:1007500010c0b3000080fb004f04780000000600ca
:1007600081a0210024c0b3008448780050c0b300a9
:1007700090409800420020000300200052d08800e2
:1007800063d08800e4409800f04098007200200098
:100790000300200082d0880093d08800c4489800cd
:1007a000d04898001200200003002000b2d088003a
:1007b000c3d0880030c0b300a05098007d404000f6
:1007c000b05098006011b800e2d08800f3d08800e3
:1007d00040002000d90a0700e2d08000f3d080005a
:1007e00051e98000d4e98000e5e98000b4889800f0
:1007f000c588980051e9800092889800a3889800e5
:1008000052e9800011c0b300215999000080fb001b
:10081000000006000200fa00889fbe0088a02100a8
:1008200023c0b300034c780052c0b30012449800b8
:10083000400020000100200050d0880061d08800d6
:10084000634498007244980070002000010020006a
:1008500080d0880091d0880030c0b300404c980010
:1008600080c0b300504c98006000b800b0d0880041
:10087000c1d088008800780030002000af0a07004f
:1008800080447800684c9000a8ff9f000004e000be
:100890000b00320000082000dfb8970000806000e5
:1008a000070032000041eb00100020000100200092
:1008b000f0260200010000008044eb000500370034
:1008c00012c0b3001000200001002000f02602003a
:1008d000010000000980fb004f04be000080fa0008
:1008e00000000600889fbe008a9fbe008c1f780013
:1008f00058fe80000800e00005003a00c5ff070030
:100900000004e00002003200884078006c003700ec
:1009100050e980004080910000b8a3004f003a00e9
:1009200081a0210038c0b3008848780085c0b3009a
:1009300095409800120d20000300200052d088003e
:1009400063d0880024c0b300e440980050c0b300d6
:10095000f04098005a0020000b0020008ad0880048
:100960009bd088001cc0b300cc48980069c0b3007d
:10097000d9489800f601200007002000b6d0880072
:10098000c7d08800a4509800b0509800c200200042
:1009900003002000e2d08800f3d08800845898003b
:1009a00090589800420020000300200012d18800d7
:1009b00023d18800e4589800f05898007200200075
:1009c0000300200042d1880053d18800c8609800fd
:1009d000d5609800020d20000300200072d188002d
:1009e00083d18800a8689800b5689800e20f2000bd
:1009f00003002000a2d18800b3d188008470980041
:100a000090709800dad18800ebd18800ec709800e3
:100a1000f970980006d2880017d28800c478980030
:100a2000d0789800120020000300200032d2880005
:100a300043d28800a8c098007b404000b0c0980016
:100a40006011b80062d2880073d28800c000200014
:100a50003a0a0700804078001900370081a0210081
:100a600024c0b3008448780050c0b3009040980080
:100a7000520020000300200052d0880063d088007c
:100a8000e4409800f0409800c200200003002000dd
:100a900082d0880093d0880020002000270a070019
:100aa00010002000462b020001000000401f200023
:100ab000010020005c2b02000100000011c0b30007
:100ac0000000eb0050fe88000180fb004f0678001c
:100ad0004f05be004f04be000000060081a02100ab
:100ae00020c0b3008048780050c0b3009040980008
:100af000a20020000300200052d0880063d08800ac
:100b000030c0b300e04098007d404000f0409800c5
:100b100002002d004300200082d0880093d088007e
:100b200020002000050a070000000600881f78004a
:100b3000c2270200010000000004e0000c003a009f
:100b400068ff0700004478000004e0000a0032005b
:100b50000f000700004478000004e00006003200a7
:100b60004e000700004478000004e000020032005c
:100b70001a0107000044780008407800cc270200e2
:100b8000010000000880fb004f0478000000060010
:100b90000800fa00889fbe0008012f0009042f00fa
:100ba000688157001800be00c50807000004e00077
:100bb0003600320064044400890f5400f8ff3a0004
:100bc00009042f00688457001900be00a0bf9f00d1
:100bd000b1bf9f003fb89700010020000200200035
:100be00063c0230002007000838070000801780059
:100bf000b30807000004e000240032002fb897007b
:100c00000100200002002000634c2300020070005d
:100c10008380700008017800a90807000004e00044
:100c20001a003200080178000000200061c82a0084
:100c3000a30807000004e000140032000801780057
:100c400040002000414822009d0807000004e00009
:100c50000e003200e484440040092f00808f5400cd
:100c6000d9ff3a0048092f00490a2f006881570030
:100c70001800be00920807000004e00003003200e4
:100c800064044400888f5400f8ff3a000080fb00a1
:100c90004f04be000080fa00000006001000fa00b9
:100ca000889fbe008a9fbe006000b800a0bf9f0062
:100cb000b1bf9f0050e98000401a9000050020005d
:100cc000d4b79f00e5b79f0050e98000401c90001a
:100cd0006145b80081a0210020c0b30080487800a1
:100ce00050c0b30090409800e200200003002000b4
:100cf00052d0880063d08800e040980006c2b3005c
:100d0000f64098000290200003002a0082d088005c
:100d100093d08800c0489800d64898004e28dd003f
:100d20004222de0004027000c22ade00b4d0880035
:100d3000c5d08800300020008009070000427800fc
:100d40000800e000820032008600370000602000ca
:100d500001002000800f5500818f5d0003003600e8
:100d6000d0b79f00e1b79f0002003700dab79f00bd
:100d7000ebb79f000043eb00864278006e8257007d
:100d8000f68157006c8157002100200020012000cf
:100d9000b21f020001000000004278005fb097001f
:100da000efb09700c20cde004e09dd004204de0009
:100db000080471000404e0006d003a00540037009c
:100dc0004408200040082000800f5400e08f5c00a1
:100dd00001003e000802780004045400e0845c0036
:100de00042c0bf004500de0067006000c0b79f0042
:100df00092028000ff3ffc0042c0bf007f406000c5
:100e000001ccb3000140700042e0b70092028800bc
:100e100020e980000008eb000400e00002003a0036
:100e200084417800250037008001eb007283570071
:100e300085a0210030e9800090007800114b7800f7
:100e40001008e80030e980009000780091407800b8
:100e5000f1ef9f001008e80030e980009000780072
:100e60009140780081f79f001008e80030e9800089
:100e7000900078009140780091f79f001008e800fa
:100e80000340780062c0b3000440bc00050141008b
:100e900050c0b300004978007b40400010419800ea
:100ea0007fb097008fb8970010019800210198003b
:100eb0008301e800830f5200deff3a00310020007a
:100ec00020e980000108780092028000ff3ffc00ca
:100ed000cfb09700c508dd0042c0bf007f40600072
:100ee0000140700042e0b700920288000380fb00de
:100ef00081a021001109070000427800e00f540092
:100f0000e08f5c00020032000004e000acff3a0019
:100f10005fb09700efb097000005550081855d0038
:100f20002fb99700bfb997000000410081804900a8
:100f3000a0bf9f00b1bf9f00e00f5500e08f5d0094
:100f4000030032000404e0000d0032007fff370090
:100f50000404e0000a0032000e000700004278009e
:100f6000070037000004e00078ff3a000400370073
:100f7000e00f5400e08f5c00e5ff320090ff370087
:100f80000480fb004f05be004f04be000080fa0045
:100f90000000060081a0210054c0b30084487800fe
:100fa00000c2b300904098006011b80052d0880091
:100fb00063d08800e4409800f040980002002000d0
:100fc000d3ea2d0082d0880093d088002000200032
:100fd000da0807000080fb00000006000400fa00a9
:100fe000889fbe006684570070002000000c7800c7
:100ff00019002000c9bf9f0081a0210052c0b3008a
:101000008248780079404000904098004fba97009d
:10101000dfba970054d0880065d08800e24098007d
:10102000f04098006011b80082d0880093d088000a
:1010300020002000c108070082d0800093d08000eb
:10104000c2bf9f00d3bf9f0002e988000004e000f8
:101050000500320075002000988f120002003a004f
:1010600009407800010037000040eb000080fb00e1
:101070004f04be000080fa000000060074fd070067
:101080000004e0001100320012c0b3003100200063
:10109000100020001dfc07000004e0000b003200df
:1010a0003ffd07006afd07000004e0000700320072
:1010b0009efe07000004e0000400320012c0b300ee
:1010c000310020004000200010fc07000080fb00e1
:1010d000000006001000fa00889fbe0006f48000a1
:1010e00066089000f60890004e09dd004200de0020
:1010f00000007100c208de00004278000040eb00f2
:10110000e44f520016003e000404e0000c003200e0
:101110008041eb000001eb00450a2f00748457006a
:1011200082004400050041001004be008888be0013
:101130008341e80064014100834f5200f7ff3a0009
:1011400046099000d60990000482fb004222dd008f
:10115000f4805700cfa2de0040c0b300ed010700cd
:101160000080fb004f04be000080fa000000060073
:10117000881f780081a0210024c0b3008448780033
:1011800050c0b300904098004200200003002000af
:1011900052d0880063d08800e4409800f040980066
:1011a000720020000300200082d0880093d08800c5
:1011b00030c0b300c048980080c0b300d048980049
:1011c000c20f200003002000b2d08800c3d08800e6
:1011d000300020005908070000447800803e2000bd
:1011e000010020005c2b0200010000000804e00068
:1011f0000900320000232f0001002000be07070075
:10120000004478000004e00003003200e4fc070022
:101210000ffd0700004478000880fb004f047800b1
:101220000000060000032000302b02000100000037
:101230000004e00006003a0005fd07000004e0009d
:101240001300320039fe07000004e00010003200f5
:101250000041eb0041002000f0002000abfb070044
:101260000004e0000a0032000041eb0041002000d1
:1012700010002000a5fb07000004e000040032007d
:101280000041eb0041002000010078009ffb0700b7
:101290000080fb00000006000800fa00889fbe00e6
:1012a0008a9fbe008c9fbe000206be00c22cde00dc
:1012b0004e28dd004224de00080470001ac0b3008e
:1012c000e00f5400e08f5c00670032008085eb0087
:1012d000e10f4400e08f5c0001003e0088057800cb
:1012e0006159b8000204540083845c00100020009f
:1012f000f0b79f00ebb79f0081a0210054c0b3005e
:10130000844878007f404000904098006fb3970079
:10131000ffb3970056d0880067d08800e44098005b
:10132000f04098008cd088009dd08800c21bdd0062
:10133000ce11de00838173004211dd000c064100f6
:101340008d864900c4489800d04898006011b800c4
:10135000b2d08800c3d0880030002000f707070013
:1013600000457800b0d08000c1d0800080bf9f00d1
:1013700091bf9f000a04e0002b0032001fb89700c5
:10138000e10f5000350032000045eb002600370029
:1013900040082000808f5500020036008000780051
:1013a000010037008b007800818555000100e000c6
:1013b00002003a00014078000f0037000000eb0007
:1013c00087a0210056c4b30003c2b3006022b80056
:1013d00062c0b3000440bc00070141000649780028
:1013e000134198000281e8000489be000000e80073
:1013f000808f5000f6ff3a000080fb0081a02100a2
:10140000ce070700004578000004e0000600320027
:101410000b00e00004003200782702000100000009
:101420000004e000daff320078270200010000002b
:101430000004e000030032007227020001000000f7
:101440000045eb00e00f5400e08f5c000600320026
:101450000a04e000040032009cff37000b00e000ab
:10146000f1ff3200ecff37000a80fb004f06be00a0
:101470004f05be004f04be000080fa0000000600c9
:10148000ea874700889fbe008a9fbe008c9fbe00ef
:101490008e1f78000003be0004057800c21cde0029
:1014a0004e18dd004214de000804700011c0b300c5
:1014b000f2072000820f5400e08f5c0050003e00d5
:1014c00010002000e0b79f00d8b79f0081a0210046
:1014d00052c0b300824878007f404000904098009e
:1014e0005fb29700efb2970054d0880065d08800b3
:1014f000e2409800f040980086d0880097d088009d
:10150000c2489800d04898006011b800b2d0880056
:10151000c3d088003000200088070700b2d08000c8
:10152000c3d08000f2b79f0083bf9f000004e0009b
:10153000040032008040eb000fb89700e10f50002c
:101540002f003a0081a021008048eb0000c2b300c8
:10155000904098006150b80050d0880061d0880059
:1015600061035400e0835c0019c0b300e10f430045
:10157000e08f4b001e0032000602be0019c0b3000f
:101580005ec8b3000dc2b3006055b8000604ea009f
:101590000086eb008701ea000940780062c0b300d2
:1015a0000440bc0080a02100000141000e497800e9
:1015b0001d4198000281e8000a89be008944e800c4
:1015c00061025200e0825a000c30b8000101440070
:1015d0008300410006004000878048006100500001
:1015e000e0805800800f5200818f5a00eaff3a00d5
:1015f0000980fb0081a0210050070700804078008f
:101600000180fb004f0778004f06be004f05be006b
:101610004f04be00af00b10000000600881f780034
:101620000bfc0700004178000004e0004e0032008f
:101630000041eb003100200010002000b3fa070049
:10164000004178000004e0000900320037fd070087
:10165000004178000004e000050032000041eb008a
:1016600021002000f0002000a8fa070000417800c7
:1016700011c0b30020d22100014878000204e0002c
:10168000050032000041eb008000eb00f00020007c
:101690009efa0700004178000044eb0020d22100b0
:1016a000084878000204e0001a003200084178007f
:1016b000210020001000200094fa0700004178006b
:1016c0000004e00013003200084178008000eb00c5
:1016d000100020008dfa0700004178000004e000af
:1016e0000c0032000841780021002000400020005a
:1016f00086fa0700004178000004e000050032008f
:10170000084178008000eb00400020007ffa0700cd
:101710000041780080e98000e10f500012003a009b
:101720000204e000100032000041eb002100200024
:101730007000200075fa0700004178000004e00006
:10174000090032000041eb008000eb007000200037
:101750006efa0700004178000004e0000200320049
:1017600004000700004178000280fb004f0478006d
:10177000000006000800fa00889fbe0008802000d4
:1017800009bf200020fe80000000e00002003a00b7
:101790004812200009bf20006c8257008200200000
:1017a000030020000048200001fc210034ff070056
:1017b0000004e0000f0032002fb89700bfb8970078
:1017c000e10f4000e08f480003003200800f54001a
:1017d000818f5c0007003a004fb89700dfb8970090
:1017e00061005000e0805800e30f4000e08f4800a7
:1017f0000b003e002fbb9700bfbb97000082eb00a1
:101800008082eb000248200003fc2100f0c0b300fe
:1018100032260200010000000040eb0039003700d2
:10182000a8bf9f00b9bf9f006000b800c0bf9f0065
:10183000d1bf9f00ec80570044002000050020002d
:101840000248200003fc2100f0c0b3003100070073
:101850000004e0002b003200e88057004400200024
:10186000050020004248200003fc2100f0c0b30026
:10187000280007000004e000220032006c825700bc
:1018800082002000030020000048200001fc21000d
:10189000fbfe07000004e0001a0032002fb9970099
:1018a000bfb99700820f5400838f5c00080032009c
:1018b0000203be000802be000248200003fc210013
:1018c000f0c0b30032260200010000000040eb002f
:1018d0004fb99700dfb99700e00f5100e08f590032
:1018e000080032000203be006022b8004248200017
:1018f00003fc2100f0c0b30032260200010000000a
:101900000040eb000080fb004f04be000080fa00a6
:1019100000000600ea874700889fbe008a9fbe003d
:101920008c9fbe008e1f7800004778000206be0024
:10193000810578004e29dd004220de0000007100a4
:10194000c228de00000378000045eb00f00720000d
:10195000800f530051003e006000b800f0b79f00b8
:1019600081bf9f009000200080bf9f0080a02100c9
:1019700052c0b3000248780001c2b3001140980081
:101980007fb497008fbc970058d0880069d088003a
:1019900062409800714098008cd088009dd08800eb
:1019a0004248980051489800b4d08800c5d08800bb
:1019b00033c0b3000600e000120032008b01780053
:1019c0008000eb0087a0210055c0b30004c2b30023
:1019d00063c0400062c0b3000440bc000701410086
:1019e00005497800144198003304be00180198009e
:1019f000290198008100e800810f5300f4ff3a00ac
:101a0000e3c1400088a021000340780062c0b30019
:101a10000440bc00820478000801410050c0b300bb
:101a2000004978007b404000104198006000b800f9
:101a300010019800210198000340e8000080fb009d
:101a4000880078003d0607000045780008804400c3
:101a500010019000a0019000d2b79f00e3b79f0053
:101a60006fb09700e90f500006003a000200e00056
:101a700004003a000a04e000020032001ac0b30079
:101a8000060037006033b8001b02be000c01be0028
:101a90000e40780032260200010000000a80fb00a0
:101aa0004f0778004f06be004f05be004f04be0032
:101ab000af00b100000006000600fa000042780006
:101ac00042c0bf000080fb004500de00f0bf9f0069
:101ad00093028000ff3ffc0042c0bf007f406000d7
:101ae00002ccb3000240700042e0b70093028800cd
:101af00020e980000008eb000140e900e14f4000d0
:101b0000280032008441780085a021000040420076
:101b10000042e80030e980009000780091407800b1
:101b2000a1ff9f001008e80030e9800090007800d5
:101b300091407800b1ff9f001008e80030e9800074
:101b40009000780091407800c1ff9f001008e800e5
:101b500030e980009000780091407800d1ff9f002c
:101b60001008e8000340780062c0b3000440bc00e5
:101b70000501410050c0b300004978007b4040009f
:101b8000104198005fb89700efb8970010019800d7
:101b9000210198008341e80084cf5100ddff3a0025
:101ba000034278003100200020e98000010878001d
:101bb00092028000ff3ffc00ffb89700c508dd00df
:101bc00042c0bf007f4060000140700042e0b700ab
:101bd000920288000480fb000080fa0000000600ea
:101be00020032000010020005c2b02000100000007
:101bf00081a0210050c0b300804878007b404000a5
:101c0000904098006011b80052d0880063d08800de
:101c100010002000c90507008040780050d08000e7
:101c20000000e000010032008040eb000180fb007a
:101c3000000006001400fa00889fbe008a9fbe00c4
:101c40008c1f78000005be00c21bde004e18dd00b0
:101c50004213de00060370000040eb00e40f530067
:101c6000e08f5b0079003e00740037000041eb001c
:101c7000ee81570030e980009000780091497800ab
:101c80001008e80030e9800090007800914078006a
:101c9000b1f79f001008e80030e98000900078005c
:101ca00091407800c1f79f001008e80030e98000fb
:101cb0009000780091407800d1f79f001008e8006c
:101cc0000280fb004200dd00fe8057000100400062
:101cd0001fba9700afba97000488be000241e8001f
:101ce0000280fb0001002000800f5300818f5b0009
:101cf000e0ff3e0005f48000053090009530900034
:101d00004e09dd004200de0000007100c208de0066
:101d1000004178000080fb0001002000800f53008c
:101d2000818f5b003c0036000286fb004260dd00d4
:101d3000fe815700030040001001be0092bf9f00cb
:101d4000a3bf9f0025309000b53090000080ea00ce
:101d50008180ea0002026000038060000100200030
:101d6000c004dd00080020006120b80000047400f9
:101d70008184740098bf9f00a9bf9f0080e9800004
:101d8000e10f50000c003a0050e9800040809100c3
:101d900000b8a300050032000800be000010a0003b
:101da00090bf9f00a1bf9f001500370098bf9f0004
:101db000a9bf9f001200370045309000d530900039
:101dc00025319000b53190000080ea008180ea0062
:101dd00000026100018061006101b800c010dd00f7
:101de000000020006121b8000200700083807000b4
:101df000000074008180740090bf9f00a1bf9f000d
:101e00004260dd007e825700040040001fb9970049
:101e1000afb997000288be00fe805700423add004d
:101e2000ce32de00850272004232dd000a01be00c1
:101e300040c0b300b7fe070004003700e00f5300b6
:101e4000e08f5b0089ff3a00aaff37000080fb00ab
:101e50004f0678004f05be004f04be000080fa0018
:101e600000000600ea874700889fbe008a9fbe00e8
:101e70008c9fbe008e1f7800004778000206be00cf
:101e80000405be000820200020fe80000000e000c5
:101e900001003a00080820006140b800f0b79f0038
:101ea00081bf9f000001be000c00be000e000200ba
:101eb0000100000012c0b300e00f5000e08f580096
:101ec00010003200000154006110b800800f55006e
:101ed000818f5d00010031000a0178006114b800b3
:101ee0000805550089855d000802be000c01be0092
:101ef0000e4078007c000700004178000c0644008a
:101f00008d864c00e00f5500e08f5d00020032002e
:101f10000204e00002003a000280fb006c0037007f
:101f20007fb197008fb997000a00be000e00020033
:101f300001000000e00f5000e08f58000600320062
:101f40000a02be000c01be000e40780066000700c9
:101f500000447800590037006022b800d4b79f00d1
:101f6000e5b79f0020002000e0b79f0080a021007f
:101f700052c0b3000248780001c2b300114098007b
:101f80005fb29700efb2970054d0880065d0880008
:101f900062409800714098008cd088009dd08800e5
:101fa0004248980051489800bad08800cbd08800a9
:101fb0004e58dd004252de0004027000c25ade00bc
:101fc0000208200020fe80000000e00001003a002e
:101fd000020220006116b8000c0552008d855a00df
:101fe000824478008240780030c0b300b2fe07001f
:101ff0000080fb0081a02100d0040700004478008d
:10200000e00f5500e08f5d00140032002d00370016
:102010000c0555008d855d00894078000040eb007f
:10202000a5fe07000080fb0081a02100c30407007b
:1020300000447800e00f5500e08f5d00070032009b
:102040000004e0000c0032007827020001000000cc
:102050000004e000eeff3200020037000804e00058
:1020600005003200defe0700004478000004e000b6
:1020700001003a00dafe07007827020001000000a4
:102080000004e0000300320072270200010000009b
:10209000020037000804e00008003a006033b8008e
:1020a0000602be000081eb008081eb000e4078004c
:1020b00032260200010000000044eb000880fb0013
:1020c000030037000004e000ebff3200deff3700c2
:1020d0004f0778004f06be004f05be004f04be00fc
:1020e000af00b10000000600f0874700889fbe00e7
:1020f0008a9fbe008c9fbe008e1f7800004778002c
:10210000f2b79f0083bf9f000405be000d20200092
:1021100020fe80000000e00001003a000d082000d1
:10212000630065008044eb009a003a00a10037008c
:102130006168b800800f5500818f5d000200360095
:102140008d017800010037008a017800611ab8001b
:102150000405550085855d006000b800a0b79f00ac
:10216000b1b79f0090002000b0b79f0080a0210071
:1021700052c0b3000248780001c2b3001140980079
:102180002fb39700bfb3970056d0880067d0880060
:1021900062409800714098007fb397008fbb970012
:1021a00086d0880097d0880042489800514898000f
:1021b000b4d08800c5d088000603420087834a0057
:1021c000f6b79f0087bf9f00421ade0042c0bf00e3
:1021d0000080fb004500de00e0b79f009202800017
:1021e000ff3ffc0042c0bf007f40600001ccb30055
:1021f0000140700042e0b7009202880020e98000b0
:102200000008eb0033c0b3000400e00026003200f9
:102210008001eb0086a0210055c0b30030e98000aa
:102220009000780091407800c1e79f001008e80016
:1022300030e980009000780091407800d1e79f005d
:102240001008e80030e980009000780091407800a4
:10225000e1e79f001008e80030e980009000780076
:1022600091407800f1e79f001008e80063c041004a
:1022700062c0b3000440bc0006014100054978007b
:1022800000c2b300104198002fb09700bfb0970074
:1022900010019800210198008301e800830f52008b
:1022a000deff3a00e3c141003100200020e9800058
:1022b0000108780092028000ff3ffc00efb0970019
:1022c000c508dd0042c0bf007f40600001407000d3
:1022d00042e0b7009202880088a021000340780005
:1022e00062c0b3000440bc0002067800080141004f
:1022f00050c0b300004978007b4040001041980076
:102300006000b80010019800210198000340e80027
:102310000080fb00880078000804070080447800f3
:102320000800460010019000a0019000c2b79f0075
:10233000d3b79f000904e000050032005fb09700aa
:10234000e90f500002003a000200e00008003200ed
:102350006033b8000202be000081eb008081eb0018
:102360000e40780032260200010000008044eb009d
:10237000e00f5500e08f5d00060032000904e00028
:102380000400320078270200010000000004e00091
:1023900067ff320078270200010000000004e0001f
:1023a0000a00320072270200010000008044eb00a6
:1023b0000600370019c0b300e00f5500e08f5d0044
:1023c000f4ff320019c0b300eeff37000980fb00b4
:1023d0004f0778004f06be004f05be004f04be00f9
:1023e0000f01b1000000060099f807000004e000aa
:1023f0001600320011c0b30020d22100014878003d
:10240000caf907000004e000100032000041eb00b0
:102410008000eb00f00020003cf707000004e00023
:102420000a0032000041eb008000eb0010002000a9
:1024300036f707000004e000040032000041eb0022
:102440008000eb004000200030f707000080fb0018
:10245000000006000600fa00889fbe008a9fbe00aa
:10246000804578000203be000404be0063006200e1
:102470000045eb0056003a00510037006000b800fc
:10248000a0bf9f00b1bf9f0080002000b0bf9f0091
:1024900081a0210052c0b3008248780078404000fb
:1024a000904098002fba9700bfba970054d0880088
:1024b00065d08800e2409800f040980086d08800ff
:1024c00097d08800c2489800d0489800b8d08800bb
:1024d000c9d088003000200098030700004578002c
:1024e0006e8157000800be008a290200010000002a
:1024f0000a04e000360032000041eb0029c3b300bb
:1025000088a021005ac0b3000c0037000a4c7800a4
:1025100000c2b300104498006000b80050d088009a
:1025200061d0880088007800100020008303070035
:10253000004178000004e00005003a008944e90009
:10254000e1cf4400f1ff3a006022b8000d003700ef
:1025500081a0210050c0b300804878007b4040003b
:10256000904098006011b80052d0880063d0880075
:1025700010002000710307000041780054d0800053
:1025800065d080001fb8970001002000800f520026
:10259000818f5a0002003a000204e0000b003a006a
:1025a0000003be000081eb008081eb000b4078004f
:1025b00032260200010000000045eb000400370055
:1025c000e00f5200e08f5a00acff3a001ac0b3008f
:1025d0000a80fb004f05be004f04be000080fa00d9
:1025e00000000600ec874700889fbe008a9fbe005f
:1025f0008c9fbe008e1f780080f79f000204be00f3
:10260000c22dde004e28dd004225de000a057000e6
:1026100016c0b300e00f5500e08f5d008a00320065
:102620000c082000f2072000820f5500e08f5d00ab
:1026300001003e000a0678000c055500e0855d00ab
:1026400010002000d0b79f00ccb79f0081a02100d0
:1026500052c0b300824878007f404000904098000c
:102660004fb29700dfb2970054d0880065d0880041
:10267000e2409800f040980088d0880099d0880007
:10268000c2489800d04898006011b800b2d08800c5
:10269000c3d088003000200028030700b2d080009b
:1026a000c3d08000e2b79f00f3b79f000004e000b2
:1026b0005e0032000043eb007fb09700e10f500056
:1026c00054003a00590037000000eb0086a02100ba
:1026d00053c0b30001c2b3006022b80062c0b300af
:1026e0000440bc00060141000349780011419800f4
:1026f0000281e8000489be000000e800800f560057
:10270000f6ff3a000c4078000080fb0081a0210019
:102710000a030700004378000004e00047003a0085
:102720003c0037008006eb008ea0210030e98000dd
:10273000900078009140780081ef9f001008e80039
:1027400030e98000900078009140780091ef9f0080
:102750001008e80030e9800090007800914078008f
:10276000a1ef9f001008e80030e980009000780099
:1027700091407800b1ef9f001008e8000d4078000c
:1027800062c0b3000440bc000e0141001202900080
:10279000a20290004fb19700dfb19700820f520064
:1027a000838f5a00140032000048200001fc2100f1
:1027b000800f5400818f5c000500320040482000eb
:1027c00001fc2100800f5400818f5c0003003a005f
:1027d00080e98000e10f5000070032000403be00d2
:1027e0000202be000801be000ff097003226020070
:1027f000010000000043eb0064044400e0844c004e
:102800008d06e8008d0f5600020032000604e0003d
:10281000c6ff3a00e00f5500e08f5d000a0032006d
:102820000604e000080032007dff37000c00e000e5
:10283000a5ff3a000c407800b3ff37000c00e00021
:10284000f4ff3200b7ff37000680fb004f07780027
:102850004f06be004f05be004f04be00cf00b100c2
:10286000000006000f03b000889fbe008a9fbe00d4
:102870008c9fbe008e1f7800f0b79f0081bf9f0025
:10288000c21ede004e18dd004216de000c0670008f
:102890008040eb00c1ef9f00e40f5600e08f5e0028
:1028a000d5003e004269dd00ce61de00830171008b
:1028b0004261dd0044fc2f000f0242007fb0970010
:1028c0008fb89700eefa0700c0ef9f00e00f5600a8
:1028d000e08f5e00230032000041eb007c82570055
:1028e00045fd2f008f81420030e980009000780084
:1028f000114a78001008e80030e980009000780064
:1029000091407800d1e79f001008e80030e980008e
:102910009000780091407800e1e79f001008e800ff
:1029200030e980009000780091407800f1e79f0046
:102930001008e8000280fb004200dd0003004000b8
:102940002fb39700bfb397000688be000241e8008e
:102950000280fb0001002000800f5600818f5e0086
:10296000e1ff3e0000f480004003b000d0b79f00bc
:10297000e00f5600e08f5e009c003a009e0037009a
:102980008043eb0087ef9f005fb197003200be00ed
:10299000d2b79f00a0b79f00b1b79f008fea970002
:1029a0000587fb004272dd0046fd2f000f03430048
:1029b0008602420000017800150090009501610038
:1029c000008060006103b800c034dd000800200012
:1029d000611bb8000604740087847400888abe00f6
:1029e00047fc2f008f834300070242001400900031
:1029f00014016100808060006108b800c005dd003e
:102a00000a0020006110b80000057500818575007e
:102a10000a8abe0007f480000730900097309000cb
:102a20004e09dd004200de0000007100c208de0039
:102a30000feb9700804f53004a003a002730900078
:102a4000b73090000080ea008180ea000801600051
:102a50000980600001002000c004dd0008002000a3
:102a60006110b8000004740081847400888abe007c
:102a700080e98000e10f500013003a0050e9800027
:102a80004080910000b8a300050032000810a000ab
:102a9000888abe000a10a0000a8abe0031003700f2
:102aa0004270dd0047fd2f008f8343008700400008
:102ab0008888be0041fc2f008f804000010040004c
:102ac0000a88be002700370047309000d7309000ba
:102ad00027319000b73190004272dd0045fd2f0094
:102ae0008f824200050342000080ea008180ea00f4
:102af00080026100018061006101b800c010dd004a
:102b0000000020006129b80002007000838070007e
:102b1000001b74000193740047309000d730900080
:102b200027319000b731900046fc2f000f0343007f
:102b3000060242000080ea008180ea008002610013
:102b4000018061006101b800c010dd0000002000bc
:102b50006129b8000200700083807000001a7500bf
:102b600001927500c270dd0047fc2f008f83430087
:102b7000078040001003be0042fd2f000f014100fe
:102b8000028040001002be00840f5300858f5b005e
:102b90000a0032006109b9007fb097008fb8970032
:102ba000000141008181490040c0b300322602008b
:102bb000010000008040eb00c1ef9f000fe997008b
:102bc0000241e80082ef9f000280fb00010020002c
:102bd000800f5600818f5e0007003600cfea970015
:102be0000504e0000400320067ff37004feb970058
:102bf0000604e00062ff3a00cfeb97000780fb007d
:102c00004f0778004f06be004f05be004f04be00c0
:102c10000f03b100000006008df607000004e0007d
:102c200013003200c1f707000004e000100032007a
:102c30000041eb0011002000f000200033f50700f8
:102c40000004e0000a0032000041eb001100200007
:102c5000010078002df507000004e00004003200b8
:102c60000041eb00110020004000200027f5070084
:102c70000080fb00000006000800fa00889fbe00ec
:102c80008a1f78008c9fbe00004578006044b80021
:102c9000f8b79f0089bf9f006000200080bf9f00a1
:102ca00081a0210056c0b300864878007a404000d9
:102cb000904098007fb697008fbe97005cd0880048
:102cc0006dd08800e6409800f040980082d08800df
:102cd00093d08800c6489800d0489800b4d08800a7
:102ce000c5d08800a6509800b0509800e8d0880061
:102cf000f9d088004000200090010700e2d0800059
:102d0000f3d0800092bf9f00a3bf9f000004e000ab
:102d1000060032002fb89700e60f500003003a007b
:102d200010c0b3000200e000080032006033b800b9
:102d30000602be000081eb008081eb000a407800b3
:102d400032260200010000000040eb000080fb0082
:102d50004f06be004f0578004f04be000080fa0009
:102d600000000600f2874700889fbe008a9fbe00d1
:102d70008c9fbe008e1f78000006be00c21cde00c5
:102d80004e18dd004214de00080470008045eb00a0
:102d9000e40f5400e08f5c0042003e004249dd0039
:102da000ce41de00830171004241dd007e8257008a
:102db0000c00be00b2f90700804578000004e00076
:102dc00035003a00370037008042eb004a0a2f00f6
:102dd0000580fb004200dd00fe80570081014000bd
:102de0000a00400093009000100190001303780047
:102df0001002630082806000610bb800c030dd000b
:102e0000000020006123b8008619700087917000cf
:102e10008542e8000580fb0001002000800f54007f
:102e2000818f5c00eaff3e000045eb004e0a2f0058
:102e30000a80fb00c200dd000e8040001002be00d0
:102e40007e815700028040001003be00860f5200b2
:102e5000878f5a00070032006109b9000c01410058
:102e60008d81490040c0b3003226020001000000fd
:102e70008045eb000a45e8000a80fb0001002000c5
:102e8000800f5400818f5c00060036000b04e000c8
:102e900004003200e6ff3700e00f5400e08f5c00d2
:102ea000c9ff3a000b80fb004f0778004f06be00b9
:102eb0004f05be004f04be002f01b1000000060008
:102ec0000400fa00889fbe008a9fbe008c1f780015
:102ed0000005be000206780081a0210020c0b300da
:102ee0008048780050c0b30090409800a2002000b5
:102ef0000300200052d0880063d08800100020001a
:102f00000e010700804078000004e00074003200e9
:102f1000097d200088a0210030c0b300004c78005b
:102f20007d4040001044980000002c00410020002b
:102f300050d0880061d08800880078001000200000
:102f4000fe00070052d0800063d0800092bf9f0037
:102f5000a3bf9f000004e0005c0032002fb8970080
:102f60000028a3005b003a008904e9005700320002
:102f7000e9ff370030fe80000000e00002003a0068
:102f8000804378001000370082a0210023c0b300e6
:102f90000349780050c0b300104198008000200021
:102fa0000100200050d0880061d0880030c0b300fc
:102fb000604198007d404000704198008ad08800b0
:102fc0009bd088008343780088a0210007407800c8
:102fd00062c0b3000440bc000801410024c0b3003b
:102fe0000449780053c0b3001341980090002000ba
:102ff0000100200010019800210198000740e8001e
:1030000062c0b3000440bc008204780008004100a4
:1030100036c0b3000648780005c2b30015409800da
:103020001a0098002b00980007c0e80062c0b300a7
:103030000440bc0008014100044978001341980095
:10304000a00020000100200010019800210198003c
:103050006000b80090bf9f00a1bf9f0000002c003f
:103060009fb897008080700091bf9f0006c043000a
:1030700062c0b3000440bc0008014100064978006a
:10308000154198001fb89700afb89700100198003d
:103090002101980064c043000080fb008800780094
:1030a000a6000700804078000880440010019000ce
:1030b000a0019000028ebe0030fe80000000e00003
:1030c0000700320000000000050037008040eb00e0
:1030d000030037000900e000a6ff3a00fbff3700bd
:1030e0000180fb004f0678004f05be004f04be0074
:1030f0000080fa00000006000200fa00889fbe006f
:103100008a1f78008c9fbe000006be00e00f5000b2
:10311000e08f58001e0032006044b8008aa02100f1
:1031200030c0b300004d780080c0b3001045980057
:103130006000b80050d0880061d088008a00780014
:10314000100020007d000700804078002a40900099
:10315000c0f79f000104e000050032002fb997007e
:103160006c00610012c0b300e80f50000100320093
:103170000041eb0061044400e0844c000204e000e4
:1031800004003a00880f5600898f5e00e4ff3a0081
:103190008040eb000180fb004f06be004f05780029
:1031a0004f04be000080fa00000006000c00fa0088
:1031b000c0bf9f00d1bf9f00e2bf9f00f3bf9f0031
:1031c0005fb89700010020000200200043c02300e8
:1031d00002007000838070006c81570038ff070088
:1031e0004fb8970001002000020020004348230050
:1031f00002007000838070006c81570030ff070070
:103200007fb89700010020000200200053c0230077
:1032100002007000838070006c81570028ff070057
:103220006fb897000100200002002000534a2300dd
:1032300002007000838070006c81570020ff07003f
:103240006c8157000000200051c82a001cff0700b5
:103250000080fa00000006000800fa006011b800c3
:10326000c2bf9f00d3bf9f00b1002000d1bf9f000d
:1032700082a0210051c0b30001497800fbc040008a
:10328000114198004fba9700dfba970054d08800d8
:1032900065d088000004e000050032001000200026
:1032a00001002000c0bf9f00d1bf9f000300370076
:1032b0006000b800c0bf9f00d1bf9f0081a0210067
:1032c00052c0b300e240980000c2b300f040980042
:1032d0004fba9700dfba970084d0880095d0880055
:1032e000c2489800d04898006011b800b2d0880059
:1032f000c3d0880030002000100007008040780014
:10330000b2d08000c3d08000e2bf9f00f3bf9f0017
:103310000004e000060032007fb89700eb0f500079
:1033200003003a000200e00001003a0011c0b300bf
:103330000180fb000080fa0000000600862c0200dd
:10334000010000000080fb0000000600889fbe0016
:103350008a9fbe000205be000404be0000000000fb
:10336000ee1e0200010000000003be000802be00c5
:103370008000eb000a01be00c0002000b43602004d
:10338000010000000080fb004f05be004f04be009e
:10339000000006001100200000c52400f44b0200cc
:1033a0000100000000000600889fbe0000047800b5
:1033b000a901800010002000a001880051e98000d0
:1033c0004180910000d0a100c080990066000700f4
:1033d0003600020001000000004c780051e9800036
:1033e000e0d2210040c890000080fb00e028990056
:1033f00052e9800000f48000b0889000208890009e
:103400008041eb000008a3000100320013c0b300ac
:10341000c2809100618061004200dd000120a100b6
:10342000808070004181990081e9800060e821007e
:103430000148780051e98000518091000000a0000f
:10344000d0809900a90188004f04be00000006004a
:10345000881f7800a801800011002000a1018800c9
:1034600001c02e0041e9880090007800e1f3880057
:103470009000900051e98800a000900021e98800a8
:10348000b000900061e9880040009000f0f38800ef
:1034900050e980004008b00030e9880050e9800021
:1034a00010409000e14f50002c003a0050e980009d
:1034b000204190000204e00028003a0050e980001a
:1034c00030409000e24f500024003a0051e9800063
:1034d000e0d221008088980051e98000e0142000ab
:1034e000f080980050e9800022f89a0050e98000ae
:1034f00032f89a0051e9800030c0b300c0f89a0059
:1035000050e9800052f89a0051e9800060002000e4
:103510008090980051e98000712891000000a0007f
:10352000f028990051e98000418091000000a1003d
:10353000c080990051e98000712891000040a000ee
:10354000f028990051e98000712891000020a10025
:10355000f0289900024078006e060700a801880054
:103560004f04780000000600c0d7210000f4880056
:1035700000ec800011ec800052e9800040019800ce
:1035800051019800e00f5000e08f58000400320015
:1035900051e98000310090000000a000b0009800c8
:1035a00052e980006000b800500998006109980055
:1035b00000f4800060029000f002900050e980006a
:1035c00044089800e00f5200e08f5a0004003200d7
:1035d00051e98000310090000010a000b000980078
:1035e00050e98000041098001510980000f4800045
:1035f000b00890002008900052e9800060599800bf
:103600000402400085824800e00f5000e08f58001f
:103610000400320051e98000310090000020a00039
:10362000b000980050e980004410980055109800b0
:1036300000f48000f00890006008900052e98000db
:103640002011980031119800040240008582480042
:10365000e00f5000e08f58000400320051e9800074
:10366000310090000030a000b000980050e98000c8
:10367000742898000530980000f4800010399000fc
:10368000a039900050e98000123098002330980053
:1036900000002300800f5100e08f590002003e001f
:1036a0000402410085824900e00f5100e08f59007b
:1036b0000400320051e98000310090000090a00029
:1036c000b000980050e98000240898003508980060
:1036d00000f48000f08890006088900052e980003b
:1036e00000099800110998000403400085834800f0
:1036f000e00f5000e08f58000400320051e98000d4
:103700003100900000a0a000b000980050e98000b7
:10371000563898006738980050e9800026189800bd
:103720003718980050e980000002eb004418980018
:1037300050e9800003802100531898000080210088
:1037400001002000060040008780480052e9800008
:10375000601998007119980050e9800004209800c1
:1037600050e9800013209800000023000100200091
:10377000060340008783480052e980006000b800db
:10378000701198000119980000f48000b0109000aa
:103790002010900052e9800060119800e00f500066
:1037a000e08f58000400320051e9800031009000a1
:1037b0000040a000b000980050e980006011b800ff
:1037c000222098003320980050e980000500210055
:1037d0004520980050e9800002289800132898009e
:1037e00054e980000000200021002000202a9800d9
:1037f000312a980050e98000422898005328980008
:1038000050e980006528980050e980003230980027
:103810004330980051e9800000202000d03098000b
:1038200050e98000623098007330980051e98000c0
:10383000004020008038980051e980000000eb0033
:103840009038980002f4800062289000f2289000de
:10385000e00f5000e08f580005003a000290900001
:1038600092909000e00f5000e08f5800040032006a
:1038700051e98000310090000050a000b000980095
:1038800050e980003638980047389800000006005c
:10389000889fbe0000047800a9018000100020006d
:1038a000a001880051e980000000eb00f038990089
:1038b0002803020001000000004c7800d002020042
:1038c00001000000a90188004f04be0000000600ae
:1038d000889fbe0000047800a9018000100020002d
:1038e000a001880030c0b300580507000e0b02008d
:1038f00001000000004c7800a90188004f04be00c0
:1039000000000600889fbe008a1f780080047800af
:10391000aa01800010002000a001880040c0b30070
:103920004a0507000040eb006b04070000447800e4
:10393000f411020001000000804c7800084078007b
:1039400065040700aa0188004f0578004f04be00f7
:1039500000000600889fbe0000047800a9018000d6
:1039600010002000a00188001209020001000000e0
:10397000004c7800a90188004f04be00000006003a
:10398000889fbe0000047800a9018000100020007c
:10399000a001880010c0b3002c0507000c1602001f
:1039a00001000000004c7800a90188004f04be000f
:1039b00000000600889fbe0000047800a901800076
:1039c00010002000a001880020c0b3001f050700e0
:1039d0003e08020001000000004c7800a9018800a8
:1039e0004f04be0000000600889fbe00000478005f
:1039f000a901800010002000a00188005a370200b1
:103a000001000000004c7800a90188004f04be00ae
:103a100000000600889fbe0000047800a901800015
:103a200010002000a00188008040eb0020e8210069
:103a30000148780030e821000148780040e8210082
:103a400001487800e0000700383302000100000060
:103a5000004c7800a90188004f04be000000060059
:103a6000889fbe0000047800a9018000100020009b
:103a7000a00188001634020001000000004c78000c
:103a8000a90188004f04be0000000600889fbe0008
:103a900000047800a901800010002000a001880027
:103aa000143902000100000010c0b300004c78007f
:103ab000a90188004f04be0000000600889fbe00d8
:103ac00000047800a901800010002000a0018800f7
:103ad000ae34020001000000004c7800a90188000b
:103ae0004f04be0000000600a2018000110020006b
:103af000a10188000048eb00a20188000000060038
:103b0000a201800011002000a10188000048eb0004
:103b1000a201880000000600a20180001100200020
:103b2000a10188000048eb00a20188000000060007
:103b3000a201800011002000a10188000048eb00d4
:103b4000a201880000000600a201800011002000f0
:103b5000a10188000048eb00a201880000000600d7
:103b6000889fbe0000047800a9018000100020009a
:103b7000a00188001034020001000000004c780011
:103b8000a90188004f04be0000000600889fbe0007
:103b900000047800a901800010002000a001880026
:103ba0009800900028019000b801900048489000cb
:103bb00078039000880b900048029000d802900093
:103bc000b436020001000000004c7800a901880012
:103bd0004f04be0000000600889fbe00000478006d
:103be000a901800010002000a0018800980090002a
:103bf00028019000b8019000484890007803900098
:103c0000880b900048029000d80290000635020010
:103c100001000000004c7800a90188004f04be009c
:103c200000000600889fbe0000047800a901800003
:103c300010002000a0018800180090005a450200e2
:103c400001000000004c7800a90188004f04be006c
:103c500000000600889fbe0000047800a9018000d3
:103c600010002000a001880018009000f23402002b
:103c700001000000004c7800a90188004f04be003c
:103c800000000600889fbe0000047800a9018000a3
:103c900010002000a001880018009000de3402000f
:103ca00001000000004c7800a90188004f04be000c
:103cb00000000600889fbe0000047800a901800073
:103cc00010002000a001880018019000a8019000b9
:103cd00048009000d8009000180278006245020069
:103ce0000100000060449800a90188004f04be0054
:103cf00000000600889fbe0000047800a901800033
:103d000010002000a00188001840780088330200cd
:103d10000100000010449800a90188004f04be0073
:103d200000000600889fbe0000047800a901800002
:103d300010002000a00188005e4502000100000084
:103d4000004c7800a90188004f04be000000060066
:103d5000889fbe0000047800a901800010002000a8
:103d6000a0018800d002020001000000004c780091
:103d7000a90188004f04be000000060000000600f4
:103d80000000eb00000006005e450200010000009c
:103d90000004e000080032001439020001000000b5
:103da00020032000010020005c2b02000100000025
:103db0005a370200010000000080fb0000000600ee
:103dc0000000eb00000006000000060052e9800041
:103dd00020819800318198000000060050e98000a1
:103de000b080900020809000000006000600fa00dd
:103df000889fbe000000200011002000b0bf9f007f
:103e0000c1bf9f000040eb00a0ff9f0066805700ed
:103e10003000070000447800350407000004e0008b
:103e2000190032000040eb00a0ff9f001034020098
:103e300001000000804478000004e00018003a000f
:103e40001900370066805700220007000041780003
:103e50003fb89700cfb8970061005000e08058004d
:103e6000b0bf9f00c1bf9f003fb89700cfb8970079
:103e7000e00f5000e08f5800070032000204e0001d
:103e800009003a00efff37000804e000dfff3200ce
:103e900019c0b300040037008044eb000200370073
:103ea0000804e000e7ff3200e402a900d842a800bd
:103eb000803e2000010020005c2b02000100000079
:103ec000080407000980fb004f04be000080fa00d0
:103ed00000000600881f780000047800dac2bf00e6
:103ee0000028a30006003200184ce800a0002000c3
:103ef000010020005c2b02000100000001003700df
:103f0000004ceb008040eb0030c6b300984f10002f
:103f10000100360011c0b3000180fb004f0478009f
:103f200000000600dac2bf000028a3000c003a001f
:103f3000e402a800d842a900e422a800dc82a9007b
:103f4000da42a800401f2000010020005c2b020084
:103f500001000000da42a900e402a900d842a8004a
:103f600000000600ea874700889fbe008a9fbe00c7
:103f70008c9fbe008e1f78008003780001067800b9
:103f800002077800840478008546780086f79f0051
:103f9000004aeb0072005000e10f500002003600b2
:103fa0008009eb00b311780050e980001093900075
:103fb00050e98000c0909000309090004609dd00ec
:103fc0004a00de0000007100ca08de0061406000a7
:103fd000b0ef9f0050e98000c090900030909000ba
:103fe0008100d1000080d30061406000a0ef9f00fd
:103ff0000080eb008080eb0007004000e08048007c
:10400000f30f5000e08f580015003e0000600100e3
:104010001a00370071003700a2003700cd003700ca
:10402000f80037000e003700a901370052013700b1
:104030000b003700140137003e013700080037003d
:104040000700370006003700c801370004003700ba
:1040500003003700670137007b013700320037006b
:104060000044eb006055b8000a02be00eab79f00aa
:10407000fbb79f0008417800e701370050e9800056
:10408000300090006101600007003a0018c0b300e2
:104090006055b8000a02be00eab79f00fbb79f0058
:1040a00017002000dc0137000d04e00002003a0098
:1040b0000608a3001100320012c0b300824c780041
:1040c00050e9800050959000e095900050e9800004
:1040d000809890007090900061024000e08248005b
:1040e00007f480001700be00e0b79f00f1b79f0003
:1040f0000244780017002000c7013700100020009c
:10410000010020008089be0018c0b3006055b800cf
:104110000a02be00eab79f00fbb79f000841780083
:1041200017002000bc01370050e98000b00090006b
:10413000004020000081600007003a0018c0b30072
:104140006055b8000a02be00eab79f00fbb79f00a7
:1041500047012000b00137000d04e00002003a00e2
:104160000698a3001200320012c0b300824c7800ff
:1041700050e9800050ad9000e0ad900050e9800023
:1041800080b0900070a8900061024000e08248007a
:1041900007f4800047889000d7889000e0b79f0020
:1041a000f1b79f0002447800470120009a013700d0
:1041b00010002000010020008089be0018c0b3005c
:1041c0006055b8000a02be00eab79f00fbb79f0027
:1041d00008417800470120008f01370050e9800036
:1041e00030009000620160000a003a00afe89700da
:1041f0000104e00007003a0018c0b3006055b800a1
:104200000a02be00eab79f00fbb79f00270020000c
:10421000810137000d04e00005003a000618a300f4
:1042200003003a00afe897000104e00012003200fa
:1042300012c0b300824c780050e98000109d9000bd
:10424000a09d900050e98000c098900030989000a8
:1042500061024000e082480007f4800047009000bf
:10426000d7009000e0b79f00f1b79f0002447800ac
:104270002700200068013700100020000100200006
:104280008089be0018c0b3006055b8000a02be00a5
:10429000eab79f00fbb79f00084178002700200085
:1042a0005d01370050e9800030009000640160003b
:1042b00007003a0018c0b3006055b8000a02be00fb
:1042c000eab79f00fbb79f0037002000520137007c
:1042d0000d04e00002003a000628a300120032009c
:1042e00012c0b300824c780050e98000509d9000cd
:1042f000e09d900050e9800080a0900070989000b0
:1043000061024000e082480007f480000708900046
:1043100097089000e0b79f00f1b79f000244780033
:10432000370020003c013700100020000100200071
:104330008089be0018c0b3006055b8000a02be00f4
:10434000eab79f00fbb79f000841780037002000c4
:104350003101370050e980003000900068016000b2
:1043600007003a0018c0b3006055b8000a02be004a
:10437000eab79f00fbb79f004700200026013700e7
:104380000d04e00002003a000638a30012003200db
:1043900012c0b300824c780050e9800010a5900054
:1043a000a0a5900050e98000c0a0900030a090002f
:1043b00061024000e082480007f480004708900056
:1043c000d7089000e0b79f00f1b79f000244780043
:1043d00047002000100137001000200001002000dd
:1043e0008089be0018c0b3006055b8000a02be0044
:1043f000eab79f00fbb79f00084178004700200004
:10440000050137000d04e00002003a000648a30051
:104410001200320012c0b300824c780050e98000d4
:1044200050a59000e0a5900050e9800080a8900081
:1044300070a0900061024000e082480007f4800014
:104440000710900097109000e0b79f00f1b79f0011
:104450000244780057002000ef00370010002000d1
:10446000010020008089be0018c0b3006055b8006c
:104470000a02be00eab79f00fbb79f000041eb00b5
:1044800057002000e400370017c0b300874c7800c5
:1044900050e98000702891000018a3001600320037
:1044a00050e9800050229000e0229000e4b79f0085
:1044b000f5b79f0050e980007020900001002000b7
:1044c0008089be0050e980007020900032002000fa
:1044d000110009000280d800000040000000e80040
:1044e0006102b800074478006055b80007417800c1
:1044f000a7002000c800370000f48000400a9000a8
:10450000d00a9000e4b79f00f5b79f00600a9000c2
:10451000f00a90008489be006fb29700ffb2970046
:1045200018c0b3006055b80008417800a70020000b
:10453000b900370011c0b300814c780000f480004e
:10454000000a9000900a9000e4b79f00f5b79f0022
:10455000200a9000b00a90008489be006fb29700d4
:10456000ffb29700014478006055b800014178001f
:10457000b7002000a80037000d04e00006003a0054
:1045800050e98000300090000008b20002003a00bc
:10459000004178000300370010c0b300804c780061
:1045a0000041780050e98000401890000100200090
:1045b0008089be00e00f5000e08f580003003a00f1
:1045c00010002000010020008089be0000f480005f
:1045d0000012900090129000e4b79f00f5b79f0082
:1045e00018c0b3006055b8000a02be008700200062
:1045f000890037000d04e00006003a0050e9800011
:10460000300090000008b20002003a00004178003b
:104610000300370010c0b300804c780000417800e0
:104620001e05be0000f48000001290009012900061
:10463000e4b79f00f5b79f0018c0b3006022b80030
:1046400087002000740037000d04e00006003a00e7
:1046500050e98000300090000010b20002003a00e3
:10466000004178000300370010c0b300804c780090
:10467000004178001e05be0050e9800070289100be
:104680000048a3000900320050e98000608a9000d1
:10469000f08a9000e4b79f00f5b79f0018c0b30000
:1046a0006022b800770020005b00370000f4800033
:1046b0000012900090129000e4b79f00f5b79f00a1
:1046c00018c0b3006022b800770020005200370005
:1046d0000d04e00006003a0050e980003000900030
:1046e0000010b20002003a000041780003003700d9
:1046f00010c0b300804c78000041780050e9800081
:1047000000209000010020008089be0050e9800058
:10471000702891000048a3000a00320050e9800090
:10472000608a9000f08a9000e4b79f00f5b79f0080
:1047300018c0b3006055b8000a02be007700200020
:104740003500370000f480000012900090129000b5
:10475000e4b79f00f5b79f0018c0b3006055b800dc
:104760000a02be00770020002b00370050e98000cd
:10477000300190000220b20007003a0018c0b300d8
:104780006055b8000a02be00eab79f00fbb79f0061
:10479000f7002000200037000d04e00002003a007e
:1047a0000688a3001200320012c0b300824c7800c9
:1047b00050e9800010ad9000a0ad900050e980005d
:1047c000c0a8900030a8900061024000e08248003c
:1047d00007f480007730900087389000e0b79f00a2
:1047e000f1b79f0002447800f70020000a0037006c
:1047f00010002000010020008089be0018c0b30016
:104800006055b8000a02be00eab79f00fbb79f00e0
:1048100008417800f7002000e30f56000d003a0031
:1048200050e98000309090000008a30002003a0098
:104830000d04e000060032000204e0000400320033
:1048400010c0b300804c78006055b80001003700fc
:10485000804ceb00bfe897000104e000100032003c
:104860000c00e0000e003a001904e00012003200d3
:10487000e18f530008003200f48f5300060032002d
:10488000e28f530004003200e38f53000200320035
:10489000ef8f530008003a00804ceb000600370011
:1048a000ea0f560004003a002fe997000204e000e6
:1048b00001003a00824c780060e8210011c0b3008a
:1048c00090cf100009003a00e20f560007003a00ae
:1048d0000638a300030032001000200080e98800a1
:1048e000020037002000200080e988001904e00061
:1048f0001800320087447800830078000a01be0067
:1049000007407800702b020001000000004478008e
:10491000e30f560002003200e10f560001003a009a
:1049200018c0b3000e00e000040032006fb2970020
:10493000ffb29700041f450005974d008ff29700c6
:104940000504e00003003a008c007800094078007c
:10495000810007000880fb004f0778004f06be006b
:104960004f05be004f04be00af00b10000000600be
:104970008001780050e9800030929000c092900051
:104980000040eb008048780000497800e28f510039
:104990001800320005003e000300e000090032006c
:1049a000e18f51002a003a000c003700e48f5100db
:1049b0001c00320015003900e58f510024003a0038
:1049c0001e003700700062002100320010c0b300ea
:1049d00080487800004978001d0037000400780006
:1049e0000002b2001a00320010c0b3008048780004
:1049f00017003700040078000004b20014003200f1
:104a000010c0b3008048780011003700040078001f
:104a10000008b2000e00320010c0b30080487800d9
:104a20000b003700040078000010b20008003200cc
:104a300010c0b300804878000500370004007800fb
:104a40000020b2000200320010c0b300804878009d
:104a500010002000000006000200fa00889fbe003f
:104a60008a9fbe008c1f7800000578000040eb0094
:104a7000004d7800804578008004eb00680020003d
:104a80001cc0b3006b815700ec8057000900780010
:104a9000b7ff07004ff097000004e000010032006c
:104aa0001bc0b3005ff097000004e000010032007b
:104ab0000c4d78008904e8000804e900f1ff3a0091
:104ac0000b80fb004f0678004f05be004f04be0070
:104ad0000080fa000000060051e98000319190004a
:104ae000c1919000c618dd004a11de0002817000fd
:104af000ca19de00614361000004e00007003200d3
:104b000052e9800032909000c290900000a0a00076
:104b100030919800419198000d00370053e98000d2
:104b200033909000c39090000001780002a0a10093
:104b3000610ab800c020dd00000020006112b8004a
:104b40000400700085807000b0919800c1919800b9
:104b50000680fb000000060000417800630b2f0078
:104b6000e28f50001000320006003e00e30b2f00e1
:104b70000100e0000c003200e18f500007003a0015
:104b800008003700e30c2f00e38f500006003200ce
:104b9000630c2f00e48f500003003200e30d2f0060
:104ba00001003700630d2f00e84f51001d00320057
:104bb00007003e00e24f510014003200e44f510064
:104bc00015003200e14f510025003a000d0037007a
:104bd000f44f51000b00320003003e00f04f510033
:104be0001f003a001200370000c4b300804f51008c
:104bf0001200320000c8b300804f510018003a0084
:104c0000110037001380fb001100370013409000a3
:104c10000080fb000e003700334090000080fb0056
:104c20000b003700234090000080fb000800370095
:104c3000434090000080fb00050037005340900087
:104c40000080fb0002003700634090000080fb0002
:104c50000000e000020032001e2b020001000000f4
:104c600000000600889fbe000204be000080fb001a
:104c70000100200061005000e0805800f30f500058
:104c8000e08f580015003e0000600100160037005c
:104c90001f00370023003700270037002b003700a4
:104ca0000e00370038003700320037002c00370084
:104cb0000a003700090037000800370007003700f6
:104cc00006003700350037000400370003003700c6
:104cd0000200370001003700080037000001eb0038
:104ce000820178003100370050e98000e20e200098
:104cf00000014100130020002c00370050e9800023
:104d0000621420000001410003202000270037002a
:104d100050e98000a20f2000000141002300200084
:104d20002200370050e9800062102000000141009d
:104d3000430020001d00370050e9800022112000b0
:104d400000014100830020001800370050e9800076
:104d5000e211200000014100030120001300370090
:104d600050e98000a212200000014100030220004f
:104d70000e00370050e98000e211200000014100e0
:104d8000030420000900370050e98000e2112000f0
:104d900000014100030820000400370050e98000b2
:104da00062132000000141000310200051e980003f
:104db00061b0900000807100e0b098000200e00057
:104dc000050032000889be002401980035019800d2
:104dd00046019800570198004f04be0000000600ed
:104de0000003be000204e0000800320052e9800027
:104df00012209100a22091000000730081807300b6
:104e000010219900212199000f00370055e98000f9
:104e10000081ea008181ea0015209100a52091001f
:104e200002026000038060006101b800c010dd0074
:104e3000000020006121b800020070008380700033
:104e400090229900a122990000000600881f780096
:104e50000044780050e98000a00eb00082062000d7
:104e60008000eb00000002000100000050e980001b
:104e70008880fb0051b098004f04780000000600c5
:104e800052e980006000b800700999000111990092
:104e900052e98000101199002111990052e9800017
:104ea000301199004111990051e9800061b09000e2
:104eb0000060a100e0b098000000060050e980000a
:104ec0008040eb0060b090000000e0000100320084
:104ed00011c0b300014078000004a2000080fb0074
:104ee00000000600e0f380000048eb000000060030
:104ef000e0f380001080fb0061006000000006000d
:104f0000e0f380001080fb000000d1006100600031
:104f10000000060051e821008048780000000600eb
:104f200050e821001080fb0000000600800078009f
:104f300050e821001004e000030032000100780076
:104f400082000200010000000000060050e980001d
:104f5000b028910060002000b22b02000100000088
:104f6000e1d22100d1c890000041eb008180fb001c
:104f7000810f50000100310012c0b3000280fb001d
:104f80000000060040052000302b02000100000058
:104f90000080fb00000006000004e0000600320074
:104fa0000001eb004105200002007800e22a020027
:104fb00001000000050037000001eb004105200062
:104fc00010002000e22a020001000000000006009c
:104fd0008000780050e98000309090000038a300f5
:104fe0000600320050e9800010819100a0819100fc
:104ff0008288be0010c0b300030037008008eb00b9
:10500000b11078000040eb000080fb0000000600bb
:1050100060e980001000a00060e9800010007800c6
:105020006200600003003a00b1ff07000004e000e6
:10503000f9ff320060e980001000d10061006000db
:105040000000060060e980001000a10000000600da
:105050000200fa00881f7800004478000104e00094
:1050600002003200182c0200010000000804e000d9
:10507000030032000000eb00e0bf9f000200370099
:10508000f00f2000e0bf9f000041eb002100200056
:1050900064805700c82b0200010000004f04780014
:1050a0000080fa00000006000002780040e82100bd
:1050b0001004e0001c003a000d00370020e8210039
:1050c0000248e80010c0b300200037000204e000ee
:1050d0000200320020e821000048eb008040eb0095
:1050e00040e82100014878000140780017003700af
:1050f00030e821001004e00003003a008001eb00da
:10510000034078001100370010c0b30041e82100cf
:105110008048780030e821000048eb008001eb0077
:10512000034078000900370020e821001041780092
:10513000f1f380000280fb004300dd0081014000ac
:105140001300e000ddff3a00e0ff3700030a7800bb
:105150000080fb000000060031e821008048780054
:1051600040e821001080fb00000006000800fa0063
:10517000c0bf9f00d1bf9f00648057000208780025
:10518000f3bf9f000ffb9700bffb97002ffa97001c
:105190001ff9970010407800fffa9700eff9970089
:1051a000dff89700814f510006003e0009003a00e9
:1051b00084cf51000300390006003a0085cf530028
:1051c00004003900804f5300040031000004e00067
:1051d000020032000040eb000100370010c0b300b5
:1051e0000080fb000080fa00000006000400fa00c6
:1051f0003087870041878700e0bf9f00f1bf9f0095
:1052000051e980006fb99700013091009130910011
:10521000ffb99700d5ff07000080fb000080fa006f
:105220000000060032e9800012007800b0417800ea
:1052300000097800834878000000060030e980000b
:10524000100078000148780030e980001008e8007c
:10525000000006008040780050e98000f03990009e
:105260000041eb0000c2b30080cf50000e003e00b2
:105270000900370072e821008080fb0080e82100ef
:105280000080400033597800800f5100fdff3a0044
:1052900012c0b300040037000140e900e14f4000b4
:1052a000f4ff3a00faff37000280fb00000006001e
:1052b0008040780050e98000f03990000041eb0018
:1052c00000c2b30080cf50000e003e00090037003e
:1052d00072e821008080fb0080e82100008040000f
:1052e000b2597800800f5100fdff3a0012c0b300a0
:1052f000040037000140e900e14f4000f4ff3a00ac
:10530000faff37000280fb00000006000000eb00ff
:10531000000006000400fa00881f78000003be00a9
:10532000020478000080eb00d0bf9f0063006300a0
:105330008040eb0032003a0042c0bf000080fb001a
:105340004500de00e0bf9f0092028000ff3ffc00ae
:1053500042c0bf007f40600001ccb300014070003c
:1053600042e0b7009202880020e980000008eb00cc
:10537000e00f5300e08f5b00140032006022b800a1
:10538000430f2f0032e9800012007800b04078000f
:10539000000978003ff8970080c068008180fb001a
:1053a000818040005fb897004800dd00e18079000f
:1053b00081006800d1bf9f0061024200e0824a0084
:1053c000840f5300858f5b00eeff3a003100200010
:1053d00020e980000108780092028000ff3ffc0075
:1053e000efb89700c508dd0042c0bf007f406000f5
:1053f0000140700042e0b7009202880011c0b30083
:105400005fb89700000c78000180fb004f04780023
:105410000080fa0000000600114190000240680080
:105420000080fb0000004000110178004811dd0001
:10543000430f2f006080790080086900000006009b
:105440000400fa00e0bf9f00f1bf9f006ff89700d3
:105450000080fb00900188006fb897001002ba002e
:1054600010c0ba000500200001002000c000dd00cf
:105470000000200004197000059170000080fa00ff
:1054800000000600a00e2f000100200014c0b30091
:1054900032002000030020000c0007000001be00c5
:1054a000109b22000100200000006900818069003b
:1054b000010070000000cf000000ea004f00de0095
:1054c0000004a2000080fb0000000600ea874700fd
:1054d000889fbe008a9fbe008c9fbe008e1f7800f2
:1054e0000004be000205be0084f79f000080eb00b0
:1054f000f0b79f00e00f5100e08f59002900320003
:105500006066b80072875700768157000800be00b9
:10551000cbff07008e0078002fe89700beff070042
:105520008e0078003fe89700bbff07000ff0970060
:105530000004e000030032004fe897008e0078007e
:10554000b5ff070062004400e0804c0062064600a0
:10555000e0864e008c0f55008d8f5d0011003600e7
:1055600076815700b6ff07000ff097000004e000b7
:10557000030032004fe89700f2805700a6ff0700b3
:105580008e0078002fe89700a3ff07008e007800b8
:105590003fe89700a0ff070064044400e0844c004b
:1055a000d9ff37007fb09700010020004f07780037
:1055b0004f06be004f05be004f04be00af00b10055
:1055c000000006000800fa00c0bf9f00d1bf9f0086
:1055d000e2bf9f00688157002100200010002000da
:1055e00043e98000030001006ff897000080fb0092
:1055f0000080fa00000006000800fa00c0bf9f000b
:10560000d1bf9f00f2bf9f006881570011002000aa
:105610000100780043e98000030001000080fa00e7
:10562000000006000001eb0082007800100020005e
:1056300043e9800003000100000006000200fa00b8
:10564000f0bf9f000f81e900310020001000200012
:1056500043e98000030001000080fa00000006001a
:105660000800fa00d0bf9f00688157009100200019
:105670001000200043e98000030001006ff897004c
:105680000080fb000080fa00000006000400fa0021
:10569000e0bf9f00648157004100200010002000ff
:1056a00043e98000030001006ff897000080fb00d1
:1056b0000080fa00000006000800fa00c0bf9f004a
:1056c000d1bf9f00688157005100200010002000ca
:1056d00043e98000030001000080fa00000006009a
:1056e0000e00fa00a0f79f00a2bf9f00b3bf9f006b
:1056f000c4bf9f00d5bf9f00e1bf9f006e815700d0
:10570000610020001000200043e980000300010038
:105710006ff897000080fb000080fa000000060090
:105720001200fa00e4bf9f00f5bf9f00e0ef9f006a
:1057300082bf9f0093bf9f0064805700c0bf9f003f
:1057400072815700710020001000200043e98000a2
:10575000030001002ff897000080fb000080fa0092
:10576000000006000600fa00e0bf9f00f1bf9f00a6
:1057700066815700810020001000200043e980006e
:10578000030001005fb897000080fa0000000600e7
:105790000600fa00d0bf9f00e1bf9f00e2ff9f001c
:1057a00066815700a10020001000200043e980001e
:1057b000030001000080fa00000006000600fa0065
:1057c000d0bf9f00e1bf9f0066815700b10020005d
:1057d0001000200043e98000030001000080fa006f
:1057e000000006000200fa00e0ff9f000f81e900c0
:1057f000c10020001000200043e9800003000100e8
:105800000080fa00000006000200fa000f81e900a3
:10581000d10020001000200043e9800003000100b7
:10582000eff897000180fb000080fa0000000600fe
:105830000001eb00e10020001000200043e980009f
:1058400003000100000006000200fa000f81e900d9
:10585000f10020001000200043e980000300010057
:10586000eff897000180fb000080fa0000000600be
:105870000600fa00e0bf9f00f1bf9f00668157005d
:10588000010120001000200043e980000300010016
:10589000aff897000180fb000080fa0000000600ce
:1058a0000200fa00f0ff9f000f81e90031012000a3
:1058b0001000200043e9800003000100eff897008a
:1058c0000180fb000080fa00000006000600fa00dc
:1058d000e0ff9f00e1bf9f0066815700110120009b
:1058e0001000200043e98000030001000080fa005e
:1058f000000006000001eb00210120001000200044
:1059000043e980000300010000000600869fbe00fe
:1059100004a02100000a780091419000f307b20032
:10592000310178006f02610000c0b3000404e70099
:105930001000370040c0b3000404e7008b013700bb
:1059400050c0b3000404e700fa01370030c0b300d0
:105950000404e700ed00370010c0b3000404e700c2
:10596000bd00370020c0b3000404e7000400370086
:10597000bf0237009102780031007800b60237008c
:10598000dc82a900dc42a80000000000000000004a
:10599000dc42a9000000000000000000dc82a8003a
:1059a000dc42a8000000000000000000dc42a9006a
:1059b0000000000000000000dc82a900dc42a8001a
:1059c0000000000000000000e422a900dc42a90061
:1059d000000000000000000000000000dc42a80001
:1059e0000000000000000000dc42a90000000000f0
:1059f00000000000e422a800dc82a900dc42a8002c
:105a00000000000000000000dc42a90000000000cf
:105a100000000000dc82a800dc42a80000000000ba
