:020000040000fa
:020000040001f9
:10e000005aa50000140200000102000001000000f7
:10e01000000100001510000000000000000a0000d0
:020000040000fa
:020000040001f9
:10f00000fc1001005a1101000611010078130100e3
:10f010002014010094130100ae130100d613010067
:10f02000ec1301000614010036140100f214010073
:10f03000181501003e150100561501006e1501005e
:10f04000c41e01005c140100721401008a14010046
:10f05000dc14010086150100a6150100be15010093
:10f06000d4150100d0140100a0140100ac1401005b
:08f07000b8140100c4140100f2
:020000040000fa
:020000040002f8
:100000008001780002003700815978000201e90080
:100010000200e000fcff3a00000006000000fe00c5
:100020001000200000000600100020000000060064
:100030001000200000000600100020000000060054
:100040001000200000000600100020000000060044
:100050000000060010002000000006001000200034
:100060000000060010002000000006001000200024
:100070000000060010002000000006001000200014
:100080000000060010002000000006001000200004
:1000900000000600100020000000060010002000f4
:1000a00000000600b1ed8000a0db210020c8900018
:1000b0000080fb00d02899001000200000000600fe
:1000c0000a00fa00889fbe008004780001047800ce
:1000d0006000b800b0bf9f00c1bf9f000043eb00ad
:1000e0008242780066825700ee8157006a8157008d
:1000f0008800780009007800e01602000100000086
:10010000804078000004e000300032002ff89700b3
:100110000004e0002d003200e20f54001300320012
:1001200003003e000800e000180032000400370021
:10013000e30f54001e003200e40f540002003200ae
:100140008040eb002100370011c0b3001fba9700b8
:10015000afba97003fb99700cfb997000900780070
:10016000cc00070080407800180037001fba9700c5
:10017000afba97003fb99700cfb997000900780050
:100180006500070080407800100037008040eb00d9
:100190001fba9700afba97003fb99700cfb9970041
:1001a00009007800bf000700804078000700370092
:1001b0001fba9700afba97003fb99700cfb9970021
:1001c0000900780076010700804078000180fb007c
:1001d0004f04be000080fa000000060060f88000b6
:1001e00060309000be1e020001000000000006000a
:1001f00010002000000006000041eb00110020006c
:1002000040002000aeff07000004e00004003200c0
:100210000041eb001100200020002000a8ff070093
:100220000080fb000000060012c0b3003100200077
:1002300020002000a2ff07000004e00004003200bc
:1002400012c0b30031002000400020009cff0700d6
:100250000080fb00000006000041eb004100200090
:100260000100780096ff07000004e000040032005f
:100270000041eb00410020002000200090ff07001b
:100280000080fb00000006000041eb008000eb0056
:10029000400020008aff07000004e0000400320054
:1002a0000041eb008000eb002000200084ff0700ed
:1002b0000080fb00000006000041eb003100200040
:1002c000100020007eff07000004e0001000320054
:1002d0000041eb00210020000100780078ff0700ba
:1002e0000004e0000a0032000041eb008000eb0057
:1002f0002000200072ff07000004e000040032002c
:100300000041eb0021002000400020006cff0700ae
:100310000080fb0000000600889fbe008a9fbe0090
:100320008c9fbe00800478000206be000405be005b
:1003300060f8800060309000e30f5000170032003a
:1003400005003e00e10f50000a003200e20f5000ad
:1003500006003a000c003700e50f50002b00320079
:100360001e003900e60f50002d0032000044eb0063
:1003700043003700a4010700a703070000447800ea
:10038000ea0207003e003700cb0107004a040700dd
:1003900000447800f502070039003700e10107004a
:1003a00080382100010020003221020001000000fd
:1003b0002001070000447800ff0207008038210078
:1003c000010020003221020001000000d5010700d9
:1003d00065070700f8020700290037001c02070024
:1003e000200107000f03070000352c00010020004a
:1003f000322102000100000015020700b1050700cc
:1004000000447800070307001d003700360207008c
:10041000ac0507000044780002030700180037000d
:1004200053020700004478000004e0000600320098
:100430000a02be000c01be00090078009b060700fe
:100440000044780000000000e422a90000ff24001e
:100450001100200032210200010000000804e00029
:10046000060032000a02be000c01be00090078003e
:10047000810007000044780000000000040307002a
:100480000880fb004f06be004f05be004f04be00b3
:100490000000060060f88000603090000000eb0073
:1004a0000000060060f88000e0309000e68f500009
:1004b00008003e00100020000101dd00020078006d
:1004c0006007b20011c0b30007003a000238a30071
:1004d00002003a008040eb00030037009101070062
:1004e000b50207008040eb000180fb000000060021
:1004f0000400fa00889fbe008a9fbe008c1f78000f
:10050000b0ed8000c00c900041a0210060ccb30091
:1005100080487800100020008c24020001000000b8
:100520000900e00046003200410037004cb02100d5
:1005300042c0bf000080fb004500de00a0bf9f005e
:1005400092028000ff3ffc0042c0bf007f4060007d
:1005500001ccb3000140700042e0b7009202880075
:1005600080ed80000008eb00614db8006011b8001c
:1005700090ed800090007800117679001008e80076
:1005800061014100e08149008a0f51008b8f5900c1
:10059000f7ff39003100200080ed8000010878006d
:1005a00092028000ff3ffc00afb89700c508dd0055
:1005b00042c0bf007f4060000140700042e0b700d1
:1005c0009202880052c0b300a2f79f0048a0210009
:1005d0000980440088007800f8280200010000002b
:1005e000080278006011b80018c0b300e2407a0039
:1005f0008180fb0062407e000080fb0008006000fc
:1006000088806000810f5000010032000044eb0040
:1006100061014100e08149008a0f51008b8f590030
:10062000080031000804e00006003200efff370048
:10063000a61e0200010000000004e000bbff320023
:1006400018c0b300a61e0200010000000004e00074
:1006500003003200a01e0200010000000044eb0075
:100660000880fb004f0678004f05be004f04be0017
:100670000080fa0000000600e4874700889fbe0063
:100680008a9fbe008c9fbe008e1f7800b0ed800058
:10069000400e9000e422a9004db0210042c0bf00ee
:1006a0004500de006700600080bf9f00920280006e
:1006b000ff3ffc0042c0bf007f40600001ccb300a0
:1006c0000140700042e0b7009202880080ed800097
:1006d0000008eb001ec0b3000c00e0001c0032005c
:1006e0000d0578001ec0b300ba85fb008044eb0006
:1006f0000004eb00940207000080fb000800dd000e
:1007000080c474000804e800e80f5400f9ff3a00c0
:100710000980fb00808f5500010032000047eb008c
:10072000a000200001002000322102000100000092
:1007300000f421000100200032210200010000002d
:100740000d4055000080fb00800f5600e6ff3e0084
:100750003100200080ed80000108780092028000c6
:10076000ff3ffc008fb89700c508dd0042c0bf0006
:100770007f4060000140700042e0b70092028800b4
:10078000e422a8000e80fb004f0778004f06be0051
:100790004f05be004f04be004f00b1000000060030
:1007a000881f780060f8800060309000e30f5000f0
:1007b0001400320005003e00e10f50000a00320034
:1007c000e20f500006003a000b003700e40f500023
:1007d0001100320018c0b300e60f500012003200c2
:1007e0000044eb001000370087000700cf0107002e
:1007f0000044eb000c003700af0007000044eb00a2
:1008000009003700c70007000a000700004478000d
:10081000c6010700040037000d01070011000700a2
:1008200000447800ff0107000880fb004f047800b7
:1008300000000600a0ef80008040eb004000200098
:10084000e80507000001200001002000322102001d
:10085000010000000040eb00040607000080fb00e0
:10086000000006000200fa00889fbe008a1f780080
:1008700042c0bf004500de0067006000c0bf9f00af
:1008800092028000ff3ffc0042c0bf007f4060003a
:1008900001ccb3000140700042e0b7009202880032
:1008a0008000eb0080ed80000108780018c0b300e4
:1008b000814478003accb3000a4064000080fb0019
:1008c00034020700084444008944e800e8cf54009b
:1008d000f9ff3a004006200001002000322102000a
:1008e000010000000044eb000000eb0029020700bb
:1008f0000844e800e84f5400fbff3a00400620009f
:100900000100200032210200010000000044eb0041
:100910000000eb001f0207000844e800e84f540005
:10092000fbff3a00400620000100200032210200b7
:10093000010000005c22020001000000e422a90086
:10094000804f22001100200032210200010000002f
:10095000dac2bf000038a3000d003200e2ff2f0012
:100960000300200000000000dac2bf000038a3002e
:100970000400320061015100e0815900060032009c
:10098000f8ff3700e00f5100e08f590002003200fd
:1009900018c0b300010037000044eb00007d2000c8
:1009a000010020003221020001000000602202004c
:1009b00001000000401f2000010020003221020041
:1009c000010000003100200080ed80000108780067
:1009d00092028000ff3ffc00cfb89700c508dd0001
:1009e00042c0bf007f4060000140700042e0b7009d
:1009f000920288000880fb004f0578004f04be007b
:100a00000080fa0000000600881f78000000eb005c
:100a10001c2102000100000000447800682202004e
:100a2000010000006022020001000000e402a800b2
:100a3000d842a900e422a800007d20000100200087
:100a400032210200010000005c22020001000000cf
:100a500000fa200001002000322102000100000005
:100a6000642202000100000000fa200001002000c2
:100a70003221020001000000682202000100000093
:100a8000000a2000010020003221020001000000c5
:100a9000602202000100000000712200010020001d
:100aa00032210200010000000884fb0008007800e9
:100ab0004f047800000006000000eb001c2102003b
:100ac0000100000000352c0001002000322102004e
:100ad000010000005c2202000100000000fa20007a
:100ae0000100200032210200010000006422020007
:100af00001000000803821000100200032210200a6
:100b000001000000682202000100000000532700dd
:100b1000010020003221020001000000100020002e
:100b200000000600881f7800c00320000621020094
:100b30000100000021a02100804878000001eb00a6
:100b4000c103200010002000b820020001000000b6
:100b5000e4e2a900e462a8000040eb0026220200c3
:100b600001000000004478000004e0003000320082
:100b7000e4c2a800803e20000100200032210200d3
:100b8000010000000000eb001c2102000100000039
:100b9000004478000004e0002500320068220200d2
:100ba000010000006022020001000000e402a80031
:100bb000d842a900e422a800007d20000100200006
:100bc0003221020001000000682202000100000042
:100bd0006022020001000000e4c2a900e4a2a80013
:100be000803e2000010020003221020001000000b0
:100bf000e4e2a800e462a90010c0b30026220200cb
:100c000001000000004478000004e0000800320009
:100c1000100020001c2102000100000000447800a8
:100c20008038210001002000322102000100000074
:100c30000001eb00c103200002007800b820020090
:100c4000010000000880fb004f047800000006004f
:100c5000e402a800d842a900e422a8006022020011
:100c60000100000068220200010000000000eb000b
:100c70001c2102000100000000352c0001002000b2
:100c80003221020001000000100020001c2102009f
:100c9000010000005c220200010000000065240049
:100ca0000100200032210200010000006422020045
:100cb00001000000007d2000010020003221020020
:100cc0000100000060220200010000006822020012
:100cd0000100000040062000010020003221020037
:100ce0000100000000000600e402a800d842a900ac
:100cf000e422a80060220200010000006822020035
:100d0000010000000000eb001c21020001000000b7
:100d100000352c00010020003221020001000000fb
:100d2000100020001c2102000100000000352c00f2
:100d30000100200032210200010000005c220200bc
:100d400001000000006a280011002000322102008a
:100d5000010000006022020001000000006c2c0075
:100d6000d102200032210200010000000000060034
:100d7000881f7800c0032000062102000100000047
:100d800021a02100804878000001eb00c103200071
:100d900010002000b820020001000000e4e2a900d9
:100da000e462a8000040eb002622020001000000df
:100db000004478000004e0002c003200e4c2a800e7
:100dc000803e2000010020003221020001000000ce
:100dd0000000eb001c21020001000000004478002c
:100de0000004e0002100320068220200010000003f
:100df0006022020001000000e402a800d842a9001d
:100e0000e422a800007d2000010020003221020021
:100e100001000000682202000100000060220200c0
:100e200001000000100020001c2102000100000051
:100e3000004478000004e0000c003200e4c2a90085
:100e4000e4a2a800803e2000010020003221020020
:100e500001000000e4e2a800e462a90010c0b300b1
:100e60002622020001000000004478000001eb008f
:100e7000c103200002007800b82002000100000039
:100e80006822020001000000602202000100000050
:100e90000071220001002000322102000100000048
:100ea00068220200010000005c2202000100000034
:100eb000c0da200001002000322102000100000001
:100ec00064220200010000005c2202000100000018
:100ed000c0da2000010020003221020001000000e1
:100ee00068220200010000005c22020001000000f4
:100ef000c0da2000010020003221020001000000c1
:100f000068220200010000006022020001000000cf
:100f100080af220001002000322102000100000009
:100f20000880fb004f0478000000060068220200e1
:100f3000010000006022020001000000e402a8009d
:100f4000d842a900e422a8006822020001000000a3
:100f50006022020001000000803821000100200012
:100f60003221020001000000000006006822020099
:100f7000010000006022020001000000e402a8005d
:100f8000d842a900e422a800682202000100000063
:100f900060220200010000000000eb001c210200a2
:100fa00001000000803821000100200032210200f1
:100fb0000100000000000600dc82a900da42a9005e
:100fc000e402a800d842a900e422a8000000eb0037
:100fd0001c210200010000008038210001002000d7
:100fe000322102000100000020a021001004e000d6
:100ff00006003200e4e2a800e462a90010c0b300d9
:10100000262202000100000005003700e4e2a900ea
:10101000e462a8000040eb0026220200010000006c
:1010200000000600dc82a900da42a900e402a80060
:10103000d842a900e422a8000000eb001c21020015
:101040000100000080382100010020003221020050
:101050000100000020a021001004e0000600320082
:10106000e4e2a800e462a90010c0b3002622020056
:101070000100000005003700e4e2a900e462a800d6
:101080000040eb00262202000100000000000600e4
:10109000dc82a900da42a900e402a800d842a90033
:1010a000e422a8000000eb001c2102000100000067
:1010b00080382100010020003221020001000000e0
:1010c00020a021001004e00006003200e4e2a800a5
:1010d000e462a90010c0b300262202000100000053
:1010e00005003700e4e2a900e462a8000040eb003c
:1010f000262202000100000000000600881f780080
:101100005c220200010000002003200001002000fa
:1011100032210200010000006022020001000000f4
:10112000a82d200018447800200320000100200092
:1011300032210200010000004340de006100600037
:101140004f04780000000600881f7800a82d2000ba
:10115000184478005c2202000100000020032000f7
:101160000100200032210200010000006022020084
:1011700001000000200320000100200032210200b5
:10118000010000004340de00610060004f04780071
:1011900000000600881f7800004478005c220200ee
:1011a000010000000804e000030032006422020095
:1011b0000100000002003700682202000100000068
:1011c0002003200001002000322102000100000065
:1011d0006022020001000000200320000100200026
:1011e000322102000100000068220200010000001c
:1011f0004f047800000006000004e0000300320005
:101200006422020001000000020037006822020090
:101210000100000000000600e6874700889fbe002e
:101220008a9fbe008c9fbe008e1f7800b0ed8000ac
:10123000400890008006d100e422a800007d200034
:101240000100200032210200010000004eb0210008
:1012500042c0bf004500de0067006000f0b79f009d
:1012600092028000ff3ffc0042c0bf007f40600050
:1012700001ccb3000140700042e0b7009202880048
:101280008000eb0080ed8000010878000d00e00098
:10129000410032000e0178008141780090ed80001d
:1012a00090007800114978001008e80090ed800067
:1012b0009000780091407800114198000281e80088
:1012c0001008e8008341e8000380fb00808f56008f
:1012d000f2ff3e008e0578000046eb001b457800cb
:1012e00018c0b3008044eb0008406500a9ff070068
:1012f000084444008944e800e8cf5400faff3a006b
:101300004006200001002000322102000100000000
:101310001b4590008b85e80018c0b3008044eb00ab
:10132000084065009bff0700084444008944e8002a
:10133000e8cf5400faff3a004006200001002000e8
:1013400032210200010000005c22020001000000c6
:10135000e422a900804f2200110020003221020067
:10136000010000006022020001000000682202006b
:1013700001000000e422a800a00f200001002000ce
:1013800032210200010000000c46e8000c80fb0046
:10139000808f5600d1ff3e0000ee220001002000a9
:1013a0003221020001000000b0ed800040089000f2
:1013b0008006d100e422a900804f22001100200005
:1013c000322102000100000010c0b30080f79f002e
:1013d0000d00e000240032008045eb0011c0b30096
:1013e00081f79f001e4578001e4690000e87e8009a
:1013f0008044eb000004eb0040ff07000080fb008e
:101400000800dd0080c474000804e800e80f540000
:10141000f9ff3a00894f5500020032000040eb000e
:1014200080f79f008044eb000004eb0033ff0700cf
:101430000080fb000800dd0080c474000804e800a0
:10144000e80f5400f9ff3a00894f560002003200bd
:101450008040eb0081f79f008b45e8000b80fb008c
:10146000808f5600dfff3e003100200080ed8000bd
:101470000108780092028000ff3ffc00ffb0970057
:10148000c508dd0042c0bf007f4060000140700021
:1014900042e0b700920288008ff097000180fb00c5
:1014a0004f0778004f06be004f05be004f04be0038
:1014b0006f00b10000000600ec874700889fbe0067
:1014c0008a9fbe008c9fbe008e1f7800f880570058
:1014d000300020000e22020001000000b0ed80006c
:1014e000400890000000d10080bf9f00e422a800c7
:1014f00040b02100e0b79f0042c0bf000080fb0069
:101500004500de00d0b79f0092028000ff3ffc0044
:1015100042c0bf007f40600001ccb30001407000ba
:1015200042e0b700920288008000eb0080ed80006e
:10153000010878000fb897000000e000c7003200f3
:101540006fb197008141780090ed800090007800a5
:10155000114978001008e80090ed800090007800b4
:1015600091407800114198000281e8001008e800dd
:101570008341e8000380fb008fb89700808f500004
:10158000f1ff3e006fb797000000eb00f0b79f003f
:101590001e4578000ac6ea00efee97000d04e00051
:1015a00009003a000a08a3000700320010002000da
:1015b0001c21020001000000800c2000010020001e
:1015c000322102000100000018c0b3008004eb00cb
:1015d0000d04e00015003a000904e00013003a0091
:1015e0000840650004ff07002003200001002000e0
:1015f0003221020001000000602202000100000010
:101600002003200001002000322102000100000020
:101610005c220200010000002003200001002000e5
:101620003221020001000000120037005c2202009b
:1016300001000000e0012000010020003221020032
:101640000100000008406500ebfe0700400120009b
:10165000010020003221020001000000602202008f
:1016600001000000200320000100200032210200c0
:1016700001000000084444008904e800e88f540099
:10168000d3ff3a0040062000010020003221020072
:10169000010000001e4590000e87e8008ac5ea00a0
:1016a00018c0b3008044eb005c220200010000007f
:1016b000e0012000010020003221020001000000b2
:1016c00008406500ccfe070040012000010020001a
:1016d000322102000100000060220200010000002f
:1016e0002003200001002000322102000100000040
:1016f000084444008944e800e8cf5400eaff3a0077
:10170000800c2000010020003221020001000000b6
:1017100018c0b3008044eb005c220200010000000e
:10172000e001200001002000322102000100000041
:1017300008406600b0fe07004001200001002000c4
:1017400032210200010000006022020001000000be
:1017500020032000010020003221020001000000cf
:10176000084444008944e800e8cf5400eaff3a0006
:10177000400620000100200032210200010000008c
:1017800018c0b3005c22020001000000e00120004c
:1017900001002000322102000100000008c06500a5
:1017a00095fe0700400120000100200032210200c8
:1017b0000100000060220200010000002003200060
:1017c0000100200032210200010000000844440012
:1017d0008944e900ebff3a002003200001002000cb
:1017e0003221020001000000682202000100000016
:1017f0005c2202000100000000352c0001002000e6
:1018000032210200010000006022020001000000fd
:10181000200320000100200032210200010000000e
:10182000e422a8006822020001000000200320003a
:101830000100200032210200010000007fb097006b
:101840000000e800f0b79f000d40e8000080fb00ba
:101850008fb89700808f50004dff3e00e422a90012
:1018600000352c00010020003221020001000000a0
:101870001dc0b3000fb897000000e0002400320044
:101880008045eb001dc0b300efb097001145780014
:10189000114690008180e800e1b79f008044eb0092
:1018a0000004eb0015fe07000080fb000800dd00cf
:1018b00080c474000804e800e80f5400f9ff3a00ff
:1018c000894f5500010032008046eb008044eb0058
:1018d0000004eb0009fe07000080fb000800dd00ab
:1018e00080c474000804e800e80f5400f9ff3a00cf
:1018f000894f5600010032008046eb008b45e8001e
:101900000b80fb008fb89700808f5000deff3e00f9
:101910003100200080ed80000108780092028000f4
:10192000ff3ffc00dfb09700c508dd0042c0bf00ec
:101930007f4060000140700042e0b70092028800e2
:101940000d80fb004f0778004f06be004f05be001c
:101950004f04be00cf00b100000006000200fa00f4
:10196000889fbe008a9fbe00b0ed8000400d9000b1
:101970004bb0210042c0bf004500de0067006000a0
:10198000b0bf9f0092028000ff3ffc0042c0bf003a
:101990007f40600001ccb3000140700042e0b7001e
:1019a0009202880080ed80000008eb000a00e00051
:1019b000090032000b01780090ed80009000780063
:1019c000115978001008e8000b4051000080fb001e
:1019d000800f5500f8ff3e0041a0210060ccb3000d
:1019e00080487800100020008c24020001000000d4
:1019f0000a00e000220032000b0478008041eb0076
:101a000049a02100384178000380fb004200dd003e
:101a10000900400031c8b300014878000080e800a8
:101a20008040eb0011409800024878000340e80035
:101a30000080fb004200dd0081ccb30001f07c009f
:101a400003c0e8000080fb00890078008c240200bd
:101a5000010000000071220001002000322102007c
:101a60000100000060ccb300804c780013c0b300cc
:101a70000b4054000080fb00800f5500e1ff3e004a
:101a80003100200080ed8000010878009202800083
:101a9000ff3ffc00bfb89700c508dd0042c0bf0093
:101aa0007f4060000140700042e0b7009202880071
:101ab000100020004f05be004f04be000080fa0059
:101ac000000006000200fa00889fbe008a9fbe0048
:101ad0008c1f78004cb0210042c0bf004500de00e2
:101ae00067006000a0bf9f0092028000ff3ffc00e3
:101af00042c0bf007f40600001ccb30001407000d5
:101b000042e0b700920288008000eb0080ed800088
:101b1000010878008c0178000141780090ed800088
:101b200090007800915978001008e8000241e80020
:101b3000e94f5100f9ff3a0068220200010000005d
:101b40006022020001000000e402a800d842a900bf
:101b5000e422a80018c0b3008044eb004acbb300d5
:101b60000a4064008bfd0700084444008944e800f3
:101b7000e8cf5400faff3a004006200001002000a0
:101b800032210200010000008045eb003c45780056
:101b900018c0b3008044eb00084065007dfd0700dd
:101ba000084444008944e800e8cf5400faff3a00b2
:101bb0004006200001002000322102000100000048
:101bc0008b45e800e9cf5500f0ff3a005c220200a7
:101bd00001000000e422a900804f22001100200033
:101be0003221020001000000dac2bf000038a30069
:101bf0000d003200e2ff2f00030020000000000073
:101c0000dac2bf000038a3000400320061015100b5
:101c1000e081590006003200f8ff3700e00f510064
:101c2000e08f59000200320018c0b30001003700f5
:101c30000044eb00007d2000010020003221020062
:101c4000010000006022020001000000401f20008f
:101c500001002000322102000100000031002000bc
:101c600080ed80000108780092028000ff3ffc00b8
:101c7000afb89700c508dd0042c0bf007f406000dc
:101c80000140700042e0b700920288000880fb002b
:101c90004f0678004f05be004f04be000080fa00da
:101ca000000006000200fa00889fbe008a9fbe0066
:101cb0008c9fbe00b0ed8000400890000006d1006f
:101cc0004db0210042c0bf004500de00670060004b
:101cd00090bf9f0092028000ff3ffc0042c0bf0007
:101ce0007f40600001ccb3000140700042e0b700cb
:101cf0009202880080ed80000008eb000c00e000fc
:101d0000090032000d01780090ed8000900078000d
:101d1000115978001008e8000d4051000080fb00c8
:101d2000800f5600f8ff3e0068220200010000000c
:101d30006022020001000000e402a800d842a900cd
:101d4000e422a8000c00e000110032008d057800ac
:101d50003b45780018c0b30089c0b3000840650057
:101d60000cfd0700084444008944e900fbff3a00e9
:101d70004006200001002000322102000100000086
:101d80000dc055000080fb00800f5600f0ff3e00a4
:101d90005c22020001000000e422a900804f220022
:101da000110020003221020001000000dac2bf0051
:101db0000038a3000d003200e2ff2f00f30f2000d7
:101dc00000000000dac2bf000038a30004003200a7
:101dd00061015100e081590006003200f8ff370030
:101de000e00f5100e08f59000200320018c0b3002c
:101df000010037000044eb000071220001002000c8
:101e000032210200010000006022020001000000f7
:101e1000401f2000010020003221020001000000cc
:101e2000dac2bf000038a3000e003a00e2ff2f0024
:101e3000f30f200000000000dac2bf000038a3004a
:101e400004003a0061015100e081590004003200b1
:101e5000f8ff3700e00f5100e08f590001003a0011
:101e60000044eb003100200080ed80000108780084
:101e700092028000ff3ffc009fb89700c508dd007c
:101e800042c0bf007f4060000140700042e0b700e8
:101e9000920288000880fb004f06be004f05be007e
:101ea0004f04be000080fa00000006000200fa00a5
:101eb000889fbe008a9fbe008c9fbe00b0ed800050
:101ec000400e90004db0210042c0bf004500de0032
:101ed0006700600090bf9f0092028000ff3ffc00ff
:101ee00042c0bf007f40600001ccb30001407000e1
:101ef00042e0b7009202880080ed80000008eb000d
:101f00000c00e000090032000d01780090ed800027
:101f100090007800115978001008e8000d40510039
:101f20000080fb00800f5600f8ff3e006822020090
:101f3000010000006022020001000000e402a8008d
:101f4000d842a900e422a8000c00e00011003200f1
:101f50008d0578003b45780018c0b30089c0b300f8
:101f6000084065008bfc0700084444008944e900f0
:101f7000fbff3a0000f421000100200032210200a2
:101f8000010000000dc055000080fb00800f5600ce
:101f9000f0ff3e003100200080ed80000108780055
:101fa00092028000ff3ffc009fb89700c508dd004b
:101fb00042c0bf007f4060000140700042e0b700b7
:101fc00092028800100020004f06be004f05be00a0
:101fd0004f04be000080fa00000006000000eb0085
:101fe00000000600881f7800e20f50001300320046
:101ff0008040eb00e40f500014003a0041a02100a3
:1020000000c8b30080487800f0ff230030d088007b
:1020100060ccb300c0409800c0a0210062ccb300e7
:10202000c1a221000248780064004000810f5000e6
:10203000fcff3a00a1c0b3000400370061ccb3003c
:1020400040a021000148780011c0b3000184fb00ca
:1020500041a02100080078008c240200010000004b
:10206000080078004f047800000006000400fa0021
:10207000881f78000044780080ef800042c0bf00d5
:102080000080fb004500de00e0bf9f009202800060
:10209000ff3ffc0042c0bf007f40600001ccb300a6
:1020a0000140700042e0b7009202880080ed80009d
:1020b0000008eb0041c0b300668057006c220200ac
:1020c000010000000804e00004003200f0fb2000e2
:1020d000dfb8970000846000020037005fbc970003
:1020e0000860a000800120000100200032210200d1
:1020f0000100000041a0210000c8b3008048780022
:1021000038d0880080ccb300c04098002000200068
:102110008c24020001000000007122000100200058
:1021200032210200010000003100200080ed80001b
:102130000108780092028000ff3ffc00efb8970092
:10214000c508dd0042c0bf007f4060000140700054
:1021500042e0b70092028800100020004f0478008f
:102160000080fa00000006000400fa0080ef800002
:1021700042c0bf000080fb004500de00f0bf9f00b2
:1021800092028000ff3ffc0042c0bf007f40600021
:1021900001ccb3000140700042e0b7009202880019
:1021a00080ed80000008eb0041c0b3006480570060
:1021b0006c220200010000003100200080ed800050
:1021c0000108780092028000ff3ffc00ffb89700f2
:1021d000c508dd0042c0bf007f40600001407000c4
:1021e00042e0b70092028800cff897000180fb0020
:1021f0000080fa000000060011002000e0c4220068
:10220000f22b02000100000000000600889fbe00c3
:1022100000047800a901800010002000a0018800bf
:10222000b1ed80004180910000d0a100c0809900f4
:10223000650007005200020001000000004c780019
:10224000b1ed8000a0db210040c890000080fb00c1
:10225000e0289900b2ed800060f88000b08890001e
:10226000208890008041eb000008a30001003200ac
:1022700013c0b300c2809100618061004200dd00a4
:102280000120a1008080700041819900e1ed800073
:1022900020f1210001487800b1ed800051809100cb
:1022a0000000a000d0809900a90188004f04be0062
:1022b00000000600881f7800a8018000110020009f
:1022c000a101880001c02e00a1ed880090007800d7
:1022d00041f8880090009000b1ed8800a0009000c7
:1022e00081ed8800b0009000c1ed880040009000b2
:1022f00050f88800b0ed80004008b00090ed8800f4
:10230000b0ed800010409000e14f50002b003a00eb
:10231000b0ed8000204190000204e00027003a0068
:10232000b0ed800030409000e24f500023003a00b2
:10233000b1ed8000a0db210080889800b1ed800025
:10234000e0142000f0809800b0ed800022f89a00a0
:10235000b0ed800032f89a00b1ed800030c0b300db
:10236000c0f89a00b0ed800052f89a00b1ed8000fc
:102370000000eb0080909800b2ed8000f228910000
:102380000100a10071299900b2ed8000c280910086
:102390000100a10041819900b2ed8000f228910076
:1023a0000140a00071299900b2ed8000f22891004f
:1023b0000120a100712999006d060700a80188007d
:1023c0004f0478000000060080e0210060f88800db
:1023d00060f0800071f08000b2ed80004001980054
:1023e00051019800e00f5000e08f580004003200c7
:1023f000b1ed8000310090000000a000b000980016
:10240000b2ed80006000b8005009980061099800a2
:1024100060f8800060029000f0029000b0ed800053
:1024200044089800e00f5200e08f5a000400320088
:10243000b1ed8000310090000010a000b0009800c5
:10244000b0ed8000041098001510980060f880002e
:10245000b008900020089000b2ed8000605998000c
:102460000402400085824800e00f5000e08f5800d1
:1024700004003200b1ed8000310090000020a00087
:10248000b0009800b0ed80004410980055109800fe
:1024900060f88000f008900060089000b2ed8000c5
:1024a00020119800311198000402400085824800f4
:1024b000e00f5000e08f580004003200b1ed8000c2
:1024c000310090000030a000b0009800b0ed800016
:1024d000742898000530980060f88000103990004a
:1024e000a0399000b0ed80001230980023309800a1
:1024f00000002300800f5100e08f590002003e00d1
:102500000402410085824900e00f5100e08f59002c
:1025100004003200b1ed8000310090000090a00076
:10252000b0009800b0ed80002408980035089800ad
:1025300060f88000f088900060889000b2ed800024
:1025400000099800110998000403400085834800a1
:10255000e00f5000e08f580004003200b1ed800021
:102560003100900000a0a000b0009800b0ed800005
:102570005638980067389800b0ed8000261898000b
:1025800037189800b0ed80000002eb004418980066
:10259000b0ed8000038021005318980000802100d6
:1025a000010020000600400087804800b2ed800056
:1025b0006019980071199800b0ed8000042098000f
:1025c000b0ed8000132098000000230001002000df
:1025d0000603400087834800b2ed80006000b80029
:1025e000701198000119980060f88000b0109000f8
:1025f00020109000b2ed800060119800e00f5000b4
:10260000e08f580004003200b1ed800031009000ee
:102610000040a000b0009800b0ed80006011b8004c
:102620002220980033209800b0ed800005002100a2
:1026300045209800b0ed80000228980013289800eb
:10264000b4ed80000000200021002000202a980026
:10265000312a9800b0ed8000422898005328980055
:10266000b0ed800065289800b0ed80003230980011
:1026700043309800b1ed800000202000d030980059
:10268000b0ed80006230980073309800b1ed8000aa
:102690000040200080389800b1ed80000000eb0081
:1026a0009038980062f8800062289000f22890002c
:1026b000e00f5000e08f580005003a0002909000b3
:1026c00092909000e00f5000e08f5800040032001c
:1026d000b1ed8000310090000050a000b0009800e3
:1026e000b0ed8000363898004738980000000600aa
:1026f000889fbe0000047800a9018000100020001f
:10270000a0018800b1ed80000000eb00f0389900d6
:10271000f800020001000000004c7800a9018800c8
:102720004f04be0000000600889fbe000004780031
:10273000a901800010002000a001880030c0b30073
:10274000590507005c01020001000000004c780000
:10275000a90188004f04be0000000600889fbe004b
:102760008a1f780080047800aa01800010002000f1
:10277000a001880040c0b3004b0507000040eb00fb
:102780006c040700004478004401020001000000ce
:10279000804c78000840780066040700aa01880091
:1027a0004f0578004f04be0000000600889fbe0061
:1027b00000047800a901800010002000a00188001a
:1027c0002c01020001000000004c7800a9018800e3
:1027d0004f04be0000000600889fbe000004780081
:1027e000a901800010002000a001880010c0b300e3
:1027f0002d050700fc00020001000000004c7800dd
:10280000a90188004f04be0000000600889fbe009a
:1028100000047800a901800010002000a0018800b9
:1028200020c0b300200507001401020001000000d1
:10283000004c7800a90188004f04be00000006008b
:10284000889fbe0000047800a901800010002000cd
:10285000a00188001400020001000000004c780074
:10286000a90188004f04be0000000600889fbe003a
:1028700000047800a901800010002000a001880059
:102880008040eb00e0f0210001487800f0f02100ea
:102890000148780000f1210001487800e1000700bc
:1028a0001000020001000000004c7800a90188001f
:1028b0004f04be0000000600889fbe0000047800a0
:1028c000a901800010002000a0018800180002006b
:1028d00001000000004c7800a90188004f04be00f0
:1028e00000000600889fbe0000047800a901800057
:1028f00010002000a0018800280002000100000054
:1029000010c0b300004c7800a90188004f04be003d
:1029100000000600889fbe0000047800a901800026
:1029200010002000a00188002a0002000100000021
:10293000004c7800a90188004f04be00000006008a
:10294000a201800011002000a10188000048eb00d6
:10295000a201880000000600a201800011002000f2
:10296000a10188000048eb00a201880000000600d9
:10297000a201800011002000a10188000048eb00a6
:10298000a201880000000600a201800011002000c2
:10299000a10188000048eb00a201880000000600a9
:1029a000a201800011002000a10188000048eb0076
:1029b000a201880000000600889fbe000004780085
:1029c000a901800010002000a0018800240002005e
:1029d00001000000004c7800a90188004f04be00ef
:1029e00000000600889fbe0000047800a901800056
:1029f00010002000a001880098009000280190009d
:102a0000b80190004848900078039000880b90002f
:102a100048029000d802900032000200010000003d
:102a2000004c7800a90188004f04be000000060099
:102a3000889fbe0000047800a901800010002000db
:102a4000a00188009800900028019000b801900033
:102a50004848900078039000880b9000480290004e
:102a6000d80290003600020001000000004c7800ff
:102a7000a90188004f04be0000000600889fbe0028
:102a800000047800a901800010002000a001880047
:102a9000180090003a00020001000000004c78008d
:102aa000a90188004f04be0000000600889fbe00f8
:102ab00000047800a901800010002000a001880017
:102ac000180090003e00020001000000004c780059
:102ad000a90188004f04be0000000600889fbe00c8
:102ae00000047800a901800010002000a0018800e7
:102af000180090002e00020001000000004c780039
:102b0000a90188004f04be0000000600889fbe0097
:102b100000047800a901800010002000a0018800b6
:102b200018019000a801900048009000d800900083
:102b30001802780042000200010000006044980082
:102b4000a90188004f04be0000000600889fbe0057
:102b500000047800a901800010002000a001880076
:102b60001840780046000200010000001044980060
:102b7000a90188004f04be0000000600889fbe0027
:102b800000047800a901800010002000a001880046
:102b90004a00020001000000004c7800a9018800f2
:102ba0004f04be0000000600889fbe0000047800ad
:102bb000a901800010002000a001880096070200f3
:102bc0000100000010c0b300004c7800a90188008b
:102bd0004f04be0000000600000006000000eb00ed
:102be000000006004a000200010000000004e000ae
:102bf000080032002800020001000000200320002d
:102c00000100200032210200010000001400020037
:102c1000010000000080fb00000006000000eb0047
:102c20000000060000000600b2ed80002081980040
:102c30003181980000000600b0ed8000b080900067
:102c400020809000000006000600fa00889fbe0069
:102c50000000200011002000b0bf9f00c1bf9f00f6
:102c60000040eb00a0ff9f00668057003000070087
:102c700000447800350407000004e0001900320029
:102c80000040eb00a0ff9f002400020001000000b4
:102c9000804478000004e00018003a001900370072
:102ca0006680570022000700004178003fb8970077
:102cb000cfb8970061005000e0805800b0bf9f007f
:102cc000c1bf9f003fb89700cfb89700e00f5000fa
:102cd000e08f5800070032000204e00009003a00cb
:102ce000efff37000804e000dfff320019c0b30037
:102cf000040037008044eb00020037000804e000c5
:102d0000e7ff3200e402a900d842a800803e20007c
:102d10000100200032210200010000000804070029
:102d20000980fb004f04be000080fa00000006008e
:102d3000881f780000047800dac2bf000028a300d2
:102d400006003200184ce800a0002000010020001e
:102d5000322102000100000001003700004ceb00ae
:102d60008040eb0030c6b300984f100001003600e1
:102d700011c0b3000180fb004f0478000000060082
:102d8000dac2bf000028a3000c003a00e402a80049
:102d9000d842a900e422a800dc82a900da42a800f7
:102da000401f20000100200032210200010000002d
:102db000da42a900e402a900d842a80000000600f7
:102dc000ea874700889fbe008a9fbe008c9fbe0096
:102dd0008e1f7800800378000106780002077800d3
:102de000840478008546780086f79f00004aeb004f
:102df00072005000e10f5000020036008009eb0025
:102e0000b3117800b0ed800010939000b0ed800019
:102e1000c0909000309090004609dd004a00de002e
:102e200000007100ca08de0061406000b0ef9f0042
:102e3000b0ed8000c0909000309090008100d100f3
:102e40000080d30061406000a0ef9f000080eb0095
:102e50008080eb0007004000e0804800f30f500046
:102e6000e08f580015003e00006001001a00370096
:102e700071003700a2003700cd003700f80037009e
:102e80000e003700a9013700520137000b00370050
:102e9000140137003e0137000800370007003700f3
:102ea00006003700c8013700040037000300370070
:102eb000670137007b013700320037000044eb0028
:102ec0006055b8000a02be00eab79f00fbb79f003a
:102ed00008417800e7013700b0ed80003000900035
:102ee0006101600007003a0018c0b3006055b800e7
:102ef0000a02be00eab79f00fbb79f001700200040
:102f0000dc0137000d04e00002003a000608a300cf
:102f10001100320012c0b300824c7800b0ed800086
:102f200050959000e0959000b0ed80008098900062
:102f30007090900061024000e082480067f88000d5
:102f40001700be00e0b79f00f1b79f000244780071
:102f500017002000c70137001000200001002000ea
:102f60008089be0018c0b3006055b8000a02be00d8
:102f7000eab79f00fbb79f000841780017002000c8
:102f8000bc013700b0ed8000b00090000040200090
:102f90000081600007003a0018c0b3006055b80017
:102fa0000a02be00eab79f00fbb79f00470120005e
:102fb000b00137000d04e00002003a000698a300bb
:102fc0001200320012c0b300824c7800b0ed8000d5
:102fd00050ad9000e0ad9000b0ed800080b090006a
:102fe00070a8900061024000e082480067f880000d
:102ff00047889000d7889000e0b79f00f1b79f0006
:1030000002447800470120009a0137001000200098
:10301000010020008089be0018c0b3006055b800d0
:103020000a02be00eab79f00fbb79f000841780084
:10303000470120008f013700b0ed80003000900084
:10304000620160000a003a00afe897000104e00066
:1030500007003a0018c0b3006055b8000a02be006d
:10306000eab79f00fbb79f002700200081013700cf
:103070000d04e00005003a000618a30003003a0022
:10308000afe897000104e0001200320012c0b30064
:10309000824c7800b0ed8000109d9000a09d9000c3
:1030a000b0ed8000c0989000309890006102400020
:1030b000e082480067f8800047009000d700900049
:1030c000e0b79f00f1b79f0002447800270020007e
:1030d0006801370010002000010020008089be0038
:1030e00018c0b3006055b8000a02be00eab79f00de
:1030f000fbb79f0008417800270020005d013700e2
:10310000b0ed8000300090006401600007003a00dc
:1031100018c0b3006055b8000a02be00eab79f00ad
:10312000fbb79f0037002000520137000d04e0007c
:1031300002003a000628a3001200320012c0b300b9
:10314000824c7800b0ed8000509d9000e09d900092
:10315000b0ed800080a09000709890006102400067
:10316000e082480067f88000070890009708900008
:10317000e0b79f00f1b79f000244780037002000bd
:103180003c01370010002000010020008089be00b3
:1031900018c0b3006055b8000a02be00eab79f002d
:1031a000fbb79f000841780037002000310137004d
:1031b000b0ed8000300090006801600007003a0028
:1031c00018c0b3006055b8000a02be00eab79f00fd
:1031d000fbb79f0047002000260137000d04e000e8
:1031e00002003a000638a3001200320012c0b300f9
:1031f000824c7800b0ed800010a59000a0a5900052
:10320000b0ed8000c0a0900030a0900061024000ae
:10321000e082480067f8800047089000d7089000d7
:10322000e0b79f00f1b79f000244780047002000fc
:103230001001370010002000010020008089be002e
:1032400018c0b3006055b8000a02be00eab79f007c
:10325000fbb79f00084178004700200005013700b8
:103260000d04e00002003a000648a30012003200fc
:1032700012c0b300824c7800b0ed800050a59000e1
:10328000e0a59000b0ed800080a8900070a09000b4
:1032900061024000e082480067f88000071090005b
:1032a00097109000e0b79f00f1b79f0002447800ac
:1032b00057002000ef003700100020000100200020
:1032c0008089be0018c0b3006055b8000a02be0075
:1032d000eab79f00fbb79f000041eb0057002000ba
:1032e000e400370017c0b300874c7800b0ed8000d1
:1032f000702891000018a30016003200b0ed800085
:1033000050229000e0229000e4b79f00f5b79f00a4
:10331000b0ed800070209000010020008089be0088
:10332000b0ed8000702090003200200011000900f4
:103330000280d800000040000000e8006102b800f0
:10334000074478006055b80007417800a7002000c6
:10335000c800370060f88000400a9000d00a900052
:10336000e4b79f00f5b79f00600a9000f00a900054
:103370008489be006fb29700ffb2970018c0b300f7
:103380006055b80008417800a7002000b900370058
:1033900011c0b300814c780060f88000000a9000f2
:1033a000900a9000e4b79f00f5b79f00200a9000b4
:1033b000b00a90008489be006fb29700ffb29700f8
:1033c000014478006055b80001417800b700200042
:1033d000a80037000d04e00006003a00b0ed8000c0
:1033e000300090000008b20002003a00004178006e
:1033f0000300370010c0b300804c78000041780013
:10340000b0ed800040189000010020008089be00cf
:10341000e00f5000e08f580003003a001000200039
:10342000010020008089be0060f88000001290003a
:1034300090129000e4b79f00f5b79f0018c0b3004a
:103440006055b8000a02be008700200089003700de
:103450000d04e00006003a00b0ed8000300090005e
:103460000008b20002003a00004178000300370073
:1034700010c0b300804c7800004178001e05be00eb
:1034800060f880000012900090129000e4b79f0056
:10349000f5b79f0018c0b3006022b8008700200075
:1034a000740037000d04e00006003a00b0ed800023
:1034b000300090000010b20002003a000041780095
:1034c0000300370010c0b300804c78000041780042
:1034d0001e05be00b0ed8000702891000048a300da
:1034e00009003200b0ed8000608a9000f08a900000
:1034f000e4b79f00f5b79f0018c0b3006022b80082
:10350000770020005b00370060f880000012900018
:1035100090129000e4b79f00f5b79f0018c0b30069
:103520006022b80077002000520037000d04e00050
:1035300006003a00b0ed8000300090000010b200ac
:1035400002003a00004178000300370010c0b300c9
:10355000804c780000417800b0ed800000209000a1
:10356000010020008089be00b0ed8000702891002d
:103570000048a3000a003200b0ed8000608a90008d
:10358000f08a9000e4b79f00f5b79f0018c0b30021
:103590006055b8000a02be007700200035003700f1
:1035a00060f880000012900090129000e4b79f0035
:1035b000f5b79f0018c0b3006055b8000a02be00fe
:1035c000770020002b003700b0ed80003001900024
:1035d0000220b20007003a0018c0b3006055b800de
:1035e0000a02be00eab79f00fbb79f00f700200069
:1035f000200037000d04e00002003a000688a30016
:103600001200320012c0b300824c7800b0ed80008e
:1036100010ad9000a0ad9000b0ed8000c0a890006b
:1036200030a8900061024000e082480067f8800006
:103630007730900087389000e0b79f00f1b79f0087
:1036400002447800f70020000a0037001000200034
:10365000010020008089be0018c0b3006055b8008a
:103660000a02be00eab79f00fbb79f00084178003e
:10367000f7002000e30f56000d003a00b0ed800087
:10368000309090000008a30002003a000d04e00012
:10369000060032000204e0000400320010c0b30053
:1036a000804c78006055b80001003700804ceb007a
:1036b000bfe897000104e000100032000c00e000b9
:1036c0000e003a001904e00012003200e18f5300ae
:1036d00008003200f48f530006003200e28f5300de
:1036e00004003200e38f530002003200ef8f5300da
:1036f00008003a00804ceb0006003700ea0f560045
:1037000004003a002fe997000204e00001003a00ab
:10371000824c780020f1210011c0b30090cf10003e
:1037200009003a00e20f560007003a000638a300ed
:103730000300320010002000e0ed88000200370096
:1037400020002000e0ed88001904e000180032009d
:1037500087447800830078000a01be0007407800a3
:10376000462102000100000000447800e30f5600eb
:1037700002003200e10f560001003a0018c0b30009
:103780000e00e000040032006fb29700ffb2970015
:10379000041f450005974d008ff297000504e000d7
:1037a00003003a008c00780009407800810007008f
:1037b0000880fb004f0778004f06be004f05be0093
:1037c0004f04be00af00b100000006008001780089
:1037d000b0ed800030929000c09290000040eb006d
:1037e0008048780000497800e28f510018003200cc
:1037f00005003e000300e00009003200e18f5100a7
:103800002a003a000c003700e48f51001c003200ff
:1038100015003900e58f510024003a001e003700e2
:10382000700062002100320010c0b30080487800b0
:10383000004978001d003700040078000002b20043
:103840001a00320010c0b30080487800170037001b
:10385000040078000004b2001400320010c0b3006d
:103860008048780011003700040078000008b2009a
:103870000e00320010c0b300804878000b00370003
:10388000040078000010b2000800320010c0b3003d
:103890008048780005003700040078000020b2005e
:1038a0000200320010c0b3008048780010002000f1
:1038b000000006000200fa00889fbe008a9fbe003a
:1038c0008c1f7800000578000040eb00004d780068
:1038d000804578008004eb00680020001cc0b30025
:1038e0006b815700ec80570009007800b7ff070094
:1038f0004ff097000004e000010032001bc0b3004d
:103900005ff097000004e000010032000c4d7800e9
:103910008904e8000804e900f1ff3a000b80fb008d
:103920004f0678004f05be004f04be000080fa002d
:1039300000000600b1ed800031919000c19190002f
:10394000c618dd004a11de0002817000ca19de00cf
:10395000614361000004e00007003200b2ed800026
:1039600032909000c290900000a0a000309198008a
:10397000419198000d003700b3ed80003390900026
:10398000c39090000001780002a0a100610ab80075
:10399000c020dd00000020006112b80004007000ab
:1039a00085807000b0919800c19198000680fb005e
:1039b000000006000041780023012f00e28f500034
:1039c0001000320006003e00a3012f000100e000bd
:1039d0000c003200e18f500007003a000800370069
:1039e000a3022f00e38f50000600320023022f00b5
:1039f000e48f500003003200a3032f0001003700c2
:103a000023032f00e84f51001d00320007003e0045
:103a1000e24f510014003200e44f51001500320013
:103a2000e14f510025003a000d003700f44f5100de
:103a30000b00320003003e00f04f51001f003a001f
:103a40001200370000c4b300804f51001200320052
:103a500000c8b300804f510018003a001100370031
:103a60001380fb0011003700134090000080fb0022
:103a70000e003700334090000080fb000b00370041
:103a8000234090000080fb00080037004340900076
:103a90000080fb0005003700534090000080fb00d1
:103aa00002003700634090000080fb000000e0004f
:103ab00002003200f42002000100000000000600b5
:103ac000889fbe000204be000080fb0001002000b1
:103ad00061005000e0805800f30f5000e08f580064
:103ae00015003e0000600100160037001f0037007f
:103af00023003700270037002b0037000e00370067
:103b000038003700320037002c0037000a00370039
:103b100009003700080037000700370006003700ab
:103b2000350037000400370003003700020037007b
:103b300001003700080037000001eb008201780027
:103b400031003700b0ed8000e20e2000000141009e
:103b5000130020002c003700b0ed8000621420001c
:103b6000000141000320200027003700b0ed800055
:103b7000a20f200000014100230020002200370096
:103b8000b0ed8000621020000001410043002000e1
:103b90001d003700b0ed800022112000000141001f
:103ba0008300200018003700b0ed8000e2112000f3
:103bb000000141000301200013003700b0ed800038
:103bc000a212200000014100030220000e00370075
:103bd000b0ed8000e211200000014100030420004c
:103be00009003700b0ed8000e21120000001410023
:103bf0000308200004003700b0ed800062132000ad
:103c00000001410003102000b1ed800061b0900080
:103c100000807100e0b098000200e0000500320072
:103c20000889be00240198003501980046019800db
:103c3000570198004f04be00000006000003be00bc
:103c40000204e00008003200b2ed80001220910072
:103c5000a220910000007300818073001021990060
:103c6000212199000f003700b5ed80000081ea00a6
:103c70008181ea0015209100a520910002026000d8
:103c8000038060006101b800c010dd00000020006a
:103c90006121b800020070008380700090229900ba
:103ca000a122990000000600881f780000447800d7
:103cb000b0ed8000a00eb000820620008000eb0076
:103cc0000000020001000000b0ed80008880fb00d1
:103cd00051b098004f04780000000600b2ed80005b
:103ce0006000b8007009990001119900b2ed8000e0
:103cf0001011990021119900b2ed80003011990046
:103d000041119900b1ed800061b090000060a10008
:103d1000e0b0980000000600b0ed80008040eb00ad
:103d200060b090000000e0000100320011c0b3005c
:103d3000014078000004a2000080fb0000000600a3
:103d400040f880000048eb000000060040f88000ca
:103d50001080fb00610060000000060040f8800059
:103d60001080fb000000d100610060000000060030
:103d700011f12100804878000000060010f12100b8
:103d80001080fb00000006008000780010f1210088
:103d90001004e0000300320001007800ee00020091
:103da0000100000000000600b0ed8000b028910086
:103db000600020008821020001000000a1db21003a
:103dc000d1c890000041eb008180fb00810f5000c2
:103dd0000100310012c0b3000280fb0000000600a9
:103de0004005200006210200010000000080fb00c9
:103df000000006000004e000060032000001eb00b5
:103e00004105200002007800b820020001000000f7
:103e1000050037000001eb004105200010002000e4
:103e2000b8200200010000000000060080007800b9
:103e3000b0ed8000309090000038a3000600320002
:103e4000b0ed800010819100a08191008288be00b9
:103e500010c0b300030037008008eb00b1107800f9
:103e60000040eb000080fb0000000600c0ed800079
:103e70001000a000c0ed800010007800620060001b
:103e800003003a00b1ff07000004e000f9ff320030
:103e9000c0ed80001000d10061006000000006004d
:103ea000c0ed80001000a100000006000200fa0032
:103eb000881f7800004478000104e000020032000e
:103ec000ee210200010000000804e00003003200bf
:103ed0000000eb00e0bf9f0002003700f00f200061
:103ee000e0bf9f000041eb002100200064805700ec
:103ef0009e210200010000004f0478000080fa00bb
:103f0000000006000002780000f121001004e0002b
:103f10001c003a000d003700e0f021000248e800e4
:103f200010c0b300200037000204e000020032009d
:103f3000e0f021000048eb008040eb0000f12100a0
:103f4000014878000140780017003700f0f02100a8
:103f50001004e00003003a008001eb000340780009
:103f60001100370010c0b30001f121008048780033
:103f7000f0f021000048eb008001eb0003407800e6
:103f800009003700e0f021001041780051f880006e
:103f90000280fb004300dd00810140001300e000cf
:103fa000ddff3a00e0ff3700030a78000080fb00e5
:103fb00000000600f1f021008048780000f12100a7
:103fc0001080fb00000006000800fa00c0bf9f0040
:103fd000d1bf9f006480570002087800f3bf9f00a4
:103fe0000ffb9700bffb97002ffa97001ff9970070
:103ff00010407800fffa9700eff99700dff897007c
:10400000814f510006003e0009003a0084cf510064
:104010000300390006003a0085cf53000400390040
:10402000804f5300040031000004e0000200320021
:104030000040eb000100370010c0b3000080fb001f
:104040000080fa00000006000400fa0010828700d9
:1040500021828700e0bf9f00f1bf9f00b1ed80008b
:104060006fb997000130910091309100ffb997002e
:10407000d5ff07000080fb000080fa00000006006a
:1040800092ed800012007800b041780000097800bd
:10409000834878000000060090ed80001000780052
:1040a0000148780090ed80001008e800000006004c
:1040b00080407800b0ed8000f03990000041eb00c6
:1040c00000c2b30080cf50000e003e000900370050
:1040d00032f121008080fb0040f12100008040008f
:1040e00033597800800f5100fdff3a0012c0b30031
:1040f000040037000140e900e14f4000f4ff3a00be
:10410000faff37000280fb000000060080407800c4
:10411000b0ed8000f03990000041eb0000c2b30028
:1041200080cf50000e003e000900370032f1210020
:104130008080fb0040f1210000804000b2597800ef
:10414000800f5100fdff3a0012c0b3000400370099
:104150000140e900e14f4000f4ff3a00faff370068
:104160000280fb00000006000000eb0000000600db
:104170000800fa00c0bf9f00d1bf9f00e2bf9f00b0
:10418000688157002100200010002000a3ed80006e
:10419000030001006ff897000080fb000080fa0028
:1041a000000006000800fa00c0bf9f00d1bf9f00ba
:1041b000f2bf9f00688157001100200001007800c5
:1041c000a3ed8000030001000080fa00000006005b
:1041d0000001eb008200780010002000a3ed8000b9
:1041e00003000100000006000200fa00f0bf9f007b
:1041f0000f81e9003100200010002000a3ed8000b5
:10420000030001000080fa00000006000800fa0028
:10421000d0bf9f006881570091002000100020004f
:10422000a3ed8000030001006ff897000080fb0001
:104230000080fa00000006000400fa00e0bf9f00c2
:10424000648157004100200010002000a3ed800091
:10425000030001006ff897000080fb000080fa0067
:10426000000006000800fa00c0bf9f00d1bf9f00f9
:10427000688157005100200010002000a3ed80004d
:10428000030001000080fa00000006000e00fa00a2
:10429000a0f79f00a2bf9f00b3bf9f00c4bf9f00b5
:1042a000d5bf9f00e1bf9f006e81570061002000d5
:1042b00010002000a3ed8000030001006ff89700bc
:1042c0000080fb000080fa00000006001200fa00e7
:1042d000e4bf9f00f5bf9f00e0ef9f0082bf9f00fb
:1042e00093bf9f0064805700c0bf9f00728157003a
:1042f0007100200010002000a3ed800003000100e9
:104300002ff897000080fb000080fa0000000600f4
:104310000600fa00e0bf9f00f1bf9f0066815700d2
:104320008100200010002000a3ed800003000100a8
:104330005fb897000080fa00000006000600fa004f
:10434000d0bf9f00e1bf9f00e2ff9f006681570042
:10435000a100200010002000a3ed80000300010058
:104360000080fa00000006000600fa00d0bf9f009f
:10437000e1bf9f0066815700b100200010002000bf
:10438000a3ed8000030001000080fa000000060099
:104390000200fa00e0ff9f000f81e900c100200049
:1043a00010002000a3ed8000030001000080fa004f
:1043b000000006000200fa000f81e900d100200091
:1043c00010002000a3ed800003000100eff897002b
:1043d0000180fb000080fa00000006000001eb00f5
:1043e000e100200010002000a3ed80000300010088
:1043f000000006000200fa000f81e900f100200031
:1044000010002000a3ed800003000100eff89700ea
:104410000180fb000080fa00000006000600fa00a0
:10442000e0bf9f00f1bf9f0066815700010120009f
:1044300010002000a3ed800003000100aff89700fa
:104440000180fb000080fa00000006000200fa0074
:10445000f0ff9f000f81e9003101200010002000d3
:10446000a3ed800003000100eff897000180fb003e
:104470000080fa00000006000600fa00e0ff9f003e
:10448000e1bf9f006681570011012000100020004d
:10449000a3ed8000030001000080fa000000060088
:1044a0000001eb002101200010002000a3ed80009e
:1044b0000300010000000600dc42a8000000060026
:1044c000dc42a90000000600dc82a8000000060013
:1044d000dc82a90000000600841f7800e422a80006
:1044e000dc42a8000600090000000000dc82a900f0
:1044f0000200af00dc82a8000b00090000000000f1
:10450000dc42a9000200090000000000dc82a900d2
:104510001000090000000000dc42a80006000900ad
:1045200000000000dc82a9000220af00dc82a800ad
:104530000b00090000000000dc42a9000200090095
:1045400000000000dc82a90010000900000000004b
:10455000dc42a8000600090000000000dc82a9007f
:104560000240af00dc82a8000b0009000000000040
:10457000dc42a9000200090000000000dc82a90062
:104580001000090000000000dc42a800060009003d
:1045900000000000dc82a9000260af00dc82a800fd
:1045a0000b00090000000000dc42a9000200090025
:1045b00000000000dc82a9001000090000000000db
:1045c000dc42a8000600090000000000dc82a9000f
:1045d0000280af00dc82a8000b0009000000000090
:1045e000dc42a9000200090000000000dc82a900f2
:1045f0001000090000000000dc42a80006000900cd
:1046000000000000dc82a90002a0af00dc82a8004c
:104610000b00090000000000dc42a90002000900b4
:1046200000000000dc82a90010000900000000006a
:1046300020000900000000000820ef00dc82a90033
:10464000dc42a8001600090000000000dc42a900be
:104650001000090000000000dc42a800e422a900cc
:1046600001000900000000000800a900da62af00a4
:104670000800a8000200090000000000dc42a900b8
:104680001000090000000000dc42a8000100090041
:10469000000000000800a900da62af000800a800ce
:1046a0000200090000000000dc42a900100009001f
:1046b00000000000dc42a80001000900000000002a
:1046c0000820a900da62af000820a8000200090053
:1046d00000000000dc42a9001000090000000000fa
:1046e000dc42a80001000900000000000840a90009
:1046f000da62af000840a8000200090000000000d4
:10470000dc42a9001000090000000000dc42a80003
:1047100001000900000000000860a900da62af0093
:104720000860a8000200090000000000dc42a900a7
:104730001000090000000000dc42a8000100090090
:10474000000000000880a900da62af000880a8001d
:104750000200090000000000dc42a900100009006e
:1047600000000000dc42a800010009000000000079
:1047700008a0a900da62af0008a0a80002000900a2
:1047800000000000dc42a900100009000000000049
:10479000dc42a800010009000000000008c0a900d8
:1047a000da62af0008c0a8000200090000000000a3
:1047b000dc42a9001000090000000000dc42a80053
:1047c000010009000000000008e0a900da62af0063
:1047d00008e0a8000200090000000000dc42a90077
:1047e0001000090000000000dc42a80001000900e0
:1047f000000000000900a900da62af000900a8006b
:104800000200090000000000dc42a90010000900bd
:1048100000000000dc42a8000100090000000000c8
:104820000920a900da62af000920a80002000900ef
:1048300000000000dc42a900100009000000000098
:10484000dc42a80001000900000000000940a900a6
:10485000da62af000940a800020009000000000071
:10486000dc42a9001000090000000000dc42a800a2
:1048700001000900000000000960a900da62af0031
:104880000960a8000200090000000000dc42a90045
:104890001000090000000000dc42a800010009002f
:1048a000000000000980a900da62af000980a800ba
:1048b0000200090000000000dc42a900100009000d
:1048c00000000000dc42a800010009000000000018
:1048d00009a0a900da62af0009a0a800020009003f
:1048e00000000000dc42a9001000090000000000e8
:1048f000dc42a8001600090000000000dc42a9000c
:104900001000090000000000e422a800040878005c
:104910004f02780000000600849fbe00e0f9880086
:104920003c1fe200020032009c2402000100000053
:104930004f02be0000000600e4f32100310a7800b7
:1049400044f32100310a7800361fa9003effaf0072
:10495000030037003edfaf00010037001c023700c4
:10496000e422a800dc42a8000600090000000000c4
:10497000dc82a9003e1faf00dc82a8000b0009000a
:1049800000000000dc42a900020009000000000055
:10499000dc82a9001000090000000000dc42a80031
:1049a0000600090000000000dc82a9003e3faf00c5
:1049b000dc82a8000b00090000000000dc42a90016
:1049c0000200090000000000dc82a90010000900bc
:1049d00000000000dc42a800060009000000000002
:1049e000dc82a9003e5faf00dc82a8000b0009005a
:1049f00000000000dc42a9000200090000000000e5
:104a0000dc82a9001000090000000000dc42a800c0
:104a10000600090000000000dc82a9003e7faf0014
:104a2000dc82a8000b00090000000000dc42a900a5
:104a30000200090000000000dc82a900100009004b
:104a400000000000dc42a800060009000000000091
:104a5000dc82a9003e9faf00dc82a8000b000900a9
:104a600000000000dc42a900020009000000000074
:104a7000dc82a9001000090000000000dc42a80050
:104a80000600090000000000dc82a9003ebfaf0064
:104a9000dc82a8000b00090000000000dc42a90035
:104aa0000200090000000000dc82a90010000900db
:104ab0000000000020000900000000003effae00e2
:104ac000d50037003edfae0001003700c2013700dd
:104ad000dc82a900dc42a8001600090000000000ea
:104ae000dc42a9001000090000000000dc42a80020
:104af0000600090000000000dc82a900341faf009e
:104b0000dc82a8000b00090000000000dc42a900c4
:104b10000200090000000000dc82a900100009006a
:104b200000000000dc42a8000600090000000000b0
:104b3000dc82a900343faf00dc82a8000b00090032
:104b400000000000dc42a900020009000000000093
:104b5000dc82a9001000090000000000dc42a8006f
:104b60000600090000000000dc82a900345faf00ed
:104b7000dc82a8000b00090000000000dc42a90054
:104b80000200090000000000dc82a90010000900fa
:104b900000000000dc42a800060009000000000040
:104ba000dc82a900347faf00dc82a8000b00090082
:104bb00000000000dc42a900020009000000000023
:104bc000dc82a9001000090000000000dc42a800ff
:104bd0000600090000000000dc82a900349faf003d
:104be000dc82a8000b00090000000000dc42a900e4
:104bf0000200090000000000dc82a900100009008a
:104c000000000000dc42a8000600090000000000cf
:104c1000dc82a90034bfaf00dc82a8000b000900d1
:104c200000000000dc42a9000200090000000000b2
:104c3000dc82a9001000090000000000dc42a8008e
:104c40000600090000000000dc82a90034dfaf008c
:104c5000dc82a8000b00090000000000dc42a90073
:104c60000200090000000000dc82a9001000090019
:104c700000000000dc42a80006000900000000005f
:104c8000dc82a90034ffaf00dc82a8000b00090021
:104c900000000000dc42a900020009000000000042
:104ca000dc82a9001000090000000000dc42a8001e
:104cb0000600090000000000dc82a900351faf00db
:104cc000dc82a8000b00090000000000dc42a90003
:104cd0000200090000000000dc82a90010000900a9
:104ce00000000000dc42a8000600090000000000ef
:104cf000dc82a900353faf00dc82a8000b00090070
:104d000000000000dc42a9000200090000000000d1
:104d1000dc82a9001000090000000000dc42a800ad
:104d20000600090000000000dc82a900355faf002a
:104d3000dc82a8000b00090000000000dc42a90092
:104d40000200090000000000dc82a9001000090038
:104d500000000000dc42a80006000900000000007e
:104d6000dc82a900357faf00dc82a8000b000900bf
:104d700000000000dc42a900020009000000000061
:104d8000dc82a9001000090000000000dc42a8003d
:104d90000600090000000000dc82a900359faf007a
:104da000dc82a8000b00090000000000dc42a90022
:104db0000200090000000000dc82a90010000900c8
:104dc00000000000dc42a80006000900000000000e
:104dd000dc82a90035bfaf00dc82a8000b0009000f
:104de00000000000dc42a9000200090000000000f1
:104df000dc82a9001000090000000000dc42a800cd
:104e00001600090000000000dc42a90010000900a3
:104e100000000000f0003700dc82a900dc42a8009e
:104e20001600090000000000dc42a9001000090083
:104e300000000000dc42a80006000900000000009d
:104e4000dc82a900341faf00dc82a8000b0009003f
:104e500000000000dc42a900020009000000000080
:104e6000dc82a9001000090000000000dc42a8005c
:104e70000600090000000000dc82a900343faf00fa
:104e8000dc82a8000b00090000000000dc42a90041
:104e90000200090000000000dc82a90010000900e7
:104ea00000000000dc42a80006000900000000002d
:104eb000dc82a900345faf00dc82a8000b0009008f
:104ec00000000000dc42a900020009000000000010
:104ed000dc82a9001000090000000000dc42a800ec
:104ee0000600090000000000dc82a900347faf004a
:104ef000dc82a8000b00090000000000dc42a900d1
:104f00000200090000000000dc82a9001000090076
:104f100000000000dc42a8000600090000000000bc
:104f2000dc82a900349faf00dc82a8000b000900de
:104f300000000000dc42a90002000900000000009f
:104f4000dc82a9001000090000000000dc42a8007b
:104f50000600090000000000dc82a90034bfaf0099
:104f6000dc82a8000b00090000000000dc42a90060
:104f70000200090000000000dc82a9001000090006
:104f800000000000dc42a80006000900000000004c
:104f9000dc82a90034dfaf00dc82a8000b0009002e
:104fa00000000000dc42a90002000900000000002f
:104fb000dc82a9001000090000000000dc42a8000b
:104fc0000600090000000000dc82a90034ffaf00e9
:104fd000dc82a8000b00090000000000dc42a900f0
:104fe0000200090000000000dc82a9001000090096
:104ff00000000000dc42a8000600090000000000dc
:10500000dc82a900351faf00dc82a8000b0009007c
:1050100000000000dc42a9000200090000000000be
:10502000dc82a9001000090000000000dc42a8009a
:105030000600090000000000dc82a900353faf0037
:10504000dc82a8000b00090000000000dc42a9007f
:105050000200090000000000dc82a9001000090025
:1050600000000000dc42a80006000900000000006b
:10507000dc82a900355faf00dc82a8000b000900cc
:1050800000000000dc42a90002000900000000004e
:10509000dc82a9001000090000000000dc42a8002a
:1050a0000600090000000000dc82a900357faf0087
:1050b000dc82a8000b00090000000000dc42a9000f
:1050c0000200090000000000dc82a90010000900b5
:1050d00000000000dc42a8000600090000000000fb
:1050e000dc82a900359faf00dc82a8000b0009001c
:1050f00000000000dc42a9000200090000000000de
:10510000dc82a9001000090000000000dc42a800b9
:105110000600090000000000dc82a90035bfaf00d6
:10512000dc82a8000b00090000000000dc42a9009e
:105130000200090000000000dc82a9001000090044
:1051400000000000dc42a80006000900000000008a
:10515000dc82a90035dfaf00dc82a8000b0009006b
:1051600000000000dc42a90002000900000000006d
:10517000dc82a9001000090000000000dc42a80049
:105180000600090000000000dc82a90035ffaf0026
:10519000dc82a8000b00090000000000dc42a9002e
:1051a0000200090000000000dc82a90010000900d4
:1051b00000000000dc42a80016000900000000000a
:1051c000dc42a900100009000000000002003700c6
:1051d0000500090000000000dc82a9002000090091
:1051e000000000003c3fed00d3fd3a000000060047
:1051f000849fbe00a4f32100010a7800c0f9880052
:10520000e422a800361fa9003a1fe2000100320084
:10521000361fa800363fa80004c0af00363fa900e3
:10522000dc42a8000600090000000000dc82a900a2
:105230000400af00dc82a8000b00090000000000a1
:10524000dc42a9000200090000000000dc82a90085
:105250001000090000000000dc42a8000600090060
:1052600000000000dc82a9000420af00dc82a8005e
:105270000b00090000000000dc42a9000200090048
:1052800000000000dc82a9001000090000000000fe
:10529000dc42a8000600090000000000dc82a90032
:1052a0000440af00dc82a8000b00090000000000f1
:1052b000dc42a9000200090000000000dc82a90015
:1052c0001000090000000000dc42a80006000900f0
:1052d00000000000dc82a9000460af00dc82a800ae
:1052e0000b00090000000000dc42a90002000900d8
:1052f00000000000dc82a90010000900000000008e
:10530000dc42a8000600090000000000dc82a900c1
:105310000480af00dc82a8000b0009000000000040
:10532000dc42a9000200090000000000dc82a900a4
:105330001000090000000000dc42a800060009007f
:1053400000000000dc82a90004a0af00dc82a800fd
:105350000b00090000000000dc42a9000200090067
:1053600000000000dc82a90010000900000000001d
:105370002000090000000000dc82a900dc42a80037
:105380001600090000000000dc42a900100009001e
:10539000000000000820ef00dc42a800e422a90081
:1053a00001000900000000000800a900da62af0057
:1053b0000800a8000200090000000000dc42a9006b
:1053c0001000090000000000dc42a80001000900f4
:1053d000000000000820a900da62af000820a80041
:1053e0000200090000000000dc42a90010000900d2
:1053f00000000000dc42a8000100090000000000dd
:105400000840a900da62af000840a80002000900c5
:1054100000000000dc42a9001000090000000000ac
:10542000dc42a80001000900000000000860a9009b
:10543000da62af000860a800020009000000000066
:10544000dc42a9001000090000000000dc42a800b6
:1054500001000900000000000880a900da62af0026
:105460000880a8000200090000000000dc42a9003a
:105470001000090000000000dc42a8000100090043
:105480000000000008a0a900da62af0008a0a80090
:105490000200090000000000dc42a9001000090021
:1054a00000000000dc42a80001000900000000002c
:1054b00008c0a900da62af0008c0a8000200090015
:1054c00000000000dc42a9001000090000000000fc
:1054d000dc42a800010009000000000008e0a9006b
:1054e000da62af0008e0a800020009000000000036
:1054f000dc42a9001000090000000000dc42a80006
:1055000001000900000000000900a900da62af00f4
:105510000900a8000200090000000000dc42a90008
:105520001000090000000000dc42a8000100090092
:10553000000000000920a900da62af000920a800dd
:105540000200090000000000dc42a9001000090070
:1055500000000000dc42a80001000900000000007b
:105560000940a900da62af000940a8000200090062
:1055700000000000dc42a90010000900000000004b
:10558000dc42a80001000900000000000960a90039
:10559000da62af000960a800020009000000000004
:1055a000dc42a9001000090000000000dc42a80055
:1055b00001000900000000000980a900da62af00c4
:1055c0000980a8000200090000000000dc42a900d8
:1055d0001000090000000000dc42a80001000900e2
:1055e0000000000009a0a900da62af0009a0a8002d
:1055f0000200090000000000dc42a90010000900c0
:1056000000000000dc42a8001600090000000000b5
:10561000dc42a9001000090000000000e422a800fc
:105620002000090000000000361faf001a003700fc
:105630004280bf00000eb20042bfb700000c200045
:105640004220b70008c0bf00829fbe0092ed8000dc
:105650009201780080597800030978004f01be005c
:10566000363fae000700370009c0bf00829fbe0072
:1056700092ed80009201780080597800030978004b
:105680004f01be00f0f12f004220b600429fbf0044
:105690004220b70009003700d5f98000363fae0040
:1056a0000400370009c0bf00841a7800d5f98800cb
:1056b00002003700845a7800d5f98800dc42a8003f
:1056c000dc82a9000b00090000000000dc42a900f8
:1056d0000200090000000000dc82a900dc42a800f2
:1056e000dc82a8000b00090000000000dc42a900d9
:1056f0000200090000000000dc82a900dc42a800d2
:10570000dc82a8000b00090000000000dc42a900b8
:105710000200090000000000dc82a900dc42a800b1
:10572000dc82a9000b00090000000000dc42a90097
:105730000200090000000000dc82a900dc42a80091
:10574000dc82a9000b00090000000000dc42a90077
:105750000200090000000000dc82a900dc42a80071
:10576000dc82a9000b00090000000000dc42a90057
:105770000200090000000000dc82a90020000900ee
:105780000000000020002000383fb500010032007a
:0c579000a0fe37004f02be000000060023
:020000040000fa
:020000040005f5
:0c3fe0005aa500001402000001020000bd
:020000040000fa
:020000040001f9
:10e02000490000001c1d00001e1f000020210000f0
:10e030000000000022230000242500002627000005
:10e0400000000000282900002a2b00002c2d0000d1
:10e050000000000010110000121300001415000051
:10e060000000000016170000181900001a1b00001d
:10e0700000000000000000000000000000000000a0
:0ce0800000000000000000000000000094
:020000040000fa
:020000040002f8
:10579c004ff4210080ff230000018800000000006e
:1057ac00050007000c000700b420020001000000f7
:1057bc000040da000000fe004440a900c0062000b2
:1057cc000000e0000300320010002000a00188005f
:1057dc004440a80000000600e0c422001100200094
:1057ec001600370062004000e080480091018800fc
:1057fc009001ba0062004000e080480091018800ee
:10580c009002ba0062004000e08048000002eb0009
:10581c006028e10005003a008301e900070033002d
:10582c00038009000059eb00040037006128e100f7
:10583c00010032000082eb00050007009101880096
:10584c001001ba000200e000e6ff3a00000005007b
:10585c00910188008002780062004000e0804800de
:10586c003559ba008301e900080032002559ba0005
:10587c008301e900050032000400e000f4ff32006f
:10588c0015d9ba008301e900f1ff3a0000000600c7
:020000040000fa
:020000040002f8
:10589c00001a0000b003000000000000b01d000062
:1058ac008401000000000000341f00001000000004
:0858bc000000000000000000e4
:00000001FF
