:020000040000fa
:020000040001f9
:10e000005aa50000080100001314000001000000e0
:10e01000000100001000000000000000000a0000e5
:020000040000fa
:020000040001f9
:10f00000a22f010000300100ac2f01001e320100d0
:10f01000c63201003a320100543201007c32010054
:10f0200092320100ac320100dc3201009833010061
:10f03000be330100e4330100fc330100143401004d
:10f040006a3d010002330100183301003033010032
:10f05000823301002c3401004c340100643401007f
:10f060007a34010076330100463301005233010047
:08f070005e3301006a33010068
:020000040000fa
:020000040002f8
:100000008001780002003700815978000201e90080
:100010000200e000fcff3a000000060002000700ba
:100020000400be00000006006022b80006022000a6
:100030000000d0008180d2000482d2008582d200ec
:100040000000a0000202520083825a000300310027
:100050000202420083824a000000a1000603e90078
:10006000f3ff3a00000006000000fe00841f780045
:10007000e422a80002a0ae00dc42a800dc82a900b5
:100080000200af00dc82a8000500090000000000ab
:10009000dc42a9000500090000000000dc82a90084
:1000a0000500090000000000dc42a800dc82a90075
:1000b0000220af00dc82a80005000900000000005b
:1000c000dc42a9000500090000000000dc82a90054
:1000d0000500090000000000dc42a800dc82a90045
:1000e0000240af00dc82a80005000900000000000b
:1000f000dc42a9000500090000000000dc82a90024
:100100000500090000000000dc42a800dc82a90014
:100110000260af00dc82a8000500090000000000ba
:10012000dc42a9000500090000000000dc82a900f3
:100130000500090000000000dc42a800dc82a900e4
:100140000280af00dc82a80005000900000000006a
:10015000dc42a9000500090000000000dc82a900c3
:100160000500090000000000dc42a800dc82a900b4
:1001700002a0af00dc82a80005000900000000001a
:10018000dc42a9000500090000000000e422a900eb
:1001900050000900000000000820ef00dc42a80029
:1001a0000500090000000000dc82a900050009002c
:1001b00000000000dc42a90005000900000000006a
:1001c000dc82a9000500090000000000dc42a80054
:1001d00008000900000000000800a900da62af0072
:1001e0000800a800dc42a90005000900000000008a
:1001f0000400090000000000dc42a800080009001b
:10020000000000000820a900da62af000820a80062
:10021000dc42a900050009000000000004000900fc
:1002200000000000dc42a8000800090000000000f7
:100230000840a900da62af000840a800dc42a9002b
:100240000500090000000000040009000000000093
:10025000dc42a80008000900000000000860a900b6
:10026000da62af000860a800dc42a90005000900be
:10027000000000000400090000000000dc42a800ab
:1002800008000900000000000880a900da62af0041
:100290000880a800dc42a900050009000000000059
:1002a0000400090000000000dc42a800080009006a
:1002b0000000000008a0a900da62af0008a0a800b2
:1002c000dc42a9000500090000000000040009004c
:1002d00000000000dc42a800080009000000000047
:1002e00008c0a900da62af0008c0a800dc42a9007b
:1002f00005000900000000000400090000000000e3
:10030000dc42a800080009000000000008e0a90085
:10031000da62af0008e0a800dc42a900050009008d
:10032000000000000400090000000000dc42a800fa
:1003300008000900000000000900a900da62af000f
:100340000900a800dc42a900050009000000000027
:100350000400090000000000dc42a80008000900b9
:10036000000000000920a900da62af000920a800ff
:10037000dc42a9000500090000000000040009009b
:1003800000000000dc42a800080009000000000096
:100390000940a900da62af000940a800dc42a900c8
:1003a0000500090000000000040009000000000032
:1003b000dc42a80008000900000000000960a90054
:1003c000da62af000960a800dc42a900050009005c
:1003d000000000000400090000000000dc42a8004a
:1003e00008000900000000000980a900da62af00df
:1003f0000980a800dc42a9000500090000000000f7
:100400000400090000000000dc42a8000800090008
:100410000000000009a0a900da62af0009a0a8004e
:10042000dc42a900050009000000000004000900ea
:1004300000000000dc42a8000500090000000000e8
:10044000dc42a9000500090000000000e422a80029
:10045000040878004f02780000000600849fbe0068
:10046000c0fa8800581fe200020032003e0202007b
:10047000010000004f02be0000000600a4f52100ac
:10048000310a780004f52100310a7800521fa900d2
:100490005affaf00030037005adfaf0001003700fa
:1004a000ea013700e422a800dc42a800dc82a900af
:1004b0005a1faf00dc82a800050009000000000000
:1004c000dc42a9000500090000000000dc82a90050
:1004d0000500090000000000dc42a800dc82a90041
:1004e0005a3faf00dc82a8000500090000000000b0
:1004f000dc42a9000500090000000000dc82a90020
:100500000500090000000000dc42a800dc82a90010
:100510005a5faf00dc82a80005000900000000005f
:10052000dc42a9000500090000000000dc82a900ef
:100530000500090000000000dc42a800dc82a900e0
:100540005a7faf00dc82a80005000900000000000f
:10055000dc42a9000500090000000000dc82a900bf
:100560000500090000000000dc42a800dc82a900b0
:100570005a9faf00dc82a8000500090000000000bf
:10058000dc42a9000500090000000000dc82a9008f
:100590000500090000000000dc42a800dc82a90080
:1005a0005abfaf00dc82a80005000900000000006f
:1005b000dc42a9000500090000000000dc82a9005f
:1005c00005000900000000005000090000000000c4
:1005d0005affae00c40037005adfae0001003700fa
:1005e0009c013700dc42a800050009000000000063
:1005f000dc82a9000500090000000000dc42a9001f
:100600000500090000000000dc82a90005000900c7
:1006100000000000dc42a800dc82a900501faf00ef
:10062000dc82a8000500090000000000dc42a900ef
:100630000500090000000000dc82a9000500090097
:1006400000000000dc42a800dc82a900503faf009f
:10065000dc82a8000500090000000000dc42a900bf
:100660000500090000000000dc82a9000500090067
:1006700000000000dc42a800dc82a900505faf004f
:10068000dc82a8000500090000000000dc42a9008f
:100690000500090000000000dc82a9000500090037
:1006a00000000000dc42a800dc82a900507faf00ff
:1006b000dc82a8000500090000000000dc42a9005f
:1006c0000500090000000000dc82a9000500090007
:1006d00000000000dc42a800dc82a900509faf00af
:1006e000dc82a8000500090000000000dc42a9002f
:1006f0000500090000000000dc82a90005000900d7
:1007000000000000dc42a800dc82a90050bfaf005e
:10071000dc82a8000500090000000000dc42a900fe
:100720000500090000000000dc82a90005000900a6
:1007300000000000dc42a800dc82a90050dfaf000e
:10074000dc82a8000500090000000000dc42a900ce
:100750000500090000000000dc82a9000500090076
:1007600000000000dc42a800dc82a90050ffaf00be
:10077000dc82a8000500090000000000dc42a9009e
:100780000500090000000000dc82a9000500090046
:1007900000000000dc42a800dc82a900511faf006d
:1007a000dc82a8000500090000000000dc42a9006e
:1007b0000500090000000000dc82a9000500090016
:1007c00000000000dc42a800dc82a900513faf001d
:1007d000dc82a8000500090000000000dc42a9003e
:1007e0000500090000000000dc82a90005000900e6
:1007f00000000000dc42a800dc82a900515faf00cd
:10080000dc82a8000500090000000000dc42a9000d
:100810000500090000000000dc82a90005000900b5
:1008200000000000dc42a800dc82a900517faf007c
:10083000dc82a8000500090000000000dc42a900dd
:100840000500090000000000dc82a9000500090085
:1008500000000000dc42a800dc82a900519faf002c
:10086000dc82a8000500090000000000dc42a900ad
:100870000500090000000000dc82a9000500090055
:1008800000000000dc42a800dc82a90051bfaf00dc
:10089000dc82a8000500090000000000dc42a9007d
:1008a0000500090000000000dc82a9000500090025
:1008b00000000000dc42a800050009000000000064
:1008c000dc82a9000500090000000000dc42a9004c
:1008d0000500090000000000dc82a90005000900f5
:1008e00000000000db003700dc42a8000500090022
:1008f00000000000dc82a9000500090000000000e3
:10090000dc42a9000500090000000000dc82a9000b
:100910000500090000000000dc42a800dc82a900fc
:10092000501faf00dc82a800050009000000000095
:10093000dc42a9000500090000000000dc82a900db
:100940000500090000000000dc42a800dc82a900cc
:10095000503faf00dc82a800050009000000000045
:10096000dc42a9000500090000000000dc82a900ab
:100970000500090000000000dc42a800dc82a9009c
:10098000505faf00dc82a8000500090000000000f5
:10099000dc42a9000500090000000000dc82a9007b
:1009a0000500090000000000dc42a800dc82a9006c
:1009b000507faf00dc82a8000500090000000000a5
:1009c000dc42a9000500090000000000dc82a9004b
:1009d0000500090000000000dc42a800dc82a9003c
:1009e000509faf00dc82a800050009000000000055
:1009f000dc42a9000500090000000000dc82a9001b
:100a00000500090000000000dc42a800dc82a9000b
:100a100050bfaf00dc82a800050009000000000004
:100a2000dc42a9000500090000000000dc82a900ea
:100a30000500090000000000dc42a800dc82a900db
:100a400050dfaf00dc82a8000500090000000000b4
:100a5000dc42a9000500090000000000dc82a900ba
:100a60000500090000000000dc42a800dc82a900ab
:100a700050ffaf00dc82a800050009000000000064
:100a8000dc42a9000500090000000000dc82a9008a
:100a90000500090000000000dc42a800dc82a9007b
:100aa000511faf00dc82a800050009000000000013
:100ab000dc42a9000500090000000000dc82a9005a
:100ac0000500090000000000dc42a800dc82a9004b
:100ad000513faf00dc82a8000500090000000000c3
:100ae000dc42a9000500090000000000dc82a9002a
:100af0000500090000000000dc42a800dc82a9001b
:100b0000515faf00dc82a800050009000000000072
:100b1000dc42a9000500090000000000dc82a900f9
:100b20000500090000000000dc42a800dc82a900ea
:100b3000517faf00dc82a800050009000000000022
:100b4000dc42a9000500090000000000dc82a900c9
:100b50000500090000000000dc42a800dc82a900ba
:100b6000519faf00dc82a8000500090000000000d2
:100b7000dc42a9000500090000000000dc82a90099
:100b80000500090000000000dc42a800dc82a9008a
:100b900051bfaf00dc82a800050009000000000082
:100ba000dc42a9000500090000000000dc82a90069
:100bb0000500090000000000dc42a800dc82a9005a
:100bc00051dfaf00dc82a800050009000000000032
:100bd000dc42a9000500090000000000dc82a90039
:100be0000500090000000000dc42a800dc82a9002a
:100bf00051ffaf00dc82a8000500090000000000e2
:100c0000dc42a9000500090000000000dc82a90008
:100c10000500090000000000dc42a80005000900f2
:100c200000000000dc82a9000500090000000000af
:100c3000dc42a9000500090000000000dc82a900d8
:100c40000500090000000000020037000429090027
:100c500000000000dc82a900500009000000000034
:100c6000583fed0005fe3a0000000600849fbe00dc
:100c700064f52100010a7800a0fa8800e422a800a7
:100c8000521fa900561fe20001003200521fa800a7
:100c9000523fa80004c0af00523fa900dc42a800a8
:100ca000dc82a9000400af00dc82a8000500090076
:100cb00000000000dc42a90005000900000000005f
:100cc000dc82a9000500090000000000dc42a80049
:100cd000dc82a9000420af00dc82a8000500090026
:100ce00000000000dc42a90005000900000000002f
:100cf000dc82a9000500090000000000dc42a80019
:100d0000dc82a9000440af00dc82a80005000900d5
:100d100000000000dc42a9000500090000000000fe
:100d2000dc82a9000500090000000000dc42a800e8
:100d3000dc82a9000460af00dc82a8000500090085
:100d400000000000dc42a9000500090000000000ce
:100d5000dc82a9000500090000000000dc42a800b8
:100d6000dc82a9000480af00dc82a8000500090035
:100d700000000000dc42a90005000900000000009e
:100d8000dc82a9000500090000000000dc42a80088
:100d9000dc82a90002a0af00dc82a80005000900e7
:100da00000000000dc42a90005000900000000006e
:100db000e422a9005000090000000000dc42a80065
:100dc0000500090000000000dc82a9000500090000
:100dd00000000000dc42a90005000900000000003e
:100de000dc82a90005000900000000000820ef00d7
:100df000dc42a80008000900000000000800a9006b
:100e0000da62af000800a800dc42a9000500090072
:100e1000000000000400090000000000dc42a800ff
:100e200008000900000000000820a900da62af00f5
:100e30000820a800dc42a90005000900000000000d
:100e40000400090000000000dc42a80008000900be
:100e5000000000000840a900da62af000840a800c6
:100e6000dc42a900050009000000000004000900a0
:100e700000000000dc42a80008000900000000009b
:100e80000860a900da62af000860a800dc42a9008f
:100e90000500090000000000040009000000000037
:100ea000dc42a80008000900000000000880a9003a
:100eb000da62af000880a800dc42a9000500090042
:100ec000000000000400090000000000dc42a8004f
:100ed000080009000000000008a0a900da62af00c5
:100ee00008a0a800dc42a9000500090000000000dd
:100ef0000400090000000000dc42a800080009000e
:100f00000000000008c0a900da62af0008c0a80015
:100f1000dc42a900050009000000000004000900ef
:100f200000000000dc42a8000800090000000000ea
:100f300008e0a900da62af0008e0a800dc42a900de
:100f40000500090000000000040009000000000086
:100f5000dc42a80008000900000000000900a90008
:100f6000da62af000900a800dc42a9000500090010
:100f7000000000000400090000000000dc42a8009e
:100f800008000900000000000920a900da62af0093
:100f90000920a800dc42a9000500090000000000ab
:100fa0000400090000000000dc42a800080009005d
:100fb000000000000940a900da62af000940a80063
:100fc000dc42a9000500090000000000040009003f
:100fd00000000000dc42a80008000900000000003a
:100fe0000960a900da62af000960a800dc42a9002c
:100ff00005000900000000000400090000000000d6
:10100000dc42a80008000900000000000980a900d7
:10101000da62af000980a800dc42a90005000900df
:10102000000000000400090000000000dc42a800ed
:10103000080009000000000009a0a900da62af0062
:1010400009a0a800dc42a90005000900000000007a
:101050000400090000000000dc42a80005000900af
:1010600000000000dc42a9000500090000000000ab
:10107000e422a8005000090000000000521faf0049
:101080001a0037004280bf00000eb2005ebfb700fa
:10109000000c20004220b70008c0bf00829fbe00a5
:1010a00082ed800092017800805978000309780071
:1010b0004f01be00523fae000700370009c0bf001d
:1010c000829fbe0082ed80009201780080597800f6
:1010d000030978004f01be00f0f12f004220b60056
:1010e0005e9fbf004220b70009003700b5fa8000bc
:1010f000523fae000400370009c0bf00841a7800d8
:10110000b5fa880002003700845a7800b5fa8800e2
:10111000dc42a800dc82a9000500090000000000f4
:10112000dc42a9000500090000000000dc82a900e3
:101130000500090000000000dc42a800dc82a800d5
:101140000500090000000000dc42a90005000900bc
:1011500000000000dc82a90005000900000000007a
:10116000dc42a800dc82a8000500090000000000a5
:10117000dc42a9000500090000000000dc82a90093
:101180000500090000000000dc42a800dc82a90084
:101190000500090000000000dc42a900050009006c
:1011a00000000000dc82a90005000900000000002a
:1011b000dc42a800dc82a900050009000000000054
:1011c000dc42a9000500090000000000dc82a90043
:1011d0000500090000000000dc42a800dc82a90034
:1011e0000500090000000000dc42a900050009001c
:1011f00000000000dc82a9000500090000000000da
:10120000500009000000000020002000543fb500fd
:10121000010032009efe37004f02be0000000600b3
:10122000dc42a8000f0009000000000000000600da
:10123000dc42a900050009000000000000000600d3
:10124000dc82a80000000600dc82a9000000060085
:10125000a1ed800080db210020c890000080fb0011
:10126000d0289900f0f38000e10f500002003a000e
:10127000c025020001000000100020000000060050
:101280000a00fa00889fbe008a1f780000057800d7
:10129000810478000043eb008242780068825700a6
:1012a000f08157006c815700863502000100000074
:1012b000004478000004e000430032000ff897007b
:1012c0000004e0004000320010c0b300c402070078
:1012d000004478000004e0003a003200e28f54003d
:1012e0002700320005003e000900e0001200320035
:1012f000e18f540005003a0018003700e38f5400d6
:1013000029003200e48f5400020032000044eb0058
:101310002c00370011c0b3000fba97009fba970096
:101320002fb99700bfb997000a40780081060700df
:1013300000447800230037008040eb000fba97008c
:101340009fba97002fb99700bfb997000a4078005d
:1013500069040700004478001a00370011c0b30088
:101360000fba97009fba97002fb99700bfb997009f
:101370000a4078006004070000447800110037003c
:101380000043eb00864078000fba97009fba9700a1
:101390002fb99700bfb997000a407800cd06070023
:1013a00000447800070037000fba97009fba9700f3
:1013b0002fb99700bfb997000a4078007a03070059
:1013c000004478001a0307000880fb004f057800ee
:1013d0004f04be000080fa0000000600889fbe0097
:1013e0000004780050f88000e0349000643d020072
:1013f00001000000e14f500005003a00880078002d
:10140000090078009c240200010000000d00370054
:10141000e44f500005003a00880078000900780089
:10142000d02402000100000006003700e34f500006
:1014300004003a0088007800090078002e25020098
:10144000010000004f04be000000060050f88000bc
:1014500010889000a2ed80006000b800108998000c
:1014600021899800f0f38000e10f500040003a001d
:10147000a0ed80008040eb00215899002102070078
:101480000004e0000100320031020700a0ed8000fe
:10149000300090000058a30011003200a0ed800041
:1014a000309090000038a30007003200a0ed8000cb
:1014b0001080910030fa8800a0ed8000108091002b
:1014c00040fa88000600370010c0b300440207004d
:1014d0000004e0000100320039030700d4020700d5
:1014e00050f88000a080900010809000e2f380000f
:1014f000e30f51000f00320005003e00e10f5100e4
:1015000008003200e20f51000f003a0007003700d8
:10151000e40f510009003200e50f51000a003a00c3
:101520000800370014000700070037004a000700d2
:1015300005003700b2000700030037001a0107005a
:101540000100370057010700a0ed80003000900037
:101550000058a3000600320010c0b30020020700ac
:101560000004e000010032006e030700b002070033
:101570001000200000000600881f78008a9fbe002f
:101580000005be000040eb00150207000044780093
:101590000004e000020032008101070000447800ee
:1015a000a30207000804e0000a00320050fa80009d
:1015b00061fa8000800f5500818f5d0005003a00c0
:1015c000a0ed80001a8898002b88980018c0b300fe
:1015d0001d0037005afa88006bfa88000040eb00c3
:1015e000ff0107000004e00001003200a60107002f
:1015f0008f0207000040eb00f9010700004478006b
:101600000004e00002003200650107000044780099
:10161000870207000804e0000b00320050fa800047
:1016200061fa8000a2ed800010899800218998005d
:1016300000006d0081806d00010070000000cf008f
:101640000000e9004f04de000880fb004f05be00eb
:101650004f04780000000600881f78008a9fbe00b3
:101660000005be000040eb00dd01070000447800eb
:101670000004e00002003200490107000044780045
:101680006b0207000804e0000a00320050fa8000f4
:1016900061fa8000800f5500818f5d0005003a00df
:1016a000a0ed80001a8898002b88980018c0b3001d
:1016b0004f003700300120000100200050fa880060
:1016c00061fa88000040eb00c50107000044780083
:1016d0000004e000020032006b01070000447800c3
:1016e000530207000804e0004100320010c0b300bc
:1016f000bb010700004478000004e000090032004c
:101700000043eb0011c0b3002400200005002000be
:10171000f27f20000300200040c0b300ed05070069
:1017200000447800420207000804e0003000320064
:10173000000120000100200050fa880061fa8800b2
:101740000040eb00a6010700004478000004e00020
:10175000020032004c010700004478003402070008
:101760000804e0002200320010c0b3009c01070012
:10177000004478000004e000090032000043eb0060
:1017800011c0b3002400200005002000f27f2000db
:101790000300200040c0b300ce05070000447800dd
:1017a000230207000804e000110032005afa880002
:1017b0006bfa88000040eb008901070000447800c4
:1017c0000004e000020032002f010700004478000e
:1017d000170207000804e00005003200a0ed8000b9
:1017e00052fa800063fa80001288980023889800db
:1017f0000880fb004f05be004f0478000000060083
:10180000881f78008a9fbe000005be000040eb00e4
:1018100073010700004478000004e0000200320079
:10182000df00070000447800010207000804e00020
:101830000a00320050fa800061fa8000800f5500e3
:10184000818f5d0005003a00a0ed80001a889800a5
:101850002b88980018c0b3004f003700000120000b
:101860000100200050fa880061fa88000040eb0077
:101870005b010700004478000004e0000200320031
:101880000101070000447800e90107000804e000b6
:101890004100320010c0b30051010700004478003d
:1018a0000004e000090032000043eb0011c0b30067
:1018b0002400200005002000f27f2000030020000b
:1018c00040c0b3008305070000447800d80107003a
:1018d0000804e00030003200100120000100200068
:1018e00050fa880061fa88000040eb003c010700d4
:1018f000004478000004e00002003200e20007002b
:1019000000447800ca0107000804e0002200320009
:1019100010c0b30032010700004478000004e0006a
:10192000090032000043eb0011c0b3002400200086
:1019300005002000f27f20000300200040c0b3001b
:101940006405070000447800b90107000804e000be
:10195000110032005afa88006bfa88000040eb0050
:101960001f010700004478000004e000020032007c
:10197000c500070000447800ad0107000804e0003e
:1019800005003200a0ed800052fa800063fa80006a
:1019900012889800238898000880fb004f05be003d
:1019a0004f04780000000600881f78008a9fbe0060
:1019b0000005be000040eb0009010700004478006c
:1019c0000004e000020032007500070000447800c7
:1019d000970107000804e0000a00320052fa800074
:1019e00063fa80008a0f51008b8f590005003a007e
:1019f000a0ed8000128898002388980018c0b300da
:101a000024003700000120000100200050fa880067
:101a100061fa88000040eb00f10007000044780004
:101a20000004e00002003200970007000044780044
:101a30007f0107000804e0001600320010c0b30068
:101a4000e7000700004478000004e00009003200cd
:101a50000043eb0011c0b30024002000050020006b
:101a6000f27f20000300200040c0b30019050700ea
:101a7000004478006e0107000804e0000500320011
:101a8000a0ed800052fa800063fa8000128898006e
:101a9000238898000880fb004f05be004f047800a3
:101aa00000000600881f78008a9fbe000005be0067
:101ab0000040eb00ca000700004478000004e0008a
:101ac0000200320036000700004478005801070089
:101ad0000804e0000a00320052fa800063fa800035
:101ae0008a0f51008b8f590005003a00a0ed80004d
:101af000128898002388980018c0b300240037008b
:101b0000000120000100200050fa880061fa8800de
:101b10000040eb00b2000700004478000004e00041
:101b2000020032005800070000447800400107001e
:101b30000804e0001600320010c0b300a80007003f
:101b4000004478000004e000090032000043eb008c
:101b500011c0b3002400200005002000f2ff200087
:101b60000300200040c0b300da04070000447800fe
:101b70002f0107000804e00005003200a0ed8000fe
:101b800052fa800063fa8000128898002388980037
:101b90000880fb004f05be004f04780000000600df
:101ba0000400fa006000b800e0bf9f00f1bf9f0092
:101bb00041c2b300648057003600020001000000fb
:101bc000e0f38000e30f50001700320005003e00f4
:101bd000e10f500008003200e20f500023003a00ed
:101be0000b003700e40f500015003200e50f5000e5
:101bf0001e003a0018003700efb897007f806000a1
:101c000001002000e0bf9f00f1bf9f0017003700d8
:101c1000efb897007380600001002000e0bf9f00d4
:101c2000f1bf9f0011003700efb89700718060008e
:101c300001002000e0bf9f00f1bf9f000b003700b4
:101c4000efb897007080600001002000e0bf9f00a7
:101c5000f1bf9f0005003700efb89700708060006b
:101c600001002000e0bf9f00f1bf9f006fb8970008
:101c7000ffb8970050fa880061fa88001000200031
:101c80000080fa0000000600889fbe008a1f7800ce
:101c900048ef80000aa0210020cab300004d780060
:101ca00050fa800010d0880080ccb30040459800e6
:101cb0008a007800200020002e02020001000000af
:101cc000090020000800be00782e0200010000007c
:101cd000e0ccb300004d78000040eb004045980098
:101ce0008a007800200020002e020200010000007f
:101cf000cf000700100020004f0578004f04be0001
:101d000000000600881f78000000eb00622e020031
:101d10000100000000447800dc82a900e402a90070
:101d2000d842a8004006200001002000782e0200c2
:101d300001000000dac2bf000028a3000100320049
:101d400018c0b3000880fb004f04780000000600b4
:101d50000200fa000000eb00622e02000100000009
:101d6000dc82a900e402a900d842a80040062000b5
:101d700001002000782e020001000000dac2bf003e
:101d80000028a300140032008f80e90030002000fa
:101d9000542f0200010000000004e0000a0032009d
:101da0002c2d0200010000000004e00003003200be
:101db00008280200010000000100370000000000b8
:101dc000902d0200010000008f80e900200020001b
:101dd000542f0200010000000080fa0000000600fd
:101de000889fbe0080447800f0f38000e10f50002f
:101df00001003a00d6ff0700a0ed8000408091006e
:101e00000078a30059003200f8f380000800e000d9
:101e100016003a00c00320004c2e02000100000012
:101e2000c1da21008048780008017800c103200051
:101e300010002000fe2d020001000000e4e2a900d5
:101e4000e462a800e4c2a800803e20000100200057
:101e5000782e020001000000e4c2a800e4a2a9005c
:101e6000962f020001000000030037000000eb0085
:101e7000622e02000100000024090200010000009f
:101e80001809020001000000e402a800d842a900dd
:101e9000e422a800007d200001002000782e02002e
:101ea00001000000e0f38000e40f50000300320066
:101eb000e0f38000e50f50000a003a00100902002c
:101ec000010000000904e0000300320024090200c0
:101ed000010000000c003700200902000100000092
:101ee0000900370024090200010000000904e00095
:101ef0000300320018090200010000000200370050
:101f00001009020001000000f8f380000800e00062
:101f100012003a00e4e2a800e462a900803e20003a
:101f200001002000782e020001000000e4c2a90098
:101f3000e4a2a8008038210001002000782e0200d1
:101f40000100000008017800c103200008007800ab
:101f5000fe2d0200010000003200370010002000ba
:101f6000622e0200010000002e003700f0f3800016
:101f70000000e00004003a00622e020001000000b0
:101f8000962f020001000000e402a800d842a90038
:101f9000e422a8004006200001002000782e020064
:101fa00001000000e0f38000e40f50000300320065
:101fb000e0f38000e50f50000a003a00100902002b
:101fc000010000000904e0000300320024090200bf
:101fd000010000000c003700200902000100000091
:101fe0000900370024090200010000000904e00094
:101ff000030032001809020001000000020037004f
:10200000100902000100000010002000622e0200f2
:10201000010000008038210001002000782e02001d
:1020200001000000100020004f04be000000060068
:102030000000eb00622e02000100000018090200ff
:1020400001000000e402a900d842a800e422a80090
:10205000dc82a90000000600889fbe000004be00cc
:1020600082417800e00f5000e08f580010003a00e5
:102070000204e0001d0032000280fb0001a02100ec
:102080002e020200010000008041eb001700370023
:102090000380fb004200dd0002a0210061ccb30000
:1020a000017079008341e80061045400e0845c0021
:1020b000f6cf410003003e00e00f5400e08f5c00cb
:1020c000f3ff3a000380fb0001a021002e02020072
:1020d00001000000e00f5400e08f5c0002003200bd
:1020e0008041eb00f2ff37008041eb000380fb00f2
:1020f0004f04be00000006008281fb0005a0210005
:10210000c219dd008581410024c8b30084497800ec
:10211000f4ff2000940198008241e8008381fb00d5
:10212000c219dd0064ccb30084f17a0002c1e8007a
:10213000c9ff07000080fb00000006000280fb00d2
:102140000000060050f88000900890000008900001
:1021500061004000e0804800bfff07000080fb00f6
:10216000000006008281fb0005a02100c219dd00ed
:102170008581410024c8b30084497800f4ff200021
:10218000940198008241e8008381fb00c219dd00c0
:1021900064ccb30084f17a0002c1e800aeff07000e
:1021a0000080fb000000060050f8800010889000be
:1021b0004a250200010000000080fb00000006002c
:1021c000889fbe008a1f780051f88000918c900093
:1021d000f0f38000e10f500005003a00e0f38000ca
:1021e000f43f200005002000e50f500002003a00f7
:1021f000612a9000f12a90000041eb000400be002b
:10220000bdff0700004478000800be00ba34020099
:10221000010000000aa0210042c0b3008a0078003b
:102220002000200036060200010000001a0078009d
:1022300030fa8800e38f54000a003a0041c4b3002a
:102240008a01780062ccb3000880fb004200dd0008
:1022500002f079000844e8008140e9001f003200e4
:10226000f9ff3700e48f54000a003a0041c4b3007c
:1022700003a0210062ccb3000880fb004200dd0017
:1022800002f079000844e8008140e90013003200c0
:10229000f9ff370002a021000880fb004200dd00aa
:1022a00061ccb300017079000840e8000080fb00b9
:1022b0004200dd000170790008c0e8000080fb00ea
:1022c0004200dd0001707900634044000080fb00a3
:1022d0004200dd0001707900644444000880fb0086
:1022e00001a021002e020200010000000800be0033
:1022f000ba3402000100000042c0b3008a00780036
:102300002000200036060200010000001a057800b7
:102310004afa8800100020004f0578004f04be00e4
:1023200000000600889fbe008a9fbe0050f8800013
:10233000908c9000602d9000f02d9000f0f38000c4
:10234000e10f500002003a0040fa800030fa8800a5
:102350000041eb000a00be0067ff070038fa80006a
:1023600008007800f30307000004e00001003a00d1
:10237000f8ff200008007800420007000004e00099
:1023800033003200f0f38000e10f50000e003a00fd
:10239000e0f38000e50f50000b003200f03f20001a
:1023a000010020000a0050008b8058000600320017
:1023b0000041eb0028ff070008007800310007000b
:1023c0000004e00022003200e38f540008003a00cd
:1023d00000a0210062ccb30041b121000248780086
:1023e00064004000808f500014003200fbff370073
:1023f000e48f540008003a0000a0210062ccb30032
:1024000041b121000248780064004000808f5000f4
:102410000a003200fbff370001a0210060ccb300ae
:1024200080487800c040980080489800c0489800d4
:102430008050980050c0b3000100370050c4b30072
:102440000080fb0001a021002e020200010000001c
:1024500048fa800008007800b60307000004e00096
:1024600001003a00f8ff200000000000080078009a
:10247000040007000080fb004f05be004f04be00b3
:1024800000000600889fbe008a1f780048ef800089
:102490000aa0210021c8b300014d780010d08800a7
:1024a00080ccb300404598008a00780020002000ce
:1024b0002e02020001000000090020000800be00fa
:1024c000782e020001000000e0ccb300004d78003f
:1024d0000040eb00404598008a0078002000200072
:1024e0002e02020001000000100020004f057800bd
:1024f0004f04be0000000600f8874700889fbe001a
:102500008a9fbe008c9fbe008e1f78000047780017
:10251000e2b79f00f3b79f000404be0081f79f005d
:10252000e34f50004a00320003003e00e24f5000eb
:1025300005003a0053003700e44f500037003200e6
:10254000e74f5000210032008906d1000886d300f1
:102550000041eb006fb09700ffb09700e6fe070068
:10256000a0ed8000300090000058a300120132005e
:1025700054f8800064299000f42990006fb397000c
:10258000ffb397000600460087804e0061005000b0
:10259000e0805800820f5000838f580006013900f8
:1025a00064289000f42890000606500087865800a2
:1025b00027c0b300c7e79f0040c0b300d0e79f002b
:1025c000f1ff200091b79f000101370050f8800013
:1025d0007081900080899000e2b79f00f3b79f0060
:1025e000a0ed8000002090000000d1006106b8003e
:1025f0000041eb006fb09700ffb09700befe0700f0
:1026000023c0b300c3e79f0046c0b300d6e79f00d6
:10261000f7ff200097b79f00ed003700f0f3800030
:10262000e10f500001003a00e0f380008906d1007c
:102630000886d30020c0b300c0e79f0041c0b300ac
:10264000d1e79f00f2ff200092b79f00e000370023
:102650008506d1000486d3000041eb006fb09700df
:10266000ffb09700a4fe070023c0b300c3e79f009c
:1026700046c0b300d6e79f00f707200097b79f003a
:10268000d300370050f8800040019000d001900046
:10269000e2b79f00f3b79f000041eb006fb09700d7
:1026a000ffb09700affe07000806be0013c0b300de
:1026b000c3e79f0046c4b300d6e79f00f73f200062
:1026c00097b79f00c200370008082000f0072000dd
:1026d000800f5600e08f5e0001003e000c04780081
:1026e0008ff097000104e00037003a0003b02100aa
:1026f0008304780042c0bf004500de006700600030
:10270000e0af9f0092028000ff3ffc0042c0bf008c
:102710007f40600001ccb3000140700042e0b70090
:102720009202880070ed80000008eb006143b80061
:102730000800e000180032006022b8004fe1970066
:10274000e24f51000b003a0080ed800090007800cd
:1027500003017800115978001008e80080ed80002e
:1027600090007800114978008381e8001008e800a3
:102770000400370080ed800090007800915c7800c4
:102780001008e80061024200e0824a00840f530012
:10279000858f5b00e9ff3e003100200070ed800076
:1027a0000108780092028000ff3ffc00efa897002c
:1027b000c508dd0042c0bf007f40600001407000de
:1027c00042e0b7009202880003a02100c3b79f0037
:1027d000080044005fe1970083007800360602009d
:1027e0000100000006b02100f6af9f0086b79f00f1
:1027f0004fb09700b0b79f006145b8000800e000f7
:10280000520032007a003700cfe09700e2cf50004c
:1028100004003a004fb1970032037800c2b79f001e
:1028200003003700bfb197003383fb00b3b79f00ad
:10283000e44f57000f003a0052f8800008004400af
:102840004003b000e0007900f0ff200080806000cd
:1028500091b79f0012889000e40f500005003a00e5
:1028600062309000e90f500002003a00f7072000a4
:1028700097b79f000ff097000004e0000d003200b2
:10288000e44f5700020032009fb097000600370067
:10289000080044008004b00051f880006080780097
:1028a0001fb19700800061009fb197000680610012
:1028b0000d003700cfe39700e2cf530004003a0049
:1028c000ffa8970031007800f1af9f0003003700a8
:1028d0000fb197003280fb0082b79f009fb1970035
:1028e0008080610006806100810f50000f0032007f
:1028f0006fb39700ffb397000603440087834c0033
:10290000e6b79f00f7b79f006103b800610ab800ff
:102910006fb19700ffb197000e407800063c0200af
:10292000010000008043eb00a7ef9f00610444001a
:10293000e0844c008a0f54008b8f5c000300310050
:102940002fe897000004e000afff3a006fb1970056
:10295000ffb197000201450083814d00e2b79f005f
:10296000f3b79f000a0656008b865e00afe997001a
:102970000304e00007003200e00f5600e08f5e0025
:10298000040032004c3d0200010000000004e000a1
:102990004dff32004c3d0200010000000004e00049
:1029a00018003200463d0200010000000043eb0029
:1029b000a6ef9f001300370027c0b300c7e79f00b2
:1029c00040c0b300d0e79f00f1ff200091b79f0007
:1029d00012c0b300a2ef9f00e00f5600e08f5e0030
:1029e000ecff320013c0b300a3ef9f00e5ff3700f8
:1029f0006044b8002feb97000604e00082ff3a0025
:102a0000d2ff3700afeb97000780fb004f0778003d
:102a10004f06be004f05be004f04be008f01b1003f
:102a200000000600f0f38000e10f500002003a00c1
:102a3000c02502000100000012c0b30031002000d8
:102a4000100020000efa07000080fb0000000600c6
:102a5000881f780010c0b300e1fc07000004e0000c
:102a6000210032000041eb0011002000010078003d
:102a700003fa0700004478006dfd07000804e00039
:102a80001b00320010c0b300d5fc070000447800e2
:102a90000004e000050032000041eb0011002000be
:102aa00040002000f6f907000044780060fd0700b0
:102ab0000804e0000e00320010c0b300c8fc07009c
:102ac000004478000004e000050032000041eb0003
:102ad0001100200030002000e9f9070000447800d0
:102ae00053fd07000200370051fd07000044eb00d2
:102af0000880fb004f047800000006000041eb0056
:102b00008000eb0010002000ddf907008040780015
:102b10000004e0001d0032000041eb008000eb00eb
:102b200040002000d6f90700804078000004e00053
:102b3000160032000041eb008000eb003000200066
:102b4000cff90700804078000004e0000f00320059
:102b50000041eb008000eb0020002000c8f90700d6
:102b6000804078000004e00008003200f0f38000ac
:102b7000e10f500005003a000041eb008000eb003f
:102b800070002000bef90700804078000180fb0043
:102b9000000006000041eb00310020001000200082
:102ba000b7f90700804078000004e00036003200ea
:102bb0000041eb002100200010002000b0f90700c8
:102bc000804078000004e000400032000041eb004b
:102bd0008000eb0010002000a9f907008040780079
:102be0000004e000390032000041eb002100200029
:102bf00030002000a2f90700804078000004e000c7
:102c0000320032000041eb008000eb003000200079
:102c10009bf90700804078000004e0002b003200a0
:102c20000041eb00210020000100780094f907002a
:102c3000804078000004e000240032000041eb00f6
:102c40008000eb00200020008df907008040780014
:102c50000004e0001d0032000041eb0021002000d4
:102c60004000200086f90700804078000004e00062
:102c7000160032000041eb008000eb004000200015
:102c80007ff90700804078000104e0000f00320067
:102c9000d0ed8000e10f50000c003a000041eb0045
:102ca000210020007000200075f9070080407800a6
:102cb0000004e000050032000041eb008000eb0062
:102cc000700020006ef90700804078000180fb0052
:102cd000000006000041eb00410020001000200031
:102ce00067f907000004e000100032000041eb002b
:102cf000410020000100780061f907000004e000b5
:102d00000a0032000041eb004100200030002000aa
:102d10005bf907000004e000040032000041eb0012
:102d2000410020002000200055f907000080fb0032
:102d3000000006000200fa00881f78008a9fbe008b
:102d40008c9fbe00004478000206be000405be0051
:102d50000000eb00a0bf9f00e24f54000c003200c7
:102d600003003e00e14f540012003a000400370017
:102d7000e34f540002003200e74f54000d003a00c8
:102d80000041eb000c00be00dbfc0700090037002f
:102d900050f88000d0009000400090000041eb000f
:102da000f0fc07000a0545008b854d0042c4b300c6
:102db0003e003700e14f54003b003a00f0f3800042
:102dc000e10f500038003a0054f880006428900069
:102dd000f4289000a0bf9f008b01d1000a81d3008e
:102de0000c0141008d8149000000e8000100200035
:102df000800f5100818f59000b003a0054809000e1
:102e0000e4809000e00f5000e08f5800080032008e
:102e100054809000e4809000a0bf9f0062055500a0
:102e2000e0855d00020037000000eb00a0bf9f00be
:102e3000e00f5500e08f5d000500320042c0b30096
:102e40008000eb000a007800360602000100000056
:102e50002fb897000000e000180032000c0050006e
:102e60008b01d1000a81d300020050000000e9006c
:102e7000a0bf9f00010020000041eb009efc070066
:102e800042c0b3008000eb002000200036060200a4
:102e90000100000041c0b3006c8057003600020002
:102ea000010000000500370042c0b3008000eb00c5
:102eb0000a00780036060200010000001000200021
:102ec0004f06be004f05be004f0478000080fa0098
:102ed000000006001200fa00889fbe008a9fbe0014
:102ee0008c1f7800004678000204be000405be0076
:102ef0000040eb00b0ef9f000c80fb00a0b79f00ec
:102f00004fb097000000a000e1806000c208dd0023
:102f10000020a10001007000c0b79f0040ef8000ba
:102f20006101b80092bf9f00a3bf9f0010c0b30013
:102f30005e3d020001000000e34f56004e003200eb
:102f400005003e00e14f560009003200e24f5600f6
:102f500005003a0058003700e44f56002e003200ba
:102f6000e74f56001b0032006055b8006400370080
:102f700080db210000c09000a0ef9f000041eb002b
:102f80000800be005cfc07008b00d1000a80d30063
:102f90000805400089854800a0ed800030009000c1
:102fa0000058a3005600320054f8800064299000b5
:102fb000f429900061005500e0805d00820f500010
:102fc000838f58004e003900642d9000f42d90003e
:102fd0004b00370050f8800070849000808c900087
:102fe00080db210000c09000a0ef9f000041eb00bb
:102ff0000800be0040fc0700a0ed8000002090000b
:103000000000d10000054400e0854c0010002000c5
:10301000a0f988003a00370080db210020c0900032
:10302000a0ef9f00f0f38000e10f500008003a008d
:10303000e0f38000e50f5000050032000a80200018
:103040000b002000f87f2000090020002c00370032
:1030500050f88000400c9000d00c9000f0089000d8
:10306000600890008100d1000080d3000805400076
:10307000898548002200370080db210030c09000a5
:10308000a0ef9f000041eb000800be002dfc0700f0
:1030900050f88000000c9000900c9000b008900058
:1030a000200890008100d1000080d3000805400076
:1030b000898548001200370080db210010c0900095
:1030c000a0ef9f0050f8800040049000d0049000d2
:1030d0000041eb000800be0022fc070060ef80000a
:1030e0006101b80092bf9f00a3bf9f0030c0b30032
:1030f0005e3d0200010000000805450089854d0085
:103100007c8157001fb89700afb89700182e0200b7
:1031100001000000e8b79f00fab79f006140b800c7
:103120000044eb00800f5500818f5d000e003e00d3
:10313000110037002e2e0200010000003fe897002a
:103140000080fb0001a021002e020200010000000f
:10315000b8ef9f006fb0970001002000800f55006e
:10316000818f5d00040036004c3d0200010000002c
:103170000004e000efff32000040eb005e3d020083
:1031800001000000fc8057000c407800fc24020085
:1031900001000000004478004c3d020001000000e6
:1031a0000004e000050032000804e00003003200e3
:1031b000463d0200010000000044eb000880fb00d7
:1031c0004f0678004f05be004f04be000080fa0095
:1031d00000000600889fbe008a9fbe008c9fbe0034
:1031e0000204be0080db210040c59000a0ed8000fd
:1031f000703e9000808690001bc0b3000a04e0007f
:10320000190032000a81fb00030020000800be0004
:103210000e000200010000000004540081845c00e4
:1032200010c0b300eefa0700804578000004e0000b
:103230000c0032000041eb000800be00aefb0700ae
:103240000c00be00ba340200010000000a80fb003e
:103250000000400042c0b3008000eb0036060200d0
:103260000100000072fb07000b80fb004f06be0050
:103270004f05be004f04be0000000600889fbe0040
:103280008a9fbe008c9fbe008e1f7800004778008a
:103290000204be0080db210040c59000a0ed80004c
:1032a000703e9000808690001bc0b3000a04e000ce
:1032b000180032000a81fb00030020000800be0055
:1032c0000e000200010000000004540081845c0034
:1032d00010c0b300c2fa0700804578000004e00087
:1032e0000b0032000c00be00ba34020001000000e6
:1032f0000a82fb00040242000043eb008640780093
:10330000cfa2de000801be000e407800f1fe0700eb
:1033100047fb07000b80fb004f0778004f06be00fd
:103320004f05be004f04be00000006000000eb0089
:10333000000006000001eb0001402f0001004000ea
:10334000f10f2000810f500001003e00120020000c
:1033500002007800000006000200fa0080017800f8
:1033600070429000200090000008a300030032008b
:103370000000a100a00198001000370002a0210069
:103380000480fb004200dd00e1ccb3000170790055
:103390000440e8000080fb004200dd008040eb00bc
:1033a0000170790004c0e8000080fb004200dd00ed
:1033b00061ccb300017079006342420042c0bf009b
:1033c0004500de0067006000f0bf9f0092028000b1
:1033d000ff3ffc0042c0bf007f40600001ccb30053
:1033e0000140700042e0b7009202880070ed80005a
:1033f0000008eb000481fb00c210dd0000a02100ea
:103400008080400020c8b3008048780023009000ee
:103410000028a30003003200f0ff20009000980075
:103420000c00370081ed80004211dd0020a021005a
:103430000001410011007800104978009108e8006f
:1034400080ed800090007800914078001141980054
:103450001008e8000440e8000080fb004200dd00a6
:1034600002a0210081ccb30001707900310020005e
:1034700070ed80000108780092028000ff3ffc00a0
:10348000ffb89700c508dd0042c0bf007f40600064
:103490000140700042e0b700920288006340900053
:1034a0000080fb00c300900001004000c0019800b4
:1034b00004c0e800f04198000080fa000000060017
:1034c0002e2e02000100000001a02100e0ccb3007c
:1034d000804878000040eb00c040980020002000a9
:1034e0002e02020001000000100020000000060073
:1034f000881f7800a0ed8000300090000058a300e5
:1035000012003200a0ed8000309090000038a3003f
:1035100007003200a0ed80001080910030fa880092
:10352000a0ed80001080910040fa8800070037006d
:10353000e0100200010000000044780018100200b2
:10354000010000000804e000150032002b00070015
:10355000004478000004e000110032003f00070042
:10356000004478000004e0000d0032005c00070019
:10357000004478000004e0000900320078000700f1
:10358000004478000004e00005003200f0f3800001
:10359000e10f500002003a00870007000044780065
:1035a000a0ed8000300090000058a3000b00320016
:1035b00010c0b300f00e02000100000000447800cb
:1035c0000004e0000300320092110200010000003c
:1035d0000044780018100200010000000804e00018
:1035e0000300320011c0b30020f3210051589800ad
:1035f0000880fb004f04780000000600889fbe0092
:1036000099ef800010c0b300f00e0200010000002e
:10361000004478000004e0000b00320001a021000b
:1036200060ccb3008048780063404000c040980000
:10363000200020002e020200010000006148b800b6
:10364000782e0200010000001810020001000000a6
:103650000880fb004f04be0000000600889fbe00eb
:103660008a1f78009aef800010c0b300f00e0200ad
:1036700001000000804478000004e00012003200e5
:1036800008a0210060ccb300004c780050f8800006
:10369000901090000010900012c0b3002c10020097
:1036a0000100000090ccb3004044980088007800ee
:1036b000200020002e020200010000006150b8002e
:1036c000782e020001000000181002000100000026
:1036d0000980fb004f0578004f04be000000060083
:1036e000889fbe0099ef800010c0b300f00e02006a
:1036f00001000000004478000004e00013003200e4
:10370000b0f08000c1f0800061004000e08048001f
:103710000041eb002c1002000100000001a021007c
:103720000081fb004211dd0093ccb30003f178006f
:103730000040e8000080fb002e02020001000000b3
:103740006148b800782e0200010000001810020045
:10375000010000000880fb004f04be0000000600ce
:10376000889fbe0099ef800010c0b300f00e0200e9
:1037700001000000004478000004e000090032006d
:1037800001a0210090ccb3008048780010002000f8
:103790002e020200010000006148b800782e0200ed
:1037a0000100000018100200010000000880fb006a
:1037b0004f04be0000000600889fbe008a1f7800ec
:1037c0009aef800010c0b300f00e0200010000006c
:1037d000804478000004e0001100320008a02100bd
:1037e00060ccb300004c780012c0b3000060200031
:1037f000010020002c1002000100000090ccb3005a
:103800004044980088007800200020002e0202002a
:10381000010000006150b800782e02000100000095
:1038200018100200010000000980fb004f0578001d
:103830004f04be00000006000200fa00800278007b
:1038400070439000200090000008a30003003200a5
:103850000000a100a00298000b00370002a0210088
:103860000680fb004200dd00e1ccb300017079006e
:103870000640e8000080fb004200dd00e8c0500088
:103880000170790006c3e80042c0bf004500de00b9
:1038900067006000f0bf9f0092028000ff3ffc00c5
:1038a00042c0bf007f40600001ccb3000140700007
:1038b00042e0b7009202880070ed80000008eb0043
:1038c0000682fb00c220dd0000a0210080804000b5
:1038d00020c8b30080487800250090000028a3008d
:1038e00003003200f0ff200090009800060037002f
:1038f00081ed8000c221dd001101780020a02100af
:10390000927178009108e80002a021004220dd00b9
:10391000020040008040eb00314098000640e80083
:103920000080fb004200dd0081ccb3000170790013
:103930003100200070ed80000108780092028000c4
:10394000ff3ffc00ffb89700c508dd0042c0bf0084
:103950007f4060000140700042e0b70092028800a2
:10396000654090000080fb00c50090000100400011
:10397000c002980006c0e800f04298000080fa00fb
:10398000000006000200fa0000027800f0419000fa
:10399000200090000008a300030032000000a100f6
:1039a000200298001000370002a021000380fb00d5
:1039b0004200dd00e1ccb300017079000340e80073
:1039c0000080fb004200dd008040eb0001707900c8
:1039d00003c0e8000080fb004200dd0061ccb300c2
:1039e00001707900e3c1410042c0bf004500de0024
:1039f00067006000f0bf9f0092028000ff3ffc0064
:103a000042c0bf007f40600001ccb30001407000a5
:103a100042e0b700920288008000eb0070ed800069
:103a200001087800644090000004e00023003200a8
:103a30008142780006a021000381fb004210dd00d6
:103a40008600400020c8b300804878002400900021
:103a50000028a30003003200f0ff2000900098002f
:103a60000c00370081ed80004211dd0006014100ad
:103a70000281e80011007800104978009108e80000
:103a800080ed80009000780091407800114198000e
:103a90001008e8000340e8000080fb004200dd0061
:103aa00061ccb30001707b0083c1e8008542e8006f
:103ab0006440900080cf5200dfff390031002000c9
:103ac00070ed80000108780092028000ff3ffc004a
:103ad000ffb89700c508dd0042c0bf007f4060000e
:103ae0000140700042e0b700920288000340e90004
:103af0000080fb004200dd0002a0210081ccb30069
:103b000001707900644090000080fb00c4009000c8
:103b10000100400040029800734298000080fa00c3
:103b2000000006002e2e02000100000001a021006e
:103b3000e0ccb300804878000040eb00c040980023
:103b4000200020002e0202000100000010002000d2
:103b500000000600889fbe0099ef8000a0ed800065
:103b6000300090000058a3000f003200a0ed80004c
:103b7000309090000038a30007003200a0ed8000d4
:103b80001080910030fa8800a0ed80001080910034
:103b900040fa880002003700e01002000100000037
:103ba000181002000100000010c0b300f00e020067
:103bb00001000000004478000004e0002000320012
:103bc00036000700004478000004e0001c003200ca
:103bd0004a000700004478000004e00018003200aa
:103be00067000700004478000004e0001400320081
:103bf00083000700004478000004e0001000320059
:103c0000f0f38000e10f500004003a00920007003a
:103c1000004478000004e0000900320001a0210007
:103c200090ccb30080487800100020002e020200e3
:103c3000010000006148b800782e02000100000079
:103c4000a0ed8000300090000058a3000b0032006f
:103c500010c0b300f00e0200010000000044780024
:103c60000004e00003003200921102000100000095
:103c70000044780018100200010000000804e00071
:103c80000300320011c0b30020f321005158980006
:103c90000880fb004f04be0000000600889fbe00a5
:103ca00099ef800010c0b300f00e02000100000088
:103cb000004478000004e0000b00320001a0210065
:103cc00060ccb3008048780063404000c04098005a
:103cd000200020002e020200010000006148b80010
:103ce000782e020001000000181002000100000000
:103cf0000880fb004f04be0000000600889fbe0045
:103d00008a1f78009aef800010c0b300f00e020006
:103d100001000000804478000004e000120032003e
:103d200008a0210060ccb300004c780050f880005f
:103d3000901090000010900012c0b3002c100200f0
:103d40000100000090ccb300404498008800780047
:103d5000200020002e020200010000006150b80087
:103d6000782e02000100000018100200010000007f
:103d70000980fb004f0578004f04be0000000600dc
:103d8000889fbe0099ef800010c0b300f00e0200c3
:103d900001000000004478000004e000130032003d
:103da000b0f08000c1f0800061004000e080480079
:103db0000041eb002c1002000100000001a02100d6
:103dc0000081fb004211dd0093ccb30003f17800c9
:103dd0000040e8000080fb002e020200010000000d
:103de0006148b800782e020001000000181002009f
:103df000010000000880fb004f04be000000060028
:103e0000889fbe0099ef800010c0b300f00e020042
:103e100001000000004478000004e00009003200c6
:103e200001a0210090ccb300804878001000200051
:103e30002e020200010000006148b800782e020046
:103e40000100000018100200010000000880fb00c3
:103e50004f04be0000000600889fbe008a1f780045
:103e60009aef800010c0b300f00e020001000000c5
:103e7000804478000004e0001100320008a0210016
:103e800060ccb300004c780012c0b300006020008a
:103e9000010020002c1002000100000090ccb300b3
:103ea0004044980088007800200020002e02020084
:103eb000010000006150b800782e020001000000ef
:103ec00018100200010000000980fb004f05780077
:103ed0004f04be0000000600881f7800a0ed80009f
:103ee000300090000058a30013003200a0ed8000c5
:103ef000309090000038a30008003200a0ed800050
:103f00001080910030fa8800a0ed800010809100b0
:103f100040fa880018c0b30003003700e010020028
:103f200001000000004478001810020001000000a9
:103f30000804e000150032002b0007000044780060
:103f40000004e000110032003f0007000044780048
:103f50000004e0000d0032005f000700004478001c
:103f60000004e000090032007c00070000447800f3
:103f70000004e00005003200f0f38000e10f500083
:103f800002003a00ac00070000447800a0ed800079
:103f9000300090000058a3000b00320010c0b300a6
:103fa000f00e020001000000004478000004e00070
:103fb000030032009211020001000000004478006a
:103fc00018100200010000000804e00003003200a5
:103fd00011c0b30020f32100515898000880fb0065
:103fe0004f04780000000600889fbe0099ef800013
:103ff00010c0b300f00e0200010000000044780081
:104000000004e0000b00320001a0210060ccb300ee
:104010008048780063404000c040980020002000a5
:104020002e020200010000006148b800782e020054
:104030000100000018100200010000000880fb00d1
:104040004f04be0000000600889fbe008a1f780053
:104050009aef800010c0b300f00e020001000000d3
:10406000804478000004e0001500320008a0210020
:1040700060ccb300004c780050f88000d000900075
:104080004000900012c0b300b21002000100000016
:104090008080fb00c208dd0092ccb30082707c00ff
:1040a0000040e8000080fb00880078002e0202003b
:1040b000010000006150b800782e020001000000ed
:1040c00018100200010000000980fb004f05780075
:1040d0004f04be0000000600889fbe008a1f7800c3
:1040e0009aef800010c0b300f00e02000100000043
:1040f000804478000004e0001200320008a0210093
:1041000060ccb300004c780050f880009010900014
:104110000010900012c0b3002c100200010000003b
:1041200090ccb30040449800880078002000200024
:104130002e020200010000006150b800782e02003b
:104140000100000018100200010000000980fb00bf
:104150004f0578004f04be0000000600889fbe0097
:104160008a1f78009aef800010c0b300f00e0200a2
:1041700001000000804478000004e00012003200da
:1041800008a0210060ccb300004c780050f88000fb
:10419000900890000008900012c0b3002c1002009c
:1041a0000100000090ccb3004044980088007800e3
:1041b000200020002e020200010000006150b80023
:1041c000782e02000100000018100200010000001b
:1041d0000980fb004f0578004f04be000000060078
:1041e000889fbe0099ef800010c0b300f00e02005f
:1041f00001000000004478000004e00009003200e3
:1042000001a0210090ccb30080487800100020006d
:104210002e020200010000006148b800782e020062
:104220000100000018100200010000000880fb00df
:104230004f04be0000000600889fbe008a1f780061
:104240009aef800010c0b300f00e020001000000e1
:10425000804478000004e0001200320008a0210031
:1042600060ccb300004c780050f88000808890004b
:104270007080900012c0b3002c10020001000000fa
:1042800090ccb300404498008800780020002000c3
:104290002e020200010000006150b800782e0200da
:1042a0000100000018100200010000000980fb005e
:1042b0004f0578004f04be0000000600881f7800fc
:1042c000a0ed8000300090000058a30013003200e1
:1042d000a0ed8000309090000038a300080032006c
:1042e000a0ed80001080910030fa8800a0ed8000e1
:1042f0001080910040fa880018c0b3000300370016
:10430000e0100200010000000044780018100200d4
:10431000010000000804e0000a003200620007000b
:10432000004478000004e000060032001c00070092
:10433000004478000004e000020032003900070069
:1043400000447800a0ed8000300090000058a300e9
:104350000b00320010c0b300f00e0200010000009c
:10436000004478000004e0000300320092110200d3
:104370000100000000447800181002000100000055
:104380000804e0000300320011c0b30020f3210054
:10439000515898000880fb004f0478000000060088
:1043a000889fbe0099ef800010c0b300f00e02009d
:1043b00001000000004478000004e0001400320016
:1043c00050f88000d0009000400090006100400054
:1043d000e08048000041eb002c10020001000000ca
:1043e00001a021000081fb004211dd0093ccb3004d
:1043f00003f178000040e8000080fb002e0202007c
:10440000010000006148b800782e020001000000a1
:1044100018100200010000000880fb004f04be00dd
:1044200000000600889fbe0099ef800010c0b30016
:10443000f00e020001000000004478000004e000db
:104440001400320050f8800090089000000890009e
:1044500061004000e08048000041eb002c100200a9
:104460000100000001a021000081fb004211dd00dd
:1044700093ccb30003f178000040e8000080fb001b
:104480002e020200010000006148b800782e0200f0
:104490000100000018100200010000000880fb006d
:1044a0004f04be0000000600889fbe008a9fbe0029
:1044b0008c1f780099ef800010c0b300f00e02004e
:1044c00001000000804578000004e0000d0032008b
:1044d00038c0b3000aa021009cccb3000c4d78007a
:1044e0008a007800100020002e0202000100000067
:1044f0006148b800782e0200010000000844e9007d
:10450000f6ff3a0018100200010000000b04e00062
:104510001e00320010c0b300f00e020001000000c7
:104520008045780048ef80000aa0210020c8b30031
:10453000004d7800f0df200010d0880080ccb30060
:10454000404598008a007800200020002e020200da
:1045500001000000090020000800be00782e0200c3
:1045600001000000e0ccb300004d78000040eb00fb
:10457000404598008a007800200020002e020200aa
:104580000100000018100200010000000b80fb0079
:104590004f0678004f05be004f04be000000060025
:1045a0000200fa00889fbe0000037800f0429000ed
:1045b000200090000008a300030032000000a100ca
:1045c000200398001000370002a021000580fb00a6
:1045d0004200dd00e1ccb300017079000540e80045
:1045e0000080fb004200dd008040eb00017079009c
:1045f00005c0e8000080fb004200dd0061ccb30094
:1046000001707900e3c2420042c0bf004500de00f5
:1046100067006000d0bf9f0092028000ff3ffc0057
:1046200042c0bf007f40600001ccb3000140700079
:1046300042e0b700920288008000eb0070ed80003d
:1046400001087800664090000004e000300032006d
:104650008143780008a02100f9ff20008581fb003c
:104660004218dd008800400020c8b3008048780070
:10467000260090000028a300020032009900980054
:104680001900370081ed8000110178004218dd002b
:10469000080040000082e800124a78009108e80013
:1046a00080ed8000900078009140780011429800e1
:1046b0001008e8004601900050f88000f0289000b3
:1046c000602890000300200063005000e080580044
:1046d000800f5100818f590003003a00e3cf53004f
:1046e00001003a00090a78000540e8000080fb005c
:1046f0004200dd0061ccb30001707c0085c2e8009f
:104700008743e8006640900080cf5300d3ff390014
:104710003100200070ed80000108780092028000d6
:10472000ff3ffc00dfb89700c508dd0042c0bf00b6
:104730007f4060000140700042e0b70092028800b4
:104740000540e9000080fb004200dd0002a02100de
:1047500081ccb30001707900c600900066409000e3
:104760000080fb0080804000410398007543980062
:104770004f04be000080fa00000006000200fa00ac
:1047800000027800f0419000200090000008a30093
:10479000030032000000a100200298001000370042
:1047a00002a021000380fb004200dd00e1ccb30049
:1047b000017079000340e8000080fb004200dd004a
:1047c0008040eb000170790003c0e8000080fb002e
:1047d0004200dd0061ccb30001707900e3c141000b
:1047e00042c0bf004500de0067006000f0bf9f00d0
:1047f00092028000ff3ffc0042c0bf007f4060008b
:1048000001ccb3000140700042e0b7009202880082
:104810008000eb0070ed800001087800644090009b
:104820000004e0001e0032008142780006a0210052
:1048300027c8b3008380fb004208dd00060140006a
:1048400007497800240090000028a30003003200ec
:10485000f0ff2000100198000700370080ed800075
:10486000c208dd0086804000100178001241780007
:10487000a24098001008e8000340e8000080fb0018
:104880004200dd0061ccb30001707b0083c1e80011
:104890008542e8006440900080cf5200e5ff390077
:1048a0003100200070ed8000010878009202800045
:1048b000ff3ffc00ffb89700c508dd0042c0bf0005
:1048c0007f4060000140700042e0b7009202880023
:1048d0000340e9000080fb004200dd0002a021004f
:1048e00081ccb30001707900644090000080fb002f
:1048f000c4009000010040004002980073429800fc
:104900000080fa00000006002e2e020001000000c8
:1049100001a02100e0ccb300804878000040eb000b
:10492000c0409800200020002e020200010000007c
:104930001000200000000600e20f50000c003200c2
:1049400003003e00e10f500011003a000400370060
:10495000e50f50000a003200e90f50000c003a0049
:1049600001007800ac190200010000000b003700c4
:1049700001007800c21c020001000000070037009f
:1049800001007800d022020001000000030037007f
:1049900001007800ac1902000100000000000600d0
:1049a000e20f50000c00320003003e00e10f500007
:1049b0000d003a0004003700e50f500002003200fd
:1049c000e90f500008003a0001007800ac1902001d
:1049d000010000000700370001007800c21c02003f
:1049e000010000000300370001007800ac1902004c
:1049f000010000000000060092f38000e20f510069
:104a00000b00320003003e00e10f51000f003a009e
:104a100004003700e50f510008003200e90f510093
:104a20000a003a00601a0200010000000900370085
:104a3000921d020001000000060037000080fb000c
:104a4000842402000100000002003700601a020006
:104a5000010000000080fb0000000600e50f500090
:104a600008003200e90f500002003200e10f500050
:104a700007003a00010078001c1c02000100000041
:104a80000300370001007800be230200010000008f
:104a900000000600e20f50000c00320003003e0050
:104aa000e10f500012003a0005003700e30f5000fc
:104ab00009003200e40f50000d003a0009003700f1
:104ac000781a0200010000000b003700aa1d020046
:104ad00001000000080037006c1f02000100000008
:104ae000050037005e2102000100000002003700cf
:104af000781a0200010000000080fb0000000600a0
:104b0000e20f50000a003200e40f500003003200b0
:104b1000e10f500008003a00020037000040eb00af
:104b200005003700dc1b0200010000000200370016
:104b30002c1f0200010000000080fb0000000600a6
:104b40001000200000000600881f7800c203070044
:104b5000004478000004e000040032006c0007000c
:104b6000004478000004e00002003a00ec03070073
:104b7000030007000880fb004f04780000000600d7
:104b8000e20120008000eb0020f321000000020081
:104b9000010000000000eb00a0f988000000060002
:104ba0000a00fa00889fbe008a9fbe008c1f780012
:104bb00092bf9f00a3bf9f00010678000404be00bf
:104bc0000605be000042eb0020f3210011c0b30037
:104bd00090cf100048003a00430037001fba9700fa
:104be000afba97004929dd004720de0000007100c0
:104bf000c728de004709dd00c900de008100710022
:104c00004700dd00060820000003430008014200c1
:104c100089814a006130b800800f5100818f5900ae
:104c2000030036000400530080bf9f0001003700de
:104c300088bf9f002ff09700c0ef9f00bff0970044
:104c4000d1ef9f000ff19700e2ef9f001ff0970058
:104c5000f0ef9f000002eb0084017800040178006f
:104c60008400780020c0b3001c02070000427800d6
:104c70000004e0000c0032006011b8004100200088
:104c80007480570050020700004278000004e000e2
:104c9000050032008fb897000a01be000c007800b2
:104ca000e0020700004278000fb9970003002000df
:104cb0000a0541008b8549001fb89700afb89700df
:104cc000020040008380480090bf9f00a1bf9f006a
:104cd0000204540083845c00070032000404e000f6
:104ce00005003200bdff3700e00f5400e08f5c008c
:104cf000baff3a0014c0b3000480fb004f067800ee
:104d00004f05be004f04be000080fa000000060000
:104d10000400fa008040eb0020f3210012c0b30031
:104d2000904f110015003a006482570043002000a4
:104d30000001eb008200780010c0b300e70107001b
:104d4000804078000004e0000c003200a0ed8000fc
:104d50004ff9970002e09a00a0ed80005ff99700fc
:104d600012e09a00a0ed80006ff9970022e09a000f
:104d7000a0ed80007ff9970032e09a000180fb00ef
:104d80000080fa00000006000400fa006482570068
:104d9000430020000001eb008200780010c0b30047
:104da000ce0107000080fb000080fa000000060032
:104db000881f7800000478000041eb0020f32100f8
:104dc00011c0b30090cf10001b003a000802780019
:104dd000230020000001eb008200780040c0b300f7
:104de000be010700004178000004e000120032001c
:104df0008040eb00314498000880e80001487800ca
:104e00000800e8009040780067c8600053f8800010
:104e100063289000f3289000b80f1000a88f1800a6
:104e20000300360063289000f3289000008cbe0039
:104e300018047800e8f988000280fb004f0478002d
:104e4000000006000200fa008041eb0020f3210080
:104e500011c0b30090cf100024003a0042c0bf0040
:104e60004500de0067006000f0bf9f0092028000f6
:104e7000ff3ffc0042c0bf007f40600001ccb30098
:104e80000140700042e0b700920288008000eb0011
:104e900070ed80000108780001027800810178003f
:104ea0000101780050c0b3008c01070080417800f8
:104eb0000004e00001003200e422a90031002000db
:104ec00070ed80000108780092028000ff3ffc0036
:104ed000ffb89700c508dd0042c0bf007f406000fa
:104ee0000140700042e0b700920288000380fb009e
:104ef0000080fa0000000600ca3402000100000031
:104f00000004e0000100320081ff07000080fb0088
:104f100000000600889fbe00543d02000100000012
:104f20000004e0000f003a001a00070008002f00fc
:104f30001900200004003700e402a900d842a800ac
:104f400061045400e0845c00543d02000100000054
:104f50000004e00003003a00e00f5400e08f5c0022
:104f6000f5ff3a00e402a900d842a800803e2000e4
:104f700001002000782e020001000000463d0200e2
:104f80000100000062ff07000080fb004f04be002c
:104f900000000600b4340200010000000004e0003c
:104fa0000400320094340200010000000004e0001c
:104fb00002003a006635020001000000dac2bf00bc
:104fc0000028a30002003a0066350200010000003c
:104fd00010002000000006008040eb0020f32100bc
:104fe00012c0b300904f110007003a000002eb001e
:104ff00084017800040178008400780060c0b30068
:1050000036010700804078000180fb0000000600a8
:10501000881f78000002eb0084017800040178000a
:105020008400780070c0b3002c01070000447800b1
:105030000004e0000400320080bb200001002000da
:10504000782e0200010000000880fb004f04780069
:105050000000060080007800e0f38000e40f5000bc
:1050600005003200e0f38000620a20000300200007
:10507000e50f500002003a00a208200003002000c3
:105080006033b8002400200005002000c0c0b30039
:10509000020007000080fb0000000600889fbe00a1
:1050a0008a1f78008c9fbe00004578000206be0073
:1050b00070405000e14f500004003e000c01be0063
:1050c0000a40780065000700030037000c01be00ad
:1050d0000a407800050007000080fb004f06be0074
:1050e0004f0578004f04be00000006000a00fa00d9
:1050f000889fbe008a9fbe008c1f780092bf9f00d1
:10510000a3bf9f00010678000404be000605be0090
:105110000042eb0020f3210011c0b30090cf10003b
:1051200048003a00430037001fba9700afba970013
:105130004929dd004720de0000007100c728de009d
:105140004709dd00c900de00810071004700dd0075
:1051500006082000000343000801420089814a003c
:105160006130b800800f5100818f59000300360074
:105170000400530080bf9f000100370088bf9f00dc
:105180002ff09700c0ef9f00bff09700d1ef9f0076
:105190000ff19700e2ef9f001ff09700f0ef9f00e4
:1051a0000002eb008401780004017800840078009c
:1051b00030c0b300c9000700004278000004e000de
:1051c0000c0032006011b8004100200074805700cc
:1051d000fd000700004278000004e00005003200f6
:1051e0008fb897000a01be000c007800f600070097
:1051f000004278000fb99700030020000a05410023
:105200008b8549001fb89700afb897000200400097
:105210008380480090bf9f00a1bf9f0002045400fc
:1052200083845c00070032000404e00005003200c3
:10523000bdff3700e00f5400e08f5c00baff3a007a
:1052400014c0b3000480fb004f0678004f05be0079
:105250004f04be000080fa00000006001200fa00b1
:10526000889fbe008a9fbe008c1f78000046780091
:105270000405be000600be00ba34020001000000b2
:1052800010c0b300eb0f5500e08f5d008d003600bd
:1052900042c0bf004500de007c81570067196000f6
:1052a00093028000ff3ffc0042c0bf007f406000cf
:1052b00001ccb3000140700042e0b70093028800c7
:1052c00070ed80000008eb0080ed80009000780019
:1052d000114978001008e80080ed80009000780007
:1052e00091407800f1e79f001008e80080ed800011
:1052f0009000780091407800214198001008e80063
:1053000080ed8000900078009140780091ef9f0040
:105310001008e80080ed800090007800914078004f
:10532000e1ef9f001008e80080ed80009000780019
:1053300091407800f1ef9f001008e80080ed8000b8
:10534000900078009140780081f79f001008e800f5
:1053500080ed8000900078009140780091f79f00e8
:105360001008e80080ed80009000780091407800ff
:10537000a1f79f001008e80080ed80009000780001
:1053800091407800b1f79f001008e80080ed8000a0
:105390009000780091407800c1f79f001008e80065
:1053a00080ed80009000780091407800d1f79f0058
:1053b0001008e8003100200070ed8000010878003e
:1053c00092028000ff3ffc00afb09700c508dd00ef
:1053d00042c0bf007f4060000140700042e0b70063
:1053e000920288006c055500e0855d006000b80001
:1053f000d0b79f00e1b79f000c40780010c1b20009
:105400000080fb000000ea004f04de00d0c0b300c3
:1054100008445000f68457006033b80014002000a0
:1054200005002000890078003fb19700cfb19700b8
:1054300008407800dafd07000004e0002100320097
:105440007fb097008fb897000080ea008180ea0063
:105450005fb19700efb19700000261000180610029
:105460006101b800c010dd00000020006121b8001b
:1054700002007000838070001fb99700afb99700d9
:105480000200700083807000d0b79f00e1b79f00da
:105490006033b80014002000050020008900780067
:1054a0003fb19700cfb19700084078000fff070089
:1054b0000004e00003003200eb0f5500e08f5d00b8
:1054c00073ff3e000080fb004f0678004f05be00d2
:1054d0004f04be000080fa00000006000400fa003d
:1054e000889fbe008a9fbe008c1f7800c0f79f0077
:1054f000810478000205be00040678006011b8003f
:10550000110020006c8057002f0007000044780035
:105510000004e000220032006011b80011002000f9
:105520006e805700bf000700004478000004e000d0
:105530001b003200aff097004ff0970080cf500073
:105540000f003a006011b800890078000a00780066
:105550001d000700004478000004e0001000320045
:105560006011b8008b0078000c007800ad000700d7
:10557000004478000004e0000d003a000800370005
:105580000044eb000104e00005003a006011b8009f
:10559000110020006e805700a20007000044eb00bd
:1055a0004006200001002000782e020001000000cb
:1055b0000880fb004f0678004f05be004f04be0078
:1055c0000080fa00000006000200fa00889fbe007a
:1055d0008a9fbe008c9fbe00800578000105780080
:1055e0000206be000001eb001212880002128800c1
:1055f00042c0bf004500de006700600090bf9f0012
:1056000093028000ff3ffc0042c0bf007f4060006b
:1056100001ccb3000140700042e0b7009302880063
:1056200070ed800002087800e00f5600e08f5e0009
:105630005d0032000c00be00ba3402000100000020
:10564000590037000042eb006400370008002f00cb
:1056500019002000e00f5600e08f5e0007003200c6
:1056600080ed8000900078003141780001087800da
:105670000281fb0042128800020037003b80fb00e1
:105680004012880040128000350107000042780077
:10569000e422a8000004e0002100320041e2a8005a
:1056a0000a05e90040c2bf000018a300450032000f
:1056b00008002f001900200061045400e0845c0001
:1056c00040c2bf000018a30004003200e00f5400e5
:1056d000e08f5c000f003200f7ff3700e00f54004e
:1056e000e08f5c000b0032003600370008002f000e
:1056f0001900200061045400e0845c0040c2bf0037
:105700000008a30003003a00e00f5400e08f5c00a3
:10571000f8ff3a0041e2a900dc82a90040128000b3
:10572000e00f5400e08f5c00c6ff32000a00e0008a
:105730002a003200e70165001f003a003100200016
:1057400070ed80000108780092028000ff3ffc00ad
:105750009fb89700c508dd0042c0bf007f406000d1
:105760000140700042e0b7009202880042c0bf00d2
:105770004500de006700600090bf9f00920280003d
:10578000ff3ffc0042c0bf007f40600001ccb3007f
:105790000140700042e0b7009202880070ed800086
:1057a000030878000400370014c0b3000a00e000ca
:1057b0000a003200a5ff37000404e00007003200b1
:1057c000a4ff370040c2bf0008002f0019002000ce
:1057d0000008a300cfff3a00c4ff370031002000cb
:1057e00070ed80000108780092028000ff3ffc000d
:1057f0009fb89700c508dd0042c0bf007f40600031
:105800000140700042e0b700920288000480fb0073
:105810004f06be004f05be004f04be000080fa00d8
:10582000000006000200fa00889fbe008a9fbe00aa
:1058300080047800010478000205be000001eb003e
:10584000121288000212880042c0bf004500de002c
:1058500067006000b0bf9f0093028000ff3ffc0024
:1058600042c0bf007f40600001ccb3000140700027
:1058700042e0b7009302880070ed800002087800d3
:10588000e00f5500e08f5d00030032000a00be000b
:10589000ba3402000100000016c0b3000800e000a6
:1058a0005c003200f00f200040128800ac000700be
:1058b0000043780041e2a80002002f0013002000fe
:1058c0000004e000180032004c00370002002f00f6
:1058d0001300200061015100e081590040c2bf0067
:1058e0000008a30003003a00e00f5100e08f5900c8
:1058f000f8ff3a00e00f5500e08f5d00070032002e
:105900004112800080ed800010007800014878008e
:1059100080ed80001008e80002003700401280008f
:10592000805c78000804e90041e2a900e00f510022
:10593000e08f590002003a000043eb001e003700e0
:105940000800e0001c003200e70164001a003a0081
:105950003100200070ed8000010878009202800084
:10596000ff3ffc00bfb89700c508dd0042c0bf0084
:105970007f4060000140700042e0b7009202880062
:1059800042c0bf004500de0067006000b0bf9f005e
:1059900092028000ff3ffc0042c0bf007f406000d9
:1059a00001ccb3000140700042e0b70092028800d1
:1059b00070ed80000308780002002f001300200023
:1059c0000082eb008082eb00dac2bf000038a30047
:1059d0000500320061015100e0815900840f51003f
:1059e000858f5900f8ff3a000800e00009003200f6
:1059f0000604e00007003200aaff370040c2bf00e3
:105a000002002f00130020000008a300b9ff3a0095
:105a1000aeff37003100200070ed800001087800f3
