:020000040000FA
:103E00007011031970157013031B7017F012831AC9
:103E1000F01683160317EF006430F00503089B3992
:103E2000F0040408EE000A08ED000E08EC000F088C
:103E3000EB001F308A000D118D150D13E7140208D9
:103E4000E500C2308200E7106A0882070000382FC0
:103E5000552F572F942FA52FAB2FEA01E7100208FB
:103E6000E500C23082000208E500C23082001E2F49
:103E70000208E500C23082000730EA000208E500CF
:103E8000C23082000230EA000208E500C23082003F
:103E90000030EA000208E500C23082000130EA008A
:103EA0000208E500C23082001E2F6710582F6714E9
:103EB0000208E500C2308200E7140208E500C230C3
:103EC00082006A0884000208E500C2308200831381
:103ED0006A08031D83170208E500C23082006A08E1
:103EE000E9000208E500C23082006A08E800E9083B
:103EF000031DE80A6718872F0008EA00E710020888
:103F0000E500C2308200840A031983178F2FE7145B
:103F10000208E500C23082006A088000840AE90BCA
:103F20007A2FE80B7A2F1E2F0208E500C23082009C
:103F30006B08EA000208E500C23082006C08EA0063
:103F40000208E500C23082001E2F0208E500C230E0
:103F500082008E12B02F0208E500C23082008E1659
:103F60000D156D088A006E088400700883008316A2
:103F70000317EF0E6F0E8316F01E83120317701FC8
:103F8000031308008D1BC22F0D17C62F8D1FC62FC0
:103F90000D130000CB2F0830E600E71CDA2F8D153B
:103FA0000D17D22F03108D1B03140D13EA0DE60B12
:103FB000D02FE62F8D11EA0D0D17DE2F8D1303186C
:103FC0008D17E22FE32F0D13E60BDB2F8D138D15CD
:063FD0006508033E8200BB
:00000001FF
