:020000040000FA
:103E00007011031970157013031B7017F012831AC9
:103E1000F01603178316EF006430F00503089B3992
:103E2000F0040408EE000A08ED000E08EC000F088C
:103E3000EB001F308A0006138617831206138316C1
:103E4000E7140208E500C8308200E7106A0882071C
:103E500000003A2F572F592F962FA72FAD2FEA0189
:103E6000E7100208E500C83082000208E500C8300B
:103E70008200202F0208E500C83082000630EA00E8
:103E80000208E500C83082000130EA000208E500BF
:103E9000C83082000030EA000208E500C830820025
:103EA0001130EA000208E500C8308200202F6710B8
:103EB0005A2F67140208E500C8308200E714020890
:103EC000E500C83082006A0884000208E500C830B6
:103ED000820083136A08031D83170208E500C830B7
:103EE00082006A08E9000208E500C83082006A081A
:103EF000E800E908031DE80A6718892F0008EA00AE
:103F0000E7100208E500C8308200840A031983170D
:103F1000912FE7140208E500C83082006A0880008B
:103F2000840AE90B7C2FE80B7C2F202F0208E50088
:103F3000C83082006B08EA000208E500C830820041
:103F40006C08EA000208E500C8308200202F020851
:103F5000E500C83082008E12B22F0208E500C8309A
:103F600082008E166D088A006E0884007008830037
:103F700003178316EF0E6F0E0617F01E8312701FC5
:043F8000031308001F
:103F90008312861BC92F0617861FCC2F061300001D
:103FA0000000000083160830E600E71CE52F8617A6
:103FB000831206170310861B03148316EA0D83125F
:103FC00006138316E60BD82FF52F861383120617D8
:103FD0008316EA0D0318EF2F83128613F12F831235
:103FE000861706138316E60BE62F86176508033E31
:023FF00082004D
:083FF8000600010000001100A9
:00000001FF
