:020000040000FA
:100C0000FF3FFF3FFF3FFF3FFF3FFF3FFF3FFF3FF4
:100C1000FF3FFF3FFF3FFF3FFF3FFF3FFF3FFF3FE4
:100C2000FF3FFF3FFF3FFF3FFF3FFF3FFF3FFF3FD4
:100C3000FF3FFF3FFF3FFF3FFF3FFF3FFF3FFF3FC4
:100C40003F000C100C120C118C15CF000308CB00C8
:100C50000408CD000508CE000A08CC008A016D0802
:100C6000CA00310011083F00C500310012083F00E2
:100C7000C600310013083F00C700310014083F00D0
:100C8000C800310015083F00C9003D270B00113294
:100C900015321E321F3233323C323E320A320932B2
:100CA0003E324A325F3267327532AC32873293322B
:100CB000B23203015A2703015A27E7335A27183063
:100CC0005A2704305A2700305A2708305A27DD3374
:100CD0004110013241145A273D2784003D278500E9
:100CE0009B274118033200085A2702323D27800013
:100CF000840A0319850AA227031DF333C6335A2732
:100D00001030ED006E085A276F085A274A08ED0088
:100D1000BC335A278D1289325A278D1686325A27AC
:100D200086279B2731001513310015149427AA2715
:100D3000A227031DF933A9335A2786279B27C236DA
:100D4000C203310015131512151595168D277F272F
:100D5000AA273F00C20BFA338D27310095127F2757
:100D6000151193335A2786273100151315161515BB
:100D70007F2715118A335A2786279B27310015179D
:100D800031001514310013085A27AA27A227031D82
:100D9000F7337B335A2786279B2731001517151207
:100DA00015153D27310093007F279518FE33AA279C
:100DB000A227031DF6333100151167335A27862702
:100DC0009B2731001517310015149427AA27A22755
:100DD000031DF9335A335A2786279B27C236C2038D
:100DE000310015171512151595168D277F27AA277F
:100DF0003F00C20BFA338D27310095127F27310057
:100E0000151143335A278627310015171516151566
:100E10007F2715113A335A271030ED003D27EE0099
:100E20003D27EF004A08ED0030333F00490831000C
:100E300095003F004808310094003F00470831000A
:100E400093003F004608310092003F004508310002
:100E500091003F004C088A004D0884004E08850030
:100E60004A08ED004B088300CF0E4F0E0C12000015
:100E70008C1200000C158C1504003F008C151030EE
:100E80007A278C1BFE330C1679278C1FFE330C122D
:100E900079270F307A270830C0008C150C16792777
:100EA00003108C1B03140C12C40DC00BF733440841
:100EB0008C1508003F00C4008C1510307A278C1B5D
:100EC000FE330C1679278C1FFE330C1279270F3056
:100ED0007A270830C0008C11C40D0C16792703182E
:100EE0008C16031C8C1279270C12C00BF5338C1551
:100EF000080008003F00C000C00BFE3308003100AE
:100F000055309600AA309600951408003D27310010
:100F100091003D273100920008003D2731009300E9
:100F20003D27310094000800310013085A27310092
:100F300014085A2708003D273F00C2003D273F0004
:100F4000C30008003F000130C2020301C33B420856
:0E0F5000430408003100910F0800920A0800C7
:00000001FF
