:020000040000FA
:103E00007011031970157013031B7017F012831AC9
:103E1000F01603178316EF006430F00503089B3992
:103E2000F0040408EE000A08ED000E08EC000F088C
:103E3000EB001F308A0006138617831206138316C1
:103E4000E7140208E500C4308200E7106A08820720
:103E500000003A2F572F592F962FA72FAD2FEA0189
:103E6000E7100208E500C43082000208E500C43013
:103E70008200202F0208E500C43082000930EA00E9
:103E80000208E500C43082000130EA000208E500C3
:103E9000C43082000130EA000208E500C43082002C
:103EA0000030EA000208E500C4308200202F6710CD
:103EB0005A2F67140208E500C4308200E714020894
:103EC000E500C43082006A0884000208E500C430BE
:103ED000820083136A08031D83170208E500C430BB
:103EE00082006A08E9000208E500C43082006A081E
:103EF000E800E908031DE80A6718892F0008EA00AE
:103F0000E7100208E500C4308200840A0319831711
:103F1000912FE7140208E500C43082006A0880008F
:103F2000840AE90B7C2FE80B7C2F202F0208E50088
:103F3000C43082006B08EA000208E500C430820049
:103F40006C08EA000208E500C4308200202F020855
:103F5000E500C43082008E12B32F0208E500C430A1
:103F600082008E16B32F6D088A006E0884007008D8
:103F7000830003178316EF0E6F0E0617F01E8312D1
:063F8000701F031308008E
:083F88008312861BC52F0617EA
:103F900000000000000000000000861FCD2F061367
:103FA00000000000000083160830E600E71CE82F40
:103FB000861783120617000000000310861B0314E7
:103FC0008316EA0D831206138316E60BD92FF82FFA
:103FD0008613831206178316EA0D0318F22F831235
:103FE0008613F42F8312861706138316E60BE92F28
:103FF00086176508033E82000900010001000000E9
:00000001FF
