:020000040000FA
:100600005F1103195F15DF12831ADF16DE006430F5
:10061000DF0503089B39DF040408DD000A08DC005D
:10062000031783160E0803138312DB0003178316C8
:100630000F0803138312DA0003308A0083160513B0
:10064000851783120513D6140208D400D030820017
:10065000D6105908820700003D2B5A2B5C2B992B92
:10066000AA2BB22BD901D6100208D400D0308200B8
:100670000208D400D0308200232B0208D400D030EE
:1006800082001230D9000208D400D030820001303C
:10069000D9000208D400D03082000030D90002080E
:1006A000D400D03082001130D9000208D400D030FC
:1006B0008200232B56105D2B56140208D400D03034
:1006C0008200D6140208D400D03082005908840079
:1006D0000208D400D030820083135908031D831709
:1006E0000208D400D03082005908D8000208D40093
:1006F000D03082005908D700D808031DD70A5618F1
:100700008C2B0008D900D6100208D400D03082000B
:10071000840A03198317942BD6140208D400D0300E
:10072000820059088000840AD80B7F2BD70B7F2BBF
:10073000232B0208D400D03082005A08D9000208C6
:10074000D400D03082005B08D9000208D400D03039
:100750008200232B0208D400D030820083160317B6
:100760008E12B92B0208D400D030820083160317F2
:100770008E16831203135C088A005D0884005F08EC
:100780008300DE0E5E0E831605178312DF1A8316B2
:060790005F1B03170800C7
:1007A000851BD02B0517851FD32B051300000000D8
:1007B00000000830D500D61CE92B8316851783125C
:1007C00005170310851B0314D90D0513D50BE02B5A
:1007D000F62B8316851383120517D90D0318F22BF8
:1007E0008513F32B85170513D50BEC2B8316851773
:0807F00083125408033E82004D
:00000001FF
