:020000040000FA
:103E00007011031970157013031B7017F012831AC9
:103E1000F01603178312EF006430F00503089B3996
:103E2000F0040408EE000A08ED0083160E08831261
:103E3000EC0083160F088312EB001F308A008316F4
:103E40000613861783120613E7140208E500D03024
:103E50008200E7106A08820700003E2F5B2F5D2F6B
:103E60009A2FAB2FB32FEA01E7100208E500D030FC
:103E700082000208E500D0308200242F0208E5000D
:103E8000D03082001330EA000208E500D030820012
:103E90000130EA000208E500D03082000030EA007C
:103EA0000208E500D03082001030EA000208E50088
:103EB000D0308200242F67105E2F67140208E500BF
:103EC000D0308200E7140208E500D03082006A0892
:103ED00084000208E500D030820083136A08031DC5
:103EE00083170208E500D03082006A08E900020862
:103EF000E500D03082006A08E800E908031DE80AFE
:103F000067188D2F0008EA00E7100208E500D0309E
:103F10008200840A03198317952FE7140208E5002D
:103F2000D03082006A088000840AE90B802FE80BF9
:103F3000802F242F0208E500D03082006B08EA00B1
:103F40000208E500D03082006C08EA000208E500B3
:103F5000D0308200242F0208E500D0308200831682
:103F60008E128312BA2F0208E500D0308200831629
:103F70008E1683126D088A006E0884007008830014
:103F800003178312EF0E6F0E83160617F01E8312AF
:063F9000701F031308007E
:103FA000861BD02F0617861FD32F06130000000094
:103FB00000000830E600E71CE92F831686178312FD
:103FC00006170310861B03140613EA0DE60BE02FF9
:103FD000F42F83168613831206178613EA0D03182F
:103FE00086170613E60BEC2F8613831686178312AB
:063FF0006508033E82009B
:083FF80013000100000010009D
:00000001FF
