:020000040000FA
:101E00007011031970157013031B7017F012831AE9
:101E1000F01603178312EF006430F00503089B39B6
:101E2000F0040408EE000A08ED0083160E08831281
:101E3000EC0083160F088312EB000F308A00831624
:101E40008D120D168C128312E7140208E500CC30B7
:101E50008200E7106A08820700003E2F5B2F5D2F8B
:101E60009A2FAB2FB22FEA01E7100208E500CC3021
:101E700082000208E500CC308200242F0208E50031
:101E8000CC3082003030EA000208E500CC3082001D
:101E90000130EA000208E500CC3082000030EA00A0
:101EA0000208E500CC3082000130EA000208E500BB
:101EB000CC308200242F67105E2F67140208E500E3
:101EC000CC308200E7140208E500CC3082006A08BA
:101ED00084000208E500CC30820083136A08031DE9
:101EE00083170208E500CC3082006A08E900020886
:101EF000E500CC3082006A08E800E908031DE80A22
:101F000067188D2F0008EA00E7100208E500CC30C2
:101F10008200840A03198317952FE7140208E5004D
:101F2000CC3082006A088000840AE90B802FE80B1D
:101F3000802F242F0208E500CC3082006B08EA00D5
:101F40000208E500CC3082006C08EA000208E500D7
:101F5000CC308200242F0208E500CC3082008316AA
:101F60008E12B82F0208E500CC30820083168E1640
:101F700083126D088A006E088400700883000317BE
:101F80008312EF0E6F0E83168D16F01E8312701FD4
:041F9000031308002F
:081F980083160C1ACD2F8C16E4
:101FA000D12F0C1ED12F8C120000D62F8312083097
:101FB000E600E71CE92F83160D1683168C16E02F1A
:101FC00003100C1A03148C128312EA0DE60BDD2F9A
:101FD000F92F83160D1283168C168312EA0D8316C1
:101FE0000C1203180C16F42FF52F8C128312E60B2B
:101FF000EB2F83160C120D1683126508033E820028
:00000001FF
