:020000040000fa
:080000000001040000000000f3
:020000040000fa
:100200002ca3ef006ca3ef00404088001002800098
:10021000f0408800514088006240880073408800a8
:100220008440880095408800ac408800bd4088002c
:10023000cf40880000018000d040880090018000fd
:10024000e0408800103a8000e04188000f842000e0
:10025000e084200000018800000000000228ae00b9
:100260000b003700800f2000900188006000200004
:100270009000ba0070002000010060003c28ef00f0
:10028000c1832000904098000000eb00230207008b
:10029000d00f2000900188002fe8ae000800370042
:1002a000c00f20009001880030042000e5002000ed
:1002b000800abb0070418000e5012000800abb007d
:1002c000d00f2000900188004103200040602a00e8
:1002d0008008bb000028ef00640107000040800098
:1002e00000600100000000001c0037001f00370004
:1002f000290037002a0037001800370017003700a0
:1003000096013700c401370014003700130037008e
:100310009401370011003700370037000f00370015
:100320000e0037000d0037000c0037000b003700bf
:100330000a003700090037000800370007003700bf
:10034000060037000500370033003700cc003700c7
:100350000200370064013700650137000028ef0014
:100360000e0107000d010700daff37000b0107003f
:100370001000200000408800080107000000200055
:100380000040880005010700900720000040880019
:1003900002010700cfff37000208a9000100370063
:1003a0000208a800fd000700450107000c4080007e
:1003b000430107000088bf00c6ff320020408800cc
:1003c0000208ab0005003a00bc4678000028ef00a8
:1003d0000d408800f1000700040037000028ef00fe
:1003e000220107000d4080000d5e78000428ed001a
:1003f000f3ff3a00b7ff3700e80007007001800004
:100400000040880013010700800180000040880040
:10041000e2000700afff3700e00007001100ba005c
:100420000050a0000010a1000020a0008008bb0028
:10043000004320000000e900feff3a003dc8bf0075
:100440007100200001006000b4010700e04180005d
:10045000103a8800e040800090018800d040800081
:1004600000018800cf408000bd408000ac4080008b
:10047000954080008440800073408000624080008e
:1004800051408000f0408000100288004040800011
:1004900000c0da004040880010028000f040880070
:1004a0005140880062408800734088008440880082
:1004b00095408800ac408800bd408800cf4088004f
:1004c00000018000d040880090018000e04088005a
:1004d000103a8000e04188000f842000e084200072
:1004e0000001880000000000d00f2000900188006b
:1004f000810320001100ba00000000000090a70056
:10050000fbff37001100ba00000000000090a700b8
:10051000f7ff3700410320001100ba000030a300ac
:100520000800310007000900000000001100ba00b7
:100530000030a300030031000700090000000000a4
:1005400012003700e0418000103a8800e04080004f
:1005500090018800d040800000018800cf408000da
:10056000bd408000ac408000954080008440800009
:10057000734080006240800051408000f040800065
:10058000100288004040800000c0da00e041800096
:10059000103a8800e040800090018800d040800040
:1005a00000018800cf408000bd408000ac4080004a
:1005b000954080008440800073408000624080004d
:1005c00051408000f04080001002880040408000d0
:1005d0004040880010028000f040880051408800b0
:1005e00062408800734088008440880095408800fd
:1005f000ac408800bd408800cf40880000018000ea
:10060000d040880090018000e0408800103a8000cf
:10061000e04188000f842000e08420000001880071
:1006200000000000000080003c010700d00f200007
:1006300090018800103a800001002700010060004e
:100640000200320000008000340107008103200016
:100650001100ba00000000000090a700fbff370067
:100660001100ba00000000000090a700f7ff37005b
:100670004103200040602a008008bb0015ff3700be
:1006800046000700610320001100ba000080a000ae
:100690008008bb00e0418000103a8800e040800004
:1006a00090018800d040800000018800cf40800089
:1006b000bd408000ac4080009540800084408000b8
:1006c000734080006240800051408000f040800014
:1006d00010028800404080000080da00404088001e
:1006e00010028000f040880051408800624088007d
:1006f000734088008440880095408800ac408800a2
:10070000bd408800cf40880000018000d0408800b4
:1007100090018000e04088000f842000e0842000e9
:100720000001880000000000d00f20009001880028
:10073000610320001100ba000080a1008008bb0006
:10074000dffe3700000120000000e900feff3a0054
:100750001100ba000000a300fdff31000050a1000d
:100760000040a0008008bb00000000000000000066
:100770001100ba000000a300fdff39001100ba000b
:10078000000000000040a1008008bb0070022000b3
:100790000000e900feff3a0000000600e9ff070044
:1007a0001100ba00000000000020a1008008bb007a
:1007b00000000000000000001100ba00000000006e
:1007c0000010a1008008bb00000000008200200093
:1007d0001100ba00000000000040a0008008bb002b
:1007e00000000000000000001100ba0000e8ab00ab
:1007f000020032000010a000010037000010a1002c
:100800008008bb0000000000000000001100ba00da
:10081000000000000040a1008008bb0000000000b4
:100820000068d6001100ba00000000000010a1000e
:100830008008bb000201e900e5ff3a001100ba00a0
:10084000000000000020a0000020a0008008bb00e5
:100850000000060003408000d0ff07000380fd0079
:1008600003408800cdff070000000600b5ff070029
:10087000820020001100ba00000000000040a0002b
:100880008008bb0000000000000000000000000025
:10089000000000000040a1001102ba008008bb0067
:1008a0000400a300010039000008a8000028d400bb
:1008b0000201e900efff3a000028d5000000060021
:1008c0000028ef00e9ff0700034080000028ef0048
:1008d000e6ff0700004080000080fd0080814100ad
:1008e00003408800000006000208a900010037004c
:1008f0000208a800a9ff0700f1ff07000c408000d4
:10090000daff070005408000edff0700004080008f
:10091000304088000208ab0007003a0095018800cb
:10092000bc06ba00d00f2000900188000d4088005e
:10093000c8ff070006003700e1ff07000d408000f8
:10094000950188000d1ebb00d00f2000900188008b
:100950000628ed00efff3a005efe37000248a900ce
:10096000010037000248a8008cff0700d4ff0700f1
:100970000c408000d2ff07000d408000d0ff070030
:100980000040800030408800048320009d018800e2
:100990000248af00130037001c1aba003cdaba0054
:1009a0005cdaba003c1aba001c1aba003cdaba0087
:1009b0005cdaba003c1aba009d018000d00f20001a
:1009c0009001880065002000048320003400780036
:1009d000004088009fff07000a20ed00fbff3a005f
:1009e000070037003c0aba009d018000d00f2000ac
:1009f00090018800804180000040880095ff07003a
:100a00000628ed00e0ff3a0032fe370061e7ab0058
:100a1000feff3a000000060060ff0700a8ff070085
:100a20000c408000a6ff07000d4080002d0007004d
:100a3000800020003040880030002400003b880007
:100a400000022000204088000583200030002000a4
:100a500010418800d00f20009001880098ff070007
:100a600000408000801a78002228ed00fbff3a0049
:100a70009d01880004832000340ebb0034debb00df
:100a800050052000303b8800a00a2000303b880041
:100a900061e7a8000000000000000000dbff070085
:100aa00034eebb00341ebb0050052000303b8800f4
:100ab000a00a2000303b880061e7a8000000000089
:100ac00000000000d1ff07000428ed00deff3a001f
:100ad0000628ed00d8ff3a00d00f200090018800d2
:100ae000fcfd37009d0188000c0ebb002004240093
:100af000003b880050052000303b8800a00a200001
:100b0000303b880061e7a800000000000000000002
:100b1000d00f200090018800000006000228ae00df
:100b2000000006008000780043c7bf00800fb200bd
:100b3000010070003174200082072000a30920000a
:100b4000824878008348780043e7b700217420008a
:100b500010c0b300620420007305200082487800b2
:100b600083487800804878004207af00feff3700d6
:040b7000000006007b
:00000001FF
