:020000040000FA
:100040003F000C120C118C152200EF000308EB008E
:100050000408ED000508EE000A08EC003F006D08FA
:100060002200EA00230011082200E5002300120804
:100070002200E600230013082200E70023001408F2
:100080002200E800230015082200E90080313F002B
:100090000C120C118C1551210B00113215321E322D
:1000A0001F3233323F3242320A3209324332523245
:1000B00069327232813203329432A232B832030191
:1000C000752103017521E73375210930752104304D
:1000D00075210030752100307521DD33611001324A
:1000E000611475215121840051218500C1216118BD
:1000F000033200087521023251218000840A03195D
:10010000850AC821031DF333C63375213F00103023
:10011000ED006E0875213F006F0875216A083F00E9
:10012000ED00B93375213F008D12903275213F00EB
:100130008D168C327521AC21C12123001513951722
:100140002300151400000000BA21D021C821031D8E
:10015000F733A1337521AC21C121E236E20323003C
:1001600015139517151215159516B321A321D02136
:100170002200E20BFA33B32123009512A3212300BE
:10018000151189337521AC21230015139517151608
:100190001515A32115117F337521AC21C121230031
:1001A0001513951323001514230013087521D0216E
:1001B000C821031DF7336F337521AC21C121230002
:1001C0001513951315121515512123009300A32122
:1001D0009518FE33D021C821031DF63323001511D5
:1001E0005A337521AC21C1212300151723001514A2
:1001F00000000000BA21D021C821031DF7334B3382
:100200007521AC21C121E236E20323001517151236
:1002100015159516B321A321D0212200E20BFA3344
:10022000B32123009512A321230015113433752126
:100230003F001030ED0051213F00EE0051213F0002
:10024000EF0022006A083F00ED0025332200690814
:10025000230095002200680823009400220067080C
:100260002300930022006608230092002200650804
:100270002300910022006C088A006D0884006E083B
:1002800085006A083F00ED0022006B088300EF0E36
:100290006F0E3F000C1200008C1200000C158C1524
:1002A00004003F008C1510309E213F008C1BFE3354
:1002B0000C169D218C1FFE330C129D210F309E21A8
:1002C00022000830E0003F008C153F000C169D21F5
:1002D00003108C1B03140C122200E40DE00BF53309
:1002E00064083F008C15220008002200E4003F0053
:1002F0008C1510309E213F008C1BFE330C169D2167
:100300008C1FFE330C129D210F309E2122000830DD
:10031000E0003F008C112200E40D3F000C169D21EF
:1003200003188C16031C8C129D210C122200E00B6A
:10033000F2333F008C152200080008002200E00084
:10034000E00BFE330800230055309600AA309600DB
:100350009514000000000800512123009100512154
:100360002300920008005121230093005121230013
:100370009400080023001308752123001408752138
:10038000080051212200E20051212200E300080070
:1003900022000130E2020301E33B6208630408002B
:0A03A0002300910F0800920A0800E4
:00000001FF
