:020000040000FA
:103E00007011031970157013031B7017F012831AC9
:103E1000F01683120317AF006430F00503089B39D6
:103E2000F0040408AE000A08AD0083160E088312E1
:103E3000AC0083160F088312AB001F308A00831674
:103E40000D118D150D138312A7140208A500CB3098
:103E50008200A7102A08820700003E2F5B2F5D2FEB
:103E60009A2FAB2FB22FAA01A7100208A500CB30C2
:103E700082000208A500CB308200242F0208A50092
:103E8000CB3082000730AA000208A500CB308200A8
:103E90000230AA000208A500CB3082000030AA0040
:103EA0000208A500CB3082000130AA000208A5005C
:103EB000CB308200242F27105E2F27140208A50084
:103EC000CB308200A7140208A500CB3082002A085C
:103ED00084000208A500CB30820083132A08031D4A
:103EE00083170208A500CB3082002A08A900020827
:103EF000A500CB3082002A08A800A908031DA80A43
:103F000027188D2F0008AA00A7100208A500CB30A3
:103F10008200840A03198317952FA7140208A500AD
:103F2000CB3082002A088000840AA90B802FA80BBE
:103F3000802F242F0208A500CB3082002B08AA0076
:103F40000208A500CB3082002C08AA000208A500B8
:103F5000CB308200242F0208A500CB3082008316CC
:103F60008E12B82F0208A500CB30820083168E1661
:103F70000D1583122D088A002E0884007008830016
:103F800083120317AF0E2F0E8316F01E8312031732
:103F9000701F0313080083168D1BCC2F0D17D02F15
:103FA0008D1FD02F0D1383120830A600A71CE62FFB
:103FB00083168D1583160D17DD2F03108D1B03142B
:103FC0000D138312AA0DA60BDA2FF42F83168D1171
:103FD0008312AA0D83160D178D1303188D17F02F5A
:103FE0000D138312A60BE92F83168D138D158312E3
:063FF0002508033E8200DB
:083FF8000700020000000100B7
:00000001FF
