:020000040000FA
:100E00007011031970157013031B7017F012831AF9
:100E1000F01603138312EF006430F00503089B39CA
:100E2000F0040408EE000A08ED00031783160E080C
:100E300003138312EC00031783160F0803138312A6
:100E4000EB0007308A0083160513851783120513FC
:100E5000E7140208E500D4308200E7106A08820730
:100E60000000422F5F2F612F9E2FAF2FB72FEA0177
:100E7000E7100208E500D43082000208E500D43013
:100E80008200282F0208E500D43082000330EA00F7
:100E90000208E500D43082000130EA000208E500D3
:100EA000D43082000030EA000208E500D43082002D
:100EB0001030EA000208E500D4308200282F6710C5
:100EC000622F67140208E500D4308200E71402089C
:100ED000E500D43082006A0884000208E500D430BE
:100EE000820083136A08031D83170208E500D430CB
:100EF00082006A08E9000208E500D43082006A082E
:100F0000E800E908031DE80A6718912F0008EA00C5
:100F1000E7100208E500D4308200840A0319831721
:100F2000992FE7140208E500D43082006A08800097
:100F3000840AE90B842FE80B842F282F0208E50090
:100F4000D43082006B08EA000208E500D430820049
:100F50006C08EA000208E500D4308200282F02085D
:100F6000E500D4308200031783168E12BE2F0208CC
:100F7000E500D4308200031783168E160313831204
:100F80006D088A006E0884007008830003138312C2
:100F9000EF0E6F0E831605178312F01A8316701B5F
:040FA000031708002B
:080FA800851BD42F0517851FDE
:100FB000D72F05130830E600E71CEA2F83168517A4
:100FC000831205170310851B03140513EA0DE60BA6
:100FD000E12FF52F83168513831205178513EA0D6C
:100FE000031885170513E60BED2F85138316851758
:100FF00083126508033E8200030001000000100018
:00000001FF
