:020000040000fa
:020000040100f9
:100200000000fa00efad2000007f2200000188000e
:1002100000000000020007000080fa000000060055
:100220000000fa000000eb0010088800d001070071
:10023000e5020700700207000b000700fdff370012
:100240003200f800881f780008002000980188001c
:100250004f0478000000fa000000fe000080fa0061
:100260003200f900004006000000fa0060508000f3
:100270004c00de00004078000080fb00cf80de00f4
:10028000e200200003002000820f5000838f5800fe
:100290003e003e00006001000e0037000d003700f8
:1002a0000c00370039003700100037001700370006
:1002b0003600370017003700340037001b003700c6
:1002c00020003700270037002800370009003700da
:1002d00022003700d38aa800d3aaa900d3caa90054
:1002e000d3eaa900310007002e0037009c00070068
:1002f0002c003700d38aa800d3aaa800d3caa9002b
:10030000d3eaa9002900070026003700f6000700fd
:1003100024003700d38aa800d3aaa800d3caa90012
:10032000d3eaa900210007001e003700d38aa800e5
:10033000d3aaa800d3caa900d3eaa9001b000700ca
:1003400018003700d38aa800d3aaa800d3caa900ee
:10035000d3eaa900150007001200370023010700a7
:1003600010003700450107000e0037004c01070060
:10037000c0568800d38aa800d3aaa900d3caa9006e
:10038000d3eaa9000900070006003700d38aa800b5
:10039000d3aaa800d3caa900d3eaa9000300070082
:1003a000000000000080fa00000006000000fa00d3
:1003b0009156800000002f00808060000000210026
:1003c000808f5000060032009156800000002f0000
:1003d0008080600000002300808f500003003a00fe
:1003e0000040eb00d2eab7000200370010c0b300b3
:1003f000d2eab700605080004c00de000040780078
:100400000080fb006f0060004800dd009256800015
:10041000f10f2f008100610000807000905688006d
:100420009156800000f020008080600000102000c5
:10043000808f500005003a000fcabf000080fb000b
:100440000080e800a0568800220037009156800006
:1004500000f020008080600000202000808f50008d
:100460000f003a00705080000000d1006300b90016
:10047000000078000080e800a056880070508000de
:100480006100600000407800e04f50001100320031
:10049000a05680000080e800a05688000d003700bc
:1004a0009156800000f020008080600000c0200095
:1004b000808f500005003a0030002000a0568800d0
:1004c000c0568000b056880002003700200020008f
:1004d000a0568800da0107000080fa00000006003c
:1004e0000000fa00f0042400b008880017c1a8003a
:1004f00057052000e7088800a70a2000e7088800c1
:1005000017e1a8000000000000000000000000004b
:10051000b10880000000280000806000e00f50005b
:10052000fbff3a00d38aa800d3aaa900d3caa90026
:10053000d3eaa9009dff07000080fa000000060032
:100540000000fa00d38aa800d3aaa800d3caa90041
:10055000d3eaa90095ff07000080fa00000006001a
:100560000400fa00881f78000ecabf000080fb005c
:10057000a002880030002400b0088800905080005d
:10058000000f780080508000100798001e0078004f
:100590009e0090008008bb0017c1a80058052000ed
:1005a000e8088800a80a2000e808880017e1a800e9
:1005b0000000000000000000080f780000000000ac
:1005c000b10880000000280000806000e00f5000ab
:1005d000fbff3a00d38aa800d3aaa900d3caa90076
:1005e000d3eaa90071ff07004f0478000080fa00e9
:1005f000000006000400fa00881f78000ecabf0041
:100600000080fb00a002880030002400b0088800b1
:1006100090508000000f78008050800010079800f4
:100620001e0078009e0090008008bb000fcabf002b
:100630000080fb00000f78001e0078009e009000f4
:1006400080c8bb0017c1a80058052000e808880032
:10065000a80a2000e808880017e1a80000000000b0
:1006600000000000080f780000000000b1088000c2
:100670000000280000806000e00f5000fbff3a00ff
:100680001e0090001004ba00080f7800d38aa90059
:10069000d3aaa800d3caa900d3eaa9009050800029
:1006a0009e0f50000c003a001e00900010c4ba00cb
:1006b000080f78001e007800804078000fcabf0045
:1006c00080cf500004003a00d38aa800d3aaa90022
:1006d000d3caa900d3eaa90034ff07004f04780069
:1006e0000080fa000000060010002400b008880016
:1006f000c5a020000000eb0025449000a504900058
:1007000066834200a8028800890378000001200067
:10071000b60bbb00b6dbbb00b6ebbb00b61bbb0029
:10072000b60bbb00b6dbbb00b6ebbb00b61bbb0019
:100730000000e900f6ff3a0017c1a80057052000a5
:10074000e7088800a70a2000e708880017e1a8004a
:100750000000000000000000b008800000f0a300ce
:10076000fdff3100050007004c00dd0021ad200039
:10077000800878000dff070000000600c0a02000e0
:100780008000eb0020449000a0049000c7002000ef
:10079000e6014000a802880089027800f4012000e8
:1007a0001503ba003330e1000b003a00b5dbba00a4
:1007b000d5d3ba003330e10007003a003503ba0060
:1007c0003330e10004003a000402e900f4ff3b008a
:1007d000100020000100370020002000000006006b
:1007e0005420ef00e7ff2f0005003700c0a02000d5
:1007f000b0019000a3028800c0019000e283510084
:100800000082eb00e6ff2f00c0a0200090019000c6
:10081000200190001200b1000380b1000e003200f0
:100820005700ba000480e7000900370017c0ba007b
:100830000484e700060037000730e100f5ff3a00c6
:10084000a00280000000e800a0028800f1ff37004d
:10085000f100200001003700010f200000e021001e
:100860000100700023ad20008019780020002000d6
:1008700080097800f2000700000006005103200004
:1008800000b021000100700021ad20008018780028
:100890002000200080087800e90007000000060022
:1008a0000c00fa006000b80020079800310798009b
:1008b0006000b80040079800510798007050800011
:1008c0004800de006f406000004f780070508000ec
:1008d0004c00de00004078000080fb00e0568800fd
:1008e000640047008080e8000ecabf00804878009e
:1008f000805080006101b8002e009000be00900082
:100900000000710081807100200798003107980075
:10091000680047000080e8009150800001087800de
:10092000a05080006101b8004e009000de009000f1
:100930000000710081807100400798005107980005
:100940004e009000de0090002e039000be03900049
:100950001e4278000001be000600be002f00070006
:10096000100798001e0090000080fa0000000600aa
:100970000600fa000000eb00100798002100370085
:100980001e0090004800dd00000f780080c0b3001a
:10099000404798000f0037001e007800e00f50001d
:1009a00006003d001e007800000040008000780036
:1009b00010022100008f6800030037001e0078003d
:1009c00000004000000f78004e4090000040e90019
:1009d000404798004e409000e04f5000eeff3a0034
:1009e0000060fe001e00900080004000c0802000db
:1009f000008040001e0878001e0090000000e80003
:100a0000100798009e009000f00f2000808f50008b
:100a1000dbff34000080fa00000006001400fa003a
:100a2000500798006107980072079800030f98001c
:100a3000245798000080eb00000f78000000eb00c6
:100a4000100798005e019000ee0190000000200069
:100a500011002000020140008381480000002000b6
:100a6000f1ff2f0002027800030178008001780076
:100a70000100780003026200000061000100200014
:100a8000c000dd00000020000001be006120b800b1
:100a900000017100818171003207980043079800be
:100aa000460037007e0090008e0890000001400054
:100ab000818148005e009000ee009000020140003d
:100ac000838148003e009000ce009000800f5100ce
:100ad000818f59001a0039003e019000ce0190002c
:100ae0005e009000ee0090000000510081805900ef
:100af0008100d1000080d300200798003e019000c3
:100b0000ce019000000020001100200002004000f3
:100b10008380480030079800410798002e0090001d
:100b2000010020007e0190008e099000000051001d
:100b30008180590070079800010f98000500370068
:100b40007e009000200798006000b80070079800b1
:100b5000010f9800e0568000e00f500007003a00b7
:100b60009e0178002e0190005e009000ee00900043
:100b7000ab000700000f7800060037009e019000d0
:100b80002e0190005e009000ee009000cb00070068
:100b9000100798002e009000010020000000400087
:100ba000818048005e019000ee019000020040004c
:100bb0008380480050079800610798007e009000ed
:100bc0008e089000e00f5000e08f5800b5ff3a000b
:100bd000e0568000e00f500003003a001e0078004d
:100be00001002000020037001e00900001002000dc
:100bf0000080fa000000060066000700c7a0200081
:100c0000801b7800f3ff2000830160008301e9006e
:100c1000040032005f000700801b78008301e900b8
:100c2000fcff3a0001e3a9000050200000188800f2
:100c30000ca3ef0001e3a8000ca3ef0000000600e6
:100c400001e3a9001d000900000000000040200091
:100c50000018880001e3a80027ad200037007800c5
:100c600060188800370078004f00070020ad200092
:100c7000900290008582e900380032001040900018
:100c8000f040b20011c0b3000104e1000a003a00d4
:100c9000c0a02000a04090008180fb00a10288003d
:100ca000a00390003700ba003f0007008502e9006a
:100cb000fcff3a002900370021c0b3000104e10025
:100cc0002e003a00c0a02000900290000503d10041
:100cd0004000b0009040780001047800d000780017
:100ce000810378000500e9001500320001002000b2
:100cf000a8028800000000009708ba002a00070038
:100d000097d8ba002700b0000880b000a802880079
:100d10000000000097d0ba00230007001700ba00b7
:100d2000210007002700b0000880b000a80288005a
:100d30000603e900eeff3a000500a60007003700b1
:100d4000a8028800000000001700ba001600070083
:100d500017c0ba000080fb00130007000060fe000f
:100d600008e3ae00fdff370001e3a9000183a800fe
:100d700001e3a8006118800000000600c1c0b300b4
:100d80000104e100f5ff3a00370078000600070093
:100d9000f2ff37000060fe000803ae00fdff3700e1
:100da0006018800000000600811f78000060fe00cf
:100db0000863ae00fdff37006118800060188800ee
:100dc000cf0078000000060010028000000ab30087
:100dd000100288008821ef009221ef009c21ef0093
:100de000a820ef00c020ef00a880a800a900a8005c
:100df000c100a8009520a8009540a8009b40a8002d
:100e00001463a8001403a800004021000018880003
:100e1000000020004018880001e3a8000000060040
:100e200046052000010b780080037800a680200092
:100e3000020b78000a28d500c8802000620020003c
:100e400006802000171bba0037dbba0057dbba0058
:100e5000371bba0004802000350020008000eb0022
:100e60000060fe000380fd0003407800b448680085
:100e70000160ef000000d200080040008041eb005c
:100e8000108969000380fd0003407800b4486800c1
:100e90000160ef000000d200080040008041eb003c
:100ea000108969000a20ed00edff3a000a28ed00e4
:100eb000e3ff3a000300780000000600460520002a
:100ec000010b7800800378000060fe000002eb0058
:100ed0001782ba00b702ba000004eb00054478009c
:100ee000c82ade00050242000802420083014200d7
:100ef0000201e900f4ff3a00030078000000060058
:020000040000fa
:020000040100f9
:100f0000da0a000002000000800000000c0a000065
:100f1000ce000000800000000c080000000200006d
:100f200080000000dc0a00000200000082000000d7
:100f300000000000000800000c000000800000001d
:040f400000000000ad
:020000040000fa
:020000040100f9
:080fe000ce0000003500000006
:020000040000fa
:020000040100f9
:080000008000040080000000f4
:020000040000fa
:020000040100f9
:100008002001800020018000200180002001800064
:100018002001800020018000200180002001800054
:100028002001800020018000200180002001800044
:100038002001800020018000200180002001800034
:100048002001800020018000200180002001800024
:100058002001800020018000200180002001800014
:100068002001800020018000200180002001800004
:1000780020018000200180002001800020018000f4
:1000880020018000200180002001800020018000e4
:1000980020018000200180002001800020018000d4
:1000a80020018000200180002001800020018000c4
:1000b80020018000200180002001800020018000b4
:1000c80020018000200180002001800020018000a4
:1000d8002001800020018000200180002001800094
:1000e8002001800020018000200180002001800084
:1000f8002001800020018000200180002001800074
:100108002001800020018000200180002001800063
:100118002001800020018000200180002001800053
:100128002001800020018000200180002001800043
:100138002001800020018000200180002001800033
:100148002001800020018000200180002001800023
:100158002001800020018000200180002001800013
:100168002001800020018000200180002001800003
:1001780020018000200180002001800020018000f3
:1001880020018000200180002001800020018000e3
:1001980020018000200180002001800020018000d3
:1001a80020018000200180002001800020018000c3
:1001b80020018000200180002001800020018000b3
:1001c80020018000200180002001800020018000a3
:1001d8002001800020018000200180002001800093
:1001e8002001800020018000200180002001800083
:0801f8002001800020018000bd
:00000001FF
